:020000040000FA
:100000007827012005DB00008FF00100F1DA000005
:10001000F1DA0000F1DA0000F1DA0000F1DA0000B4
:10002000000000000000000000000000D5DC00001F
:10003000F1DA00000000000095DC0000F1DA0000B9
:100040005DDE00005DDE00005DDE00005DDE0000C4
:100050005DDE00005DDE00005DDE00005DDE0000B4
:100060005DDE00005DDE00005DDE00005DDE0000A4
:100070005DDE00005DDE00005DDE00005DDE000094
:100080005DDE00005DDE00005DDE00005DDE000084
:100090005DDE00005DDE00005DDE00005DDE000074
:1000A0005DDE00005DDE00005DDE00005DDE000064
:1000B0005DDE00005DDE00005DDE00005DDE000054
:1000C0005DDE00005DDE00005DDE00005DDE000044
:1000D0005DDE00005DDE00005DDE00005DDE000034
:1000E0005DDE00005DDE00005DDE00005DDE000024
:1000F0005DDE00005DDE00005DDE00005DDE000014
:100100005DDE00005DDE00005DDE00005DDE000003
:100110005DDE00005DDE00005DDE00005DDE0000F3
:100120005DDE00005DDE00005DDE00005DDE0000E3
:100130005DDE00005DDE00005DDE00005DDE0000D3
:100140005DDE00005DDE00005DDE00005DDE0000C3
:100150005DDE0000FFFFFFFF53B94AB9002908BF69
:1001600000281CBF4FF0FF314FF0FF3000F00CB8FB
:10017000ADF1080C6DE904CE00F008F8DDF804E0FC
:10018000DDE9022304B07047704700BF2DE9F04756
:1001900086468C460846089E154674461946002B2E
:1001A00040F0C1808542B2FA82F245D94AB1C2F12B
:1001B000200300FA02FC954094402EFA03F343EA30
:1001C0000C0C4FEA154EA8B2230CBCFBFEF80EFB3C
:1001D00018CC08FB00F943EA0C43994528D9EB18E1
:1001E00008F1FF3704D2994502D9A8F102072B4440
:1001F000A3EB0903A4B2B3FBFEFC0EFB1C330CFB08
:1002000000F044EA0344A04214D92C190CF1FF3346
:1002100004D2A04202D9ACF102032C44241A43EACE
:1002200007401EB1D440002334607360BDE8F087FE
:100230004746DDE76346F1E792BB431B01214FEAE6
:10024000154EAFB2200CB3FBFEFC0EFB1C330CFBB7
:1002500007F840EA0343984561D9EB180CF1FF30E9
:1002600004D2984502D9ACF102002B44A3EB080359
:10027000A4B2B3FBFEFC0EFB1C330CFB07F744EAF5
:100280000344A7424DD92C190CF1FF3304D2A742E5
:1002900002D9ACF102032C44E41B43EA0040C0E75E
:1002A000C2F120039540944020FA03F12EFA03F3A3
:1002B0004FEA154E9040AFB20343B1FBFEFC0EFB7C
:1002C0001C10190C0CFB07F841EA0041884522D9A3
:1002D00069180CF1FF3004D2884502D9ACF1020054
:1002E0002944A1EB08019BB2B1FBFEFC0EFB1C11E3
:1002F0000CFB07F743EA01439F420ED9EB180CF1C0
:10030000FF3104D29F4202D9ACF102012B44DB1B26
:1003100041EA004193E76046E3E76146F7E760465C
:10032000A4E76346B8E7834206D916B90021084618
:100330007CE7C6E900E0F9E7B3FA83F78FB98342B7
:1003400001D3724508D8BEEB020460EB0303012021
:100350009C461EB9002169E73846FAE7C6E9004C19
:10036000F8E7C7F1200CBB400EFA07F522FA0CF4AF
:100370002EFA0CF1BA401C4320FA0CF3B8404FEAB5
:10038000144901431FFA84FEB3FBF9F809FB183046
:100390000B0C08FB0EFA43EA00439A4540D9E318D8
:1003A00008F1FF3004D29A4502D9A8F10200234493
:1003B000A3EB0A0389B2B3FBF9F809FB183308FB76
:1003C0000EFE41EA03418E452CD9611808F1FF3336
:1003D00004D28E4502D9A8F10203214443EA004029
:1003E000A1EB0E01A0FB02984145CE46434602D345
:1003F00006D14D4504D20138B9EB020E68EB040377
:10040000002EA7D0B5EB0E0261EB030101FA0CFC44
:1004100022FA07F3F9404CEA0303C6E9003199E7F1
:100420004046C5E74346D9E710F8012B11F8013BD8
:10043000012A28BF9A42F7D0D01A7047034611F814
:10044000012B03F8012B002AF9D17047034613F85A
:10045000012B002AFBD1181A013870470000000058
:10046000F7B5002140F6034001AA0EF097FE0446BE
:10047000002840F0A780019CE3681B7863B90FF067
:100480004DFD524BD3E8AF2F02F00902D3E8EF1F26
:10049000C3E8E02F0028F9D120460DF0E5FF002148
:1004A00041F2030001AA0EF079FE0446002840F054
:1004B0008980019A464DD16805F17803D1F8010091
:1004C000D1F8051003C310460DF0CEFF214641F2CE
:1004D000010001AA0EF062FE0446002872D10198C4
:1004E000C3685A7885F870205A88A5F872201A795E
:1004F00085F87120B3F80720A5F87420B3F805300B
:10050000A5F876300DF0B0FF214641F2020001AAB5
:100510000EF044FE0446002854D1019F05F18006E8
:10052000FA68531C4132344618685968083303C4CA
:1005300093422646F7D138460DF096FF0FF0DAFECB
:10054000044600283ED195F88A309A0634D5072112
:1005500040F633400EF034FC0646002800F044819B
:1005600007210C301EF071FE6FF0090301270370A4
:100570001823C0F802408471047122464770C3708A
:10058000314640F633400EF009FE0446D0B93946F4
:1005900040F631400EF014FC0646002800F024819D
:1005A00039460C301EF060FE2246314640F631409E
:1005B0000EF0F4FD044628B995F87C305B0609D4AA
:1005C0006FF01204204603B0F0BD00BF840100208C
:1005D000B0000020002142F2030001AA0EF0DEFD6F
:1005E00004460028EED1019BB54EDA68D2F801002E
:1005F000D2F8051003C618460DF036FF214642F228
:10060000020001AA0EF0CAFD04460028DAD1019CBE
:10061000E368B3F8012091B249B1D97839B1A5F8AE
:100620000421DA78114606F1280024F07AFA2046EF
:100630000DF01AFF95F87C6016F0200618D1022103
:1006400040F66D400EF0BCFB0446002800F0CC8064
:1006500002210C301EF0F9FD012321460370467083
:10066000324640F66D400EF099FD04460028A9D1AF
:1006700095F89C301F0712D5002142F21C0001AAF8
:100680000EF08CFD044600289CD10198C368D3F875
:100690000120D3F80530C5E938230DF0E5FE95F8C3
:1006A000D8309E0624D568460DF102011FF01BFAD2
:1006B0000446002886D1042142F224000EF080FB7B
:1006C0000646002800F0908004210C301EF0BDFD8D
:1006D000BDF8003022460380BDF802303146438029
:1006E00042F224000EF05AFD044600287FF46AAF5F
:1006F00095F8D8305C0610D5002142F22A0001AAF4
:100700000EF04CFD044600287FF45CAF0198C368EE
:100710005B7885F820310DF0A7FE082142F2010038
:100720000EF04EFB044600285ED008210C301EF06F
:100730008CFD95F8D81040F2022311F0400F08BF4D
:100740000323024688074CBF43F02C0043F00C0003
:1007500095F8D9308F0648BF40F0400013F0090FDC
:1007600095F8A23018BF40F4006003F00603CE07EE
:1007700048BF40F01000062B08BF40F4C0700021B5
:100780001EF0E8FF2146002242F201000EF006FDB5
:10079000044600287FF416AF95F87C30B5F80411B4
:1007A000980624D4C9B941F2050001AA0EF0F6FC5E
:1007B000044600287FF406AFB5F80431019C4BB91C
:1007C000E368B3F80120A5F804219A883D48114652
:1007D00024F0A7F920460DF047FE082140F601401D
:1007E0000EF0EEFA044638B96FF06804EAE6002924
:1007F000F3D16FF00404E5E608210C301EF025FD6E
:1008000095F8D8300246D90752D44FF000512E48FF
:100810001EF0A0FF2146002240F601400EF0BEFC73
:10082000044600287FF4CEAE014601AA4FF60140EF
:100830000EF0B4FC044620BB01980DF015FE2146D5
:100840004FF6024001AA0EF0A9FC0446C8B901986F
:10085000C368B3F80130A5F8C1300DF005FE95F876
:10086000C1305B070DD521464FF6034001AA0EF0BB
:1008700095FC30B90198C3685B7885F8C0300DF0FD
:10088000F3FD1FF0C5FA044600287FF49BAE10F07C
:10089000EDFD044600287FF495AEEB79002B3FF484
:1008A00091AE082109481EF098FE0EF057FB89E62C
:1008B00001A1D1E90001ABE790880002008000208F
:1008C00088010020B8010020108800028401002067
:1008D00000231846054A06491370064A13701A0287
:1008E0000133302B8854FAD1704700BFBE960020E8
:1008F000BF960020BD9600200128024605D0044B7B
:100900000448022A08BF184670470348704700BFD2
:10091000717A0200AE640200AA640200A0F16103D1
:10092000192B98BF2038C3B20020054A12F8011BCA
:10093000994204D001300828F8D14FF0FF307047B9
:10094000E894020008B560210346054A05481BF0FB
:10095000DDF9BDE8084004490448FFF76FBD00BF5A
:100960000DA802005D9600201BC90200C0060020F1
:100970002DE9F04F87B00D461646354901AA80464D
:100980001F461DF03FFD08B1019B43B3404631496E
:1009900001AA1DF037FD58BB0024DFF8BCA0DFF82A
:1009A000BCB01AF8013B1021A3F14102192A98BFEB
:1009B00020335A4602A81BF0A9F9404601AA02A911
:1009C0001DF020FD002839D0DDF80490B9F1000FAA
:1009D00034D10DBB224B04EB44141D551AE0012DFC
:1009E00032D12A4638461F49B04707B0BDE8F08FDC
:1009F000019B002BD0D1FF23012D8DF8083023D18E
:100A00002A46384602A9B047002803DB9DF8082093
:100A1000154B1A700020E8E7202D15D8104B04EB79
:100A200044141C4421224946204624F002FD2A4653
:100A300021463846B04704F80590EBE70134082C0E
:100A4000AFD16FF00100D0E76FF01500CDE700BF28
:100A5000858E0200FB890200E8940200A26A02006F
:100A6000BFC600204EC80020D1060020024B1B78D4
:100A70000BB122F028BF70470CC800200FB407B597
:100A80000B4B1B78012B11D00A490B4A022B18BFC4
:100A900011460A481CF016FF05A9049801910AF0B6
:100AA00033F903B05DF804EB04B070470449F0E794
:100AB0004EC80020717A0200AE640200B3640200E6
:100AC000AA64020008B5074B074A1878074B18704C
:100AD000074B1A60FFF710FFBDE8084001460548C4
:100AE000FFF7CCBF4EC80020444D53426361022043
:100AF000803F0120B96402007FB5144B144C187874
:100B0000FFF7FAFE134B014693F900302678002BCD
:100B1000AABF114A2D23D35C104A92F90020002A63
:100B2000AABF0D482D20805C0D4A15680D4A009023
:100B3000002E18BF224603920B4A0C48CDE9015201
:100B40000B4AFFF79BFF04B070BD00BF4EC80020EA
:100B50005D960020D1060020E8940200D006002017
:100B6000106500205A950200B0060020D2640200F1
:100B7000C00600201FB50F4B1A78012A18D00E4965
:100B80000E48022A18BF01465A780D48C2F3C00326
:100B90000293C2F380030193C2F34003009302F077
:100BA0000103FFF76BFF05B05DF804EB09F0DCBD56
:100BB0000449E9E7C8C70020276502002B65020049
:100BC0003365020020650200022808B502D10748FB
:100BD000FFF754FF0122064B00201A700B225A70B7
:100BE000044B1870BDE8084009F0E4BD7E650200C2
:100BF000C8C70020D206002010B504460120FFF728
:100C0000E3FF012006F084FC2046094C06F0BEFC00
:100C10004FF0FF301BF050FE204606F07FFC2046D0
:100C200006F08EFC2046BDE8104006F09BBC00BFDD
:100C3000B070050008B51048FFF720FF0F48FFF718
:100C40001DFF0F48FFF71AFF0E48FFF717FF0E486A
:100C5000FFF714FF0D48FFF711FF0D48FFF70EFFD8
:100C60000C48FFF70BFF0C48FFF708FFBDE80840F2
:100C70000A48FFF703BF00BFC46502001566020003
:100C80004B660200A76602001C670200756702003F
:100C9000226802005D680200EE680200A36902009B
:100CA00038B502780346BAB10C4C0D4825784FF49C
:100CB00080710C4A00EB05201BF028F830222378C5
:100CC0000133B3FBF2F102FB1133074A23701378AF
:100CD0002F2B9CBF0133137038BD00BFBE96002080
:100CE000BF9600200DA80200BD9600202DE9FF410F
:100CF0000446012217491848A04788B9012217491C
:100D00001748A04760B90646164DDFF85C80174FBC
:100D10002B7843B90136082E05F12105F8D10020C2
:100D200004B0BDE8F08118F806301021A3F14102AB
:100D3000192A98BF20333A4668461AF0E7FF28463A
:100D4000FFF784FB2946421C6846A0470028E1D0F3
:100D5000E6E700BF4EC80020858E0200D1060020C5
:100D6000FB890200BFC60020E8940200A26A0200CC
:100D700030B514220024CBB0214605460DEB02000D
:100D8000049424F056FB4FF480710AA8CDE9004486
:100D9000CDE9024406F058FD044650BB16480AA9A6
:100DA000FFF76CFE1823154904AA0AA81BF097FC4C
:100DB000F8B1294604A8FFF737FBD0B908236A46E3
:100DC0000F490AA81BF08BFC20B168460D49FFF7BC
:100DD0002BFB70B908230C490DEB03020AA81BF08A
:100DE0007EFC30B1074902A8FFF71EFBB0FA80F481
:100DF000640920464BB030BD6C6A02007F6A020075
:100E0000856A0200C3770200906A020010B50446AA
:100E10000D4B8CB01B5C3021A3F14102192A98BF05
:100E200020330A4A68461AF071FF094B04EB441458
:100E30001C442046FFF70AFB2146421C68460BF083
:100E4000B7FC0CB010BD00BFE8940200966A020027
:100E5000BFC60020064B1B78012B04D0022B04D107
:100E60000120FFF703BE0420FBE70220F9E700BFE3
:100E70004EC8002070B504460D461646FFF7E6FA48
:100E8000012818D12078FFF749FD041E36DB1D49E3
:100E900004EB44128B188A5C6AB321211A4A284653
:100EA0001AF034FF194B042130461B5D184A1AF022
:100EB0002DFF002070BD202820D1621E04F11F01EB
:100EC00012F8013FA3F13000092804D923F02003D0
:100ED000413B052B12D88A42F2D12B4604F1200265
:100EE00054F8041B944243F8041BF9D1002385F8FD
:100EF00020303370DDE76FF00100DBE76FF01500A5
:100F0000D8E700BFBFC600200DA80200E894020089
:100F1000AE6A020008B507490748FFF78FFA0022BA
:100F2000064B07491A70FF230B7006490A60064AF0
:100F3000137008BDB16A0200C00600205D96002053
:100F4000D006002010650020D106002038B50D46DF
:100F50001C490446FFF768FA48B120461A49FFF7D2
:100F600063FA20B120461949FFF75EFA28B91549FE
:100F70002846FFF763FA002038BD20461449FFF7E2
:100F800053FA48B120461349FFF74EFA20B12046E4
:100F90001149FFF749FA08B91049E9E72046104915
:100FA000FFF742FA48B120460E49FFF73DFA20B15B
:100FB00020460D49FFF738FA08B90C49D8E76FF019
:100FC0001500D9E7AA6D0500E4CB0200B66A02005D
:100FD000BB6A0200C36A0200C3770200CB6A020048
:100FE000D36A0200D86A0200DC6A0200DE6A0200EC
:100FF0002DE9F0474FF0FF3A07460026D046DFF8CC
:10100000589006F009FB044606F0C6FA444505462A
:1010100001D1504507D02B46224631464846FFF7BE
:101020002DFDAA46A0462C4313D040F6CD4000210A
:1010300064361BF084FBBE42E3DB06F0EDFA0446A7
:1010400006F0AAFA2146BDE8F04702460348FFF73A
:1010500015BDBDE8F08700BFE36A02001C6B02000B
:101060002DE9F0474FF0FF3A002457464FF47A78C5
:10107000DFF86C9006F0D0FA064606F08DFABE4214
:10108000054606D1504504D194FBF8F308FB134301
:101090004BB92B46324621464846FFF7EFFCAA469D
:1010A00006F0C0FA3746354318D040F6CD4000214F
:1010B0001BF045FB40F6C41364349C42DAD106F0C1
:1010C000ABFA054606F068FA2A460346214605486B
:1010D000FFF7D4FCBDE8F04706F0A4BABDE8F087FE
:1010E000536B0200986B020070B5C8B00346202114
:1010F0006846104A1AF00AFE19250F4E4FF4807107
:1011000008A806F0A1FB044640B9304608A9FFF73D
:10111000B5FC694608A824F0B9F840B941F69A1020
:1011200000211BF00CFB013DE8D16FF07304204659
:1011300048B070BDE56B02006C6A02002DE9F04317
:101140000728ADF50B7D73D83B4B08211E5C3B4A4D
:10115000334668461AF0DAFD394902A8FFF76EF9FE
:101160000024384FDFF8E080DFF8E0904FF4807122
:101170000AA806F083FB4FF49673B4FBF3F503FB68
:10118000154598BB0AA8FFF78BFD1DB330490AA887
:1011900024F07CF8F0B969460AA824F077F8C8B9B9
:1011A00041F2343000211BF0CAFA40F2DC5396348D
:1011B0009C42DBD16FF073000DF50B7DBDE8F08331
:1011C00069460AA824F062F880B131462148FFF749
:1011D00055FC09E020480AA9FFF750FC1C490AA861
:1011E00024F054F80028EBD00020E5E7002DD7D1FB
:1011F0004FF480714AA806F027FB0028D0D138466A
:101200004AA9FFF73BFC02A94AA824F03FF80028AE
:10121000C6D041464AA824F039F80028C0D0494633
:101220004AA824F033F80028BAD031460B48CEE75C
:101230006FF01500C0E700BFE8940200ED6B0200FC
:10124000F46B02006C6A0200536C02005F6C0200D7
:10125000006C02001F6C02000B6C0200716C02003B
:1012600000212DE9F04FADF5077D8246FC2247A80D
:101270004691142724F0DDF84FF4807106A806F09B
:10128000FDFA002870D106A8FFF70AFD46A906A8B6
:10129000FFF7CAF8002867D0384806A9FFF7EEFB29
:1012A0004FF48071364A06AB46A81AF02FFD354B35
:1012B0000322354906A813F80A9023F0C5FF054616
:1012C000002851D19DF81B304B454DD19DF81C3065
:1012D0002C2B49D14FF064080646034683460DF196
:1012E0001D04227872B9002B3ED0012349461A46CC
:1012F000CDE900682548FFF7C1FB28460DF5077DBD
:10130000BDE8F08FCDF814B0237823F02003413BE3
:10131000192B29D863782C2B26D102340A22204697
:1013200005A91AF03FFD059A039094421CD011784C
:101330002C2919D1541C20460A2205A91AF032FD85
:10134000059A944210D0039B73B11378404506F17F
:10135000010638BF5FFA80F8F6B2002BC5D02C2BFF
:1013600002D10123541CBCE741F69A1000211BF066
:10137000E6F9013F80D16FF07305BEE70B6C020008
:101380000DA80200E8940200A36C0200A76C020002
:10139000002307B50F2001AA074901930FF07CFB3A
:1013A00001990648FFF76AFB4FF4005000211BF03B
:1013B000C6F903B05DF804FB1FC70100E96C020029
:1013C000002008B5124906F0EDFA06F0E5F800280D
:1013D00014DD104B1B688BB90F481BF06EFA0146E9
:1013E0000E48FFF74BFB41F69A1000211BF0A7F9BE
:1013F000BDE8084001200A4906F0D4BA06F0CCF84E
:101400000028F5DD034B07481968FFF737FBEFE7C6
:10141000186D020010650020E8720200276D0200BE
:101420009A6D0200516D02002DE9F04107460E460B
:101430000025DFF84080C0B04FF48071684606F0A8
:1014400003FA044640B969464046FFF717FB3946A0
:10145000684623F01BFF48B941F69A100021C835B1
:101460001BF06DF9AE42E7DC6FF07304204640B02C
:10147000BDE8F0816C6A02002DE9F043C9B0034673
:101480000E4668462021184A1AF040FC0025174FE6
:10149000DFF85C80DFF85C904FF4807108A806F0FC
:1014A000D3F9044690B9384608A9FFF7E7FA694628
:1014B00008A823F0EBFE48B1414608A823F0E6FE59
:1014C00020B1494608A823F0E1FE48B941F69A1038
:1014D0000021C8351BF033F9AE42DDDC6FF0730438
:1014E000204649B0BDE8F083E56B02006C6A02005B
:1014F000536C02005F6C02002DE9F041C0B00D4654
:1015000017461BF0DAF9041E21DB2C78FCB100260B
:10151000DFF844804FF48071684606F0AFF9044666
:1015200058B96846FFF7BCFB69464046FFF7A6FA84
:101530002946684623F0AAFE48B941F2343000211A
:1015400096361BF0FCF8B742E4DC6FF073042046DB
:1015500040B0BDE8F08100BF0B6C02002DE9F04700
:1015600005464F48884605F0D9FF4D4805F0E8FF8D
:10157000012005F0CDFF284605F0F4FF002006F01D
:1015800005F805F06BFE06F007F8002806DD294691
:101590004448FFF773FA0020BDE8F08706F01AF818
:1015A00000282ADC05F05AFE05F096FF424629463F
:1015B0003D48FFF763FA4FF0FF3600244FF47A7985
:1015C000DFF8E8A01BF076F905F054FD05F0E4FF24
:1015D000B042074604D194FBF9F309FB13433BB92E
:1015E0003A4621465046FFF749FA3E4606F01AF8B9
:1015F000002F42DD29462E48CBE729462D48FFF72C
:101600003DFA4FF0FF3600244FF47A77DFF8A890C8
:101610001BF050F9B24605F02DFD05F0BDFF8245E7
:10162000064604D194FBF7F307FB134373B905F0A7
:10163000D1FF3246034621464846FFF71FFA05F020
:10164000F1FF002E02DD29461C48A2E705F0C2FF8B
:1016500048B141F69A1000211BF071F840F6B833FA
:10166000C8349C42D4D105F0F9FD05F035FF42465F
:1016700029460D48FFF702FAA0E741F69A1000212B
:10168000C8341BF05CF8A0459CDC0D482246294676
:10169000FFF7F4F905F0C6FF6FF073007CE700BFB9
:1016A000B0700500AE6D02000F6E0200356F0200D3
:1016B0006A6F0200416E02009E6E0200EA6E020036
:1016C000BE6F020010B5044605F002FE4FF4005054
:1016D00000211BF034F8054804EB4414204443F681
:1016E0009821BDE81040FFF739BF00BFBFC60020FA
:1016F0002DE9F04704466B4ADFF8AC810E1E8CB032
:10170000DFF8A8916A4B4FF0280118BF1346CDF8B7
:101710000080684A02A8684D18BF4D461AF0F6FAD4
:10172000664B04EB44171F4442F6E0613846FFF76E
:1017300015FF28BB4846FFF71BFB002829DB4FF0AD
:101740000109002E50D1002837D02846FFF710FBA2
:1017500000287ADD5A4B2A46195D5A48FFF78EF960
:10176000002027E042F6E0613846FFF7F7FE08BBAD
:101770004E48FFF7FDFA00281CDB4FF00009E0E7B8
:1017800010F1740F16D14E4B4F48195DFFF776F9E3
:101790000BE010F1740F02D010F1800F0AD1484B0A
:1017A0000246195D4948FFF769F92046FFF78AFFAD
:1017B0000028D7D00CB0BDE8F0872846FFF7D8FA4C
:1017C0000028C7DCB2464248FFF7D2FA002804DD01
:1017D0003B4B4048195DFFF751F940F2DC523E495E
:1017E00002A8FFF789FE21E02846FFF7C1FA00288A
:1017F000DFF8E8A003DDDAF80030002BAAD0DAF831
:1018000000302BB32821364ACDF8008002A81AF008
:101810007DFADAF80030DBB102A81BF04EF80028A0
:1018200005DB2046FFF78AFC4FF0000A98B1B9F1BA
:10183000000FBFD010F1740F02D010F1800FB9D19A
:101840001F4B0246195D2748ADE74FF0010ABAE782
:101850004FF0000AC1E741F658312846FFF70CFE69
:1018600048B1B9F1000FA5D010F1740FA2D1144BFB
:101870001D48195D8AE7BAF1000F3FF471AF40F2DD
:10188000DC511A48FFF7D0FD0D490246095DFA23E5
:101890001748FFF7F3F84FF4005000211AF04FFFFC
:1018A0005EE700BFF8730200B0060020F96B02008B
:1018B00001740200FB6F0200F46F0200BFC600203B
:1018C000E8940200A57002000D700200547002003E
:1018D000F3700200FD700200006C02001065002031
:1018E0004571020065710200B771020008720200C2
:1018F0000F720200F7B500251A4E1B4F96F9003003
:10190000AB421BD000212846FFF7F2FE044688B107
:101910007B5D00906021154A15481AF0F7F91549CA
:101920001548FEF78BFD12491448FFF7A7F820462B
:1019300003B0F0BD795D1248FFF7A0F80135082D1E
:10194000DCD1012196F90000FFF7D2FE064A0446D9
:1019500096F9003010B1D35C0090DBE7D15C084809
:10196000E3E700BFD1060020E894020049720200BC
:101970005D9600201BC90200C006002065720200AF
:101980007F7202002DE9F8434FF47A710546002476
:10199000204E214FDFF884803046FFF745FDD0B15F
:1019A00017F805900134224649464046FFF766F88D
:1019B0004FF496621A491B48FFF79EFD024630BB62
:1019C00040F6B8311348FFF72FFD4946024628B9C3
:1019D0001548FFF753F80020BDE8F8831348FFF7D8
:1019E0004DF8224649461248FFF748F811481AF0C8
:1019F00064FF0028F0DB2846FFF764FE0028EBD1E7
:101A0000032C4FF4FA61C7D16FF07300E4E7494645
:101A10000948E4E7A0720200E8940200A7720200FD
:101A2000E5720200E8720200ED7202001A73020011
:101A3000AC730200EF730200637302002DE9F04102
:101A4000904B0A780646002A14BF0C461C46E2B0AA
:101A50008D498E48FEF7E8FCA8B98D4916A8FEF717
:101A6000EDFC894903A802ADFEF7E8FC2A463046A2
:101A70000DA9FFF7FFF90446002800F08F80024609
:101A80003146844827E084498048FEF7CDFC28B9D8
:101A9000824916A8FEF7D2FC7F49E3E780497B48DC
:101AA000FEF7C2FC002840F0A38123467D4A302186
:101AB00016A803AF1AF02AF90DAD79493846FEF79A
:101AC000BDFC2A46304622A9FFF7D4F9044628B1C6
:101AD000314602467448FEF7D1FF49E042F6E06124
:101AE00022A8FFF73BFD044650B1234628786F49F2
:101AF00022AA002818BF29466D48FEF7BFFF37E02D
:101B00003846FFF735F9031E08DD29783B460029E2
:101B10000CBF31462946674822AAEEE708D029784B
:101B2000654800290CBF3146294622AAFEF7A6FFC8
:101B300040F2DC52614916A8FFF7DEFC8046D8B1BE
:101B40003846FFF715F90028297807DD3B460029BC
:101B50000CBF314629465A4822AACEE743460029FF
:101B60000CBF31462946574822AAFEF787FF444654
:101B7000204662B0BDE8F08141F288313846FFF777
:101B80007BFC2A780446002A0CBF32462A460146CE
:101B90004D48009722ABFEF771FFE9E742F6E0619E
:101BA0000DA8FFF7DBFC044628783CB13F492346EB
:101BB000002818BF29460DAA44489EE770B1FEF7D9
:101BC000ADFEFFF7DFFE044670B1287837492346A3
:101BD000002818BF29460DAA3D488EE740F6B831C7
:101BE0003C48FFF721FCEEE74FF496623A4916A80D
:101BF000FFF782FC044640B128782C492346002890
:101C000018BF29460DAA354877E74FF49662344944
:101C10003448FFF771FC044628783CB12349234639
:101C2000002818BF29460DAA2F4866E738B3FEF7EB
:101C300075FE074640F2DC522C492D48FFF75CFC4C
:101C4000044600286FD001462A48FEF717FF072FE9
:101C500056D83846FFF736FD0246002850D03946A0
:101C60002548FEF70BFF002C80F2898028780F4969
:101C70002346002818BF29460DAA20483DE74FF00B
:101C8000FF37D7E7AA6D0500F96B02002596002003
:101C9000F6730200D0750200F46F0200FF730200B9
:101CA000F370020008740200277402005A950200C3
:101CB0005474020091740200D0740200006C02009F
:101CC000147502005E7502009B750200F575020036
:101CD0002A760200A0720200657602007576020084
:101CE000AA760200B3760200BC760200F276020009
:101CF0000C770200137702005D770200287802005B
:101D00004FF4807122A805F09FFD0028ABD13A481E
:101D100022A9FEF7B3FE394922A823F0B7FA80B111
:101D20003748FEF7ABFE37481AF0C7FD041E287887
:101D30003EDA35492346002818BF29460DAA334804
:101D4000DBE61821324A03AB07A819F0DFFF07A929
:101D500022A823F09BFA002885D02E4922A823F040
:101D600095FA00283FF47FAF2B4922A823F08EFA82
:101D700000283FF478AF294803A9FEF77FFE2978B1
:101D8000214B2748002914BF2946194603AAFEF70C
:101D900075FE03AF3846FFF7A7F92A7804460146D7
:101DA000002A0CBF32462A461E4800970DABF2E6C9
:101DB00078B1FEF7B3FDFFF785FC04460028E8D0B4
:101DC000287811492346002818BF29460DAA16482D
:101DD00093E605F05FFAFFF743F94BF23430002148
:101DE0001AF0ADFC43F698210DA8FFF7B7FBE4E726
:101DF0006FF01504BCE600BF92770200B3770200D3
:101E0000C5770200EF7302005A9502005C78020069
:101E1000E56B0200536C02005F6C0200EF7702007A
:101E2000C77802000A790200907802002DE9F0419B
:101E30008CB002AE0D46904603A932460746FFF726
:101E400019F8044640B1024639463948FEF716FEF5
:101E500020460CB0BDE8F08142F6E06103A8FFF730
:101E60007DFB04469DF808004CB12346314903AA86
:101E7000002818BF31463048FEF700FEE8E778B189
:101E8000FEF74CFDFFF77EFD044678B19DF8080093
:101E900028492346002818BF314603AA2748EBE704
:101EA00040F6B8312648FFF7BFFAEDE728461AF0AA
:101EB00004FD041E9DF8080007DA1E492346002889
:101EC00018BF314603AA1F48D6E778B1FEF726FDB2
:101ED000FFF7F8FB0446C0B19DF8080015492346FA
:101EE000002818BF314603AA1748C5E705F0D2F904
:101EF000FFF7B6F84BF2343000211AF020FC43F61D
:101F0000982103A8FFF72AFBE4E74046FFF7ECF827
:101F10009DF8082004460146002A0CBF3A46324686
:101F20000A48CDF8008003ABFEF7A8FD90E700BF9C
:101F3000377902005A9502005D7902009379020018
:101F4000A0720200CF790200057A02003D7A0200F9
:101F500038B50D4604460B492846FEF765FA30B9F8
:101F6000094A0A492046BDE83840FFF75FBF2846C6
:101F70000749FEF759FA10B9054A0649F2E76FF02A
:101F8000150038BDD7870200F46F02006B7A02009B
:101F9000F3700200797A0200F8B504460E46012378
:101FA0001A4DD5E8EF2F002A03D1C5E8E13F0029FB
:101FB000F7D104D01648BDE8F840FEF75FBD154BD9
:101FC0001F78A7420DD1FEF797FC01461248FEF795
:101FD00055FD0023D5E8EF2FC5E8E13F0029F9D1F1
:101FE000F8BD012C09D147B90C4B0D481C70FEF708
:101FF00045FD38460B4905F0D5FC0B4B0B481C70D2
:102000000B4B1E70BDE8F84018F0EEBD4465002093
:10201000897A02004EC80020A67A0200C7C70020B5
:10202000BF7A0200EE7A02000BC80020586500203B
:102030000AC80020CA0708B50BD5C30709D5184B35
:1020400001211878B0FA80F04009BDE80840FFF798
:10205000A3BF8A0704D5830702D502210120F4E734
:102060004A070FD543070DD50D4B1B78BBB903228B
:102070000C4B1A7005F0E8F805F00CF9BDE80840C3
:1020800005F02ABA0A070AD5030708D5044B1B78BE
:102090002BB90422034B1A7005F0E0F8EEE708BDF7
:1020A0004EC800200AC80020F7B54D4B1B78013BF5
:1020B000032B00F28980DFE803F0020B1285494B05
:1020C0001878FEF719FC01464748FEF7D7FC09E0EF
:1020D000444B1878FEF710FC01464448F5E74448A5
:1020E000FEF7CCFC03240F20FEF7C0FC002141F2D8
:1020F000EC101AF024FB0020FEF7B8FC41F2EC10C3
:1021000000211AF01CFB013CEDD1364D2B78012B40
:1021100061D1384A38481370FEF7B0FC2046374981
:1021200005F040FC05F0B6F8FFF732F9344C2B7897
:10213000344E2370FEF78EFE20781AF002FB324DEB
:10214000FEF7C0FC3268314B20211A8030482B4604
:10215000304A19F0DBFD20212F4B2E4A2F4819F071
:10216000D5FD21212E4B2B4A2E4819F0CFFD2E4BA9
:102170002E4A2B491A6091F800C02D4A264BBCF11B
:10218000000F08BF114628781F780091002F08BF64
:1021900013463168002818BF2A462648FEF76EFC11
:1021A000254B264A20781A60FEF7A6FB01462448F4
:1021B000FEF764FC40F6CD4000211AF0C0FA002082
:1021C00008F0D4FD1F488BE7064B1878FEF794FB08
:1021D00001461D4879E7002BA6D108F0D3FBA3E701
:1021E0000AC800200BC80020FD7A02001C7B0200F8
:1021F0003B7B0200C7C70020917B0200C17B02002D
:102200004EC80020200200202EC8002000610220BD
:10221000436102200DA80200D306002023610220A2
:102220000DC80020026102207C3F01204741544F2D
:102230005A950200D47B0200783F01204E41544F52
:102240000B7C0200547B0200707B02002DE9F043FE
:1022500000248046E1B021462C2215A8149403AE38
:1022600023F0E7F802AD2146142206A8C6E900448F
:10227000059423F0DEF82A4640460BA9FEF7FAFD46
:102280000DF1500905AF044640B1024641462E48C3
:10229000FEF7F4FB204661B0BDE8F08342F6E06152
:1022A0000BA8FFF75BF9044650B12346287827496D
:1022B0000BAA002818BF29462548FEF7DFFBE9E7EF
:1022C00040F6B8334FF48072224820A905F0F0FAA6
:1022D000044640B128781D492346002818BF2946E6
:1022E0000BAA1D48E9E74A4630231C4920A81AF0EA
:1022F000F6F9324608231A4920A81AF0F0F93A46AE
:102300001823184920A81AF0EAF930780F4B99F8E9
:102310000020002808BF1E4638782978002808BF0A
:102320001F4600290CBF41462946002A18BF4B46CC
:10233000CDE900670C480BAAFEF7A0FB0B4820A9CB
:10234000FEF79CFBA6E700BF2B7C02005A9502001B
:10235000537C02008B7C0200937C0200D17C020043
:10236000D57C02007F6A0200DC7C0200147D020042
:1023700000222DE9F04F9E4BADF5457DD3E8EF1FD0
:10238000012903D1C3E8E02F0028F7D13CD1994BB4
:1023900020AC03F14005224618685968083303C28F
:1023A000AB421446F7D100243C22214631A88DF8D7
:1023B000BF40309423F03DF89DF8803030AD0CAF35
:1023C000CDE90D440F943C60F3B108228A4920A85E
:1023D00022F01DFF50B98948FEF750FB884B187852
:1023E000811E48424841FEF707FC0DE00422854962
:1023F00020A822F00CFF58B920A81AF05EFA014676
:10240000814820AAFEF73AFB0DF5457DBDE8F08F27
:1024100004227E4920A822F0FAFE30B921A81AF041
:102420004CFA21AA01467A48ECE70822794920A80B
:1024300022F0EDFE30B922A805F0E2FA22AA014608
:102440007548DFE70822754920A822F0E0FE08B9A8
:102450007348C1E70822734920A822F0D8FEB8B912
:10246000714922A822F0BBFE10B905F0B3FBCBE7FF
:102470006E4922A822F0B3FE10B905F091FBC3E724
:10248000012122A805F052FB22AA01466848B9E7BB
:102490000522684920A822F0BAFE0646002840F02E
:1024A000158101461C22CDE91A00CDE91C0082AD40
:1024B000409041A822F0BDFF40AC31461C222E6066
:1024C00083A822F0B6FF1AAA23465B4900950DF1B6
:1024D000850019F047FC06461AAA12F8013B73B9A9
:1024E0002A4612F8013B93B9002E40F3EA804E4988
:1024F0001AA8FDF799FF90B905F08EFC84E7A3F1C7
:102500004101192998BF203302F8013CE5E7A3F106
:102510004101192998BF203302F8013CE1E74749FE
:102520001AA8FDF781FF30B905F04AFC014644487E
:10253000FEF7A4FA68E73D491AA8FDF775FF20B930
:1025400005F04EFC01463F48F2E7012E00F0B9804D
:102550003D491AA8FDF768FFC0B914900A22204629
:1025600014A919F01FFC149B0546A34203D01B7845
:102570000BB9012802D921463448D9E700F00100FF
:1025800005F006FC2A46014631483BE731491AA8C6
:10259000FDF74AFFC0B914900A22204614A919F089
:1025A00001FC149B0546A34203D01B780BB90128FC
:1025B00002D921462848BBE700F0010005F0D0FB16
:1025C0002A46014625481DE7022E7AD024491AA83A
:1025D000FDF72AFF002847D12946204605F00EFBCB
:1025E0002B46224601461F48FEF748FA0CE700BF7B
:1025F0003C650020CAC700202E7D0200377D020006
:102600004EC80020717D0200767D02008D7D0200A3
:10261000927D0200A87D0200B17D0200CB7D020008
:10262000D47D02000E7E0200177E02003ACA02002C
:102630001C7E0200367E02003C7E02004B7E0200C1
:10264000557E02006B7E02007D7E0200827E0200CB
:102650009E7E0200B87E0200BD7E0200D97E02008E
:10266000F57E0200FD7E02008C491AA8FDF7DCFE13
:1026700040B92946204605F00BFB2B460146224671
:102680008748B1E787491AA8FDF7CEFEC8B914906C
:102690000A22284614A919F085FB149B0646AB4272
:1026A00003D01B780BB9FF2802D929467E483FE7A3
:1026B000C1B2204605F034FB3346014622467B4832
:1026C00092E77B4820A9FEF7D9F972E004AACDE988
:1026D0000057784908AB20A819F044FB044604AA27
:1026E00012F8013BB3B908AA12F8013BD3B92B4643
:1026F00013F8017BF7B9704904A8FDF795FE08BBF4
:102700006E4B1878FEF7F8F801466D4BD3E8AF2F03
:102710006C4877E6A3F14101192998BF203302F8EC
:10272000013CDDE7A3F14101192998BF203302F8EC
:10273000013CD9E7A7F14102192A98BF203703F8D5
:10274000017CD5E7604904A8FDF76EFE20BB012C93
:1027500022DD5A4B1B781BB15C48FEF78FF953E61C
:10276000022004F0D5FE08A804F0D8FE584804F072
:10277000E7FE574804F0F6FE04F0AAFD00214FF4EE
:10278000005019F0DCFF524804F0C8FE514804F034
:10279000D7FE514808A9CBE6504904A8FDF744FEEE
:1027A000C8B9464B1B7813F0FD0F05D04C48FEF717
:1027B00065F9FEF73FFA27E603224A4B1A704A4BA7
:1027C0001B780BB14948C8E704F03EFD04F062FDF8
:1027D00004F082FE18E6464904A8FDF725FE88B9F4
:1027E000364B1B7813F0FD0F01D04248DFE704227F
:1027F0003C4B1A703C4B1B780BB13F48ADE704F0E3
:102800002DFDE5E73D4904A8FDF70EFE60B92B4B11
:102810001B78012B01D03A48C9E7334B187007F0F9
:10282000DBFF0146374883E6374904A8FDF7FCFD86
:10283000E8B9012C18DD354908A8FDF7F5FD20B1F0
:10284000334908A8FDF7F0FD70B9324B324A3349DD
:102850003348FEF713F9334B334A34493448FEF713
:102860000DF907F081FFCFE5324820A92BE7324967
:1028700004A8FDF7D9FD002840F09F82022C40F308
:102880009C82234908A8FDF7CFFD002840F046812F
:102890000A4B1B78012B53D128485EE7267F0200A4
:1028A0002D7F0200557F02005A7F0200767F0200D2
:1028B000997F0200B37F0200C77F02004EC800204C
:1028C00044650020CE7F0200F37F0200FA7F020001
:1028D000B070050025800200288002003B800200C5
:1028E000408002000AC80020C7C700207180020093
:1028F000968002009B800200CC800200F1800200E2
:10290000FA8002002B870200D07B0200177E0200B3
:10291000268102002E810200AF810200FF810200A9
:102920001C82020052820200808202008682020023
:102930009A820200CD82020020650200E682020037
:102940002846AF49FDF770FD0446002840F0DF80BF
:102950000346AC4E03EB4312B75C002F00F04B86EE
:102960000133082BF6D10025A846A74FDFF89C922B
:1029700005EB4513F35C17F8011B002B40F0B68004
:102980004846FEF77BF80135082DF1D12146A048D5
:10299000CEE518F8010BFDF7C1FF031E09DB2A780D
:1029A0003AB103EB431052462B462121304419F033
:1029B000ADF901372135B945EBDC002303EB4312B8
:1029C000B25C002A74D00133082BF7D100254946A8
:1029D000904885F00102FEF751F8002DC3D0002584
:1029E0002F46012004F094FD012004F0CFFD8A4819
:1029F00004F094FD884804F0A3FD874804F0B2FD7C
:102A000004F022FCFEF7C4FC41F28830FEF7F0FA35
:102A100004F062FD0395082382AA19461AA804F05F
:102A200083FE031E029331DD4FF0000B0DF16808A9
:102A30000DF5027918F8010BFDF770FF051E1DDB7F
:102A400099F80030D3B105EB451AB24449465046D7
:102A5000FDF7EAFC90B14B46212150466F4A19F030
:102A600055F9072D02DC2846FEF7D0F9524618F832
:102A7000011C6B48FEF702F801230393029B0BF144
:102A8000010B5B4509F12109D4D11D464FF0000827
:102A900008EB4813F35C6BB108F10108B8F1080FBB
:102AA000F6D104F097FC41465E48FDF7E7FF5AE790
:102AB00001258CE7039B5BB1032D09DDB7F5FA6FA8
:102AC00010DA41F69A10002119F039FEC837A2E752
:102AD00041F69A10002119F032FE42F20803C8377D
:102AE0009F4298D104F076FCA846DCE782A88DF8D6
:102AF00008128DF80982FFF7A9FB10B1002C08BF5E
:102B0000044641F23430002119F019FE3BE7284613
:102B1000FFF79CFB2A460146434873E4434908A853
:102B2000FDF782FC0646002840F0EE803025014685
:102B300014221A9040AC1BA822F07BFC14223146D0
:102B4000266041A822F075FC1422314683A88295A4
:102B500022F06FFC364BCDE910561B78CDE912669A
:102B6000012B01D13348F8E5334900941AAB14AA7C
:102B700020A819F0F7F8051E17DD14AA12F8013B7A
:102B8000ABB91AAA12F8013BCBB9224612F8013BA5
:102B9000EBB9012D29D029491AA8FDF745FC0028D9
:102BA00054D1022D1BD12648D7E52648D5E5A3F1FF
:102BB0004101192998BF203302F8013CDEE7A3F157
:102BC0004101192998BF203302F8013CDAE7A3F14B
:102BD0004101192998BF203302F8013CD6E723466A
:102BE00018210E4A82A819F091F810A982A8FEF7C0
:102BF000ADF90446002834D0134882A998E400BFF8
:102C00001C830200BFC60020E894020093830200E8
:102C1000C583020020830200B07005000DA80200E9
:102C2000528302006E830200E683020006840200E3
:102C30004EC800200B8402003E840200D1840200B2
:102C4000D584020059840200238502000422A14990
:102C50001AA822F0F9FA08B91BABC1E79E481AA9D5
:102C600066E49E4930A8FDF7DFFB01229C4B28BBA0
:102C7000D3E8EF1F002903D1C3E8E02F0028F7D1E4
:102C800001D0984869E5984B944998481A70FDF727
:102C9000D5FB1021964A14AB964819F037F8944AA0
:102CA000102110AB944819F031F89449944821F060
:102CB000E6FF944810AA14A9FFF7A4BBD3E8EF1FBE
:102CC000002903D1C3E8E02F0028F7D1D9D1864BE2
:102CD0002821874A1C70854830AB19F017F810215D
:102CE000834A14AB834819F011F8814A10AB1021C4
:102CF000814819F00BF88149814821F0C0FF8248D2
:102D000010AB14AA30A96FE4804908A8FDF78CFB2A
:102D1000002852D17E4B1B78012B01D17D481CE548
:102D20007D4982AA20A819F01DF801281FD182AA86
:102D300012F8013BEBB928466849FDF775FB0446DC
:102D400090BB0546754E764FDFF8D88105EB4513ED
:102D5000FB5C16F8011BA3B94046FDF78FFE013559
:102D6000082DF3D12146704882AAFFF74BBB6F486C
:102D7000F3E4A3F14101192998BF203302F8013C83
:102D8000D6E700238DF8001140A882A98DF8013103
:102D9000FFF7DEF810B1002C08BF044641F23430D2
:102DA000002119F0CCFCDAE782A92846FFF7D0F819
:102DB0002A46014682AB5E4816E45E4904A8FDF748
:102DC00033FB68B9524B1B78012B01D05A48EEE413
:102DD0005A4B187007F0A8FD01465948FFF7A8BBE9
:102DE000584904A8FDF720FB002840F0EC80012C96
:102DF00040F38F82544908A8FDF716FB88B9444B6D
:102E00001B78012B07D14D4B187007F0E5FC0146EC
:102E10004E48FFF78DBB05210120FFF7BDF8FFF7F6
:102E2000F3BA4B4908A8FDF7FFFA20B1494908A8B1
:102E3000FDF7FAFA18BB4848FDF720FE0220344B94
:102E4000187004F05FFBFDF73DFEFEF763F801200C
:102E5000FDF7D2FE0022394B012040491A7004F0E0
:102E6000A1FD04F0FBF904F015FA40F6B830FEF7C6
:102E7000BFF804F031FBFDF73FFEFFF7C5BA384954
:102E800008A8FDF7D1FA0646002871D1204B1A7820
:102E9000012A01D1334860E40220187004F032FBAB
:102EA000FDF710FEFEF736F8244B2F4901201E7067
:102EB00004F078FD012004F069FB2C4804F02EFB9F
:102EC0002A4804F03DFB012004F022FB274804F0CF
:102ED00049FBC6E7FA840200FF8402001C8302005B
:102EE00014650020458502002496002035960020B8
:102EF0000DA8020025960020A006002018650020DD
:102F0000B80B00206285020091850200CD86020088
:102F10004EC80020BF850200F3850200E89402003D
:102F2000BFC600204C8602007C8602000486020098
:102F3000A3860200C9860200D3860200C7C700200C
:102F400000870200858E0200D07B020011870200FC
:102F50003B87020040870200438702008C87020003
:102F6000D7870200A6870200D2870200B070050052
:102F70009E4904A8FDF758FA78B39D4904A8FDF7C7
:102F800053FA002840F0CA819A4908A8FDF74CFA84
:102F900000283FF466AC984908A8FDF745FA0028D8
:102FA00040F0EE81022C00F01C824FF0FF332846E7
:102FB000924982AA829318F0D5FE012800F0CD81B3
:102FC0008F48FFF7CABB894904A8FDF72DFA0028EE
:102FD00040F0B681012C40F39C818A4908A8FDF796
:102FE00023FA00283FF447AF874908A8FDF71CFAE9
:102FF00038B9FEF7E5F9FDF78DFF8448FDF73EFD92
:1030000039E7834908A8FDF70FFAB8B9022C02D1B5
:103010008048FFF7A2BB284682A9FDF797FF18B1A9
:1030200029467D48FFF784BA10217C4A7C4882AB50
:1030300018F06CFE7A497B48FFF77ABA7A4908A8FB
:10304000FDF7F2F9002862D1022C1BD0284669490D
:10305000FDF7EAF90446C0B9744E754DDFF8D48126
:10306000754F2A783846002A14BF2A46424616F879
:10307000011B0134FDF702FD082C05F12105F0D1FB
:10308000FFF7C2B96D48FFF768BB2846FDF7DEF9C8
:10309000012803D029466A48FFF74ABA2878FDF785
:1030A0003DFC041EF6DB674982AA20A818F05AFEF0
:1030B00001280CD182AA12F8013B5BB982A8FDF766
:1030C000C5F9202801460DD05F48FFF731BA5F48A7
:1030D000FFF743BBA3F16101192998BF203B02F818
:1030E000013CE8E7524B04EB44151D4421212846DE
:1030F0004A4A82AB18F00AFE072C02DC2046FDF794
:1031000085FE4A4B2A46195D5148FFF77BB9514964
:1031100008A8FDF789F900283DD1022C00F0D680DF
:1031200028463449FDF780F938BB4B4B1D7815B95B
:103130004A48FFF712BB00213026302D08BF484B0C
:10314000DFF8208108BF1F78DFF81C917B18B3FBE4
:10315000F6F206FB12331A0218F8022008EB0323DA
:103160004C1C22B12A4621464846FDF787FCE3B2B3
:103170009D422146EAD8FFF747B928463B49FDF76B
:1031800053F920B9FDF7A4FB3948FFF7E6BA294601
:103190003848FFF7CDB9384908A8FDF745F9064684
:1031A000002840F09380022C00F090802846FDF724
:1031B0004DF9012803D029463048FFF7B9B9032C4F
:1031C00000F081800CAC0A22204682A9829618F079
:1031D000E9FD829BA34205D01B781BB942F2107314
:1031E00098424FD921462648FFF7A2B9D787020057
:1031F000A48A0200177E0200AF8A0200E68E020057
:10320000B58A0200C77F0200206D0200DF8702003E
:10321000D1840200F8870200298802000DA802006C
:10322000B0060020478802006E910200E894020078
:10323000BFC600205A95020061880200748802000F
:10324000A4880200C3880200EE880200D48802002D
:103250000F89020027890200BD9600202E890200F6
:10326000BE960020BF9600204C8902003ACA020098
:103270006889020088890200A8890200AE890200DC
:10328000CF8902008D4B18602878FDF747FB8C4CE6
:1032900040B2002820708EDBFDF71AFB0122214688
:1032A000884809F085FA88498848FDF7C7F8002260
:1032B000874B88491A7094F90030804AC95C1268BB
:1032C0008548FFF79FB87D4B1E60DDE7834908A85E
:1032D000FDF7AAF800287FF450AE814B1B78022B33
:1032E00002D08048FFF739BA01227F4BD3E8EF1FA5
:1032F000002903D1C3E8E02F0028F7D102D07B4892
:10330000FFF72BBA7A497B4821F0B9FC7A48FFF7DE
:1033100024BA7A4904A8FDF787F8D0B1784904A8FF
:10332000FDF782F8A8B9012C13DD764908A8FDF74E
:103330007BF8002840F00681FDF71CFCFFF764B81D
:103340006E4904A8FDF770F80028E7D1012C3FF77B
:103350001BAE6D4820A9FFF7B6B9829807F08AF92D
:1033600004460146829A6948FDF788FB002C7FF4E9
:1033700078AA8298664B186019F09EFAFFF771BA26
:10338000644908A8FDF750F8002861D1022C28D024
:1033900082AC20212B4620465F4A18F0B7FC20461D
:1033A0005E49FDF741F800B92070204607F076F934
:1033B00005462278594B0146002A14BF22461A4678
:1033C0005748FDF75BFB002D7FF44BAA23462021D5
:1033D000514A544818F09AFC204604F09FF8FFF731
:1033E00040BA514908A8FDF71FF8002861D04F499D
:1033F00008A8FDF719F800285BD1022C59D082AC3F
:1034000021212B462046444A18F080FC204643499F
:10341000FDF70AF800B92070204607F06FF905465D
:1034200022783E4B0146002A14BF22461A464048E5
:10343000FDF724FB002D7FF414AA23462121364AF0
:103440003C4818F063FC204604F08CF8FFF709BAFA
:10345000354908A8FCF7E8FF0028C8D1022C28D07D
:1034600082AC20212B4620462B4A18F04FFC2046E8
:103470002A49FCF7D9FF00B92070204607F026F949
:1034800005462278254B0146002A14BF22461A46DB
:103490002948FDF7F3FA002D7FF4E3A92346202104
:1034A0001D4A264818F032FC204604F049F8FFF780
:1034B000D8B9234820A9FFF706B900BF106500203E
:1034C000D1060020EF8902000A8A0200C00600200F
:1034D0005D960020E8940200118A02003B8A0200F7
:1034E0004EC80020418A0200286500206E8A020032
:1034F0002C650020B80B00208D8A0200A48A0200EF
:10350000888B0200177E02004F8C0200D48A0200D2
:1035100020020020F58A02000DA802005A95020040
:10352000FA8A02002EC800201A8B0200438B020088
:10353000488B02000DC80020218B0200D30600201A
:10354000688B0200334908A8FCF76EFF00284ED1B3
:10355000022C4CD028463049FCF766FF0446002870
:1035600031D104F01DFB4FF0FF3007F083F82B48FA
:1035700007F094F8294807F0A9F8284807F0BEF8A2
:103580004FF0FF32264B1A60264B1C70264B1C70E6
:10359000264B1C70264C2078821E50425041FDF76D
:1035A0002BFBFDF7F5FE2348FDF768FA2378002B87
:1035B0007FF4C2AE03F052FE40F6B830FDF718FDBE
:1035C00003F08AFFB8E628461B49FCF72DFF50B9E7
:1035D0001A48FDF753FA164B1878831E5842584183
:1035E000FDF70AFBA8E629461548FEF7A1BF1548D6
:1035F00020A9FFF768B8082340AA194614A804F0C8
:1036000093F8DFF844A0814640AD0DF15008FFF774
:10361000D2B900BF8F8B020020650200B070050098
:10362000200200202EC80020D30600200DC8002054
:103630004EC80020948B020027650200D78B020041
:103640001A8C0200338C02000DA80200F7B5044664
:103650008368DB6B002B36D1234D244EA368DB6AD5
:1036600013B12046984788B3A3681B6973B301223E
:1036700020460DF107019847002827DD9DF8072017
:103680002B680D2A01D00A2A22D1002BE6D0EFF3B5
:103690001181202383F31288BFF36F8F0023012051
:1036A0002A68B354124AD2E8EF7FC2E8EC0FBCF1AB
:1036B000000FF8D12B6081F31188BFF36F8F0D4895
:1036C00017F092FACAE798470028C5D103B0F0BDB9
:1036D000591C3F2902D82960F254BFE7002306484D
:1036E0002B60FDF7CBF9B9E740650020CAC7002081
:1036F0003C65002048650020648C02002DE9F047FD
:10370000794B8EB01B78012B0DD17848FDF7B6F9B7
:103710000022774BD3E8EF1FC3E8E02F0028F9D150
:103720000EB0BDE8F087734B734D1B78002B00F093
:10373000CE802A78714B72497248002A08BF1D4614
:10374000FCF772FE00285BD06F496E48FCF76CFEF8
:10375000002840F096806D4B30216D4A009502A8FC
:1037600018F0D4FA6B4803F0D9FE6A4803F0E8FE7B
:10377000684803F0F7FE012003F0CAFE002403F0BE
:103780006DFD4FF0FF360827DFF87881DFF888916C
:1037900003F002FF072805461CDCB04206D140F6C4
:1037A000B83294FBF2F302FB13434BB92B4622468B
:1037B000414648460097FDF761F92E4603F032FF77
:1037C0004FF40050002118F0BAFF4AF6C873FA34DB
:1037D0009C42DDD103F0E0FE0728054612DC0246DC
:1037E000082348494D48FDF749F96FF00A0403F0F2
:1037F00019FF2146404B434A4948FDF73FF987E707
:10380000484BA9E702A819F058F8082304460246D5
:1038100000933C492B464448FDF730F9002CE8DB87
:10382000002145F69A1018F08AFF02A819F045F811
:10383000051EC8BF641903F0AFFE082203463149D4
:103840003A4800922A46FDF719F9002145F69A10E8
:1038500018F075FF02A819F030F8051EC8BF6419EA
:1038600003F09AFE082201940346009225492A4655
:103870002F48FDF703F9002C14BF00246FF07F04DC
:10388000B7E70024A1462B4E2B4FDFF8B0A006F17E
:1038900008083B7816F8011B3BB95046FDF7EEF8D7
:1038A000B04507F12107F4D1A3E78DF8081002A86D
:1038B00029468DF80990FEF7C1F810B1002C08BF19
:1038C000044641F23430002118F039FFE8E7294678
:1038D0001B48FEF7B3F80B4B0146194A19480095EF
:1038E000FDF7CCF814E700BF4EC800207B8C020027
:1038F0001465002024960020A0060020AA6D050073
:10390000F46F020025960020F37002007F7A020017
:10391000B58C0200B0700500CD8C0200038D020052
:103920001D8E020001740200438D0200738D02009F
:10393000AA8D0200E8940200BFC60020EE8D0200AE
:10394000359600204A8E02002DE9F74F754B1B7803
:10395000022B03D07448FCF7F5FF3BE0734C23784F
:10396000072B01D97248F6E70023724F03EB43128D
:10397000BA5C002A00F0D4800133082BF6D14FF056
:10398000000B6D4D6D4E6E496E48FCF757FD85F886
:1039900000B0FDF715FD96F900305B452ADA6A485C
:1039A000FDF76CF8012194F90000FDF7A1FE94F9F0
:1039B0000030664AC8B1D35C654A00906021284651
:1039C00018F0A4F963495F48FCF738FD29466248BE
:1039D000FDF754F80022614BD3E8EF1FC3E8E02F56
:1039E0000028F9D103B0BDE8F08FD15C5C48FDF749
:1039F00045F80BE05B48FDF741F896F900A0BAF1F5
:103A0000070F1BD9FDF776FF0028E3D1237856492D
:103A10004C484E4D3370FCF711FD94F9003053487B
:103A2000E95CFDF72BF8524B1A6894F90030E95C19
:103A3000002A46D04F48FDF721F8CBE7DFF80C818C
:103A400094F9003018F80A9018F8032049464A48BB
:103A5000FDF714F894F90030534518D059465046F4
:103A6000FDF746FE4946024670B14448FDF706F8A8
:103A7000FF233370FDF7A4FCFDF73CFF0028C5D001
:103A80004B463F4A009099E73E48FCF7F7FF01217B
:103A900094F90000FDF72CFE94F9003068B1602124
:103AA00018F803302A4A0090234818F02FF92949C2
:103AB0002448FCF7C3FC204989E718F80310314873
:103AC00095E73148FCF7DAFF94F90000FDF7C8FBF1
:103AD00001265A2394F900200146AA5CCDE900365C
:103AE0002A484FF47A63FCF7C9FF40F6CD40002125
:103AF00018F025FE94F90030254803EB4312E95CE9
:103B00003A44FCF7BBFF304603F002FD94F9000095
:103B100000EB4010384403F025FD03F09FFB59E70C
:103B20001C4818E74EC80020768E0200D1060020FF
:103B30008A8E0200BFC600205D960020D0060020BD
:103B400072910200C00600209F8E0200E8940200DD
:103B5000CA8E02001BC9020065720200286500209F
:103B6000E98E0200248F020067B002000D9002006F
:103B7000106500202F900200458F02007E8F02000A
:103B8000D18F02007F7202007C900200D59002006B
:103B90002B9102005B9102002DE9F347AE49AF483B
:103BA00021F042F8AE49AF4821F03EF8AE49AF48A7
:103BB00021F03AF8AE49AF4821F036F8AE4821F08E
:103BC00098F80023AD494FF48052AB480093082386
:103BD00017F010F814F068FA0146002839D0A84808
:103BE000FCF74CFFA74814F085FA0446002839D1A9
:103BF0001AF001FC014610B1A348FCF73FFFA34BAC
:103C0000A34A1968A34C914234D1A34A1278227076
:103C100000221A60207818F094FD2078FCF76CFEE2
:103C200001469E48FCF72AFFFDF714F9002008F032
:103C30006BF8014610B19A48FCF720FF994D2846D1
:103C400020F0DAFDE0B99848FCF718FF6FF0120495
:103C50000CE00122954B1A70FDF7FCF89448FCF734
:103C60000DFFBFE701469348FCF708FF204602B06E
:103C7000BDE8F0872378022B84BF00232370C9E7B7
:103C8000AE68002E00F0C680336C002B00F0C280BE
:103C90000022284688499847336A002B40F0C280AA
:103CA0004FF0000A854F8648FCF7E8FEDFF81492D3
:103CB00006F0A8FC84493846FCF7C0FB83498448D9
:103CC000FCF7BCFBD9F80020824B834D9A42DFF809
:103CD0000082824E85F800A02BD1814B2021B3F9C0
:103CE0000030804A336038467F4B18F00FF82021AF
:103CF0007E4B7C4A404618F009F8212128467C4B2F
:103D0000784A18F003F828787A4A3978504508BF7D
:103D1000154698F80030009553450CBF13464346AE
:103D20007548514518BF3A463168FCF7A7FEC9F8F7
:103D300000A0724B724A1968724D914204BF002272
:103D40001A604FF0FF33336000236F483B7088F8F0
:103D500000302B70FCF792FE306806F08BFC574861
:103D600006F09CFC5A4806F0B1FC5B4806F0C6FC25
:103D7000306818F0A1FD514803F0D0FB544803F01F
:103D8000DFFB554803F0EEFB287806F013FD012019
:103D9000FCF71AFF012003F0BBFB2078831E58427A
:103DA000584103F0F3FB2378012B3ED15749584883
:103DB000FCF764FE2078FCF79FFD564B0246534902
:103DC00055480093554BFCF759FE06F0CDFC54487E
:103DD000037813B95349FCF731FB0020FCF746FE8A
:103DE00051495248FCF74AFE5148FCF747FEFCF7A0
:103DF00021FF002023784F4A012B107020D14E491B
:103E000003F0D0FD4D48FCF739FE02B0BDE8F047A5
:103E100006F000BE6FF057014948FCF72FFE6FF027
:103E2000570423E7284698473AE70220207003F01A
:103E300069FB0120FCF7E0FE4248FCF71FFEB9E7F2
:103E4000022B0CBF40484148FCF718FE02B0BDE809
:103E5000F04703F027B900BFA920000058650020F3
:103E60007123000048650020493900002C650020BE
:103E7000FD36000018650020B80B0020C0D20020DD
:103E80007B91020035200000D0910200803F01208C
:103E9000444D53424EC8002063610220F29102005B
:103EA0000B9202000C560200269202000CC8002061
:103EB00090910200B89102004D3600002EC80020FB
:103EC000619202007C3F0120B07005002580020055
:103ED000D30600204741544F0DC800202002002087
:103EE000006102200DA8020043610220236102202C
:103EF000026102205A950200AD920200783F012033
:103F00004E41544FD2060020E69202002065020086
:103F10002C930200DCCC0200A49302009D930200CB
:103F2000C0060020B16A0200E5930200FE93020081
:103F300026940200C7C700206F9402007D940200FF
:103F40003E9202005693020091940200C394020034
:103F50000128024605D0044B0448022A08BF18462F
:103F600070470348704700BF276502002B650200B9
:103F7000206502000128024605D0044B0448022AAD
:103F800008BF184670470348704700BFF49402000A
:103F9000B66A0200F094020000234FF4AA6210B542
:103FA000064902FB03F40C59844201D1184610BDA6
:103FB00001330A2BF5D14FF0FF30F8E7E80C002071
:103FC00001460A2310B5064A107810B154888C4275
:103FD00004D0013B02F10602F6D1184610BD00BF25
:103FE000B89400202DE9F0410B7804460D462BBB18
:103FF0000378FF2B25D14378152B22D943681A78F3
:10400000FF2A1ED15A78FF2A1BD19A78422A18D14A
:10401000DB78532B15D10F460626DFF82C8063681A
:1040200038469B5D42460321013617F06FFE162E7F
:1040300007F10207F3D1002385F820300020BDE806
:10404000F0810120FBE700BF0095020038B5134B5B
:104050001C78012C16BF124B25461D78114B1B787E
:10406000DBB1A31E59425941002014F0BFF8B4FA45
:1040700084F10120490914F0B9F82946022014F00E
:10408000B5F8094B1B7833B9084B19780320BDE804
:10409000384014F0ABB80121F8E738BDBBCE0020A2
:1040A00064CF002065CF002063CF002062CF0020C6
:1040B00000210A460B4B93F87C0038B193F882003C
:1040C00068B993F88300002818BF024601310A2915
:1040D00003F5AA63EFD1044B1A70FFF7B7BF02468E
:1040E000F4E700BFE80C002064CF00200022024B60
:1040F0001A70FFF7ABBF00BF62CF00200FB407B547
:104100000B4B1B78012B11D00A490B4A022B18BF0D
:1041100011460A4819F0D6FB05A90498019106F04A
:10412000F3FD03B05DF804EB04B070470449F0E719
:10413000BBCE0020717A0200AE640200B3640200BC
:10414000AA64020010B50C46FFF726FF637801460B
:1041500022780248BDE81040FFF7D0BF0595020065
:1041600073B50C4615461E46FFF716FF2B46014653
:10417000224603480096FFF7C1FF02B070BD00BFA2
:1041800027950200014640F2E7304FF47A7200238F
:1041900010B500EBC130490CFBF7DEFFBDE8104065
:1041A00002460B46014816F0C9BD00BF580C00205E
:1041B0002DE9F0432D4D2E4B2A782E4E8BB0012A3F
:1041C00008BF1E462C4B1B782BB92C480BB0BDE802
:1041D000F043FFF793BF2A4F97F80080B8F1000F24
:1041E00035D1DFF8A090D9F80030002B2FDA264C1B
:1041F0002378092B2BD80AF0BDFE01462878FFF75B
:10420000A7FED9F80090CDE9010623781F4D009351
:104210003A784B461E4805ACFFF770FF0FCD0FC430
:104220002B68414605A823600BF0BCFF0446B0B1E3
:1042300010F1780F02D010F1100F0BD101233B7059
:10424000FFF736FF224631461248FFF757FF0BB003
:10425000BDE8F08301461048FFF750FFF7E7012360
:104260003B70FFF725FF31460C48F5E7BCCE002038
:104270005495020025800200480700205C9502004A
:1042800067CF00206402002068CF00206059020040
:1042900084950200E69502000F960200299602001E
:1042A0002DE9F0410F460646FFF776FE084D094B13
:1042B00004463046002F08BF1D461DF04EFB2A461F
:1042C00003462146BDE8F0410348FFF717BF00BF92
:1042D0001BC9020029C902003B96020042F6D073B6
:1042E0002DE9F043954D0446451B9D428BB018D8EF
:1042F000934B2D115D43036813B190F87C3033B9B3
:10430000294690480BB0BDE8F04319F0DBBA90F8AD
:1043100081304BB129468C4819F0D4FA002384F837
:104320007F300BB0BDE8F083884F97F80080B8F17C
:10433000000F0CD02946864819F0C4FA0123322018
:1043400084F87F300BB0BDE8F043FFF71BBF18F0D7
:1043500039FA94F88430022B18BF4FF4AF76D4E9C1
:10436000302308BF4FF46176B21843F10003121AEC
:1043700063EB0103012A73F1000106DB294675484E
:104380000BB0BDE8F04319F09DBAEFF31183202282
:1043900082F31288BFF36F8F94F8812042B184F8C2
:1043A0007F8083F31188BFF36F8F6B482946A9E79D
:1043B00084F87F20012284F8812083F31188BFF3E1
:1043C0006F8F94F88400FFF7D5FD94F80031024612
:1043D000002B53D004F58073216860480091294672
:1043E00019F070FA21465E4B41F8483F20680EF004
:1043F000B7FE294602465B4819F064FA5A4920681C
:104400001BF021FF29460246584819F05BFA58492B
:1044100020681BF096FF29460246564819F052FACA
:1044200005AA9446544B256803F1100E16461868E9
:104430005968083303C673453246F7D11B782846BE
:10444000337094F884804D4B97F80090B8F1020FC8
:1044500014BF66461E46FFF79FFD0146B9F1000FE7
:104460000ED04748FFF74AFE002384F8813001232D
:10447000322084F87F30FFF785FE52E7414BABE7EF
:104480004046FFF777FD94F800310246002B53D0E9
:1044900004F580733C480095FFF730FE0123314658
:1044A00084F881303B7028462346384A08F096FB52
:1044B000064600283FF435AF00233B7084F8813076
:1044C00094F8B93094F88420013384F8B930304F2F
:1044D000304B2846022A08BF1F46FFF75DFD3346D2
:1044E000024639462C48FFF709FE2846FFF754FDDF
:1044F000054618F067F9D4E93023821A94F8B90018
:1045000061EB0303029094F8B8002946019094F8F7
:104510007D0000902148FFF7F1FD94F87C304BB10D
:1045200094F87D3033B94FF44042002304F1880001
:1045300016F004FC00209EE7124BABE7E80C0020CD
:10454000FDFCFCFC599602008A9602004FCC00202C
:10455000B9960200E19602001A97020053970200F2
:10456000A14200007D970200900600209B97020068
:1045700054640200B7970200745902003707002004
:10458000DA9702005A9502000798020054020020B0
:1045900055960200F49402003098020056980200EA
:1045A0002DE9F04350F888EC04468BB0BEF1000FC3
:1045B00005D010F80C3C13B110F80B6C4EB1002074
:1045C0004D4B04F8070C18700BB0BDE8F043FFF733
:1045D000D9BD4A4DA0F18803494A5D1B2D115543B1
:1045E00090F8302010F8040C042A0CD9454B4649A9
:1045F0002A46022808BF19464448FFF77FFD04F801
:10460000076C3046E0E73C4F397889B13D4B3E4975
:104610002A46022808BF19463D48FFF76FFD40F6BD
:10462000CD42002320460BB0BDE8F04316F086BB18
:10463000013284F830200122022804F8072C3A7055
:1046400039D1344A3449704608F0C8FA14F804CC19
:1046500094F83030002842D0002694F8312004F835
:10466000076C013284F831203E702C4900902648B6
:104670002A46BCF1020F18BF01462948FFF73EFD4C
:1046800018F0A0F8D4E90E23821A94F8310061EBF7
:104690000303029094F830002946019014F80B0CA3
:1046A00000902048FFF72AFD4FF4404200232046A7
:1046B00016F044FBA5E705AEB0461B4A02F110090F
:1046C000B446106851680832ACE803004A456646B3
:1046D000F6D1127841468CF800200E4AB3E70A481A
:1046E00008492A46BCF1020F18BF01460F480BB01B
:1046F000BDE8F043FFF702BD4FCC0020E80C0020DE
:10470000FDFCFCFCA998020055960200B598020039
:10471000D798020054020020F3060020F49402000F
:104720000C9902003B990200745902008E99020014
:10473000012210B5054B1A70FFF788FCBDE8104048
:1047400040F686320023024816F02CBB62CF0020D0
:10475000B80C0020F0B52F480D46814216461C4685
:104760009BB003D000F11803994242D1002309E025
:1047700000F29C52954205D000F5AA6200F2B450B6
:1047800085423ED11D468EB384B3FFF7D1FF642C22
:1047900028BF6424002722463146684620F022FEC6
:1047A00004F168030DEB0304092D04F8687C13D8A9
:1047B0004FF4AA666E43184C06F59A7040F2FF3229
:1047C0006946204420F052FDA319D3F8342583F81C
:1047D00033750132C3F83425032268460F4920F0AF
:1047E00033FD80B969460E48FFF788FC01201BB0F5
:1047F000F0BD00234C3801330A2BB9D14FF0FF35FF
:10480000C1E71046F7E76A4629460648FFF776FCF7
:10481000ECE700BF340D0020E80C0020A36C020080
:10482000ABAF0200B799020070B5044688B010B96A
:10483000002008B070BD20490B785BB190F80031C2
:10484000002BF5D000F5807020F0C9FCB0FA80F0A4
:104850004009EEE7194D2B7823B9194E3378CBB9BF
:104860000120E6E790F8E03033B12946E03020F04F
:10487000B6FC0028F1D0DBE790F82631002BD7D02A
:104880002021B0F824310F4A684617F03FFA294634
:104890006846ECE72B78002BE2D194F8E030002B4F
:1048A000C6D03046FBF7D2FD3146024604F1E000A7
:1048B00020F0ADFCCAE700BF5ACE00209BCE0020FE
:1048C0007BCE0020D399020038B500240D4D95F819
:1048D0007C3073B195F87D305BB12B684BB195F8A6
:1048E0008430022B05D12846FFF79EFF08B12046F1
:1048F00038BD01340A2C05F5AA65E8D14FF0FF3028
:10490000F6E700BFE80C00202DE9F0410C780546E1
:104910000E46B4B90378063B012B01D9012011E002
:104920004778DFF8248023461034BC42F6D8686804
:1049300010224146184420F042FC0028F3D1012304
:1049400033700020BDE8F0818BB102002DE9F04109
:104950000C7805460E46B4B90378063B012B01D905
:10496000012011E04778DFF8248023461034BC4250
:10497000F6D8686810224146184420F020FC002830
:10498000F3D1012333700020BDE8F0817BB1020038
:1049900070B50C4607C88CB0237801AD85E80700D8
:1049A00013B900200CB070BD2046FBF74FFD20224C
:1049B0000021064604A820F03CFD2846084904AA28
:1049C0001AF0BAFD9DF81030002BEAD0324621468D
:1049D00004A820F039FCB0FA80F04009E2E700BFFB
:1049E000E1C70100002337B50D460446019310B915
:1049F000002003B030BD02220C4920F008FC00B9B1
:104A000002342378002BF3D01022204601A917F09E
:104A1000C9F9019BA342EBD01B78002BE8D1B0F57C
:104A2000803FE5D228800120E3E700BF2580020017
:104A300009282DE9F84307460D4678D84FF4AA64B3
:104A400044433C4E04F18800304420F066F93319A9
:104A500093F8813023B10020374B1870FFF792FB99
:104A60004FF4AA637B43F05804F14C09F218B144A7
:104A700004F1640888B1B2F8543013B149460EF01D
:104A800051FF4FF4AA637B43F218B2F86C2022B1B5
:104A9000F05806EB08010EF045FF35B14FF4AA635C
:104AA0007B43F05808B10BF027FF4FF4AA630024B2
:104AB0007B430022F518F45000232146C5E930233A
:104AC000C5E93223C5E9342348461822C5E91F4405
:104AD000C5E94B44A5F8B84085F8844085F8DF4027
:104AE00085F8E04085F8004185F8214185F82241AC
:104AF000A5F8244185F82641A5F82A4185F83441D6
:104B0000C5F8344520F095FC2146182206EB080034
:104B100020F08FFCAC220948C5F8384585F83C45A3
:104B2000214602FB0700BDE8F84320F082BCBDE847
:104B3000F88300BFE80C00204FCC0020C0650020A7
:104B400070B50D461446FFF727FA2A4601460D4870
:104B5000FFF7D4FAACB100200B4B84F88100187039
:104B6000FFF710FB94F87C305BB194F87D3043B9CB
:104B700004F188004FF44042BDE87040002316F075
:104B8000DDB870BDDA9902004FCC002010B50C469C
:104B9000FFF702FA0246F4B194F884301148022B70
:104BA0000CBF11491149FFF7A9FA0020104B84F8F6
:104BB00081001870FFF7E6FA94F87C308BB194F816
:104BC0007D3073B904F188004FF44042BDE81040D5
:104BD000002316F0B3B805490248BDE81040FFF7BE
:104BE0008DBA10BDF8990200A998020055960200EE
:104BF0004FCC002070B5144E357825B1BDE870401B
:104C00003220FFF7BFBA114C94F87F302BB9013531
:104C10000A2D04F5AA64F7D170BD94F87C30002BFE
:104C2000F5D02368002BF2D094F87D30002BEED124
:104C300094F88130002BEAD12046FFF74FFB337800
:104C4000002BE4D0E8E700BF4FCC0020E80C0020A8
:104C500070B50D460646FFF76BFD05B3104CA64236
:104C600013D1002305E004F5AA6204F25454A642CD
:104C700013D119462A460B48FFF740FA01220A4B86
:104C80001A70BDE87040FFF713BA0023043C0133EB
:104C90000A2BE8D14FF0FF31ECE71446F7E770BD7F
:104CA000EC0C0020129A020063CF002038B50D46AC
:104CB000044660B1074920F092FA20B12046064927
:104CC00020F08DFA18B9002301202B7038BD002088
:104CD000FCE700BF2F9A0200369A0200002230B58E
:104CE0000F4BADF20C4DD3E8EF1FC3E8E02F0028C7
:104CF000F9D1914202DD0B48FFF700FA0A4C0B4D47
:104D0000002200236946204615F068FC10B10DF220
:104D10000C4D30BD6946284602AAFFF7EFF9EFE7D0
:104D2000686500203B9A0200BC080020599A0200E6
:104D30002DE9F04389B02B4BD3E8AF7F00252A4CF7
:104D4000DFF8A8802A4EDFF8AC9094F87C3013B9D5
:104D5000D4F84035F3B194F82611002937D04A46EB
:104D60000821B4F8243106A816F0D0FF0497B4F84F
:104D7000483529460393D4F8443540460293D4F885
:104D8000403506AA019394F87D30009394F87C3066
:104D9000FFF7B4F901350A2D04F5AA64D5D11EF048
:104DA00064FA04461EF064FA054617F00BFD2A4625
:104DB000CDE9000121461048FFF7A0F94FF4203259
:104DC00000230E4809B0BDE8F04315F0EBBF306892
:104DD000B288B3790690ADF81C208DF81E308DF89E
:104DE0001F10C3E768650020E80C00206F9A0200DE
:104DF000689A0200D3990200C59A0200880C00202C
:104E000030B5154D01462B78ADF20C4DEBB10024B9
:104E10000722684620F02AFA40F2FF32294602A80B
:104E20008DF8074020F022FA8DF807440022002375
:104E300069460A4815F07CFB50B1094BD3E8EF1FD7
:104E40000131C3E8E21F002AF8D10DF20C4D30BD4C
:104E5000044815F0C9FEF8E74FC80020BC08002040
:104E6000686500206C65002070B503788AB0044640
:104E70000E4607AD032B20D8DFE803F002191B1DF7
:104E800011492846FBF7DAFA059563781E21049349
:104E9000A37830460393E3780C4A02932379019375
:104EA00063790093A37916F031FF0AB070BD084909
:104EB000E7E70849E5E70849E3E70A212846074A02
:104EC00016F024FFE0E700BFE69A02000F9B020005
:104ED000ED9A0200F49A0200FE9A0200089B02007A
:104EE0002DE9F0410F46504E8CB0054634681BF05A
:104EF000A8F904A9FFF7B8FFFFF71AFC9FB13B46DA
:104F000021464A4804AAFFF7F9F8092C03D80121E1
:104F10002046FFF78DFD4FF0FF333360FFF748F970
:104F20000CB0BDE8F081092C08D904A94048FFF76E
:104F3000E5F8132128461BF0A2F9F1E73D4B1B7859
:104F400083B904AA21463C48FFF7D8F81321284624
:104F50001BF095F901212046FFF76AFD4FF0FF3362
:104F60003360DDE74FF4AA63344D02AF03FB045313
:104F700093F82681B8F1000F4AD008213846B3F8DB
:104F800024312F4A16F0C2FE4FF4AA636343EA1895
:104F900092F8E020002A43D0E0332B4404AA2146B3
:104FA00028480097FFF7AAF84FF4AA6161436F18E9
:104FB00097F88400FEF7DEFF97F8003102468BB3C6
:104FC00001F580732B444FF4AA6161436F1869584F
:104FD0001D48019197F87D1000912146FFF78EF84A
:104FE0001A4A1378013313704FF0FF3333600123F3
:104FF00087F87C304FF48073A7F87E30002387F861
:10500000813017F0DFFBC7E93001FFF751F887E780
:10501000072238460E4920F029F98DF80F80B3E7B2
:105020000B4BBBE70A4BCEE764020020329B020029
:105030005B9B020048070020859B0200E80C0020D3
:10504000D3990200C89B0200E99B020068CF0020B0
:105050005A9502002DE9F047814615460F4621B9C1
:105060006FF015042046BDE8F087002AF8D0FFF75E
:105070002BFC041E50DBB9F1000FF1D0DFF8A48047
:1050800098F80030002B4AD1274E002200233046EA
:1050900015F006FC0028F8D00026244B244AA3F182
:1050A0000A0143F80A2C1E605E601E8101234B60DA
:1050B00088F800304FF4AA631E4A5C4316606FF014
:1050C0000A021D4BA1F80890DFF870A0DFF870907D
:1050D000185989F80060CAF800200EF0FFFA04465B
:1050E00010B188F80060BDE74FF4404200230E483D
:1050F00015F0D6FB20B188F800406FF07304B1E7DB
:10510000DAF80040002CADD1013D2A464946384628
:1051100020F0ACF87C55A5E76FF07F04A2E76FF0B4
:105120000F049FE750CC0020A46500209A65002062
:105130005D5400008C650020E80C00206002002017
:1051400051CC002070B5104D2B78DBB106260BF04A
:105150007FF8044680B110F1780F0DD010F1100FD8
:1051600006D14FF44D70002116F012F9013EEED138
:1051700021460648FEF7C2FF00232B70BDE87040B1
:10518000FEF796BF70BD00BF67CF00201E9C0200D7
:105190002DE9F04F8FB017F015FB9A4B80461B7826
:1051A0008946002B00F0A180974F3C68092C34D829
:1051B0004FF4AA606043954D291891F87C3063BB89
:1051C000D1E93223012A73F1000626DB41F2717620
:1051D000B8EB020269EB0303B24273F100061CDB79
:1051E00091F80011002979D000F5807028442146FB
:1051F00000908748FEF782FF4FF4AA635C4328596A
:1052000010B113211BF03BF801213868FFF710FCA7
:105210004FF0FF333B60FEF7CBFF7E4B1B78002B3C
:1052200063D03B68002B60DADFF8ECA19AF800301D
:10523000092B5AD8794B754D1B78012B15D10023BA
:105240002A46194692F88400022807D192F87C0079
:1052500020B192F87D0008B90133DBB201310A298F
:1052600002F5AA62EED1002B3FD10024674B93F8E0
:105270007E20AAB393F8DF2092B31A6882BB93F81A
:105280007C206ABB4FF4AA63634355F803B0BBF1BB
:10529000000F2DD1D8332B441946584605930BF0F7
:1052A000A3FD059B064618B3184606A9FFF7DCFDCB
:1052B00006AA21465A48FEF721FF132130461AF06C
:1052C000DEFF30460BF018FB59462046FFF7B0FBD7
:1052D0004FF0FF333B60FEF76BFF06E0514886E777
:1052E00001340A2C03F5AA63C1D10FB0BDE8F08FD9
:1052F0004FF4AA6303FB0453D3E93423012A73F167
:10530000000108DBB8EB020269EB0303B2F5967FFC
:1053100073F10003E9DB4FF4AA66664305EB060B65
:105320009BF88400FEF726FE9BF8002103469BF8BD
:10533000DF10C2B306F580762E449AF80020DFF81D
:10534000E8A002929AF800203848CDE900620A46A7
:105350002146FEF7D3FE9AF800305BB34FF00A0BFC
:105360000AF076FF064668B110F1780F0AD010F106
:10537000100F07D140F26760002116F009F8BBF169
:10538000010BEDD1324621469AF800302848FEF74D
:10539000B5FE56B1783608D0214626480FB0BDE894
:1053A000F04FFEF7ABBE1F4EC7E700238AF8003070
:1053B000FEF77EFE4FF4AA6A0AFB04FA1E4B06AE05
:1053C0000FCB05EB0A0C86E80F000AF1D800314636
:1053D00063461A4A2844CCE932893C600BF0E2FD6E
:1053E00006460246214655F80A301548FEF786FE65
:1053F000002E3FF47AAF214632461248FEF77EFE79
:10540000012162E74807002064020020E80C002028
:10541000569C02004907002068CF0020BCCE002027
:10542000A99C02005A95020067CF0020FB9C020055
:105430004D9D0200899D02008859020054640200BB
:10544000D29D0200F59D020008B5034818F03AFA13
:10545000BDE80840FFF79CBE119E0200F8B50C465F
:105460001946144BBDF8185093420AD1124F134EEF
:105470004CB16FF004033B6000233370104815F00B
:10548000EBF90020F8BD0F4B01B135B91B68002BBB
:105490000CBF6FF03C030023EDE7FF2D28BFFF2575
:1054A0001D60094B2A4618461FF09CFF3C6044557E
:1054B0003470E3E7906500206002002050CC0020AB
:1054C000A46500208C65002051CC00202DE9F04F10
:1054D00095B003780646202B00F10100F9D0092B86
:1054E000F7D0002B00F0C88000253046FAF7AEFF59
:1054F000A8462F46624CDFF88C91DFF88CA107900C
:1055000094F87830002B52D094F87930002B4ED09C
:1055100054F8043C002B4AD0201F08F10108FFF783
:1055200083F9002871D194F822318DF8300033B11D
:105530002021B4F82031554A0CA816F0E7FB544B53
:1055400054491878FEF704FD99F800300890002BB4
:105550000CBF53464B4609930B78002B08BF5146AE
:1055600094F8DC30002B49D004F1DC0B9DF830308E
:10557000002B46D00CAB94F8FC20002A43D004F159
:10558000FC0294F88000CDE90A32FEF7F3FC94F8AF
:1055900079C00B9A0A9BCDE9040CCDE901B30392C3
:1055A00000913D483946DDE90823FEF7A7FD0137A4
:1055B0000A2F04F5AA64A3D1E5B9354B354918780B
:1055C000FEF7C6FC304D0C782E4B002C08BF294648
:1055D000324C024626781878002E08BF2C46002848
:1055E00008BF2B46CDE900142D484146FEF786FD45
:1055F0006FF07F05284615B0BDE8F08FDFF888B062
:10560000B4E7214BB7E7204ABBE794F88020BDF808
:105610001C30022A1ED10021CDE901110091324631
:10562000B4F8261154F8040C1CF0FEFC024628B114
:10563000334639461B48FEF761FDB8E794F8FC3065
:1056400001352BB104F1FC03324639461648F2E726
:105650000D4BF9E71A463146204607F055FD024644
:1056600018B1334639461148E5E732463946104805
:105670000135FEF743FD9AE76FF01505BAE700BF65
:10568000EC0C00209BCE00205A950200D39902001A
:10569000BCCE00205ACE00203B9E02007BCE0020D4
:1056A000439F0200BB9E0200E49E0200079F02008F
:1056B0002C9F02002DE9F04FBDB015AB07460C46FC
:1056C00007C983E80700AF4B93F800A0BAF1000FB9
:1056D0000DD1AD4B19680131196001F01F03012B89
:1056E00002D1AA48FEF70AFD3DB0BDE8F08F3B8924
:1056F000DB07F9D5A6492046FFF74AF9A5490F90DF
:105700002046FFF745F94FF000090DF1CC080B904A
:1057100094E8070088E8070040469F492BAA8DF8C7
:10572000AC9019F009FF94E807009DF8AC3088E8C8
:105730000700404699492BAA8DF8AC900E9319F0BA
:10574000FBFE94E807009DF8AC3088E8070040466F
:1057500093492BAA8DF8AC90109319F0EDFE94E8C4
:1057600007009DF8AC304FF6FF7B0D93FF2388E8D0
:10577000070040468B492BAA8DF8AC3019F0DCFEAF
:1057800094E8070088E80700404687492BAA9DF85F
:10579000AC50ADF8ACB019F0CFFE94E80700BDF8FE
:1057A000AC6000235E4508BF4E460DF1AC0B88E8A7
:1057B00007005A4640467D4914BFD146B1468DF890
:1057C000AC3019F0B9FE9DF8AC300C935A1E002392
:1057D000072A84BF0C930A934FF0000394E8070054
:1057E0008BE807005846724933AA8DF8CC3098BF31
:1057F000CDF828A019F0A0FE9DF8CC30002B40F089
:105800000E838DF8CC306B490B78002B33D09DF88C
:10581000CC30002B32D033A81FF0E1FCB0FA80F876
:105820004FEA58182022002123A81FF002FE6249E7
:1058300023AA15A819F080FE604B1B78B9F1000F60
:1058400040F08380022B1BD0012B7FF44DAF9DF8DD
:10585000CC30002B40F0C380594B1B78002B7FF4D9
:1058600043AF544B1B78002B3FF43EAFB8F1000F11
:1058700040F0068138E74FF00108D3E79846D1E7BA
:1058800023A8CDF8AC90FAF7E1FD06287FF42CAF01
:105890009DF88C30A3F16102192A98BF203B422B5E
:1058A0007FF422AF9DF88D30A3F16102192A98BFD1
:1058B000203B532B7FF418AF022223A9535CA3F1A2
:1058C0003000092805D923F02003413B052B3FF682
:1058D0000BAF0132062AF1D110222BA90DF18E0057
:1058E00016F060FA2B99354A09B91378ACE70978B4
:1058F00013780029A8D1B0F5803FF6D2012B86B2EB
:1059000068D05546022B40F042812E4B1B78002B6D
:1059100000F0D6802C4B1B78002B40F0D180304615
:10592000FEF74EFB002840F0CB8038682BA9FFF72C
:105930009BFA0821254A33461BA816F0E7F92448AC
:105940001BAA2BA9FEF7DAFBCEE6012B03D0FF3D05
:1059500018BF0125D6E79DF8CC30002B3FD10B9B1B
:10596000002B6CD0164B1B78002B7FF4BDAE114B77
:105970001B78002B3FF4B8AEB8F1000F3FF4B4AE83
:10598000554684E048070020BC650020A29F020025
:105990002580020054950200094900004D4900008D
:1059A00055C7010091C7010083C801004BC8010021
:1059B000E53F00005ACE0020E1C70100BCCE002028
:1059C00059CE002060CF00205ECF0020D399020086
:1059D0007CA002009DF8CC30002BC0D0D1464FF007
:1059E000000B844D2B782BB1284633A91FF0F7FB11
:1059F00000283BD00BF1010BBBF1080F05F121058D
:105A0000F0D100230B9A002A32D10A9A002A2FD112
:105A1000002B2DD1B9F1000F14D1774B1B78002B3F
:105A20003FF41FAF38682BA9FFF71EFA4B467348A7
:105A3000CDF8009033AA2BA9FEF760FB54E60A9B31
:105A4000002B8FD138682BA9FFF70EFA33460821B7
:105A50006B4A1BA816F05AF99DF8CC3093B133ABC2
:105A600068481BAA2BA9FEF749FB3DE65346C9E748
:105A7000614B1D78B9F1000F06D1002D3FF4F1AE56
:105A8000002504E0604BEBE7002D3FF470AFDFF83A
:105A90007CB14FF0000AD9463B6899F8DF20002A14
:105AA00000F0C8801846072209F1D80111931FF0B1
:105AB00086FB119B002840F0BD80FEF739FE13E6FF
:105AC00053490B7833B19DF8CC30F3B133A81FF0B4
:105AD00086FBD0B94F490B78002B38D09DF88C301D
