:020000040000FA
:10000000004500207D1F0000C3640000691F000040
:10001000691F0000691F0000691F00000000000048
:100020000000000000000000000000007D20000033
:10003000691F000000000000691F0000691F000028
:1000400011220000112200001122000011220000E4
:1000500011220000112200001122000011220000D4
:1000600011220000112200001122000011220000C4
:1000700011220000112200001122000011220000B4
:1000800011220000112200001122000011220000A4
:100090001122000011220000112200001122000094
:1000A0001122000011220000112200001122000084
:1000B0001122000011220000112200001122000074
:1000C0001122000011220000112200001122000064
:1000D0001122000011220000112200001122000054
:1000E0001122000011220000112200001122000044
:1000F0001122000011220000112200001122000034
:1001000053B94AB9002908BF00281CBF4FF0FF317E
:100110004FF0FF3000F00CB8ADF1080C6DE904CEE3
:1001200000F008F8DDF804E0DDE9022304B07047D0
:10013000704700BF2DE9F04786468C460846089E6A
:10014000154674461946002B40F0C2808542B2FA2B
:1001500082F245D94AB1C2F1200300FA02FC2EFA1C
:1001600003F3954043EA0C0C94404FEA154EA8B2B5
:10017000BCFBFEF8230C0EFB18CC08FB00F943EA8D
:100180000C43994528D9EB1808F1FF3704D299455B
:1001900002D9A8F102072B44A3EB0903A4B2B3FBD5
:1001A000FEFC0EFB1C330CFB00F044EA0344A042AF
:1001B00014D92C190CF1FF3304D2A04202D9ACF1AE
:1001C00002032C44241A43EA07401EB1D440002302
:1001D00034607360BDE8F0874746DDE76346F1E7CA
:1001E00092BB431B01214FEA154EAFB2B3FBFEFC9D
:1001F000200C0EFB1C330CFB07F840EA0343984528
:1002000062D9EB180CF1FF3004D2984502D9ACF159
:1002100002002B44A3EB0803A4B2B3FBFEFC0EFBCD
:100220001C330CFB07F744EA0344A7424ED92C19B0
:100230000CF1FF3304D2A74202D9ACF102032C44E3
:10024000E41B43EA0040C0E7C2F1200320FA03F1B7
:10025000954090402EFA03F303434FEA154EAFB298
:10026000B1FBFEFC0EFB1C10190C0CFB07F841EA5D
:100270000041884504FA02F422D969180CF1FF30D4
:1002800004D2884502D9ACF102002944A1EB08014F
:100290009BB2B1FBFEFC0EFB1C110CFB07F743EA03
:1002A00001439F420ED9EB180CF1FF3104D29F425B
:1002B00002D9ACF102012B44DB1B41EA004192E779
:1002C0006046E3E76146F7E76046A3E76346B7E7C2
:1002D000834206D916B9002108467BE7C6E900E04B
:1002E000F9E7B3FA83F78FB9834201D3724508D88F
:1002F000BEEB020460EB030301209C461EB9002103
:1003000068E73846FAE7C6E9004CF8E7C7F1200C81
:10031000BB4022FA0CF41C432EFA0CF120FA0CF329
:10032000B84001434FEA14490EFA07F5B3FBF9F858
:100330001FFA84FE09FB18300B0C08FB0EFA43EA87
:1003400000439A4502FA07F240D9E31808F1FF305A
:1003500004D29A4502D9A8F102002344A3EB0A0370
:1003600089B2B3FBF9F809FB183308FB0EFE41EA2A
:1003700003418E452CD9611808F1FF3304D28E4514
:1003800002D9A8F10203214443EA0040A0FB0298ED
:10039000A1EB0E014145CE46434602D306D14D4561
:1003A00004D2B9EB020E68EB04030138002EA6D08C
:1003B000B5EB0E0261EB030101FA0CFC22FA07F324
:1003C0004CEA0303F940C6E9003198E74046C5E727
:1003D0004346D9E7F0B52E4B2E4AC3F800262E48E7
:1003E000C3F8042685B0C3F808264921C3F80C26B3
:1003F000C3F81026C3F81426C3F81826C3F81C2621
:1004000005F0CEFF05F086FB01A800F0B1FC234B00
:100410001B68834204D02248452105F0C1FFFEE756
:10042000039A2048492105F0BBFF1F48492105F0E8
:10043000B7FF4FF44041002006F05BFA044620B1BC
:100440001A48452105F0ACFFFEE769469DF8080013
:1004500000F030F8009B039D1D44019B1E8902F0B3
:1004600013FEAF1900F0E6FF00F0BAFF01F0C2FD85
:10047000AB5983F3088884F31488BFF36F8FBFF3FD
:100480006F8F7B6898470A48452105F089FFFEE792
:10049000000001403546526ED672000078060020FA
:1004A000EF720000127300004173000066730000D9
:1004B0009973000008B5024638B10548002345216C
:1004C00005F06EFF6FF0150008BD0860FCE700BF87
:1004D000BC73000021B1012906D06FF015007047F0
:1004E000044B53F830007047024B03EBC0035868CD
:1004F000704700BF986F00002DE9F04FDFF824B27D
:10050000DDB0DDE9688916461C466A9FDBF80050BD
:1005100000F030FF7F4B0122C3F800253CA804F017
:100520001DFAB8F1000F07D0B9F1000F04DD4A46FB
:1005300041463CA805F031FE33897289D6F80CA0FB
:1005400013449A444FF00008C2456AD80FA93CA84A
:1005500004F076FA6F4B0022C3F80025C3F800259B
:1005600027B120220FA9384606F009F8002300938E
:1005700031464FF6FF73224609A805F0CCFA06462D
:1005800000285FD120460E9F00F08AF9874259D893
:10059000DFF894A1DFF87C814FF0FF370DF11E03E7
:1005A00007AA08A909A805F004FB00284ADB40F0C7
:1005B000AB80089909A805F048FB50B9BDF81E00AA
:1005C000554A4FF6FF7132F8023B8B423AD09842BF
:1005D000F9D1BDF81E90B9F1100F3DD0B9F1220F3D
:1005E00075D0B9F1010FD9D1BDF81C30202B29D815
:1005F00008993CAA204605F0E1FE074610BB9DF88D
:100600001C300393202B09D8DAF80020434B0492C6
:10061000049A974237DB0023C8F800354FF0FF37C4
:10062000BCE7679B669AAAEB0809994528BF9946DB
:100630004B464146204605F0C1FE30B1354B002205
:10064000C3F80025DBF8005060E066994A463CA8F4
:1006500005F0A3FDC84477E7BDF81C60202EF1D15A
:10066000089933463CAA204605F0A8FE0028E9D1A7
:1006700032463CA90FA805F022FB294B1B68834298
:10068000E0D101268AE7059300F074FEC8F80095D2
:100690001FA804F063F9059B5A6853F8081B1268F9
:1006A00005931FA805F079FD17A91FA804F0C8F944
:1006B0000022C8F80025039A3CA917A805F04FFFAF
:1006C000059B10B9C8F8000568E70137A0E77B1C57
:1006D0003FF464AFDAF80030BB429FDDBDF81C3058
:1006E000802BAFD808993CAA204605F067FE002869
:1006F000A8D1FFB2BDF81C3000973CAA20210FA85A
:1007000000F014F8054689E7002E9BD028465DB01E
:10071000BDE8F08F00A00250A8720000A46F000096
:1007200078060020C4040020A06F00002DE9F047E7
:1007300096B016461D469DF87820374BDFF8E880C6
:1007400053F83210019103EBC20307465B68D8F8F7
:100750000090186802AA0144302301A805F0ABFC00
:10076000002851D1DDE901431C4403AA06AB214610
:1007700001A805F0C8FC002846D1049A072A43D1F5
:100780002649059805F0EBFE00283DD1079A082A76
:100790003AD12349089805F0E2FEA8BB02AA2146F7
:1007A00001A805F09CFC78BBDDE901A30AEB03027C
:1007B000944229D1412B27D13544302303AA29461D
:1007C00002A8029605F077FCE0B9DDE90232134495
:1007D0009D4217D32A4602A906A805F044FA88B913
:1007E0002A4602A90EA805F03EFA58B99AF8003038
:1007F000042B07D1202306AA0AF10101384600F094
:10080000D1FD28B1D8F80090484616B0BDE8F08771
:10081000044BD3F80090F7E7A46F0000EB730000DF
:10082000E273000078060020C4040020094A0B7817
:10083000400052F820108B4209D0013052F82000BD
:10084000834214BF4FF0FF304FF4C07070474FF435
:10085000C0707047AC6F00001FB50F4B13F830002D
:100860000C4601F09FF950B92068816810236A4650
:10087000103905F0A3FD28B1206805F09EFD4FF06A
:10088000FF3006E005491022684605F068FE0028A2
:10089000F2D104B010BD00BFAC6F0000C672000002
:1008A00013B5044605F012FA6A460146204605F0E3
:1008B00018F930B10448452105F072FD002002B05E
:1008C00010BD0098FBE700BFF37300002DE9F04175
:1008D000384F88B0064600200D463C68FFF7FAFD09
:1008E00006A9C0B201F05EF9E0B92946FFF7F2FDB2
:1008F0002C2407A9C0B204FB056401F053F9A8B188
:100900002C2068433218069B116911F0100F1DD07E
:100910001DB10699304605F0C3FA274B1C680698AE
:1009200005F04BFD204608B0BDE8F081079805F0C2
:1009300090FD8046079805F040FD631EE21C13F809
:10094000011F4145DCD19342F9D1E1E736581B48FC
:1009500086422AD1D6681089801926D25289121867
:1009600023D29868824220D240F60C6211401CD1FA
:100970004FF480720192124A0092CDE9031122468F
:1009800002910846FFF7B8FD04460E4B1B68A342D0
:10099000C5D065B106980021826805F039FD0A4A84
:1009A0000A48452105F0FCFCB7E73C68EDE7084A3A
:1009B000F6E700BFC4040020C00400203DB8F39651
:1009C0009C1300207806002036740000407400005C
:1009D0002E7400007FB50D46044600212846CDE95F
:1009E000021105F01CFA28B32368194EB34203D153
:1009F00003AA204605F0A8F9E36AB34204D102AA8B
:100A00000121204605F0A0F9DDE90232934288BFBA
:100A10000393039BAB60039A2946204600F0A8FB92
:100A20000C4B1A68002A03DD0B48572105F0B8FC6F
:100A300004B070BD01A9FFF70FFF019805F108018F
:100A400005F04FF9AB680198039305F0B6FCE2E7B7
:100A50003DB8F396DC120020687400002DE9F84FD1
:100A6000DFF878B01B4C1C4D884691469A4600260C
:100A70000B9B9E4201D300200FE00B9B174A9F1B4C
:100A8000B7F5806F28BF4FF480673B4606EB0A013D
:100A9000404605F093FC10B10120BDE8F88F0A999B
:100AA0003B465A467118484605F09DFC0028F3D194
:100AB000C4F800563E44C4F80456C4F80856C4F8B6
:100AC0000C56C4F81056C4F81456C4F81856C4F896
:100AD0001C56CDE7000001403546526E7C060020D2
:100AE000F0B59A4B43620E4603F58063002103651F
:100AF00089B004460846FFF7EDFC04F120010546E5
:100B0000C0B201F04FF80346E8B90121FFF7E2FC5B
:100B100004F14C010546C0B201F044F80346E0B9C7
:100B2000204605F052F90546C8B900221146204674
:100B300005F0F4F8054660B385480022572105F01A
:100B40002FFC01239CE00022CDE9002381480023F3
:100B50002A46452105F024FCFEE70122F4E77E4801
:100B60008022572105F01CFC01239D4284F8583057
:100B7000DBD194F858308DF81730042B00F28380C5
:100B8000012B00F2878000F09A80FF2384F8583010
:100B900095E0204600F0FEF90028D2D004A805F028
:100BA00035F90146204605F0D0F918B16B482A46C0
:100BB0005721C4E704A805F032F980F0010104AA26
:100BC000C9B2204605F0AAF802460028B4D104A80C
:100BD00005F025F9054660BB04A92046FFF7FAFE9B
:100BE0009DF8173084F85830033B012B06D828466F
:100BF00000F0E4F810B1FF2384F858309DF8173066
:100C0000023B022B0BD8002000F0C2F838B1FF23C2
:100C100084F858305248452105F0C2FBFEE794F8AD
:100C20005830FF2BF6D004AA0021204605F076F8B4
:100C300087E79DF81770012F17D1104602F0D0FA00
:100C4000831E022B05460DD839462046FFF73EFE8F
:100C5000444B1B68984205D0434B1D68A84214BF03
:100C60000525012584F8585083E701212046FFF728
:100C70002DFE3C4B1B6898420CBF9DF81730052396
:100C800084F8583075E7052B7FF47FAF002000F023
:100C900095F811E004A92046FFF79CFE94F858301F
:100CA000DA1E012A14D8002000F088F800287FF40A
:100CB0006CAF002000F06CF800287FF466AF94F869
:100CC0005830FF2B07D12648452105F069FBFEE788
:100CD000022BF4D1EDE70022012B244D039214D016
:100CE0001146204605F01AF878B12D68102200212F
:100CF0000DEB020005F04EFCE06C05F05EFB206A97
:100D000005F05BFB284609B0F0BD00212046FFF747
:100D1000DDFD144F3B689842E7D12B689842E4D040
:100D2000114B1B689842E0D0039B01330393039B54
:100D3000012B00D0FEE7206A04F0D1FE3071236A57
:100D40005B6834603D68B360D0E700BF7C0A002078
:100D50002675000097740000E474000052750000CE
:100D60007C75000078060020C0040020C404002028
:100D700038B5064D044660220021284605F00AFCDD
:100D800021462846FFF7ACFE38BD00BF7C1200208C
:100D900013B5094B01A913F8300000F003FF48B95F
:100DA000019805F05FFE0446019805F006FB204619
:100DB00002B010BD0124FAE7B46F00001FB50F4B5D
:100DC00001A913F8300000F0EDFEA8B9019802A9BE
:100DD00002F0B0F9044668B99DF80B30032B03D13B
:100DE000019805F00DFE0446019805F0E6FA20464C
:100DF00004B010BD0124F7E70124F8E7B46F000048
:100E00002DE9F34106460C4617461D460BB9002650
:100E100028E0184605F003F80028F8D16946FFF7E6
:100E20001BFD009838B90124009805F0C6FA204649
:100E300002B0BDE8F08101A904F053FF0028F2D10F
:100E4000009805F0BAFA3046019905F0CBF8736ABC
:100E50005E686B79012B21D1002CD8D12B6883429D
:100E600098BF002621460020FFF734FB6946C0B238
:100E700000F098FE0028D6D1009820233A4631464B
:100E800005F09CFA04460028CDD1002DCCD03C685A
:100E90000D4BE41A18BF4FF0FF34C5E7022BB6D153
:100EA0002B68012B05D98342B1D8B4FA84F46409C4
:100EB000ADE7ACD1002CD5D0012CA8D12C79023CC7
:100EC00018BF0124A3E700BF3DB8F3962DE9F04F0A
:100ED000074685B00C46014600201646FFF7A6FCE3
:100EE000051E50DB3846E46D04F0F0FE5FFA84F92D
:100EF0006B1E09FB03084FF0000A4FF0010B4FF087
:100F0000FF349DB9BAF1010F03DD2148452105F0F9
:100F100047FA631C06D07F2C2ADC013440F201130F
:100F20003460B380284605B0BDE8F08F6B1E009397
:100F30000DF10F0201234146384605F03FFA031E2A
:100F4000019322DB01220DF10F01384605F0F3FC7D
:100F5000019B40B15B4501D00AF1010A009DA8EB5D
:100F600009089B46CDE7B4F1FF3F08BF2C46F5E7E3
:100F70000223803C7371631004F0010401330134D7
:100F800033603471CEE70725CCE70125CAE700BFFF
:100F90008875000070B5866A456D044605F011F845
:100FA000AE420AD06B1CB34207D0834205D014482E
:100FB000572105F0F5F9002070BD802E1CD911488D
:100FC0005721F6E7626A216D02EBC30201EBC30110
:100FD00052684968914202D00B485721E9E7013332
:100FE0009D42EFD1AE4205D9636A03EBC5035B684E
:100FF0009342F1D10120DFE700231A46F0E700BF5A
:10100000AB750000E37500001276000000B589B0F2
:1010100004A9022005F001FD9DF81020012A41D00D
:10102000254B2649032A08BF0B469DF81320029240
:101030009DF8122001929DF811202148009249212B
:10104000204A05F0ADF906A9052005F0E6FC9DF85B
:101050001820012A28D0184B1849032A08BF0B462C
:101060009DF81B2002929DF81A2001929DF81920EC
:1010700000921348144A492105F092F99DF8103066
:10108000012B13D19DF81230032B0FD19DF818308E
:10109000012B0BD00D48492105F082F9022009B03F
:1010A0005DF804FB0A4BC0E7094BD9E70948492121
:1010B00005F076F90020F2E73E7600004776000062
:1010C0005B7600004D7600009C760000AC76000058
:1010D00042760000CB76000070B54B6814461E4A7D
:1010E00003F0FF23934286B006460D462FD10B68CE
:1010F000012B2CD104A9204602F01CF89DF81020E9
:10110000012A26D0154B1649032A08BF0B469DF825
:10111000132002929DF8122001929DF81120009256
:101120001048114A492105F03BF99DF81030032B76
:101130000DD12146304604F0B3FE204605F060FC98
:10114000A968204604F0DBFD204601F0D3FF06B07D
:1011500070BD064BDBE700BF000100043E760000D7
:10116000477600005B7600009C7600004276000027
:101170002DE9F04F164689B005460C4674484921C2
:1011800005F00EF93146284604F02CFF6B6A8246C2
:1011900020465E6804F043FEE8B1E86D04F091FD7E
:1011A000AF6A0023013F3344834201D2013FFAE793
:1011B000BA4510D36748572105F0F2F807FB06F34C
:1011C00065480AFB0662572105F0EAF80123E3713E
:1011D00009B0BDE8F08F06A9022000F0E3FC07A9E2
:1011E000052000F0DFFC079A21462846FFF774FF30
:1011F0006379012B4BD1DFF864B1574641E0226897
:10120000C2F1010353449F423AD86B6A196853F8FC
:10121000370003EBC703012A53F8083CA3EB010393
:10122000A0EB0109049311D1079B0393E368022B00
:1012300008D04146284604F033FE2246414628465F
:1012400004F064FE0399284604F02AFE324649461B
:10125000404604F023FE049B42464146CDE90096F9
:101260002846FFF7FBFB2146284604F0E5FD2368EE
:101270000133236020B1DBF800300133CBF80030BC
:10128000013FDDF81880002FB9D10123236002232C
:1012900063710127BA45DDF8189006D2484605F07B
:1012A0008CF8079805F089F892E723689F424DD3A0
:1012B0006A6ADDF81CB052F837100491FB00083B55
:1012C00011680391D1582A6DD0581368A0EB030818
:1012D0002379012B38D1039B3246C91A4846059120
:1012E00004F0DCFD0599009143464A4659460196B3
:1012F0002846FFF7B3FB2146284604F09DFD022354
:10130000237118B1154A1368013313603246414600
:10131000584604F0C3FDDDE9032349469B1ACDE995
:1013200000865A462846FFF799FB2146284604F0D6
:1013300083FD2368013323600123237130B1074A01
:1013400013680133136001E0022BDFD00137A1E7FE
:10135000E27600000B7700003A770000DC120020F4
:101360000A4619B1024B00211B681847704700BF9D
:10137000C804002070B5094D2B780BB1002070BD5A
:10138000074C0126C4F8006503F08AFB18B92E70DB
:10139000C4F80005F2E74FF0FF30F0E79C1400209E
:1013A00000A002502DE9F041DFF83080ACB01F46BC
:1013B00006460C461546FFF7DDFF0123C8F8003549
:1013C0002A4633460097214603A805F08DFC0023EA
:1013D000C8F800352CB0BDE8F08100BF00A0025075
:1013E000BFF36F8F72B6124B4FF0FF32C3F88020FD
:1013F000C3F88420C3F88820C3F88C20C3F8902059
:10140000C3F89420C3F89820C3F89C20C3F8802127
:10141000C3F88421C3F88821C3F88C21C3F8902134
:10142000C3F89421C3F89821C3F89C21704700BFEA
:1014300000E100E0F8B5254B254D4FF0FF340127C2
:101440005F60C3F84843C3F8084303F5C043002670
:101450005F60C3F84843C3F8084303F5983302209C
:101460005F60C3F84843C3F80843C5F8084300F079
:1014700023FE6F60C5F84C61D5F84C31C5F810619A
:10148000D5F81031C5F84461D5F84431C5F8006588
:1014900005F518352820C5F8084300F00DFE6F60EB
:1014A000C5F84C61D5F84C31C5F81061D5F810314C
:1014B000C5F84461D5F84431064BC5F80065C3F85A
:1014C00008454FF08043C3F80843F8BD00B0004022
:1014D0000020004000F00140014B1B68184700BF8E
:1014E000CC040020014B1860704700BFCC040020E2
:1014F00007B50B46002102460091034800F006F8AC
:1015000003B05DF804FB00BFD91400002DE9F04FD3
:101510008DB01D46531E8246019103934FF0000982
:10152000039B5878252803F1010419D11E46002099
:101530004FF0FF3802360346029044463178039656
:10154000392954D81F2914D8002900F0EE810199B7
:101550002520D04701993078D04709F10209DFE70B
:10156000002800F0E2810199D04709F101090394B4
:10157000D6E7A1F12002192AE9D801A757F822F0ED
:10158000E91500004F1500004F150000E915000097
:101590004F150000691600004F1500004F150000A0
:1015A0004F1500004F150000B5160000E9150000AA
:1015B0004F150000C9160000751600004F150000F9
:1015C00083160000A3160000A3160000A316000057
:1015D000A3160000A3160000A3160000A316000027
:1015E000A3160000A316000008460136A6E75829F6
:1015F00000F0EB80A1F16302D7B2172FA7D8172A0A
:10160000A5D801A757F822F071180000EF160000C6
:101610004F1500004F1500004F150000CF160000B9
:10162000EF1600004F1500004F150000CF16000008
:101630004F1500004F1500004F150000A5170000C2
:101640004F1500004F150000451800004F15000011
:10165000EF1600004F1500004F150000A517000001
:101660004F150000CF16000001992520D04709F141
:10167000010955E7029A02F0FE0202924FF00008BB
:10168000B3E7002C0DDAB8F1000F0DDA029A002A48
:1016900000F0438124EAE4740A2202FB0414303C83
:1016A000A3E7B8F1000FF5DB0A2202FB0812A2F152
:1016B00030089AE7B8F1000F55F8042B80F22F811B
:1016C000002A80F22E815442022202928DE768297C
:1016D00003D1682B06D1482387E76C2902D16C2BF4
:1016E00000F02181002B7FF432AF0B467DE77A2B8F
:1016F00006D1752955F8046B14D14FF0000B0CE09E
:101700006C2BF6D04C2BF4D1073525F00703752947
:10171000D3E9006B03F1080506D120283BD1854FA2
:10172000013C09E04FEAE67BBBF1000FF5DA7642B7
:10173000814F6BEB4B0B013C0DF12D030593002307
:101740000493304659460A220023FEF7D9FC059B34
:10175000303203F8012DB4460593049B5A46BCF180
:101760000A0F8B4672F1000203F1FF310646049125
:10177000E7D2C3F1010B30330DEB0306B8F1000FD4
:10178000A6F104066DDA029BD9077DD4A8EB0B0302
:10179000A4EB0B0413E02B280ABF684F684F04F139
:1017A000FF34C9E770290FD155F8042B0023FAB98B
:1017B000634F644E053C6FF004034FF0050B029A33
:1017C000920770D4A04666E078216C2B03D155F8BF
:1017D000042B002308E04C2BF9D1073525F0070333
:1017E0001D465B6855F8082B232825D1880621D58E
:1017F000554F023C01F06001A1F1390B0DF12D0EA6
:10180000002602F00F01092988BF594430310EF833
:10181000011D102A4FEA121141EA03714FEA131C0D
:1018200073F1000306F1FF3008D2C6F1010B06F197
:101830003003A1E7454FDCE7414FDBE706460A46A8
:101840006346DEE755F8046B304604F081FEB8F1DC
:10185000000F834602DB4045A8BFC346384F4FF018
:101860000008A8EB0B03002B92DDA4EB0804A6E70D
:1018700055F8043B8DF81830314F013C4FF0FF33E1
:101880004FF0010B06AE9AE7A046EAE702930199F2
:101890002020D047029BB8F10108F7D524EAE47272
:1018A000013C9144A41AB84606E0049302920199BF
:1018B000D047029A049B9046424612F8010B00283A
:1018C000F3D11A46013A15D5002BACBFC7EB03077D
:1018D0007F425B46013B15D5BBF1000FA8BF5F44BB
:1018E0004F442646013E14D5002CA8BF3F1907EBF4
:1018F000080915E60493029201993020D047049B11
:10190000029ADFE70293019916F8010BD047029B78
:10191000E0E701992020D047E4E70122D5E6904690
:1019200063E6144661E64C235FE648460DB0BDE829
:10193000F08F00BFC8770000C6770000CA770000AC
:1019400087750000D2770000CC770000CF770000C9
:1019500008B50446EFF31183202383F31288BFF305
:101960006F8F01F091FB204600F032FB024804F03B
:1019700031FC04F0C1FDFCE7D87700002DE9F04709
:10198000058B04462807904611D4022905F0070567
:1019900040F0CC80204604F02AFC78B10138218B3D
:1019A000042811D8DFE800F0C2106D8595000129E8
:1019B0000CBF45F0100545F02005258388F31188FC
:1019C000BFF36F8FBDE8F08701F0070AAA4500F06A
:1019D000A5800027B9463E46A368002B00F0BC80D6
:1019E00041F00801218388F31188BFF36F8FA1684C
:1019F000002900F0BA800D68002900F0B680D1F807
:101A00000480334652462046C047002D76D02B68CE
:101A100029461D46F0E701F007035A1F012A1BD88B
:101A2000002221F00701062B276889B2C4E90022B1
:101A300009D13B4603E0628B013262831B68002BB5
:101A4000F9D141F002012183204604F0D0FB0028A7
:101A50007AD041F0200176E0042B0AD121F0070171
:101A600089B22183204604F0C2FB10B141F020016D
:101A70002183218B01F0070AAA454FD00027B946E0
:101A8000AAE7236921F0070141F00601062DD3F8EA
:101A9000009021832DD1B9F1000F3FD041F0080112
:101AA000218388F31188BFF36F8F3A492046C847D6
:101AB00029E021F00701236941F0040189B2042DD6
:101AC000D3F804902183E6D000273E464FF0040A65
:101AD00082E721F00701236941F0050189B2052D54
:101AE000D3F808902183D6D000273E464FF0050A50
:101AF00072E700273E464FF0060A6DE72B4687E760
:101B0000B9F1000FD1D1EFF31188202383F31288AC
:101B1000BFF36F8F238B23F008032383258BEA0603
:101B20002ED525F01003238305F007056669218B68
:101B3000002EBFF670AF00232768C4E9003321F000
:101B4000070141F001012183218B01F0070AAA4519
:101B50004FF000097FF440AF002F9CD041F0080106
:101B6000218388F31188BFF36F8F002FC8D03D68A1
:101B7000394633465246204604F065FB2F46F4E7CB
:101B8000AB067FF51BAF25F02003238305F0070587
:101B900000E700BF73620000014B03600020704744
:101BA000C06F000070B5114B1C680D46DCB1104BC6
:101BB000196800238B4202DB6FF0010070BD2246E2
:101BC00012F8106B864202D001331446F2E7E06847
:101BD00010B96FF01200F1E705F03EF80028F8D0D8
:101BE0002C600020EAE76FF00C00E7E7D00400204B
:101BF000C06F000070B588B005460C46C0B269469B
:101C00001646FFF7CFFF00281BDB0098C8B14368DA
:101C10000293836822680195CDE903360023CDE95C
:101C200006230593C56804F0C8FB6DB12846084932
:101C300001AA04F092FD079808B9059B236008B03B
:101C400070BD6FF01500FAE76FF01200F7E700BF04
:101C50006164000008B54FF01022D2F8100210F4B1
:101C60007F4018D00C4B0121C3F80415BFF34F8FF0
:101C7000BFF36F8F6FF47F41C2F81012D3F80024C6
:101C8000002AFBD00020C3F80405BFF34F8FBFF339
:101C90006F8FFFF75DFE08BD00E0014008B5054805
:101CA00004F098FA044804F095FABDE808400348A7
:101CB00004F090BA017800003278000065780000E6
:101CC000014802F09DBB00BF2470000030BFFFF749
:101CD000FDBF00BF70B5264B15469A6A12F0100F73
:101CE0009A6A14BF1124102412F0080F9A6A18BFC0
:101CF0001224920706460AD5586B9A6A140634D500
:101D000019B19A6A22F080029A62132401E06FF0FE
:101D10001500174B9A6A12F0010F9A6A18BF142423
:101D200012F0200F9A6A18BF1524D20602D49B6ABB
:101D30009B070AD50E4B5B68190506D5314600F0A6
:101D400023FA10B180F309880224094B9A6A92069B
:101D500042BF5A6A22F400525A629A6A42F0FF0263
:101D60009A6200232B70204670BD6FF01500CCE7FF
:101D700000ED00E0134B9A6A12F0007F9A6A14BFDC
:101D80001E201D2012F0807F9A6A18BF1F2012F4B7
:101D9000002F9A6A18BF212012F4802F9A6A18BF68
:101DA000222012F4003F9A6A18BF232012F4803FC9
:101DB0009A6A6FEA02426FEA12429A6218BF2420BE
:101DC000704700BF00ED00E010B5194B0246986A5D
:101DD0009C6A10F4805F14BF1720162014F4006F63
:101DE0009C6A18BF1820A40509D5986B986A00044E
:101DF00004D51AB19A6A22F400429A6219200C4B57
:101E00009A6A12F4806F9A6A18BF1A20D2050CD40D
:101E10009B6A13F4005F18BF1C20054A936A43F4C1
:101E20007F43936200230B7010BD1B20F5E700BFBA
:101E300000ED00E070B5454B5B688AB00546C3F322
:101E40000803002686F31188BFF36F8F02F07F40EE
:101E5000B0F17F4F11D102F00C0008280DD010070F
:101E60004CBF0D4601260022033B8DF80720032BB3
:101E700005D8DFE803F01E5D615A3546F3E700241C
:101E80009DF807309BB92022294602A804F077FB71
:101E9000099B002E54D0C3F3080222B96FEA5323E2
:101EA0006FEA4323099302A9204604F000FB0AB01D
:101EB00070BD264BDA6A9107E1D4DA6A002ADEDBCC
:101EC000DA6A5200DBD55A69A96942F480725A6114
:101ED000BFF34F8FBFF36F8F5A6931F8021C22F4A2
:101EE00080725A61BFF34F8FBFF36F8F4DF602724E
:101EF00091420AD09A6AD2B24AB10DF10702012189
:101F00002846FFF7E7FE0446BAE72C68B8E79A6A66
:101F100012F47F4F05D00DF107010120FFF754FFA8
:101F2000F1E79B6AB3F5803FA9D3FFF723FFEAE708
:101F30000DF107020021E3E70DF107010020EDE7B5
:101F400023F4FF7323F00103ACE700BF00ED00E0D2
:101F5000044B5A6942F010025A615A6922F0080291
:101F60005A61704700ED00E0EFF30880EFF309815C
:101F700001B57246FFF75EFF01BD00BF002080F390
:101F80001488BFF36F8F01F0C5F900200D49086078
:101F9000BFF34F8F0C4880F3088800F03DF82020F5
:101FA00080F3118809484FF40461401880F30988D0
:101FB000EFF314800221084380F31488BFF36F8F7E
:101FC00000F0B4F894ED00E000450020C0140020BB
:101FD000BFF34F8F0549064BCA6802F4E062134312
:101FE000CB60BFF34F8F00BFFDE700BF00ED00E007
:101FF0000400FA050749D1F890200023C2F3072214
:102000001846934200DB7047C1F89830C1F8A00031
:102010000133F6E700ED00E008B572B6002383F364
:102020001388FFF7E7FF144B4FF0FF32C3F880200F
:10203000C3F88420C3F88820C3F88C20C3F890200C
:10204000C3F89420C3F89820C3F89C20C3F88021DB
:10205000C3F88421C3F88821C3F88C21C3F89021E8
:10206000C3F89421C3F89821C3F89C2162B6BFF34A
:102070004F8FBFF36F8F08BD00E100E01EF0040F2B
:102080000CBFEFF30880EFF30980816911F8021C9F
:102090000229FFD001B504F010FA01BD40B20028BA
:1020A00007DB044A4109012300F01F00834042F886
:1020B0002130704700E100E040B200280CDB43090A
:1020C000064900F01F0020330122824041F82320FE
:1020D000BFF34F8FBFF36F8F704700BF00E100E089
:1020E000054B420900F01F0053F82220012303FA98
:1020F00000F01040704700BF00E100E040B200284F
:10210000A8BF00F1604001F10101B8BF064B4FEAE2
:102110004111ACBF00F5614000F00F00C9B2B4BF7F
:10212000195480F80013704714ED00E0144A08B504
:10213000144B22F07F029A60BFF34F8FBFF36F8F73
:10214000D3F8882022F47002C3F88820D3F88820BE
:1021500042F4A002C3F888204FF04042C3F8342272
:10216000BFF34F8FBFF36F8F0023E1EE103A01F002
:10217000EFFF02F035F800F03FF801F0F5FF00BF87
:102180000000000000ED00E010F1160F074B08D032
:10219000984208D34033834205D98B4203D904487F
:1021A00070474033F9E70020704700BF001D002052
:1021B000401D002080B5154606460C460022E1EE83
:1021C000102A074F87F309884FF000000549884718
:1021D000204629461A46B04703488047FEE700BF1D
:1021E00040450020DB640000E9640000014B102240
:1021F0001A61704700ED00E0044800232021C21856
:102200000133302B82F80013F9D1704700E100E070
:1022100008B5EFF30583064A103B02EBC30152F801
:10222000330049688847BDE8084004F051B900BF51
:10223000F06D0000024B034A0348022100F066B82B
:1022400000000420000000202C700000084AC2F8A2
:1022500098000B6823F01F03034343F01003C2F8F8
:102260009C308B6843F00103C2F8A030704700BF78
:1022700000ED00E02DE9F043DFF8608085B00E4608
:102280001F4604464FF00009B14523DA6068D8B113
:102290003FB1411E08421BD11F2819D9236819429A
:1022A00016D12368019304F043F9A3680343039311
:1022B000D8F89050C5F30725D0B2013DA84207D801
:1022C00001A9FFF7C3FF421C09F101090C34DBE748
:1022D0006FF01502104605B0BDE8F08300ED00E098
:1022E000044B0522C3F89420BFF34F8FBFF36F8FC9
:1022F000704700BF00ED00E0BFF35F8F024B00228C
:10230000C3F89420704700BF00ED00E010B5034C07
:1023100001232278FFF7AEFF207010BD9D1400202E
:102320002DE9F043534B544CD3F890302568C3F358
:1023300007239D4285B000F29A80FFF7DDFF002061
:102340000C2685421AD14D4C4D4F25706846FFF73B
:1023500023FCDFF82081DFF82C9106460025AE42F1
:1023600013D1237843490020D1F89020C2F30722EB
:10237000934276DBFFF7B4FF002042E0616806FB82
:102380000011FFF763FF0130DBE7009800EB051158
:102390004FEA051CCB683B40B3F5000F48D00AD884
:1023A000B3F5001F30D0B3F5800F36D0B3F5801FE2
:1023B00010D00135D3E7B3F1807F42D0B3F1007F75
:1023C000F7D150F80C3088684A6804F0B1F840F44E
:1023D000802009E050F80C3088684A6804F0A8F8BA
:1023E00040F0885040F43020CDE901230390D8F824
:1023F00090302078C3F30723013B98422AD96FF02D
:10240000150005B0BDE8F08350F80C3088684A68C4
:1024100004F08EF840EA0900E6E750F80C308868CE
:102420004A6804F085F840F0007040F40030DBE7C3
:1024300050F80C3088684A6804F07AF840F08270EE
:10244000D2E750F80C3088684A6804F071F840F020
:102450008870C9E701A9FFF7F9FE237801332370DB
:10246000A7E7C1F89830C1F8A00001337CE74FF02E
:10247000FF30C6E700ED00E0447000009D1400202E
:102480000000F0FF00000811014B1860704700BF0A
:10249000D4040020044A0123C2F840354FF08042A2
:1024A0000020C2F87835704700E0014020B1034BAE
:1024B000800143F001031847704700BF906F000090
:1024C000084B70B5C31A0D4607499B100446594383
:1024D0000648402204F073F82B4601462046BDE82A
:1024E00070401847F4120020B76DDBB6A06D0000F5
:1024F00073B50C4C0C4A4023041B00930D460B464D
:102500000A49A41061430646094804F083F8011EF5
:1025100005DA30462B4602B0BDE87040184702B0DD
:1025200070BD00BFF412002083660000B76DDBB6FB
:10253000A06D000010B5EFF31184202383F31288FF
:10254000BFF36F8F074A136823F00201DB071160A6
:1025500002D4012004F091FA84F31188BFF36F8F45
:1025600010BD00BF44130020002270B501210446B5
:102570001046FFF7C3FD0F4801F05EF80E4B98427E
:1025800015D101F06BF826690C49304603F07FFE47
:1025900000280BDB012535642469084904F11C007F
:1025A00003F075FE002801DBE564002070BD6FF0CC
:1025B0000400FBE7892600000000AD0B64700000FA
:1025C00030B4104B0C2202FB003301460020D3E94B
:1025D0000E529863EFF31180202484F31288BFF326
:1025E0006F8F1C6C04F0C00444F002041C6480F380
:1025F0001188BFF36F8F1DB12B46034830BC1847BD
:1026000030BC7047F4120020A06D000010B4EFF34E
:102610001182202383F31288BFF36F8F184801685B
:1026200041F002040460C80708D482F31188BFF3A4
:102630006F8F01205DF8044B01F022B84FF080410C
:10264000D1F80C04D1F80C14C907EED5EFF31180C2
:1026500083F31288BFF36F8F0A490B6C03F0C0033A
:1026600043F002030B6480F31188BFF36F8F82F392
:102670001188BFF36F8F00205DF8044BFFF7A0BFF8
:1026800044130020F412002010B1012804D0704738
:10269000034B1B6C5B0701D1FFF792BF704700BF74
:1026A000F4120020F8B52549BFF35B8F06460122DE
:1026B00051E8003F41E800200028F9D1BFF35B8FCB
:1026C00033B91F491F484B60CB608A6003F0F2FDAD
:1026D000731E012B1DD804F001FB0446D0B91A4B20
:1026E0001B78BBB14FF080430222C3F80823054694
:1026F0004FF08047D7F81824D7F81834D20312D5F2
:102700009B0701D0012E0ED18CB185F31188BFF348
:102710006F8FF8BDEFF31185202383F31288BFF389
:102720006F8F0124E4E7284603F0F3FEE2E74FF061
:1027300080430222C3F80423EBE700BFF01200201D
:10274000E012002010130020A014002010B5044C4B
:102750002046FEF7C7FE2046FFF796FE002010BD7C
:102760006527000073B50C4E8DF80700044603255D
:1027700001220DF10701002001F0A0FC20B101238E
:102780003370204602B070BD3378002BF9D0013D84
:10279000EED13570F5E700BF9E140020024B0B60B0
:1027A00001231360704700BF4813002000487047A2
:1027B000B870000010B504F0ECF9034C206004F090
:1027C000E4F96060002010BD481300204FF0804203
:1027D000D2F81015D2F8103501F01E0123F01F03B6
:1027E0000B4343F00103C2F81035024B00221A706C
:1027F000704700BF9F1400204FF08053D3F8303152
:10280000082B20D14FF08042D2F81015CB071AD5F3
:10281000D2F8103501F01E0123F01F030B43C2F85C
:102820001035D2F808315BB1D2F8103523F01F0310
:102830000B4343F00103C2F810356FF08B00704773
:10284000024B01221A700020704700BF9F14002025
:102850002DE9F0410D46164604F097F9314607463A
:10286000284603F01EFF28B3B5FBF7F307FB13530D
:1028700003BBB6FBF7F407FB1464DCB9B74213D80B
:1028800004F083F9DFF834800746FFF7B5FF04460C
:1028900068B9284601F084FB98F800300BB1FFF7C7
:1028A00095FFF61B3D44F0D12046BDE8F0816FF066
:1028B0008B04F9E76FF01504F6E700BF9F140020C2
:1028C0002DE9F8430E463046194617461C4603F0DC
:1028D000E8FE30B346EA040515F0030521D11CB328
:1028E000DFF84C906319032BA6EB050807D80F4AB5
:1028F000D2F80034DB07FBD50020BDE8F883FFF7F2
:102900007BFF58B97B1B4046196801F069FB99F8B9
:1029100000300BB1FFF75AFF043DE3E76FF08B0087
:10292000EBE76FF01500E8E72046E6E700E001403E
:102930009F140020F0B54068057B01F01F0444EAB5
:102940004514056987B0002D64D0B2F5001F00F171
:10295000100506D12146284604F00FF9002007B0E3
:10296000F0BD01AE0027B2F5800F0197776039D135
:10297000B3F1007F14BF052304238DF80430002336
:10298000CDE904630393836823FA01F111F0010197
:102990001AD1B2F1A07F17D104F01F03620903F529
:1029A000E0732AD0012A3BD11F4A52F82330DB07BB
:1029B0000AD40DF1030632462146284601F04AF9B1
:1029C0001A4B98421CD0029603AA2146284601F0D1
:1029D00003F8174B984220D101222146284601F0E6
:1029E0009DF9BBE7B3F1C06F05D0B3F1007F14BF11
:1029F00001230223C1E70323BFE74FF0A042D4E73E
:102A00003146284601F084F9094B9842DBD06FF03B
:102A10000B00A4E76FF08500A1E76FF015009EE7BB
:102A200051F82330FFDE00BF000300500400AD0B5F
:102A30000000AD0B38B545682B69B3B11035284699
:102A400001F056F9044680B90146284601F01CF908
:102A5000084B98420BD108492246284601F0F4F869
:102A6000224605210620FFF749FB002038BD6FF004
:102A70000400FBE70000AD0B7D2A0000420970B5A1
:102A8000034602D0012A17D070BD0D4E326951683D
:102A90000029F9D003F01F0301250C689D4000298F
:102AA000F2D08A682A4002D04B68304698472CB151
:102AB000236821461C46F2E7024EE7E72346F8E783
:102AC000C86D0000B46D00002DE9F043466840F287
:102AD0000635D006337B87B002EA050554BFC2F342
:102AE0004010032001F01F07B5F5837F144647EA25
:102AF00043178DF8030045D00FD8062D18D007D8FE
:102B0000B5B1022D40D06FF0150007B0BDE8F083DD
:102B1000B5F5807FF7D101250AE040F20222954207
:102B200034D0B5F5407F33D0B5F5007FEBD1022529
:102B30000123220303FA01F12CD57368C3F80815A9
:102B4000326982BB07F01F037F0929D0012F77D19B
:102B50003E4A02EB830284F48033D2F80017C3F3B9
:102B60000043C4F3404444EA430421F4E16144EAED
:102B7000800421F0070144EA05230B43C2F8003723
:102B80000020C2E70725D3E70425D1E70525CFE7D5
:102B90000325CDE7630344BF7368C3F80C15CFE783
:102BA0004FF0A042D5E710360DF10202394630460B
:102BB00001F050F814F4403F80460CD139463046BD
:102BC00003F0D9FF224B9845DAD19DF80210304628
:102BD00001F098F8D4E701AB4FF0000903AA394699
:102BE0003046CDE90439CDE90199CDF80C9000F0DB
:102BF000F3FE174B984286D114F4003315D09DF89C
:102C000003308DF80E3084F48034C4F300444B4616
:102C100003AA394630468DF80C508DF80D4000F06F
:102C200095FF0B4B9842CDD06DE7CDE9043303AA55
:102C30000DF1030339463046039300F0CDFEF0E773
:102C400003F5E07352F82330FFDE00BF00030050AD
:102C50000000AD0B70B5012383400E4ABFF35B8FBC
:102C6000DC4352E8001F01EA040542E80056002E4A
:102C7000F7D1BFF35B8F4FF4803282400648C0F833
:102C80000823BFF35F8FBFF36F8F0B4214BF012088
:102C9000002070BD6C1300200010014070B40E497C
:102CA000D1E90034D01AC31844F1000422F07F4661
:102CB000C1E90034A6F50013B3F5400F09D2074B64
:102CC0001B681A0A1B069C19054B42F10005C3E953
:102CD000004570BC01F0E4BAE0050020701300204C
:102CE000E805002011B3BFF35B8F0123104A834036
:102CF00052E800CF4CEA030C42E800C10029F7D1AA
:102D0000BFF35B8F0B4A4FF480338340C2F8043328
:102D1000094BBFF35B8F1B68BFF35B8FC340DB07BF
:102D200042BF064B4FF40032C3F80021704700BF8A
:102D30006C130020001001406813002000E100E047
:102D40000D4B1868010A0006BFF35F8F0B4BD3F8D9
:102D50000435181841F10001B3F5801F0AD2084B61
:102D6000D3E90023904271EB030303D210F180708A
:102D700041F10001704700BF7013002000100140B6
:102D8000E80500202DE9F04F85B016461F469DF856
:102D900040A00446FFF75EFF0190FFF7D1FFB0426D
:102DA00071EB070354D23E4B301A67EB0101984296
:102DB00071F100014FD23B4B03EB0413D3E9022323
:102DC0009F4208BF96425ED037494FF4803804F1E5
:102DD000500508FA04F8AD00C1F848832046ADB2AA
:102DE00003F03CFD26F07F4B05F1804504F5A87308
:102DF00005F58835DC464FF003090293029A2CF062
:102E00007F4341F82230C1F84483D1F80435274A82
:102E10006FF00200C01A604420F07F40904232D927
:102E2000286868B1D1F804350393A3EB0B0020F0B8
:102E30007F40B0F5000F26D9204603F00FFD039B1D
:102E4000BAF1000F07D109EB030C09F10109D5E72D
:102E5000BAF1000F09D06FF0150520460199FFF770
:102E600041FF284605B0BDE8F08F0123104ABFF3AB
:102E70005B8FA34052E8000F184342E8000100298D
:102E8000F8D1BFF35B8F07490E98230101EB0412C1
:102E9000C8500F9B5360C2E902670025DDE700BF01
:102EA00001008000D005002000100140FDFF7F00E0
:102EB000681300207FB51C4C1C4BC4F80833C4F8C1
:102EC00048331B4B00254FF0FF304FF0FF31C4F863
:102ED0000855C3E902014FF48033C4F80433154B9D
:102EE00002264FF400320121C4F804631120C3F814
:102EF00080212A46FFF702F91120FFF7CFF80E4A8A
:102F00000123A360236013600C4B0D4A0093CDE9AD
:102F1000015500232846FFF735FF3046FFF7C2FB77
:102F2000284604B070BD00BF0010014003000F0030
:102F3000D005002000E100E06C1300209D2C000073
:102F4000FFFF7F002DE9F7432F4CD4F80433990796
:102F50000BD5D4F8043143B12C4A0023C4F8043112
:102F6000D4F80431136801331360D4F80433DA035E
:102F700029D5BFF35B8F264B53E8002F22F00101C8
:102F800043E800100028F7D1BFF35B8FD30702D4CA
:102F9000D4F84031BBB10025C4F84051D4F84031D9
:102FA000FFF7CEFEEFF31182202383F31288BFF3E5
:102FB0006F8F184BD3E90267B042B94106D282F352
:102FC0001188BFF36F8F03B0BDE8F0834FF0FF3877
:102FD0004FF0FF39C3E90289D3E900101D604FF4B7
:102FE0008033C4F84833C4F84051D4F8403182F3F8
:102FF0001188BFF36F8F0029E5D0009032463B4621
:1030000028468847DFE700BF00100140701300200A
:1030100068130020D005002030B5431C124C85B049
:1030200005D08442A8BF0446012CB8BF0124FFF795
:1030300087FE0E4B0C4DD3E90013401AB0F5000F7C
:1030400010D22218AA4228BF2A4652184FF0000078
:1030500007490091CDE9010043F10003FFF792FE1B
:1030600005B030BD2A46F0E7FFFF7F00E0050020F5
:103070009D2C000008B5FFF763FE024B1B68C01AC9
:1030800008BD00BFE005002010B5084C01236360B7
:103090001120FFF711F8064BC4F80833C4F8483381
:1030A000044B4FF40032C3F8802110BD00100140E2
:1030B00003000F0000E100E030B50C490C4D0B6837
:1030C0000246002405EB0310D0F80808C0B218B976
:1030D00004B10B60002007E00133072B4FF001041F
:1030E000F0D90B606FF01B00136030BD741300202B
:1030F00000E0014030B5816885B0103921F0070447
:10310000054603F0A6F910220146684603F042FA8C
:1031100007491022684603F032FA10236A46214616
:10312000284603F060F9003818BF012005B030BD13
:10313000C672000030B50D46816887B0102302AA20
:103140001039044603F03AF9002802DA012007B0EA
:1031500030BD102202A9204603F0EDFB00283AD131
:103160001E49102202A803F0FAF900280CBF01231F
:1031700002232B70204603F0CAFB012301460DF108
:103180000702204603F01AF90028DFDB9DF807301C
:1031900003F00F021B096A702B7101220DF1070168
:1031A000204603F0C8FB10B96B78042B03D9012328
:1031B0006B7000232B71A268183A22F00702083ABC
:1031C000A91C204603F0CAFB0028BFD1E91C2046F9
:1031D00003F01DFCBBE70323CBE700BFC672000072
:1031E000F0B5354F460085B00546694657F82600CC
:1031F00003F013FC044610B1FF2005B0F0BD01360A
:1032000002A957F8260003F008FC012837D12B4803
:103210002A46492103F0C4F8294B02938DF80C404B
:103220009DF800609DF80870264C002220783146F9
:1032300003F073FB50B36078394603F06EFB28B39C
:10324000A378042B03D09DF8031099421ED1E37894
:10325000042B03D09DF80B10994217D12379042B2E
:1032600010D16279022A1DD1174B18482A464921EC
:1032700003F096F86079831E022BBED9BCE70028C4
:10328000CED0B9E79DF802109942EAD00132032A64
:1032900004F10604CAD10E482A46492103F080F8F9
:1032A0000120AAE7032A05D00A4B0B49042A08BFCC
:1032B0000B46DAE7094BD8E71471000016790000D5
:1032C00003010303AB790000F87800006179000086
:1032D00085790000FD7800000F790000F378000088
:1032E0004FF08053D3F83021082A06D1D3F8343177
:1032F000052B02D8024AD05C70470020704700BFFF
:10330000C3790000024AD2F80034002BFBD070478A
:1033100000E0014010B54FF08053D3F83021082A67
:103320004ED14FF080420021C2F80C11C2F81011AA
:10333000C2F8381502F54042D3F80414C2F820153B
:10334000D3F80814C2F82415D3F80C14C2F82815C1
:10335000D3F81014C2F82C15D3F81414C2F8301591
:10336000D3F81814C2F83415D3F81C14C2F8401559
:10337000D3F82014C2F84415D3F82414C2F8481521
:10338000D3F82814C2F84C15D3F82C14C2F85015F1
:10339000D3F83014C2F85415D3F83414C2F86015B9
:1033A000D3F83814C2F86415D3F83C14C2F8681581
:1033B000D3F84014C2F86C15D3F84434C2F8703511
:1033C000FFF78EFF18B1414B414AC3F88C26FFF737
:1033D00087FF18B13F4BFB22C3F81825FFF780FF8A
:1033E00070B14FF080414FF08053D1F8E42ED3F804
:1033F000583222F00F0203F00F031343C1F8E43EEA
:10340000FFF76EFF20B1344B4FF40072C3F8402633
:103410004FF08053D3F83031082B09D14FF080435F
:10342000D3F80024D20744BF6FF00102C3F8002490
:103430002A4AD2F8883043F47003C2F88830BFF3C8
:103440004F8FBFF36F8F4FF08053D3F83021082A8E
:103450000ED1D3F83431052B02D8214AD35C3BB1CD
:103460004FF01023D3F808224FF08043C3F85825BB
:103470004FF01023D3F80022002A03DBD3F80432E4
:10348000002B22DA174901234FF01020C1F8043530
:103490001224FFF737FFC0F80042FFF733FFC0F8F0
:1034A0000442FFF72FFF0023C1F80435FFF72AFF7E
:1034B000BFF34F8F09490C4BCA6802F4E062134313
:1034C000CB60BFF34F8F00BFFDE710BD0050004041
:1034D0004881030000F000400090024000ED00E051
:1034E000BD79000000E001400400FA0530B5046831
:1034F000CCB1BFF35B8FB4FA84F3C3F11F03DBB22B
:1035000001229A4024EA020250E8005FA54204D159
:1035100040E8002CBCF1000FF6D1BFF35B8FE6D181
:1035200002480B7030BD0248FCE700BF0000AD0B45
:103530000200AD0B10B50368CB40DB0714D40123A8
:103540008B400268BFF35B8F43EA020150E8004FF3
:10355000944204D140E8001CBCF1000FF6D1BFF347
:103560005B8FEED1014810BD0148FCE70000AD0BB8
:103570000400AD0BF7B5044618B1012823D003B001
:10358000F0BD4FF080430222C3F808230122DA6025
:10359000C3F80401D3F80431064601238DF807303F
:1035A00042F210754FF08047D4B1012CE7D1D7F823
:1035B0000C3403F48033AEBB83B3012003F05BFA19
:1035C000013DF4D12AE04FF080430022C3F8080304
:1035D0005860C3F80021D3F800310DF10706DCE78D
:1035E000D7F8183403F480333EB9002BC7D001203C
:1035F00003F041FA013DF3D1C1E7D7F8182402F0F6
:1036000003023260002BBAD09DF80700012803D1D5
:1036100003F031FA013DC7D1012CB0D1054B002296
:103620005A71ACE7D7F80C2402F001023270002B7B
:10363000EAD1F3E778130020054B1A792AB99A7179
:10364000012218609A80034870470348704700BF02
:10365000781300200000AD0B0C00AD0B08B5074B34
:103660001B682BB10020FEF73BFD08B9FEF716FDE5
:103670004FF080430022C3F8182508BD78130020BE
:1036800010B510B1012840D010BD4FF08043D3F8E1
:103690001814D3F81824CC031ED5900702D00020AC
:1036A000FFF768FF4FF080430022C3F8182502207F
:1036B00008224FF4827303F180430021196002F164
:1036C00080421C6801241460154A12680AB34FF046
:1036D0008043C3F80403D7E7D3F81424D107E1D516
:1036E000D3F81C249207DAD10D4A12681AB10222CB
:1036F000C3F80423C8E7D3F80421002AFBD0002232
:10370000C3F80421D3F80431BEE700224FF48073DC
:10371000D1E71A68002AFCD019601B68B4E700BF23
:103720007813002010B54FF08043D3F800216AB120
:103730000022C3F80021D3F800210122C3F8082396
:10374000184B587910B95A711B6898474FF080434D
:10375000D3F804215AB10022C3F80421D3F804217C
:103760000222C3F808230F4B01201B6898474FF033
:103770008043D3F80C21A2B1D3F80423120710D54B
:103780000022C3F8342CC3F80C21D3F80C11082103
:10379000C3F80813034B9A71BDE810401B6804205E
:1037A000184710BD78130020036803F01F025B095F
:1037B000026004D0012B034818BF002070474FF06F
:1037C000A040704700030050034A430900F01F0067
:1037D000D35C1844C0B27047C979000070B5054683
:1037E000FFF7F2FF0C4C08300E4634F81030DA05C3
:1037F00008D5C3F3432304EBC302284654F83330FF
:1038000052689847A3682BB1E26831462846BDE864
:103810007040184770BD00BFD804002008B5FFF7FE
:10382000D3FF034B083033F81000400B08BD00BF36
:10383000D804002008B5FFF7C7FF034B083033F862
:103840001000C0F3400008BDD804002008B5FFF701
:10385000BBFF034B083033F81000C0F3401008BD25
:10386000D8040020034611F0010010B5CCB20DD1F0
:10387000A207C4F3400012D5094AD2F820055860C7
:10388000C2F82005003818BF012008E04FF0A04121
:10389000D1F820251A60C1F82025002AE8D010BDF3
:1038A0000003005010B5FFF78FFF124A083032F8BE
:1038B0001030D9051CD5C3F3432123F4F85322F863
:1038C000103002F10E04002034F8023F13F4807F20
:1038D00003D0C3F3432399420AD001303028F3D1F7
:1038E000002342F831300448BDE81040FFF722BE03
:1038F00010BD00BFD804002050050020F0B50546DB
:1039000000200446012607468C420BD1114BD3F808
:103910007C2132B10022C3F87C21D3F87C3140F005
:103920000040F0BDE3B29B0003F580729B0806FAED
:1039300003F31D420BD002F1804202F5C042D2F8DF
:1039400000C0BCF1000F02D01760126818430134A8
:10395000DAE700BF00600040F7B506460846FFF70B
:1039600033FF194F00F108050C4637F81530DB0717
:1039700027D5304603F0DBF82046FFF767FF40B15C
:103980002046FFF74BFF316800F5A270002341F895
:1039900020302046FFF786FF002301A827F81530C6
:1039A0000194FFF701FF019B00EB8300074BD0F868
:1039B0000027134043F00203C0F80037044803B067
:1039C000F0BD0448FBE700BFD8040020F0F8FCFF7E
:1039D0000000AD0B0400AD0B2DE9FF4116468046FB
:1039E0000846FFF7F1FE0D463168044609B3284644
:1039F000FFF720FF18B12846FFF728FF10BB002370
:103A0000CDE900338DF80E308DF80F300DF10F0237
:103A10000B4628460DF10E0103F031F8474A04F138
:103A2000080132F8113023F0020343F0010322F8B9
:103A30001130736863B328461F785968FFF7FAFEA0
:103A400010B1D1B13E4826E03C4A04F1080032F8FA
:103A5000103023F02003DB04DB0C22F8103061B1BE
:103A6000032FEFD87168496891F800C0D8F80010AA
:103A7000A7B90CF5A27C41F82C70304A04F108017A
:103A800032F8113023F01C0343EA870322F8113087
:103A9000B3684BBB2B4804B0BDE8F08101EB8C014F
:103AA00043EA4C33D1F810E52EF0030EC1F810E5CF
:103AB000D8F8001001EB8C0E43F02003DEF810154F
:103AC00022F8103021F44F3121F44071CEF8101556
:103AD0002902DEF8108501F47C5141EA074141EAF0
:103AE0000801CEF81015C8E7D3E900672846FFF7AC
:103AF000D9FE002ECED0114DD5E90023964203D138
:103B00009F4201D1002209E00F480DF10F01FFF79C
:103B1000EDFC0C4B9842BED19DF80F2045F8326069
:103B200005EBC20308345F6035F8143043EA4223E2
:103B300043F4807325F81430ACE700BFD8040020AC
:103B40000400AD0B0000AD0B500500202DE9F04343
:103B50000C4685B08046204611461E46FFF734FECF
:103B6000054629B32046FFF765FE18B92046FFF742
:103B70006DFE18BB314F05F1080937F8193013F005
:103B80001C0F02D04B78012B18D001238DF80F3079
:103B90000023CDE900134A1C8B1C20460DF10F01B8
:103BA00002F06DFF37F8193043F0030327F819309E
:103BB000002E41D02046FFF73DFE18B9204805B041
:103BC000BDE8F08396F800C0D8F800301B4F0CF524
:103BD000A272002143F8221005F1080237F81210F2
:103BE00021F02001C904C90C27F8121075781DB303
:103BF000D8F80000B67800EB8C002D04D0F8103512
:103C000023F4991323F4F853C0F81035230203F476
:103C10007C5305F440353605D0F810E52B4306F407
:103C2000801641EA4C31334341F0200143EA0E0350
:103C300027F81210C0F810350248C0E7D804002059
:103C40000400AD0B0000AD0B014BC3E9021270473D
:103C5000D804002010B508461446FFF7F7FD50B110
:103C60000846FFF7B1FD054B083033F81030044823
:103C70005B0B237010BD0348FCE700BFD804002095
:103C80000000AD0B0400AD0B70B5164D95F88040EB
:103C900006462CBB2146602205F1100002F07AFC9A
:103CA00030682E6F21468E420ED10023C0F87C3141
:103CB000D0F87C3140F30730FEF7F0F901230A48D1
:103CC00085F88030AB6770BDCBB29B0003F5807286
:103CD0007C2B08BF845001F1010108BF8358E2E743
:103CE0000248F0E7D80400200000AD0B0C00AD0B3B
:103CF000034B93F88000003818BF0120704700BFC5
:103D0000D80400200148FFF715BC00BF4C05002077
:103D10000148FFF7EBBB00BF4C05002073B50368FB
:103D20001646D3F80423002AA8BF4FF000420546E8
:103D3000A8BFC3F8042308460C46FFF787FD00B36D
:103D40000846FFF777FD0146D8B92046FFF766FD24
:103D500004B2A40004F580720346286881502968E3
:103D600082582144D1F8102542F00102C1F81025F3
:103D70002EB12968012202FA03F3C1F8043302B01C
:103D800070BD2046FFF720FD0F4B083033F8103090
:103D9000C3F38203042B12D0052B12D001A8019487
:103DA000FFF702FD019AD0F81035D34003F001036C
:103DB000991C204602B0BDE8704002F0A9BE032164
:103DC000F7E70221F5E700BFD80400202DE9F04F06
:103DD000694BDFF8B081D3F80403D8F87010C0B293
:103DE00089B040F00040FFF789FD051E2FDAC2467A
:103DF00000235AF87C1F06A8CDE90633FFF732FDF1
:103E00005E4B01930DF118094FF0000B019A12F867
:103E1000013B0192DA0803F007031AF8022022FAA4
:103E200003F3DA071CD409F10409BBF1000F14D025
:103E3000D8F870104FF00040FFF760FDD8F87C1004
:103E400006A8FFF70FFD0028DAD125F00045012470
:103E5000002D79D109B0BDE8F08F4FF0010BD5E707
:103E6000474B5B440293D9F800100029DBD0029B3A
:103E700091FAA1F11C78B1FA81F141EA441420468B
:103E8000FFF7A2FC0830059438F81070C808BB088A
:103E900019F80020039301F00701012303FA01F14F
:103EA00022EA010209F8002005A8FFF77DFC059A27
:103EB000039B02F5E072C7F3820650F822205B07ED
:103EC0003746C2F3014224D520463946D6B2FFF721
:103ED00085FC05A80594FFF767FC059B03F5E073D7
:103EE00050F82330C3F301439E4207D100212046FE
:103EF00002F00EFE3146204602F00AFE05A80594A7
:103F0000FFF752FC059B012202FA03F3C0F82035AB
:103F1000A9E7022A0CD10321204602F0F9FD06F0A0
:103F20000503012BEAD139462046FFF757FCE5E7A8
:103F300002212046039202F0EBFD032EF3D0039AF8
:103F4000032ADBD1022EEDE795FAA5F3B3FA83F34A
:103F500004FA03F29B0003F1804303F5C04325EA12
:103F60000205D3F81005D3F81015C0F30520C1F3EE
:103F70000141FFF733FC6BE700600040D979000096
:103F8000D9790000D8040020044AD2F80034DB07B5
:103F9000FBD50160BFF35F8F704700BF00E00140B9
:103FA0004FF080531A69B0FBF2F302FB130373B9AD
:103FB000084B0222C3F80425C3F80805D3F80024EF
:103FC000D207FBD500220448C3F8042570470348F4
:103FD000704700BF00E001400000AD0B0A00AD0BD0
:103FE00010B5054C0123C4F80435FFF7CDFF0023BD
:103FF000C4F8043510BD00BF00E0014010B5144CFA
:10400000A8220021204602F0C5FA03232361114AA9
:104010006361114BA261E3614FF48063236200236B
:10402000A3626362E36222660C4A62661022A266A1
:104030002367E3666367BFF35F8F094A12F8011DC8
:10404000E1540133102BF9D1BFF35F8F10BD00BFD6
:1040500010040020DB790000100000200000002088
:10406000F4790000F8B5144B182700FB07751D44C0
:1040700007FB00330E46DB6A012B14460AD0022BE5
:1040800014D023B9284602F088FD844208D90024C0
:104090002046F8BD284602F080FD844228BF044631
:1040A00022463146284602F081FDF1E72846BDE868
:1040B000F84002F098BD00BF10040020F8B50B4B8B
:1040C0001B7804460D4616460BB9FFF797FFEFF332
:1040D00011874FF0200181F311883246294620468E
:1040E000FFF7C0FF87F31188F8BD00BF1004002060
:1040F00038B5094B53F82040013053F82050A54201
:1041000000D838BD636823B1204602F0CAFD0834E8
:10411000F5E723689847FAE71C71000008B50A4BD9
:10412000012203201A70FFF7E3FFFDF7B7FD02F04D
:10413000D4FD0420FFF7DCFFFCF74CF9034A137BA6
:1041400023F00103137308BDA0140020F005002024
:1041500008B50348034A0021121A02F0BAFD08BD4F
:10416000D0050020A414002008B50020FFF7C0FFF0
:10417000184B83F30888184C636943F40073636138
:104180000025E02384F82230E57725766576A5764C
:1041900084F82050636A43F4E023636284F8235078
:1041A000FDF7D6FEFEF722F84FF0FF33A362E3627D
:1041B000FEF7B6F8FEF73EF802F04DFD0120FFF7DE
:1041C00097FF0220FFF794FF04482B462A46294612
:1041D000FDF7F0FF001D002000ED00E01D41000094
:1041E00008B50648064A0749121A02F074FDBDE8F0
:1041F0000840054A0549064802F06DBDC00400208C
:10420000CC050020007A000000000000F8790000D2
:10421000C0040020034B1B680BB9FEF72BBF002026
:10422000704700BF8013002030B570B10B4B5B6846
:1042300098420AD0036843B1D3E90421D0E9044588
:10424000121941EB0501C3E90421D0E900321360E2
:104250005A600023C0E9003330BD00BF5C05002078
:1042600010B50E4B1C689C4204D1FFF7D3FF6FF0D2
:10427000004010BDFFF7CEFF002CF8D0D4E9043287
:104280001B1A62EBE072B3F1004F72F10001EEDA3B
:10429000002AACBF18460020EBE700BF5C050020F9
:1042A0002DE9F84FEFF31186202383F31288BFF333
:1042B0006F8FDFF8B4902A4D2A4C2860D9F800009F
:1042C0004FF0000A484508BF00204FF0000BD4E92A
:1042D000001E2B68374680B3D0E904864FEAE37CA2
:1042E00043457CEB060206DAB8EB030266EB0C06EC
:1042F000C0E9042621E018EB01014EEBE873C0E9A8
:1043000004ABC4E90013FFF78FFF87F31188BFF3F5
:104310006F8F83689847EFF31187202383F3128808
:10432000BFF36F8F2B68D9F80000A3EB0803484553
:104330003E462B60CBD1D4E9001E59184EEBE373F7
:10434000C4E9001300242C60FFF78AFF2146FEF722
:1043500063FE87F31188BFF36F8FBDE8F88F00BF4E
:1043600080130020700600205C05002010B50A4C68
:1043700023681BB101232360002010BD00F048F822
:104380000028F7D00138062803D8044B53F8200042
:1043900010BD034810BD00BF84130020347100001D
:1043A000FE8FFFFFBFF34F8F0549064BCA6802F42B
:1043B000E0621343CB60BFF34F8F00BFFDE700BF48
:1043C00000ED00E00400FA0510B40A4B0A490B4C5A
:1043D0004FF0FE32C3F800244968C3F80424C3F840
:1043E0000824C3F80C240023C4F800355DF8044BFE
:1043F000084700BF00B002506405002000A0025032
:10440000D0E90012014BC3E9001270476405002097
:1044100038B500F02FF820B1032400F063F82046EF
:1044200038BD00F031F898B900F0ACF898B90F4DEC
:10443000D5F828391B0EF02B08D1D5F8242A0C4BBF
:104440009A420AD0072400F017F8E6E70624FAE7B4
:104450000424204638BD0024F5E7012000F092F83E
:1044600004460028F7D1C5F80C0AD8E700B002507E
:104470000000E0200020704700207047014BC3F887
:10448000040A704700B0025010B5114800F048F817
:1044900000B110BD0F4800F043F80028F9D10E4CD0
:1044A000204600F03DF80028F3D10C4B0C481C606E
:1044B00000F036F801460028EBD100F02DF8044654
:1044C00008B1204610BD00F03FF82046FAE700BFD3
:1044D0007C05002078050020740500206C05002074
:1044E0007005002008B5084800F024F8074800F0DF
:1044F00021F8074800F01EF8064800F01BF8BDE858
:10450000084000F00BB800BF7C05002078050020B3
:10451000740500207005002000207047704700BF20
:1045200008B5034B02681B6810689847002008BD57
:104530009405002008B5034B02685B681068984733
:10454000002008BD9405002070B5094C094D206974
:10455000AB68984718B1084B08485B689847084A09
:10456000EB68206900211160BDE87040184700BF6A
:104570008005002094050020640500205071000093
:1045800088130020F8B51A4D1A4E0446B2682869FF
:104590009047E8B9184F3B684CB1A3B1012B19D033
:1045A000013B3B602869F36898470020F8BD43B998
:1045B000124A0121C2F800151149D1F81029002A28
:1045C000FBD101333B60F368286998470020F8BDB0
:1045D0000C48F8BD0A4AD2F81039002BFBD1074A23
:1045E0006FF07E40C2F80035FFF748FF3B68D7E721
:1045F00080050020940500208813002000A00250B0
:1046000000B00250E98FFFFF10B5044650B1636857
:1046100013F0685F05D0064A934202D0002323605E
:10462000626010BD034B04485B689847EFE700BF2A
:104630002C5F5CA96405002070710000C8B143685C
:104640000D4A934213D013F0685F0ED0012350E857
:10465000002F194640E8001C9CF0000FF7D1012AFA
:10466000F5D0BFF35F8F00207047044870470448BF
:1046700070476FF4E04070472C5F5CA9E98FFFFF43
:10468000EA8FFFFF80B14368094A93420AD013F0D2
:10469000685F05D0BFF35F8F002303601846704743
:1046A00004487047044870476FF4E040704700BF0B
:1046B0002C5F5CA9E98FFFFFEA8FFFFF10B504466E
:1046C00020B1044B63600022226010BD0248FFF756
:1046D0007BFEF6E73A00003A9871000030B10268BC
:1046E000034B04489A4208BF0020704702487047B5
:1046F000DD55AABB8208F0007108F00038B50D4600
:104700000446B0B1A0220021043002F006FB95B1AE
:104710000822294604F1640002F005FB082205F195
:10472000200104F1840002F0FEFA044B2360002013
:1047300038BD0348FCE70348FAE700BFDD55AABBD4
:104740007108F0008308F0002DE9F74305460E4696
:1047500099461146FFF7C2FF0446002840F08480C6
:10476000002E00F08580002900F08480B9F1200F30
:1047700040F0828005F14404082205F10408204637
:1047800002F0D1FA05F1240708223146404602F032
:10479000CAFA06F120010822384602F0C4FA02A93A
:1047A0004FF4807041F8049D02F0B1FA002865D101
:1047B000334A4FF480731360012193600823314A18
:1047C00000F02EFB0121084605232F4A00F028FBAC
:1047D0000823424601211C2000F022FB08233A4610
:1047E0000121032000F01CFB2246082301210220A6
:1047F00000F016FB0823254A01211A2000F010FBC7
:104800000523234A01211B2000F00AFB0823214A2B
:104810000121142000F004FB08231F4A0121152068
:1048200000F0FEFA082305F164020121162000F0D1
:10483000F7FA082305F184020121172000F0F0FAAD
:104840000823164A01210B2000F0EAFA00F044FB8D
:104850000446019800F0D2FA114B002C18BF1C46F8
:10486000A421284602F05BFA204603B0BDE8F0839D
:104870000C4CF9E70C4CF7E70C4CF5E7084CEFE76C
:1048800090B00250FC71000074720000BC71000016
:10489000607200002072000040720000DC710000B5
:1048A0008408F0007608F0008008F0008108F0002D
:1048B0000C4BC2691A60826943F8042C426943F8C0
:1048C000082C026943F80C2CC26843F8102C82684B
:1048D00043F8142C426843F8182C026843F81C2C47
:1048E000704700BF5CB602500C4B1B68C3610C4B99
:1048F0001B6883610B4B1B6843610B4B1B68036197
:104900000A4B1B68C3600A4B1B688360094B1B681A
:104910004360094B1B680360704700BF5CB60250E0
:1049200058B6025054B6025050B602504CB602501F
:1049300048B6025044B6025040B6025030B1026848
:10494000034B04489A4208BF002070470248704752
:10495000DD55AABB0202F0000002F00038B50446A3
:1049600068B1051D7021284602F0D9F92846202299
:10497000044902F0D0F9044B2360002038BD0348FD
:10498000FCE700BF88720000DD55AABB0002F00002
:104990002DE9F043284B04460E4615460FCB85B053
:1049A0006F4687E80F002DB94FF00009484605B063
:1049B000BDE8F0832046FFF7C1FF81460028F5D10E
:1049C000231D0193636AA3BB236F8BB1C3F140081E
:1049D000A84528BFA84604F1300031461844424695
:1049E00002F099F9236F434446442367A5EB080579
:1049F000226F402A06D104F13001384600F0AEFBA8
:104A00000023236705F03F0835F03F0505D0314608
:104A10002A46384600F0A2FB2E44B8F1000FC3D05E
:104A20004246314604F1300002F075F9C4F8708056
:104A3000BCE7DFF80890B9E7806F00000C02F000D7
:104A40002DE9FF41144B04460E460FCB6F4687E815
:104A50000F002046FFF772FF8046B0B9CEB1636AFF
:104A6000251D01953BB901236362226F04F13001DA
:104A7000384600F073FB2B46043E243453F8042BD5
:104A800012BAA34246F8042FF8D1404604B0BDE85C
:104A9000F081DFF80880F8E7806F00000502F00081
:104AA000084B1B681B0EF02B08D1074B1A68074BED
:104AB0009A4205D1064B00201860704705207047C8
:104AC0000620704728B9025024BA02500000E020A6
:104AD0000CBA0250002230B549001346023840F6A5
:104AE000FC7502F1A05404F52C44A400904202F19C
:104AF0000102CABF236025605B181E2AF1D1044A57
:104B000013600B445360034B034A1A6030BD00BF6F
:104B100078B0025084B0025020F80F0030B51E4B20
:104B200085B01A46196800910099CC07FAD500F1B2
:104B3000A05000F52C408000016813680193019B90
:104B4000D807FAD5154B164C1868164D1F30202380
:104B500090FBF3F00138002810DA00230130400107
:104B600053B1A0F120014FF00042134204D10138AB
:104B700088424FEA5202F8D105B030BD1368039362
:104B8000039BDB07FAD5431823602B680293029B33
:104B9000002BE3D10138DEE7B4B00250ACB00250D4
:104BA000E4B00250DCB00250F0B51D6885B001F0F1
:104BB0001F040DB91F2C25D1154D2E462F680197C6
:104BC000019FFF07FAD500F1A05000F52C408000AE
:104BD000006835680395039DED07FAD50D4D00EB90
:104BE000611028600C48006802901F2C18BFC94350
:104BF00002980FBF106001F01F0100FA01F111606F
:104C00000021196010684300C00F136005B0F0BDAB
:104C1000B4B00250E4B00250DCB002500C4B18604B
:104C20003F3020F03F008901403058609960D960E2
:104C30001961596199611C330648196082B0026894
:104C40000192019AD207FAD5196002B0704700BFED
:104C500090B00250B4B0025038B5A0F12003B3F5C3
:104C6000426F05462CD88F2826D800F1470300F163
:104C70006604DB064FEA541400D0013464013F346B
:104C8000A409013411B1A1421AD30C46E3004FF438
:104C90008050B0FBF3F0202828BF202002B1106024
:104CA000084B01221A602146FFF714FF28462146CF
:104CB000FFF7B4FF002038BD00F11F046409DDE7F1
:104CC0000148F8E71CB802502221F000F0B5454B2E
:104CD00089B01D461C680194019CE407FAD5424B3B
:104CE000DFF80CE1DFF80CC113449B0000241A68C4
:104CF0000B181E2B88BFC0F11E011F320B18520962
:104D00005343B3F5806F82BF4FF48061B1FBF2F182
:104D1000091A00F1A05000F52C402746A14233DCCF
:104D20002B680493049BDB07FAD5304B1B6829687A
:104D300005910599CF07FAD52D4C2E492360002304
:104D40001E46934203F1010040D120F001022948A0
:104D5000194600268A423CD8296806910699CE0752
:104D6000FAD525490968286807900798C007FAD539
:104D70002160204800210C468B422DD11D49002086
:104D80009A422CD809B0F0BD2B680293029BDB0736
:104D9000FAD503199B001B682E680396039EF6073D
:104DA000FAD5CEF800300023934203F1010306D177
:104DB000164623F00103B34204D80134AEE7CCF821
:104DC0000070F1E7CCF800700136F4E70E6003469E
:104DD000B7E706600131BDE704600131CCE7086048
:104DE0000133CDE7B4B0025024AC00147CB00250C3
:104DF000D4B00250D8B0025078B0025008B540B1DB
:104E0000202801464FF0070228BF20210020FFF78D
:104E10005DFF024B00221A6008BD00BF1CB80250A3
:104E2000F0B5294D85B02C462E680096009EF607F9
:104E3000FAD500F1A05000F52C40800005682068EC
:104E400001900198C707FAD52048214F056002EB71
:104E50008306B24229D15A1C1D4E22F001020027BE
:104E60009A4227D823680293029BDE07FAD5194B92
:104E70000B449B001B681F335B099A4213D22168C5
:104E800003910399C907FAD5154400219B1A104ACA
:104E9000056008468B4210D85A1C0D4922F00102C9
:104EA00000209A420CD805B0F0BD52F804CBC7F8E8
:104EB00000C0CEE737600133D2E710600131E9E787
:104EC00008600133EDE700BFB4B00250D4B0025027
:104ED000D8B0025024AC00142DE9F041814B1D687C
:104EE00098682033A0B01E461A680192019AD7072D
:104EF000FAD57D4B7D4A1A6032680292029AD40735
:104F0000FAD57B4A1A607B4A1446116803910399CB
:104F1000C907FAD5784A1168C1F340213768049768
:104F2000049FFF07FAD5754F1F6027680597059FF7
:104F3000FF07FAD51768002900F0CF80B90540F1C6
:104F4000CC80316806910699CF07FAD56C49196073
:104F5000216807910799C907FAD51168C1F3402163
:104F600037680897089FFF07FAD5664F1F602768C4
:104F70000997099FFF07FAD51268002900F0AF8052
:104F8000910540F1AC8032680A920A9AD207FAD5AC
:104F9000564A1A6032680B920B9AD707FAD55A4ACA
:104FA0001A6031680C910C99CC07FAD557491960F1
:104FB00031680D910D99C907FAD5554919603168C5
:104FC0000E910E99CF07FAD55249196031680F91A9
:104FD0000F99CC07FAD550491960504B1E461968F5
:104FE00010911099C907FAD53F4C4D4B2360336897
:104FF0001193119BDB07FAD54A4B23603368129358
:10500000129BDF07FAD5484B23603A4B9846196844
:1050100013911399C907FAD5324F38603368149346
:10502000149BDB07FAD5226033681593159BD807CC
:10503000FAD53E4B236033681693169BD907FAD5F1
:105040003B4B236033681793179BDA07FAD5394B2C
:10505000236033681893189BDB07FAD5364B23601F
:1050600033681993199BD807FAD5344B23603368FA
:105070001A931A9BD907FAD5314B236033681B93D7
:105080001B9BDA07FAD52F4B236000F01DFC08BBF1
:10509000D8F800301C931C9BDB07F9D53D603368C2
:1050A0001D931D9BD907FAD5274B236033681E93A8
:1050B0001E9BDA07FAD5254B2360D8F800301F93E2
:1050C0001F9BDB07F9D50C4B1B6813F4805F204B4B
:1050D00008BF184620B0BDE8F0811E48FAE71E4818
:1050E000F8E700BF90B0025080B0025000100251AB
:1050F000C01F7229B4B0025088B00250C0CF01293D
:10510000C01F0E29C03F002940010249003184A878
:1051100000001649400108A180440888B0B0025040
:10512000C044708880077A41C0077E4100006A4908
:105130008006164940006E490002002100822021AD
:10514000408220218082242140A161A100C86151B8
:105150000308F1000108F1000208F1002DE9F74F02
:10516000314B44688046924699461A68002AFCD121
:105170002E4B9B461A68002AFCD14FF0FF3001915C
:1051800000F094FC802000F097FC294D294A2A4F1A
:105190002A4E012307202B60A2F59E72C2F83C0123
:1051A0001360636A3B60A36A3360D8F8003042F84A
:1051B000043CD8F80830204698470199D9F80030C7
:1051C000002BFBD1BAF1000F20D11D4B04221A6035
:1051D000D9F80030002BFBD1DBF800A0BAF1000FAA
:1051E000FAD1D8F80C30204698473B6863623368A0
:1051F000A362144BC3F800A0C3F844A1D9F800304F
:10520000002BFBD12B6003B0BDE8F08F236A012B8C
:1052100004BF0C4A13600C4B40201960C3F804A073
:1052200000F050FCD4E700BF10B9025020BC02507F
:1052300018B8025000B90250CCB70250D0B7025093
:10524000C8B7025084B6025028BC025010B5544B67
:1052500098B019461A680192019AD207FAD5514BB3
:10526000514A1A600A680292029AD407FAD54F4A44
:105270001A600A680392039AD007FAD54C4818605E
:105280000A680492049AD207FAD54A4A1A600A6850
:105290000592059AD407FAD5474A1A600A68069219
:1052A000069AD207FAD5454A1A600A680792079A01
:1052B000D407FAD5424A1A600A680892089AD207B7
:1052C000FAD5404A1A600A680992099AD407FAD5B1
:1052D0003D4A1A600A680A920A9AD207FAD53B4AEE
:1052E0001A600A680B920B9AD407FAD5384A1A60EA
:1052F0000A680C920C9AD207FAD5364A1A600A68E4
:105300000D920D9AD407FAD5334A1A600A680E92A4
:105310000E9AD207FAD5314A1A600A680F920F9A8C
:10532000D407FAD52E4A1A600A681092109AD2074A
:10533000FAD52C4A1A601A4B19461C681194119C14
:10534000E407FAD5174B1860086812901298C40742
:10535000FAD51A600A681392139AD007FAD5124A3E
:105360001A600A681492149AD207FAD51E4A1A6073
:105370000A681592159AD407FAD51C4A1A600A6869
:105380001692169AD007FAD5194A1A600A68179227
:10539000179AD207FAD5174A1A6018B010BD00BF85
:1053A000B0B0025080B002500093652100043190EB
:1053B000409665900083612100C3302100C3649052
:1053C000008161900046102100811121004144219B
:1053D00000C320290C4610C80086312100C360217B
:1053E00040C1282940966521001331904096252917
:1053F000594614C84004324910B5494B94B0194677
:105400001A680092009AD207FAD5464B464A1A60AB
:105410000A680192019AD407FAD5444A1A600A68C8
:105420000292029AD007FAD5414818600A6803929E
:10543000039AD207FAD53F4A1A600A680492049A7E
:10544000D407FAD53C4A1A600A680592059AD20731
:10545000FAD53A4A1A600A680692069AD407FAD52B
:10546000374A1A600A680792079AD207FAD5354A6E
:105470001A600A680892089AD407FAD5324A1A6064
:105480000A680992099AD207FAD5304A1A600A685E
:105490000A920A9AD407FAD52D4A1A600A680B9222
:1054A0000B9AD207FAD52B4A1A600A680C920C9A0A
:1054B000D407FAD5284A1A600A680D920D9AD207C5
:1054C000FAD5264A1A600A680E920E9AD407FAD5BF
:1054D000234A1A600A680F920F9AD207FAD5214A16
:1054E0001A600F4B19461C681094109CE407FAD5FB
:1054F0000C4B1860086811901198C407FAD51A600F
:105500000A681292129AD007FAD5174A1A600A68E6
:105510001392139AD207FAD5144A1A6014B010BD28
:10552000B0B0025080B00250809065210004099014
:1055300040966590808061218020082180206490C1
:105540000081619000461021008111210041442119
:1055500080202029024610C8008609218020602171
:10556000402128294096652140962529594614C88E
:1055700010B5504B96B01C461A680192019AD2079A
:10558000FAD54D4B4D4A1A6022680292029AD20710
:10559000FAD54B4A1A604B4A42EA8040226803928D
:1055A000039AD207FAD5186022680492049AD007A9
:1055B000FAD5454A1A60A2F5800242EA8141226882
:1055C0000592059AD207FAD5196022680692069AC2
:1055D000D007FAD53D4A1A6022680792079AD10788
:1055E000FAD53B4A1A6022680892089AD207FAD57F
:1055F000384A1A6022680992099AD007FAD5364AC1
:105600001A6022680A920A9AD107FAD5334A1A60B8
:1056100022680B920B9AD207FAD5314A1A60226897
:105620000C920C9AD007FAD52E4A1A6022680D9275
:105630000D9AD107FAD52C4A1A6022680E920E9A5A
:10564000D207FAD5294A1A6022680F920F9AD0071A
:10565000FAD5274A1A60216810911099C907FAD51E
:105660001A60144B1A46196811911199C807FAD596
:10567000114B20491960116812911299C907FAD586
:105680001D491960116813911399CC07FAD50B497C
:105690001960116814911499C807FAD5174919604F
:1056A000116815911599C907FAD5154A1A6016B0EF
:1056B00010BD00BFB0B0025080B002504004419015
:1056C00000862929D81001C840144190401421298E
:1056D000401465210034409000310C90C0400C9083
:1056E000C030202940960D9000416090031645C8B7
:1056F0000086112100416021594644C8401445905C
:1057000040142D9070B5264888B005460468009472
:10571000009CE607FAD52348234C0460234C44EA56
:1057200083432C680194019CE407FAD5036093013C
:1057300043EA824242F0104444F4C0442B6802938E
:10574000029BDE07FAD504602B680393039BDB07FB
:10575000FAD5174B03608B0143EA814141F01043B6
:1057600043F4C0432E680496049EF607FAD50360FE
:105770002B680593059BDE07FAD5046041F058417C
:105780002B680693069BDC07FAD5016042F058426D
:105790002B680793079BDB07FAD5026008B070BD42
:1057A000B0B0025080B00250C02102298071009830
:1057B00080611890354B8EB019461A680092009A95
:1057C000D207FAD5324B334A1A600A680192019A1D
:1057D000D007FAD5304A1A600A680292029AD207B4
:1057E000FAD52E4A1A600A680392039AD007FAD5AE
:1057F0002B4A1A600A680492049AD207FAD5294AF9
:105800001A600A680592059AD007FAD5264A1A60E6
:105810000A680692069AD207FAD5244A1A600A68DC
:105820000792079AD007FAD5214A1A600A680892A7
:10583000089AD207FAD51F4A1A600A680992099A8B
:10584000D007FAD51C4A1A600A680A920A9AD20747
:10585000FAD51A4A1A6008680B900B98C007FAD557
:105860001A600A680C920C9AD007FAD5144A1A608A
:105870000A680D920D9AD207FAD5124A1A600E21C3
:105880000D230F2200200EB0FFF73CBFB0B0025036
:1058900080B0025080430129406339218070012982
:1058A0008020542100D13490C0403490C030202951
:1058B000C0530D9000413890832308C880E3102125
:1058C00000413821CF4308C82DE9F041012392B0AF
:1058D000CDE90333624B1D461A680592059AD2073B
:1058E000FAD5604C604B2360604B19461A680692EB
:1058F000069AD707FAD55E4B1A68D60400F1A8803D
:105900002A680792079AD007FAD55A4A22600A688D
:105910000892089AD207FAD51E68C6F30036002E00
:1059200040F098801220FFF7F9F807461320FFF7A0
:10593000F5F887428CBF12201320FFF7EFF8471EBF
:10594000FFF738FF03AB01AA39461220FFF72CF905
:1059500004AB804602AA39461320FFF725F900EB75
:105960004800022832D003283ED0012874D12B6889
:105970000993099BDB07FAD53F4B23602B680A93F9
:105980000A9BD807FAD53D4B23602B680F930F9BDA
:10599000D907FAD53A4B23602B681093109BDA078E
:1059A000FAD5384B23602B681193119BDB07FAD58E
:1059B000354B2360013F25D51023192218210020E3
:1059C000FFF7A0FE304612B0BDE8F0812B680B93C4
:1059D0000B9BD907FAD52D4B23602B680C930C9B9E
:1059E000DA07FAD52A4BCFE72B680D930D9BDB071F
:1059F000FAD5284B23602B680E930E9BD807FAD557
:105A0000254BC1E703AB01AA39461220FFF7CCF8BA
:105A100004AB044602AA39461320FFF7C5F810EB81
:105A2000440402D1FFF712FCC4E7FFF7E5FC022CA7
:105A300008D0032C09D0012C10D117211620FFF714
:105A400097FDB7E715211420F9E70F210E20F6E79F
:105A5000124EB7E7124EB5E7124EB3E7124EB1E75A
:105A6000B0B0025080B0025000084A51B4B00250A9
:105A700088B0025000084E5100065A4940065E495F
:105A8000000442410014424940042E490006524994
:105A90004006564900063A4940063E490608F100CC
:105AA0000708F1000408F1000508F100014B186037
:105AB000704700BF08BA0250014B1860704700BF22
:105AC00004BA0250034A13681842FCD0024A10601C
:105AD0001846704700BA025008BA025070470020BA
