:020000040000FA
:1000000070270120B5DD000057F30100A1DD0000DD
:10001000A1DD0000A1DD0000A1DD0000A1DD0000E8
:1000200000000000000000000000000085DF00006C
:10003000A1DD00000000000045DF0000A1DD0000A0
:100040000DE100000DE100000DE100000DE10000F8
:100050000DE100000DE100000DE100000DE10000E8
:100060000DE100000DE100000DE100000DE10000D8
:100070000DE100000DE100000DE100000DE10000C8
:100080000DE100000DE100000DE100000DE10000B8
:100090000DE100000DE100000DE100000DE10000A8
:1000A0000DE100000DE100000DE100000DE1000098
:1000B0000DE100000DE100000DE100000DE1000088
:1000C0000DE100000DE100000DE100000DE1000078
:1000D0000DE100000DE100000DE100000DE1000068
:1000E0000DE100000DE100000DE100000DE1000058
:1000F0000DE100000DE100000DE100000DE1000048
:100100000DE100000DE100000DE100000DE1000037
:100110000DE100000DE100000DE100000DE1000027
:100120000DE100000DE100000DE100000DE1000017
:100130000DE100000DE100000DE100000DE1000007
:100140000DE100000DE100000DE100000DE10000F7
:100150000DE10000FFFFFFFF53B94AB9002908BFB6
:1001600000281CBF4FF0FF314FF0FF3000F00CB8FB
:10017000ADF1080C6DE904CE00F008F8DDF804E0FC
:10018000DDE9022304B07047704700BF2DE9F04756
:1001900086468C460846089E154674461946002B2E
:1001A00040F0C1808542B2FA82F245D94AB1C2F12B
:1001B000200300FA02FC954094402EFA03F343EA30
:1001C0000C0C4FEA154EA8B2230CBCFBFEF80EFB3C
:1001D00018CC08FB00F943EA0C43994528D9EB18E1
:1001E00008F1FF3704D2994502D9A8F102072B4440
:1001F000A3EB0903A4B2B3FBFEFC0EFB1C330CFB08
:1002000000F044EA0344A04214D92C190CF1FF3346
:1002100004D2A04202D9ACF102032C44241A43EACE
:1002200007401EB1D440002334607360BDE8F087FE
:100230004746DDE76346F1E792BB431B01214FEAE6
:10024000154EAFB2200CB3FBFEFC0EFB1C330CFBB7
:1002500007F840EA0343984561D9EB180CF1FF30E9
:1002600004D2984502D9ACF102002B44A3EB080359
:10027000A4B2B3FBFEFC0EFB1C330CFB07F744EAF5
:100280000344A7424DD92C190CF1FF3304D2A742E5
:1002900002D9ACF102032C44E41B43EA0040C0E75E
:1002A000C2F120039540944020FA03F12EFA03F3A3
:1002B0004FEA154E9040AFB20343B1FBFEFC0EFB7C
:1002C0001C10190C0CFB07F841EA0041884522D9A3
:1002D00069180CF1FF3004D2884502D9ACF1020054
:1002E0002944A1EB08019BB2B1FBFEFC0EFB1C11E3
:1002F0000CFB07F743EA01439F420ED9EB180CF1C0
:10030000FF3104D29F4202D9ACF102012B44DB1B26
:1003100041EA004193E76046E3E76146F7E760465C
:10032000A4E76346B8E7834206D916B90021084618
:100330007CE7C6E900E0F9E7B3FA83F78FB98342B7
:1003400001D3724508D8BEEB020460EB0303012021
:100350009C461EB9002169E73846FAE7C6E9004C19
:10036000F8E7C7F1200CBB400EFA07F522FA0CF4AF
:100370002EFA0CF1BA401C4320FA0CF3B8404FEAB5
:10038000144901431FFA84FEB3FBF9F809FB183046
:100390000B0C08FB0EFA43EA00439A4540D9E318D8
:1003A00008F1FF3004D29A4502D9A8F10200234493
:1003B000A3EB0A0389B2B3FBF9F809FB183308FB76
:1003C0000EFE41EA03418E452CD9611808F1FF3336
:1003D00004D28E4502D9A8F10203214443EA004029
:1003E000A1EB0E01A0FB02984145CE46434602D345
:1003F00006D14D4504D20138B9EB020E68EB040377
:10040000002EA7D0B5EB0E0261EB030101FA0CFC44
:1004100022FA07F3F9404CEA0303C6E9003199E7F1
:100420004046C5E74346D9E710F8012B11F8013BD8
:10043000012A28BF9A42F7D0D01A7047034611F814
:10044000012B03F8012B002AF9D17047034613F85A
:10045000012B002AFBD1181A013870470000000058
:10046000F7B5002140F6034001AA0EF0EFFF044665
:10047000002840F0A780019CE3681B7863B90FF067
:10048000A5FE524BD3E8AF2F02F00902D3E8EF1FCD
:10049000C3E8E02F0028F9D120460EF03DF90021F5
:1004A00041F2030001AA0EF0D1FF0446002840F0FB
:1004B0008980019A464DD16805F17803D1F8010091
:1004C000D1F8051003C310460EF026F9214641F27B
:1004D000010001AA0EF0BAFF0446002872D101986B
:1004E000C3685A7885F870205A88A5F872201A795E
:1004F00085F87120B3F80720A5F87420B3F805300B
:10050000A5F876300EF008F9214641F2020001AA62
:100510000EF09CFF0446002854D1019F05F180068F
:10052000FA68531C4132344618685968083303C4CA
:1005300093422646F7D138460EF0EEF810F032F826
:10054000044600283ED195F88A309A0634D5072112
:1005500040F633400EF08CFD0646002800F0448142
:1005600007210C301EF0D5FF6FF00903012703703F
:100570001823C0F802408471047122464770C3708A
:10058000314640F633400EF061FF0446D0B939469B
:1005900040F631400EF06CFD0646002800F0248144
:1005A00039460C301EF0C4FF2246314640F6314039
:1005B0000EF04CFF044628B995F87C305B0609D450
:1005C0006FF01204204603B0F0BD00BF840100208C
:1005D000B0000020002142F2030001AA0EF036FF15
:1005E00004460028EED1019BB54EDA68D2F801002E
:1005F000D2F8051003C618460EF08EF8214642F2D6
:10060000020001AA0EF022FF04460028DAD1019C64
:10061000E368B3F8012091B249B1D97839B1A5F8AE
:100620000421DA78114606F1280024F0D8FB204690
:100630000EF072F895F87C6016F0200618D10221B1
:1006400040F66D400EF014FD0446002800F0CC800A
:1006500002210C301EF05DFF01232146037046701D
:10066000324640F66D400EF0F1FE04460028A9D156
:1006700095F89C301F0712D5002142F21C0001AAF8
:100680000EF0E4FE044600289CD10198C368D3F81C
:100690000120D3F80530C5E938230EF03DF895F870
:1006A000D8309E0624D568460DF102011FF07FFB6D
:1006B0000446002886D1042142F224000EF0D8FC22
:1006C0000646002800F0908004210C301EF021FF27
:1006D000BDF8003022460380BDF802303146438029
:1006E00042F224000EF0B2FE044600287FF46AAF06
:1006F00095F8D8305C0610D5002142F22A0001AAF4
:100700000EF0A4FE044600287FF45CAF0198C36895
:100710005B7885F820310DF0FFFF082142F20100DF
:100720000EF0A6FC044600285ED008210C301EF016
:10073000F0FE95F8D81040F2022311F0400F08BFE8
:100740000323024688074CBF43F02C0043F00C0003
:1007500095F8D9308F0648BF40F0400013F0090FDC
:1007600095F8A23018BF40F4006003F00603CE07EE
:1007700048BF40F01000062B08BF40F4C0700021B5
:100780001FF04CF92146002242F201000EF05EFEFD
:10079000044600287FF416AF95F87C30B5F80411B4
:1007A000980624D4C9B941F2050001AA0EF04EFE04
:1007B000044600287FF406AFB5F80431019C4BB91C
:1007C000E368B3F80120A5F804219A883D48114652
:1007D00024F005FB20460DF09FFF082140F6014064
:1007E0000EF046FC044638B96FF06804EAE60029CA
:1007F000F3D16FF00404E5E608210C301EF089FE09
:1008000095F8D8300246D90752D44FF000512E48FF
:100810001FF004F92146002240F601400EF016FEBA
:10082000044600287FF4CEAE014601AA4FF60140EF
:100830000EF00CFE044620BB01980DF06DFF214622
:100840004FF6024001AA0EF001FE0446C8B9019815
:10085000C368B3F80130A5F8C1300DF05DFF95F81D
:10086000C1305B070DD521464FF6034001AA0EF0BB
:10087000EDFD30B90198C3685B7885F8C0300DF0A4
:100880004BFF1FF029FC044600287FF49BAE10F0BC
:1008900045FF044600287FF495AEEB79002B3FF42A
:1008A00091AE082109481EF0FCFF0EF0AFFC89E66E
:1008B00001A1D1E90001ABE790880002008000208F
:1008C00088010020B8010020108800028401002067
:1008D00000231846054A06491370064A13701A0287
:1008E0000133302B8854FAD1704700BFB6960020F0
:1008F000B7960020B59600200128024605D0044B8B
:100900000448022A08BF184670470348704700BFD2
:10091000DE7C02006E6702006A670200A0F16103DC
:10092000192B98BF2038C3B20020054A12F8011BCA
:10093000994204D001300828F8D14FF0FF307047B9
:100940002898020008B560210346054A05481BF0B7
:1009500041FBBDE8084004490448FFF76FBD00BFF4
:1009600054AB02005596002062CC0200C006002065
:100970002DE9F04F87B00D461646354901AA80464D
:100980001F461DF0A3FE08B1019B43B34046314909
:1009900001AA1DF09BFE58BB0024DFF8BCA0DFF8C5
:1009A000BCB01AF8013B1021A3F14102192A98BFEB
:1009B00020335A4602A81BF00DFB404601AA02A9AB
:1009C0001DF084FE002839D0DDF80490B9F1000F45
:1009D00034D10DBB224B04EB44141D551AE0012DFC
:1009E00032D12A4638461F49B04707B0BDE8F08FDC
:1009F000019B002BD0D1FF23012D8DF8083023D18E
:100A00002A46384602A9B047002803DB9DF8082093
:100A1000154B1A700020E8E7202D15D8104B04EB79
:100A200044141C4421224946204624F06DFE2A46E7
:100A300021463846B04704F80590EBE70134082C0E
:100A4000AFD16FF00100D0E76FF01500CDE700BF28
:100A5000BC8102009E920200289802001C6D0200D8
:100A6000B7C6002046C80020D106002038B50B22AA
:100A70000125044600200E4B5A701D700D4B187056
:100A800009F0F0FF284606F09BFE20460A4C06F0CF
:100A9000D5FE4FF0FF301CF073F8204606F096FEAE
:100AA000204606F0A5FE2046BDE8384006F0B2BE5E
:100AB000C0C70020D206002003F40500024B1B78BB
:100AC0000BB123F05EB8704704C800200FB407B51F
:100AD0000B4B1B78012B11D00A490B4A022B18BF74
:100AE00011460A481DF052F805A9049801910AF030
:100AF00063FA03B05DF804EB04B070470449F0E713
:100B000046C80020DE7C02006E67020073670200A8
:100B10006A67020008B5074B074A1878074B187038
:100B2000074B1A60FFF7E8FEBDE80840014605489C
:100B3000FFF7CCBF46C80020444D53425C61022001
:100B4000783F0120796702007FB5144B144C187868
:100B5000FFF7D2FE134B014693F900302678002BA5
:100B6000AABF114A2D23D35C104A92F90020002A13
:100B7000AABF0D482D20805C0D4A15680D4A0090D3
:100B8000002E18BF224603920B4A0C48CDE90152B1
:100B90000B4AFFF79BFF04B070BD00BF46C80020A2
:100BA00055960020D106002028980200D00600208B
:100BB000086500209A980200B006002092670200A3
:100BC000C00600201FB50F4B1A78012A18D00E4915
:100BD0000E48022A18BF01465A780D48C2F3C003D6
:100BE0000293C2F380030193C2F34003009302F027
:100BF0000103FFF76BFF05B05DF804EB09F00CBFD4
:100C00000449E9E7C0C70020E7670200EB6702007C
:100C1000F3670200E067020008B51048FFF756FFCF
:100C20000F48FFF753FF0F48FFF750FF0E48FFF73D
:100C30004DFF0E48FFF74AFF0D48FFF747FF0D48ED
:100C4000FFF744FF0C48FFF741FF0C48FFF73EFF5A
:100C5000BDE808400A48FFF739BF00BF3E68020000
:100C60008F680200C56802002169020096690200CF
:100C7000EF6902009C6A0200D76A0200686B0200FA
:100C80001D6C020038B502780346BAB10C4C0D4811
:100C900025784FF480710C4A00EB05201BF09AF97F
:100CA000302223780133B3FBF2F102FB1133074A00
:100CB000237013782F2B9CBF0133137038BD00BFF6
:100CC000B6960020B796002054AB0200B5960020DF
:100CD0002DE9FF410446012217491848A04788B969
:100CE000012217491748A04760B90646164DDFF89C
:100CF0005C80174F2B7843B90136082E05F121058A
:100D0000F8D1002004B0BDE8F08118F806301021B9
:100D1000A3F14102192A98BF20333A4668461BF0D6
:100D200059F92846FFF792FB2946421C6846A0471E
:100D30000028E1D0E6E700BF46C80020BC810200E1
:100D4000D10600209E920200B7C60020289802001B
:100D50001C6D020030B514220024CBB0214605469C
:100D60000DEB0200049424F0CFFC4FF480710AA82C
:100D7000CDE90044CDE9024406F0BEFE044650BB76
:100D800016480AA9FFF7A2FE1823154904AA0AA8C3
:100D90001BF009FEF8B1294604A8FFF745FBD0B9BE
:100DA00008236A460F490AA81BF0FDFD20B16846DA
:100DB0000D49FFF739FB70B908230C490DEB03020D
:100DC0000AA81BF0F0FD30B1074902A8FFF72CFB81
:100DD000B0FA80F4640920464BB030BDE66C0200E6
:100DE000F96C0200FF6C0200307A02000A6D02000A
:100DF00010B504460D4B8CB01B5C3021A3F14102B1
:100E0000192A98BF20330A4A68461BF0E3F8094BB9
:100E100004EB44141C442046FFF718FB2146421CF7
:100E200068460BF01DFE0CB010BD00BF28980200F4
:100E3000106D0200B7C60020064B1B78012B04D0B2
:100E4000022B04D10120FFF739BE0420FBE702206A
:100E5000F9E700BF46C8002070B504460D461646A7
:100E6000FFF7F4FA012818D12078FFF757FD041E88
:100E700036DB1D4904EB44128B188A5C6AB32121CE
:100E80001A4A28461BF0A6F8194B042130461B5D70
:100E9000184A1BF09FF8002070BD202820D1621E48
:100EA00004F11F0112F8013FA3F13000092804D911
:100EB00023F02003413B052B12D88A42F2D12B4666
:100EC00004F1200254F8041B944243F8041BF9D1A6
:100ED000002385F820303370DDE76FF00100DBE799
:100EE0006FF01500D8E700BFB7C6002054AB020072
:100EF00028980200286D020008B507490748FFF747
:100F00009DFA0022064B07491A70FF230B70064911
:100F10000A60064A137008BD2B6D0200C00600204F
:100F200055960020D006002008650020D10600203C
:100F300038B50D461C490446FFF776FA48B12046FD
:100F40001A49FFF771FA20B120461949FFF76CFAE8
:100F500028B915492846FFF771FA002038BD204608
:100F60001449FFF761FA48B120461349FFF75CFACC
:100F700020B120461149FFF757FA08B91049E9E7AF
:100F800020461049FFF750FA48B120460E49FFF7B6
:100F90004BFA20B120460D49FFF746FA08B90C4933
:100FA000D8E76FF01500D9E7FDF005002BCF020060
:100FB000306D0200356D02003D6D0200307A020096
:100FC000BB840200456D02004A6D02004E6D0200B6
:100FD000CF8402002DE9F0474FF0FF3A0024574636
:100FE0004FF47A78DFF86C9006F06EFC064606F057
:100FF0002BFCBE42054606D1504504D194FBF8F3C4
:1010000008FB13434BB92B46324621464846FFF7AF
:101010005DFDAA4606F05EFC3746354318D040F623
:10102000CD4000211BF0EFFC40F6C41364349C4219
:10103000DAD106F049FC054606F006FC2A460346CE
:1010400021460548FFF742FDBDE8F04706F042BCE7
:10105000BDE8F087506D0200956D020070B5C8B014
:10106000034620216846104A1AF0B4FF19250F4E96
:101070004FF4807108A806F03FFD044640B93046A1
:1010800008A9FFF723FD694608A824F06AFA40B9C9
:1010900041F69A1000211BF0B6FC013DE8D16FF03B
:1010A0007304204648B070BDE26D0200E66C020099
:1010B0002DE9F0430728ADF50B7D73D83B4B082194
:1010C0001E5C3B4A334668461AF084FF394902A841
:1010D000FFF7B4F90024384FDFF8E080DFF8E09044
:1010E0004FF480710AA806F021FD4FF49673B4FB0B
:1010F000F3F503FB154598BB0AA8FFF7C3FD1DB325
:1011000030490AA824F02DFAF0B969460AA824F05B
:1011100028FAC8B941F2343000211BF074FC40F2C7
:10112000DC5396349C42DBD16FF073000DF50B7DE0
:10113000BDE8F08369460AA824F013FA80B131466D
:101140002148FFF7C3FC09E020480AA9FFF7BEFCCD
:101150001C490AA824F005FA0028EBD00020E5E796
:10116000002DD7D14FF480714AA806F0C5FC0028A5
:10117000D0D138464AA9FFF7A9FC02A94AA824F011
:10118000F0F90028C6D041464AA824F0EAF9002820
:10119000C0D049464AA824F0E4F90028BAD0314624
:1011A0000B48CEE76FF01500C0E700BF289802009B
:1011B000EA6D0200F16D0200E66C0200506E020062
:1011C0005C6E0200FD6D02001C6E0200086E0200E3
:1011D0006E6E020000212DE9F04FADF5077D8246CD
:1011E000FC2247A84691142724F08EFA4FF4807110
:1011F00006A806F09BFC002870D106A8FFF742FD68
:1012000046A906A8FFF710F9002867D0384806A9B4
:10121000FFF75CFC4FF48071364A06AB46A81AF023
:10122000D9FE354B0322354906A813F80A9024F05D
:1012300076F90546002851D19DF81B304B454DD11C
:101240009DF81C302C2B49D14FF06408064603460C
:1012500083460DF11D04227872B9002B3ED0012384
:1012600049461A46CDE900682548FFF72FFC284675
:101270000DF5077DBDE8F08FCDF814B0237823F08D
:101280002003413B192B29D863782C2B26D102341B
:101290000A22204605A91AF0E9FE059A0390944215
:1012A0001CD011782C2919D1541C20460A2205A9DA
:1012B0001AF0DCFE059A944210D0039B73B11378A8
:1012C000404506F1010638BF5FFA80F8F6B2002B00
:1012D000C5D02C2B02D10123541CBCE741F69A1037
:1012E00000211BF090FB013F80D16FF07305BEE73A
:1012F000086E020054AB020028980200A06E0200A3
:10130000A46E02002DE9F0474FF0FF340746254652
:101310000026DFF85C8006F0D7FAAA46054606F0FC
:1013200093FA5545A146044601D1484505D02346C8
:101330002A4631464046FFF7C9FB55EA040302D16D
:101340000120BDE8F08740F6CD40002164361BF057
:101350005AFBB742DFDC06F0B7FA044606F074FA2F
:10136000214602460348FFF7B1FB0020E9E700BF32
:10137000E66E02001F6F0200002307B50F2001AACE
:10138000074901930FF0E0FC01990648FFF79EFB27
:101390004FF4005000211BF036FB03B05DF804FB56
:1013A000E7C90100566F0200002008B5124906F097
:1013B00051FC06F049FA002814DD104B1B688BB96C
:1013C0000F481BF0DEFB01460E48FFF77FFB41F69E
:1013D0009A1000211BF017FBBDE8084001200A49C4
:1013E00006F038BC06F030FA0028F5DD034B07485C
:1013F0001968FFF76BFBEFE7856F020008650020B7
:1014000055750200946F020007700200BE6F020063
:101410002DE9F04107460E460025DFF84080C0B0B8
:101420004FF48071684606F067FB044640B9694690
:101430004046FFF74BFB3946684624F092F848B91E
:1014400041F69A100021C8351BF0DDFAAE42E7DC08
:101450006FF07304204640B0BDE8F081E66C0200F6
:101460002DE9F043C9B003460E4668462021184ACC
:101470001AF0B0FD0025174FDFF85C80DFF85C90B4
:101480004FF4807108A806F037FB044690B938463F
:1014900008A9FFF71BFB694608A824F062F848B1C9
:1014A000414608A824F05DF820B1494608A824F078
:1014B00058F848B941F69A100021C8351BF0A3FA34
:1014C000AE42DDDC6FF07304204649B0BDE8F08326
:1014D000E26D0200E66C0200506E02005C6E0200DB
:1014E0002DE9F041C0B00D4617461BF04AFB041E23
:1014F00021DB2C78FCB10026DFF844804FF48071AA
:10150000684606F013FB044658B96846FFF7BAFB75
:1015100069464046FFF7DAFA2946684624F021F882
:1015200048B941F23430002196361BF06CFAB742CC
:10153000E4DC6FF07304204640B0BDE8F08100BFEA
:10154000086E02002DE9F04705464F48884606F030
:101550003DF94D4806F04CF9012006F031F92846D6
:1015600006F058F9002006F069F905F0CFFF06F003
:101570006BF9002806DD29464448FFF7A7FA00204A
:10158000BDE8F08706F07EF900282ADC05F0BEFFF2
:1015900006F0FAF8424629463D48FFF797FA4FF021
:1015A000FF3600244FF47A79DFF8E8A01BF0E6FA62
:1015B00005F0B8FE06F048F9B042074604D194FBA6
:1015C000F9F309FB13433BB93A4621465046FFF76E
:1015D0007DFA3E4606F07EF9002F42DD29462E4870
:1015E000CBE729462D48FFF771FA4FF0FF3600246C
:1015F0004FF47A77DFF8A8901BF0C0FAB24605F0F6
:1016000091FE06F021F98245064604D194FBF7F3DA
:1016100007FB134373B906F035F9324603462146FA
:101620004846FFF753FA06F055F9002E02DD294629
:101630001C48A2E706F026F948B141F69A100021AD
:101640001BF0E1F940F6B833C8349C42D4D105F020
:101650005DFF06F099F8424629460D48FFF736FA35
:10166000A0E741F69A100021C8341BF0CCF9A04540
:101670009CDC0D4822462946FFF728FA06F02AF995
:101680006FF073007CE700BF03F405001B700200DD
:101690007C700200A2710200D7710200AE700200DD
:1016A0000B710200577102002B72020010B5044644
:1016B00005F066FF4FF4005000211BF0A4F9054827
:1016C00004EB4414204443F69821BDE81040FFF792
:1016D00039BF00BFB7C600202DE9F04704466B4A6A
:1016E000DFF8AC810E1E8CB0DFF8A8916A4B4FF08A
:1016F000280118BF1346CDF80080684A02A8684D3B
:1017000018BF4D461AF066FC664B04EB44171F44A5
:1017100042F6E0613846FFF715FF28BB4846FFF761
:1017200019FB002829DB4FF00109002E50D10028B9
:1017300037D02846FFF70EFB00287ADD5A4B2A46A1
:10174000195D5A48FFF7C2F9002027E042F6E06130
:101750003846FFF7F7FE08BB4E48FFF7FBFA0028B4
:101760001CDB4FF00009E0E710F1740F16D14E4B6F
:101770004F48195DFFF7AAF90BE010F1740F02D082
:1017800010F1800F0AD1484B0246195D4948FFF716
:101790009DF92046FFF78AFF0028D7D00CB0BDE89E
:1017A000F0872846FFF7D6FA0028C7DCB246424841
:1017B000FFF7D0FA002804DD3B4B4048195DFFF7E6
:1017C00085F940F2DC523E4902A8FFF789FE21E08C
:1017D0002846FFF7BFFA0028DFF8E8A003DDDAF8B3
:1017E0000030002BAAD0DAF800302BB32821364A7B
:1017F000CDF8008002A81AF0EDFBDAF80030DBB17A
:1018000002A81BF0BEF9002805DB2046FFF750FCBC
:101810004FF0000A98B1B9F1000FBFD010F1740F6A
:1018200002D010F1800FB9D11F4B0246195D274835
:10183000ADE74FF0010ABAE74FF0000AC1E741F601
:1018400058312846FFF70CFE48B1B9F1000FA5D07A
:1018500010F1740FA2D1144B1D48195D8AE7BAF13B
:10186000000F3FF471AF40F2DC511A48FFF7D0FD92
:101870000D490246095DFA231748FFF727F94FF48F
:10188000005000211BF0BFF85EE700BF6576020044
:10189000B0060020F66D02006E760200687202004B
:1018A00061720200B7C6002028980200127302007D
:1018B0007A720200C1720200607302006A73020051
:1018C000FD6D020008650020B2730200D2730200B1
:1018D00024740200757402007C740200F7B50025C0
:1018E0001A4E1B4F96F90030AB421BD00021284600
:1018F000FFF7F2FE044688B17B5D00906021154A37
:1019000015481AF067FB15491548FEF797FD12496F
:101910001448FFF7DBF8204603B0F0BD795D1248AC
:10192000FFF7D4F80135082DDCD1012196F900002C
:10193000FFF7D2FE064A044696F9003010B1D35C98
:101940000090DBE7D15C0848E3E700BFD106002048
:1019500028980200B67402005596002062CC02005E
:10196000C0060020D2740200EC7402002DE9F84396
:101970004FF47A7105460024204E214FDFF8848011
:101980003046FFF745FDD0B117F8059001342246E7
:1019900049464046FFF79AF84FF496621A491B48A9
:1019A000FFF79EFD024630BB40F6B8311348FFF703
:1019B0002FFD4946024628B91548FFF787F8002051
:1019C000BDE8F8831348FFF781F8224649461248DC
:1019D000FFF77CF811481BF0D4F80028F0DB28460C
:1019E000FFF764FE0028EBD1032C4FF4FA61C7D156
:1019F0006FF07300E4E749460948E4E70D7502001B
:101A000028980200147502005275020055750200F4
:101A10005A75020087750200197602005C76020092
:101A2000D07502002DE9F041904B0A780646002A55
:101A300014BF0C461C46E2B08D498E48FEF7F4FCFC
:101A4000A8B98D4916A8FEF7F9FC894903A802AD8B
:101A5000FEF7F4FC2A4630460DA9FFF7FDF90446CF
:101A6000002800F08F8002463146844827E08449F0
:101A70008048FEF7D9FC28B9824916A8FEF7DEFC9B
:101A80007F49E3E780497B48FEF7CEFC002840F021
:101A9000A38123467D4A302116A803AF1AF09AFA93
:101AA0000DAD79493846FEF7C9FC2A46304622A9D1
:101AB000FFF7D2F9044628B1314602467448FFF7D1
:101AC00005F849E042F6E06122A8FFF73BFD044635
:101AD00050B1234628786F4922AA002818BF29460A
:101AE0006D48FEF7F3FF37E03846FFF733F9031E82
:101AF00008DD29783B4600290CBF31462946674856
:101B000022AAEEE708D02978654800290CBF3146A3
:101B1000294622AAFEF7DAFF40F2DC52614916A8F4
:101B2000FFF7DEFC8046D8B13846FFF713F90028EE
:101B3000297807DD3B4600290CBF314629465A4823
:101B400022AACEE7434600290CBF31462946574812
:101B500022AAFEF7BBFF4446204662B0BDE8F081F2
:101B600041F288313846FFF77BFC2A780446002A88
:101B70000CBF32462A4601464D48009722ABFEF77D
:101B8000A5FFE9E742F6E0610DA8FFF7DBFC04469C
:101B900028783CB13F492346002818BF29460DAAA2
:101BA00044489EE770B1FEF7B9FEFFF7DFFE04463A
:101BB00070B1287837492346002818BF29460DAA56
:101BC0003D488EE740F6B8313C48FFF721FCEEE790
:101BD0004FF496623A4916A8FFF782FC044640B1DA
:101BE00028782C492346002818BF29460DAA3548D5
:101BF00077E74FF4966234493448FFF771FC0446A6
:101C000028783CB123492346002818BF29460DAA4D
:101C10002F4866E738B3FEF781FE074640F2DC52F4
:101C20002C492D48FFF75CFC044600286FD0014684
:101C30002A48FEF74BFF072F56D83846FFF736FDE8
:101C40000246002850D039462548FEF73FFF002CB9
:101C500080F2898028780F492346002818BF29463A
:101C60000DAA20483DE74FF0FF37D7E7FDF005000C
:101C7000F66D02001D960020637602003D7802009A
:101C8000617202006C7602006073020075760200D9
:101C9000947602009A980200C1760200FE76020055
:101CA0003D770200FD6D020081770200CB770200D4
:101CB0000878020062780200977802000D75020031
:101CC000D2780200E278020017790200207902003F
:101CD000297902005F790200797902008079020097
:101CE000CA790200957A02004FF4807122A805F0AB
:101CF00003FF0028ABD13A4822A9FEF7E7FE394995
:101D000022A823F02EFC80B13748FEF7DFFE3748CB
:101D10001AF037FF041E28783EDA3549234600289A
:101D200018BF29460DAA3348DBE61821324A03AB17
:101D300007A81AF04FF907A922A823F012FC0028DF
:101D400085D02E4922A823F00CFC00283FF47FAF59
:101D50002B4922A823F005FC00283FF478AF29483E
:101D600003A9FEF7B3FE2978214B2748002914BFA9
:101D70002946194603AAFEF7A9FE03AF3846FFF726
:101D80006DF92A7804460146002A0CBF32462A46DD
:101D90001E4800970DABF2E678B1FEF7BFFDFFF7E6
:101DA00085FC04460028E8D02878114923460028FD
:101DB00018BF29460DAA164893E605F0C3FBFFF7A6
:101DC00009F94BF2343000211AF01DFE43F6982138
:101DD0000DA8FFF7B7FBE4E76FF01504BCE600BF02
:101DE000FF790200207A0200327A02005C7602005B
:101DF0009A980200C97A0200E26D0200506E020059
:101E00005C6E02005C7A0200347B0200777B020089
:101E1000FD7A02002DE9F0418CB002AE0D469046ED
:101E200003A932460746FFF717F8044640B10246B9
:101E300039463948FEF74AFE20460CB0BDE8F0812D
:101E400042F6E06103A8FFF77DFB04469DF8080019
:101E50004CB12346314903AA002818BF3146304807
:101E6000FEF734FEE8E778B1FEF758FDFFF77EFD98
:101E7000044678B19DF8080028492346002818BF79
:101E8000314603AA2748EBE740F6B8312648FFF76A
:101E9000BFFAEDE728461AF074FE041E9DF808000C
:101EA00007DA1E492346002818BF314603AA1F48F7
:101EB000D6E778B1FEF732FDFFF7F8FB0446C0B174
:101EC0009DF8080015492346002818BF314603AA8B
:101ED0001748C5E705F036FBFFF77CF84BF23430C6
:101EE00000211AF090FD43F6982103A8FFF72AFB82
:101EF000E4E74046FFF7B2F89DF8082004460146A3
:101F0000002A0CBF3A4632460A48CDF8008003AB9F
:101F1000FEF7DCFD90E700BFA47B02009A98020068
:101F2000CA7B0200007C02000D7502003C7C0200AE
:101F3000727C0200AA7C020038B50D4604460B49AB
:101F40002846FEF771FA30B9094A0A492046BDE829
:101F50003840FFF75FBF28460749FEF765FA10B91A
:101F6000054A0649F2E76FF0150038BD7A90020085
:101F700061720200D87C020060730200E67C0200FD
:101F8000F8B504460E4601231A4DD5E8EF2F002A76
:101F900003D1C5E8E13F0029F7D104D01648BDE8D8
:101FA000F840FEF793BD154B1F78A7420DD1FEF701
:101FB000A3FC01461248FEF789FD0023D5E8EF2F68
:101FC000C5E8E13F0029F9D1F8BD012C09D147B995
:101FD0000C4B0D481C70FEF779FD38460B4905F097
:101FE00039FE0B4B0B481C700B4B1E70BDE8F840C4
:101FF00018F05EBF3C650020F67C020046C8002059
:10200000137D0200BFC700202C7D02005B7D020013
:1020100003C800205065002002C80020CA0708B588
:102020000BD5C30709D5184B01211878B0FA80F0F9
:102030004009BDE80840FFF7A3BF8A0704D583071E
:1020400002D502210120F4E74A070FD543070DD539
:102050000D4B1B78BBB903220C4B1A7005F04CFAE0
:1020600005F070FABDE8084005F08EBB0A070AD5F6
:10207000030708D5044B1B782BB90422034B1A70B5
:1020800005F044FAEEE708BD46C8002002C800206B
:10209000F7B5514B1B78013B032B00F29080DFE832
:1020A00003F0020B128C4D4B1878FEF725FC01460D
:1020B0004B48FEF70BFD09E0484B1878FEF71CFC77
:1020C00001464848F5E74848FEF700FD03240F2085
:1020D000FEF7F4FC002141F2EC101AF094FC002011
:1020E000FEF7ECFC41F2EC1000211AF08CFC013CF4
:1020F000EDD13A4D2B78012B68D13C4A3C48137006
:10210000FEF7E4FC20463B4905F0A4FD05F01AFA71
:10211000FFF732F9384C2B78384E2370FEF78CFEDF
:1021200020781AF072FC364DFEF7F4FC3268354B1D
:1021300020211A8034482B46344A19F04BFF2021C5
:10214000334B324A334819F045FF2121324B2F4A95
:10215000324819F03FFF324B324A2F491A6091F84A
:1021600000C0314A2A4BBCF1000F08BF1146287845
:102170001F780091002F08BF13463168002818BF50
:102180002A462A48FEF7A2FC294B2A4A1B782078C7
:10219000003B18BF01231370274B284A1A60FEF733
:1021A000ABFB01462648FEF791FC40F6CD400021EE
:1021B0001AF029FC002008F031FF224884E7074B81
:1021C0001878FEF799FB01461F4872E7002B9FD154
:1021D00008F030FD9CE700BF02C8002003C80020C3
:1021E0006A7D0200897D0200A87D0200BFC7002031
:1021F000FE7D02002E7E020046C800202002002044
:1022000026C80020F86002203C61022054AB020086
:10221000D30600201C61022005C80020FB600220BC
:10222000743F01204741544F9A980200417E0200BA
:10223000D2060020FA600220703F01204E41544F28
:10224000787E0200C17D0200DD7D02002DE9F043B1
:1022500000248046E1B021462C2215A8149403AE38
:1022600023F052FA02AD2146142206A8C6E9004422
:10227000059423F049FA2A4640460BA9FEF7ECFDE7
:102280000DF1500905AF044640B1024641462E48C3
:10229000FEF71CFC204661B0BDE8F08342F6E06129
:1022A0000BA8FFF74FF9044650B123462878274979
:1022B0000BAA002818BF29462548FEF707FCE9E7C6
:1022C00040F6B8334FF48072224820A905F048FC4C
:1022D000044640B128781D492346002818BF2946E6
:1022E0000BAA1D48E9E74A4630231C4920A81AF0EA
:1022F0005AFB324608231A4920A81AF054FB3A46E2
:102300001823184920A81AF04EFB30780F4B99F883
:102310000020002808BF1E4638782978002808BF0A
:102320001F4600290CBF41462946002A18BF4B46CC
:10233000CDE900670C480BAAFEF7C8FB0B4820A9A3
:10234000FEF7C4FBA6E700BF987E02009A98020041
:10235000C07E0200F87E0200007F02003E7F020085
:10236000427F0200F96C0200497F0200817F020077
:10237000F7B504468368DB6B002B36D1234D244E22
:10238000A368DB6A13B12046984788B3A3681B692A
:1023900073B3012220460DF107019847002827DD7D
:1023A0009DF807202B680D2A01D00A2A22D1002B84
:1023B000E6D0EFF31181202383F31288BFF36F8FF0
:1023C000002301202A68B354124AD2E8EF7FC2E802
:1023D000EC0FBCF1000FF8D12B6081F31188BFF333
:1023E0006F8F0D4818F064FDCAE798470028C5D1E3
:1023F00003B0F0BD591C3F2902D82960F254BFE751
:10240000002306482B60FEF761FBB9E73865002022
:10241000C2C7002034650020406500209B7F020079
:102420002DE9F047794B8EB01B78012B0DD1784800
:10243000FEF74CFB0022774BD3E8EF1FC3E8E02FF9
:102440000028F9D10EB0BDE8F087734B734D1B78AF
:10245000002B00F0CE802A78714B72497248002A16
:1024600008BF1D46FDF7E0FF00285BD06F496E48AE
:10247000FDF7DAFF002840F096806D4B30216D4A61
:10248000009502A819F0A6FD6B4805F09FF96A486F
:1024900005F0AEF9684805F0BDF9012005F090F9A6
:1024A000002405F033F84FF0FF360827DFF8788175
:1024B000DFF8889105F0C8F9072805461CDCB04212
:1024C00006D140F6B83294FBF2F302FB13434BB94A
:1024D0002B462246414648460097FEF7F7FA2E461D
:1024E00005F0F8F94FF4005000211AF08CFA4AF682
:1024F000C873FA349C42DDD105F0A6F907280546D9
:1025000012DC0246082348494D48FEF7DFFA6FF017
:102510000A0405F0DFF92146404B434A4948FEF7DB
:10252000D5FA87E7484BA9E702A81AF02AFB082347
:102530000446024600933C492B464448FEF7C6FA3F
:10254000002CE8DB002145F69A101AF05CFA02A88C
:102550001AF017FB051EC8BF641905F075F90822AB
:10256000034631493A4800922A46FEF7AFFA002165
:1025700045F69A101AF047FA02A81AF002FB051E57
:10258000C8BF641905F060F908220194034600925F
:1025900025492A462F48FEF799FA002C14BF00243B
:1025A0006FF07F04B7E70024A1462B4E2B4FDFF8D6
:1025B000B0A006F108083B7816F8011B3BB950465D
:1025C000FEF784FAB04507F12107F4D1A3E78DF8AF
:1025D000081002A829468DF80990FFF723FA10B1D8
:1025E000002C08BF044641F2343000211AF00BFAE7
:1025F000E8E729461B48FFF715FA0B4B0146194A35
:1026000019480095FEF762FA14E700BF46C800209B
:10261000B27F02000C6500201C960020A00600205E
:10262000FDF00500617202001D960020607302003B
:10263000EC7C0200EC7F020003F405000480020041
:102640003A800200548102006E7602007A80020015
:10265000AA800200E180020028980200B7C600208C
:10266000258102002D960020818102002DE9F74F7F
:10267000754B1B78022B03D07448FEF763F93BE0DF
:10268000734C2378072B01D97248F6E70023724F69
:1026900003EB4312BA5C002A00F0D4800133082B0C
:1026A000F6D14FF0000B6D4D6D4E6E496E48FDF743
:1026B000C5FE85F800B0FEF777FE96F900305B4561
:1026C0002ADA6A48FEF702FA012194F90000FFF7BE
:1026D00003F894F90030664AC8B1D35C654A0090AB
:1026E0006021284619F076FC63495F48FDF7A6FE95
:1026F00029466248FEF7EAF90022614BD3E8EF1F52
:10270000C3E8E02F0028F9D103B0BDE8F08FD15C19
:102710005C48FEF7DBF90BE05B48FEF7D7F996F96A
:1027200000A0BAF1070F1BD9FFF7D8F80028E3D1B2
:10273000237856494C484E4D3370FDF77FFE94F98F
:1027400000305348E95CFEF7C1F9524B1A6894F91E
:102750000030E95C002A46D04F48FEF7B7F9CBE7D6
:10276000DFF80C8194F9003018F80A9018F803206B
:1027700049464A48FEF7AAF994F90030534518D063
:1027800059465046FEF7A8FF4946024670B14448F4
:10279000FEF79CF9FF233370FEF706FEFFF79EF865
:1027A0000028C5D04B463F4A009099E73E48FEF7C7
:1027B0008DF9012194F90000FEF78EFF94F90030A5
:1027C00068B1602118F803302A4A0090234819F0B4
:1027D00001FC29492448FDF731FE204989E718F812
:1027E0000310314895E73148FEF770F994F900007D
:1027F000FEF7F0FC01265A2394F900200146AA5C5A
:10280000CDE900362A484FF47A63FEF75FF940F6C7
:10281000CD4000211AF0F7F894F90030254803EB79
:102820004312E95C3A44FEF751F9304604F0C8FF20
:1028300094F9000000EB4010384404F0EBFF04F082
:1028400065FE59E71C4818E746C80020AD81020024
:10285000D1060020C1810200B7C600205596002095
:10286000D0060020A9840200C0060020D681020004
:10287000289802000182020062CC0200D274020099
:1028800020650020208202005B820200AEB30200BD
:102890004483020008650020668302007C820200F7
:1028A000B582020008830200EC740200B3830200C8
:1028B0000C840200628402009284020000222DE94E
:1028C000F04FA14BADF5457DD3E8EF1F012903D1B2
:1028D000C3E8E02F0028F7D10CBF0126164632D1FD
:1028E0009A4B20AC03F1400522461868596808331A
:1028F00003C2AB421446F7D100243C22214631A842
:102900008DF8BF40309422F0FFFE9DF8803030AD4E
:102910000CAFCDE90D440F943C60A3B108228C4963
:1029200020A822F0DFFD8046002844D122AF2021DC
:10293000384622F0CAFD044648B96FF015018548B3
:1029400020AAFEF7C3F80DF5457DBDE8F08FC61B44
:10295000731E1E2B04D96FF015017F4820AAF0E7E3
:1029600082AD324639462846013422F0A6FE0422C2
:1029700020467A4905F8068022F0B4FD38B1234696
:102980002A466FF015017648FEF7A0F8DBE7022033
:1029900004F016FF284604F019FF724804F028FFDF
:1029A000704804F037FF20461AF0EBF82346014642
:1029B0002A466D48E8E70422684920A822F092FDE3
:1029C00030B920A81AF0DDF820AA01466748B8E718
:1029D0000422674920A822F085FD30B921A81AF009
:1029E000D0F821AA01466348ABE70822624920A833
:1029F00022F078FD30B922A805F05AF922AA014642
:102A00005E489EE75E49082220A822F06BFD014641
:102A1000002840F088801422829083A822F074FE5F
:102A2000584982AA22A819F001FB012812D182ACD0
:102A3000224612F8015B8DB9534982A8FDF7F4FCD8
:102A400008BB524982AA22A819F0F0FA012815D031
:102A50004F4800E04F48FEF739F874E72B46A5F1E0
:102A60004101192998BF203302F8013CE1E7A3F1A5
:102A70004102192A98BF203304F8013C14F8013BA5
:102A8000002BF4D10125444982A8FDF7CDFC40B3C9
:102A9000424982A8FDF7C8FC18B3414982A8FDF756
:102AA000C3FC002834D03F4982A8FDF7BDFC78B3B1
:102AB0003D4982A8FDF7B8FC60B33C4982A8FDF708
:102AC000B3FC38B33A4982A8FDF7AEFC20B33949CC
:102AD00082A8FDF7A9FCF8B1374882A9FDF7F6FFF7
:102AE00031E7364C0F2202270120354B1F705A70F8
:102AF000344B187007F0B6FF384604F061FE2046EC
:102B000065B105F0D5F80146234632462E483BE72D
:102B10002E4CE7E72E4CE5E72E4CE3E71AF031F8B0
:102B20002E460146F0E708222B4920A822F0DAFCC5
:102B3000002865D1294922A822F0AFFC00284FD1F6
:102B400005F0A0F9FFE600BF34650020C2C70020F1
:102B5000D4840200DD84020009850200358502006C
:102B60003A85020003F405006E850200928502009A
:102B7000A9850200AE850200C4850200CD85020051
:102B8000E7850200A98E02004A860200A58E020097
:102B90004E860200F085020075860200AD9D02009F
:102BA0002BCF0200FDF00500356D0200307A0200E7
:102BB000456D02004E6D02007C860200B284020068
:102BC000C0C70020D206002096860200C3840200FF
:102BD000B7840200CB840200B7860200C0860200E0
:102BE0009A4922A822F059FC10B905F031F9AAE659
:102BF000012122A805F0F2F822AA01469448A0E695
:102C00000522944920A822F06DFC0646002840F0D9
:102C1000D28001461C22CDE91A00CDE91C0082AD0C
:102C2000409041A822F070FD40AC31461C222E603D
:102C300083A822F069FD1AAA2346874900950DF161
:102C4000850019F0F3F906461AAA12F8013B73B988
:102C50002A4612F8013B93B9002E40F3A7807F4922
:102C60001AA8FDF7E1FB90B905F02EFA6BE6A3F187
:102C70004101192998BF203302F8013CE5E7A3F18F
:102C80004101192998BF203302F8013CE1E774495A
:102C90001AA8FDF7C9FB20B905F0EAF90146714809
:102CA0001CE76A491AA8FDF7BFFB20B905F0F0F947
:102CB00001466D4812E7012E78D06C491AA8FDF73D
:102CC000B3FBC0B914900A22204614A919F0CEF91A
:102CD000149B0546A34203D01B780BB9012802D9E7
:102CE00021466348FAE600F0010005F0A9F92A46FA
:102CF0000146604825E660491AA8FDF795FBC0B972
:102D000014900A22204614A919F0B0F9149B054624
:102D1000A34203D01B780BB9012802D9214657489A
:102D2000DCE600F0010005F073F92A46014654483C
:102D300007E6022E3AD053491AA8FDF775FB40B9B1
:102D40002946204605F0B2F82B46014622464E4859
:102D50001AE64E491AA8FDF767FB40B929462046F6
:102D600005F0EEF82B460146224649480CE6494953
:102D70001AA8FDF759FBC8B914900A22284614A9CD
:102D800019F074F9149B0646AB4203D01B780BB9BB
:102D9000FF2802D929464048A0E6C1B2204605F0E6
:102DA00017F93346014622463C48EDE53C4820A948
:102DB000FDF78CFEADE004AACDE90057394908AB18
:102DC00020A819F033F9044604AA12F8013BB3B95C
:102DD00008AA12F8013BD3B92B4613F8017BF7B9C7
:102DE000314904A8FDF720FB08BB304B1878FDF7EC
:102DF00083FD01462E4BD3E8AF2F2E48A1E5A3F16A
:102E00004101192998BF203302F8013CDDE7A3F105
:102E10004101192998BF203302F8013CD9E7A7F1F5
:102E20004102192A98BF203703F8017CD5E72249CF
:102E300004A8FDF7F9FA00285ED1012C5CDD1B4BDC
:102E40001B78002B3CD01D4805E600BF81CD020059
:102E5000C5860200DF860200E5860200C086020009
:102E6000F4860200FE860200148702002687020014
:102E70002B870200478702006187020066870200F5
:102E8000828702009E870200A6870200CF87020089
:102E9000D6870200FE870200038802001F88020016
:102EA000428802005C8802007586020046C8002045
:102EB0003C65002070880200958802009C88020012
:102EC000022004F07DFC08A804F080FCA94804F06E
:102ED0008FFCA84804F09EFC04F052FB00214FF444
:102EE000005019F090FDA34804F070FCA24804F0D3
:102EF0007FFCA24808A9F1E5A14904A8FDF794FACE
:102F0000C8B9A04B1B7813F0FD0F05D09E48FDF704
:102F1000DDFDFDF781FE16E503229C4B1A709C4BEC
:102F20001B780BB19B4896E504F0E6FA04F00AFB27
:102F300004F02AFC07E5984904A8FDF775FA88B95A
:102F4000904B1B7813F0FD0F01D09448DFE704226B
:102F50008E4B1A708E4B1B780BB191487BE504F0B9
:102F6000D5FAE5E78F4904A8FDF75EFA60B9854B0D
:102F70001B78012B01D08C48C9E7854B187007F0EE
:102F800083FD01468948A9E5894904A8FDF74CFA63
:102F9000E8B9012C18DD874908A8FDF745FA20B1EA
:102FA000854908A8FDF740FA70B9844B844A8549E1
:102FB0008548FDF78BFD854B854A86498648FDF798
:102FC00085FD07F029FDBEE4844820A9F0E6844988
:102FD00004A8FDF729FA002840F07E82022C40F375
:102FE0007B82754908A8FDF71FFA002840F044814C
:102FF000644B1B78012B01D17A482CE528467A498D
:10300000FDF712FA0446002840F02E810346774E61
:1030100003EB4312B75C002F00F0BC860133082B92
:10302000F6D10025A846724FDFF8C89105EB45138D
:10303000F35C17F8011B002B40F005814846FDF7B3
:1030400045FD0135082DF1D121466B4846E518F8BC
:10305000010BFDF763FC031E09DB2A783AB103EB91
:10306000431052462B462121304418F0B3FF01375C
:103070002135B945EBDC002303EB4312B25C002A97
:1030800075D00133082BF7D1002549465B4885F000
:103090000102FDF71BFD002DC3D000252F460120A6
:1030A00004F08EFB012004F0C9FB324804F08EFBD3
:1030B000304804F09DFB2F4804F0ACFB04F01CFAF0
:1030C000FEF75AF941F28830FEF71CF904F05CFB78
:1030D0000395082382AA19461AA804F07DFC031E52
:1030E000029331DD4FF0000B0DF168080DF5027908
:1030F00018F8010BFDF712FC051E1DDB99F80030D6
:10310000D3B105EB451AB24449465046FDF78CF958
:1031100090B14B4621215046394A18F05BFF072DEC
:1031200002DC2846FDF764FE524618F8011C3548BB
:10313000FDF7CCFC01230393029B0BF1010B5B45D4
:1031400009F12109D4D11D464FF0000808EB4813BE
:10315000F35C002B5AD008F10108B8F1080FF5D143
:1031600004F090FA41462848FDF7B0FC59E70125E4
:103170008BE700BF03F40500C7880200CA8802007D
:10318000DD88020046C80020E288020002C8002054
:10319000BFC7002013890200388902003D89020060
:1031A0006E890200938902009C890200D58F02007B
:1031B0003D7E0200C0860200C8890200D08902005C
:1031C000518A0200A18A0200BE8A0200F48A02002B
:1031D000288B02002E8B0200488B02007B8B0200A2
:1031E000E0670200948B02004A860200B7C6002006
:1031F000289802003D8C02006F8C0200CA8B0200EE
:1032000054AB0200FC8B0200188C0200039B5BB1E4
:10321000032D09DDB7F5FA6F11DA41F69A10002196
:1032200019F0F1FBC83754E741F69A10002119F064
:10323000EAFB42F20803C8379F427FF44AAF04F02A
:1032400021FAA8468EE782A88DF808128DF8098227
:10325000FEF7FCFF10B1002C08BF044641F23430E9
:10326000002119F0D0FBECE62846FEF7EFFF2A46D6
:103270000146A348FFF765BBA24908A8FDF7D4F8AB
:103280000646002840F0CC803025014614221A90D2
:1032900040AC1BA822F038FA14223146266041A81F
:1032A00022F032FA1422314683A8829522F02CFAB9
:1032B000954BCDE910561B78CDE91266012B02D152
:1032C0009248FFF7C8BB924900941AAB14AA20A8F1
:1032D00018F0ACFE051E17DD14AA12F8013BB3B9B5
:1032E0001AAA12F8013BD3B9224612F8013BF3B9EE
:1032F000012D2AD087491AA8FDF796F878BB022D30
:103300001DD18548FFF7A7BB8448FFF7A4BBA3F1F5
:103310004101192998BF203302F8013CDDE7A3F1F0
:103320004101192998BF203302F8013CD9E7A3F1E4
:103330004101192998BF203302F8013CD5E7234603
:103340001821774A82A818F045FE10A982A8FDF737
:10335000EFFD044678B1734882A9FFF7BFBB042292
:1033600071491AA822F0DBF808B91BABE8E76F48EF
:103370001AA9FFF7B3BB6E4930A8FDF755F8012233
:103380006C4B30BBD3E8EF1F002903D1C3E8E02F1B
:103390000028F7D102D06848FFF75DBB674B64494E
:1033A00067481A70FDF74AF810215D4A14AB65486A
:1033B00018F010FE5A4A102110AB634818F00AFEAC
:1033C0006249634821F0B9FD624810AA14A9FFF7C9
:1033D000B8BAD3E8EF1F002903D1C3E8E02F0028D3
:1033E000F7D1D8D1554B28214D4A1C70544830ABE9
:1033F00018F0F0FD10214A4A14AB524818F0EAFDCB
:10340000474A10AB1021504818F0E4FD4F4950488E
:1034100021F093FD504810AB14AA30A9FFF7B4BABD
:103420004E4908A8FDF700F8002855D1364B1B7807
:10343000012B02D14A48FFF70EBB4A4982AA20A8B5
:1034400018F0F4FD01281FD182AA12F8013BF3B94C
:1034500028463749FCF7E8FF044698BB0546424E2C
:10346000424FDFF80C8105EB4513FB5C16F8011B9E
:10347000ABB94046FDF72AFB0135082DF3D12146B3
:103480003C4882AAFFF75DBA3B48FFF7E4BAA3F1D4
:103490004101192998BF203302F8013CD5E70023E8
:1034A0008DF8001140A882A98DF80131FEF744FD86
:1034B00010B1002C08BF044641F23430002119F04D
:1034C000A2FAD9E782A92846FEF736FD2A46014628
:1034D00082AB2A48FFF758BA294904A8FCF7A4FF91
:1034E000002855D1084B1B78012B01D025480EE54B
:1034F000254B187007F070FB01462448FFF7EEBA21
:10350000908C0200B08C020046C80020B58C0200EE
:10351000E88C02007B8D02007F8D0200038D02008B
:1035200054AB0200CD8D0200A48D0200A98D0200D3
:103530004A8602000C650020EF8D02001C960020D8
:103540002D9600201D960020A0060020106500206A
:10355000B00B00200C8E02003B8E0200778F020021
:10356000698E02009D8E020028980200B7C60020D6
:10357000F68E0200268F0200AE8E02004D8F0200F2
:10358000738F02007D8F0200BFC70020AA8F020048
:10359000AF4904A8FCF748FF002840F0B480012C94
:1035A00040F35582AB4908A8FCF73EFF88B9AA4B07
:1035B0001B78012B07D1A94B187007F065FA01465B
:1035C000A748FFF78BBA05210120FEF7D9FCFFF7CA
:1035D000BAB9A44908A8FCF727FF20B1A24908A856
:1035E000FCF722FF60BB9C4D2C7834BBFDF784FCBC
:1035F00004F02EFC204604F021F904F043F840F6D4
:10360000B830FDF77FFE044680B99848FDF75EFAB2
:1036100020462C7004F0CEF8FDF77CFA40F6CD4041
:10362000002119F0F0F9012007F0F8FC03F06EFF1B
:1036300004F0AAF88E48FFF70EBA05210020C4E76F
:103640008C4908A8FCF7F0FE064688BB824B1A7826
:10365000012A02D18848FFF7FEB90220187004F051
:10366000A9F8FDF757FAFDF747FC7C4B8349012089
:103670001E7004F0EFFA012004F0E0F8804804F036
:10368000A5F87F4804F0B4F8012004F099F87C48CC
:1036900004F0C0F803F03AFF03F054FF40F6B830EE
:1036A000FDF730FE04F070F8FDF74EFAFFF74BB966
:1036B000704904A8FCF7B8FE78B3724904A8FCF777
:1036C000B3FE002840F0C8816F4908A8FCF7ACFEA3
:1036D00000283FF476AC6D4908A8FCF7A5FE002849
:1036E00040F0EC81022C00F01B824FF0FF332846A3
:1036F000674982AA829318F099FC012800F0CB81D7
:103700006448FFF7A8B95B4904A8FCF78DFE0028C0
:1037100040F0B481012C40F39A815F4908A8FCF77E
:1037200083FE0028C0D05D4908A8FCF77DFE38B9AB
:10373000FDF73AFEFDF7E0FB5948FDF7C7F9B3E79F
:10374000584908A8FCF770FEB8B9022C02D15648B7
:10375000FFF781B9284682A9FDF7EAFB18B129468F
:103760005248FFF7BBB91021514A524882AB18F0BA
:1037700031FC50495048FFF7B1B9504908A8FCF74F
:1037800053FE002840F0B080022C1BD028463E4952
:10379000FCF74AFE0446C0B9494E4A4DDFF828817D
:1037A0004A4F2A783846002A14BF2A46424616F85D
:1037B000011B0134FDF78AF9082C05F12105F0D130
:1037C000FFF7C1B84248FFF746B92846FCF73EFE6E
:1037D000012803D029463F48FFF780B92878FDF734
:1037E0009DF8041EF6DB3C4982AA20A818F01EFCB6
:1037F00001280CD182AA12F8013B5BB982A8FCF720
:1038000025FE202801460DD03448FFF767B934481B
:10381000FFF721B9A3F16101192998BF203B02F8F4
:10382000013CE8E7274B04EB44151D4421212846C1
:103830001F4A82AB18F0CEFB072C02DC2046FDF7B6
:10384000D7FA1F4B2A46195D2648FFF77AB800BF02
:10385000BC8102003D7E020046C80020BFC7002098
:10386000BB8F0200E58F0200EA8F0200ED8F02009D
:103870002E9002007A90020049900200759002009A
:1038800003F4050047930200C08602005293020031
:103890001D82020058930200758602008D6F02009F
:1038A000829002007B8D02009B900200CC9002006F
:1038B00054AB0200B0060020EA900200A58402008A
:1038C00028980200B7C600209A98020004910200CE
:1038D0001791020047910200669102009191020047
:1038E00077910200B2910200AA4908A8FCF79CFD5A
:1038F00000283DD1022C00F087802846A649FCF71D
:1039000093FD38BBA54B1D7815B9A548FFF7A3B8A3
:1039100000213026302D08BFA24BDFF88C8208BF73
:103920001F78DFF888927B18B3FBF6F206FB1233A0
:103930001A0218F8022008EB03234C1C22B12A4675
:1039400021464846FDF7C2F8E3B29D422146EAD837
:10395000FEF7F9BF28469649FCF766FD20B9FCF74B
:10396000B7FF9448FFF777B829469348FFF7B6B8F2
:10397000924908A8FCF758FD0646002844D1022CBD
:1039800042D02846FCF762FD012803D029468C4826
:10399000FFF7A4B8032C34D00CAC0A22204682A92D
:1039A000829618F063FB829BA34205D01B781BB95B
:1039B00042F21073984203D921468248FFF78EB82D
:1039C000814B18602878FCF7A9FF804C40B2002892
:1039D0002070DBDBFCF77CFF012221467C4809F0EC
:1039E0003FF87C497C48FCF729FD00227B4B7C4951
:1039F0001A7094F90030744AC95C12687948FEF76D
:103A0000A0BF714B1E60DDE7774908A8FCF70CFDED
:103A100000287FF452AE754B1B78022B02D07448FD
:103A2000FFF719B80122734BD3E8EF1F002903D128
:103A3000C3E8E02F0028F7D102D06F48FFF70BB89A
:103A40006E496F4821F079FA6E48FFF704B86E4965
:103A500004A8FCF7E9FCD0B16C4904A8FCF7E4FC2D
:103A6000A8B9012C13DD4C4908A8FCF7DDFC00289F
:103A700040F01C81FDF7A6F8FEF765BF624904A877
:103A8000FCF7D2FC0028E7D1012C3FF71DAE6048BF
:103A900020A9FFF78DB9829806F044FF044601463D
:103AA000829A5C48FDF712F8002C7FF48AAA82986B
:103AB000594B186019F064F8FFF783BA574908A802
:103AC000FCF7B2FC002840F0BB80022C28D082AC6E
:103AD00020212B462046524A18F07CFA20465149B4
:103AE000FCF7A2FC00B92070204606F02FFF054627
:103AF00022784C4B0146002A14BF22461A464A48F7
:103B0000FCF7E4FF002D7FF45CAA23462021444A01
:103B1000464818F05FFA204603F058FEFFF751BA06
:103B2000434908A8FCF780FC002800F0BB8041490D
:103B300008A8FCF779FC002840F0B480022C00F0C3
:103B4000B18082AC21212B462046354A18F042FA3A
:103B500020463449FCF768FC00B92070204606F086
:103B600025FF054622782F4B0146002A14BF224626
:103B70001A463148FCF7AAFF002D7FF422AA2346FB
:103B80002121274A2D4818F025FA204603F042FE4D
:103B9000FFF717BACA910200C0860200B59600204E
:103BA000D1910200B6960020B7960020EF91020056
:103BB00081CD02000B9202002B9202004B92020078
:103BC000519202007292020008650020D106002086
:103BD00092920200AD920200C0060020559600208D
:103BE00028980200B4920200DE92020046C800202B
:103BF000E492020020650020119302002465002059
:103C0000B00B002030930200479302002B94020077
:103C1000DC940200779302002002002098930200B7
:103C200054AB02009A9802009D93020026C800201F
:103C3000BD930200E6930200EB93020005C800204A
:103C40005B4908A8FCF7F0FB00287FF470AF022C5A
:103C500028D082AC20212B462046564A18F0BAF9CB
:103C600020465549FCF7E0FB00B92070204606F0DD
:103C700085FE05462278504B0146002A14BF224695
:103C80001A464E48FCF722FF002D7FF49AA92346DE
:103C90002021484A4A4818F09DF9204603F0A8FD23
:103CA000FFF78FB9474820A9FFF782B8464908A80F
:103CB000FCF7BAFB002869D1022C67D0284643499B
:103CC000FCF7B2FB0446002831D104F0C1F84FF0F4
:103CD000FF3006F027FE3E4806F038FE3C4806F06E
:103CE0004DFE3B4806F062FE4FF0FF32394B1A6042
:103CF000394B1C70324B1C70384B1C70384C207880
:103D0000831E58425841FCF7B1FEFDF735FB35489C
:103D1000FCF7DCFE2378002B7FF4ACAE03F0F6FB5F
:103D200040F6B830FDF7EEFA03F02EFDA2E6284685
:103D30002D49FCF779FB044620BB0F220226012007
:103D40004FF0FF35294B5A701E70294B187006F042
:103D500089FE04F07DF803F0F5FB4FF0FF3006F02C
:103D6000E1FD1C4B30461D6003F02AFD204603F0A8
:103D700065FD284618F004FF1E48FCF7A7FE184B07
:103D80001B78C8E729461C48FEF7A8BE1B4820A997
:103D9000FFF70EB8082340AA194614A803F01CFE2A
:103DA000DFF810A0814640AD0DF15008FFF761B972
:103DB000BD93020054AB02009A980200C493020023
:103DC000D30600200B94020032940200E067020048
:103DD00003F405002002002026C8002005C80020AA
:103DE00046C8002037940200E7670200C0C70020E1
:103DF000D20600207A940200A7940200C094020028
:103E00002DE9F347A549A64821F06CF8A549A64835
:103E100021F068F8A549A64821F064F8A549A6480C
:103E200021F060F8A54821F0C2F80023A4494FF41E
:103E30008052A2480093082317F040F814F098FA33
:103E40000146002839D09F48FCF740FE9E4814F0F8
:103E5000B5FA0446002839D11AF031FC014610B1F8
:103E60009A48FCF733FE9A4B9A4A19689A4C914249
:103E700034D19A4A1278227000221A60207818F001
:103E8000C4FD2078FCF738FD01469548FCF71EFE7E
:103E9000FCF7D2FF002008F08FF8014610B19148DE
:103EA000FCF714FE904D284620F004FEE0B98F4840
:103EB000FCF70CFE6FF012040CE001228C4B1A7020
:103EC000FCF7BAFF8B48FCF701FEBFE701468A48C2
:103ED000FCF7FCFD204602B0BDE8F0872378022BFA
:103EE00084BF00232370C9E7AE68002E00F0C780AE
:103EF000336C002B00F0C380002228467F4998478E
:103F0000336A002B40F0C3807D48FCF7DFFD06F0EC
:103F1000D1FC4FF0FF334FF0000A7A4E7A4F7B49C5
:103F20003046DFF8EC913B60FCF788FA79497A4833
:103F3000FCF784FAD9F80020784B794D9A42DFF8E3
:103F4000D88185F800A02BD1764B2021B3F9003021
:103F5000754A3B603046754B18F03CF82021744B95
:103F6000714A404618F036F821212846714B6E4AB6
:103F700018F030F82878704A3178504508BF154657
:103F800098F80030009553450CBF134643466B48E4
:103F9000514518BF32463968FCF798FDC9F800A0B2
:103FA000674A684B1168DFF8A081994208D1674BD6
:103FB0001B78003B18BF012388F8003000231360F2
:103FC000386806F0AFFC4F4806F0C0FC524806F0D7
:103FD000D5FC534806F0EAFC386818F0D1FD494892
:103FE00003F0F4FB4C4803F003FC4D4803F012FCD3
:103FF00098F8000006F036FD3078554D002849D07D
:1040000002200F2328706B7003F0DAFB2378012B5A
:1040100040F0BC804F495048FCF758FD2078FCF731
:104020006BFC4E4B02464B494D4800934D4BFCF701
:104030004DFD06F0F1FC4C48037813B94B49FCF7F1
:10404000FDF90020FCF73AFD49494A48FCF73EFDDE
:104050004948FCF73BFDFCF7DFFD00202378474A89
:10406000012B107040F0B780454903F0F3FD45483F
:10407000FCF72CFD02B0BDE8F04706F023BE6FF060
:1040800057014148FCF722FD6FF0570422E728460C
:10409000984739E708232870B5E700BF9120000052
:1040A00050650020BD280000406500206D260000FE
:1040B000246500202124000010650020B00B0020A2
:1040C000B8D20020F19402001D20000046950200A5
:1040D000783F0120444D534246C800205C610220D5
:1040E0006895020081950200C85802009C95020064
:1040F00004C80020069502002E95020071230000DE
:10410000D795020026C800202002002003F40500F5
:10411000743F0120C7880200D30600204741544F56
:1041200005C80020F860022054AB02003C61022068
:104130001C610220FB6002209A9802002396020074
:10414000703F01204E41544FD2060020FA600220F9
:10415000C0C70020E76702005C96020017970200C4
:10416000D6960200D2960200C00600202B6D0200F7
:10417000259702003E97020066970200BFC7002005
:10418000AF970200BD970200B495020000263046AA
:104190000227267003F00EFB0F2301206B7088F8B6
:1041A00000002F7006F05EFC384603F009FB304635
:1041B00003F044FB4FF0FF3018F0E2FC0B4803F033
:1041C00005FB0B4803F014FB084803F023FB0948E8
:1041D000FCF77CFC22E7022B0CBF07480748FCF7E2
:1041E00075FC02B0BDE8F04703F0B4B803F4050075
:1041F000C788020086960200D19702000398020049
:104200000128024605D0044B0448022A08BF18467C
:1042100070470348704700BFE7670200EB67020082
:10422000E06702000128024605D0044B0448022A38
:1042300008BF184670470348704700BF3498020013
:10424000306D02003098020000234FF4AA6210B5CE
:10425000064902FB03F40C59844201D1184610BDF3
:1042600001330A2BF5D14FF0FF30F8E7E00C0020C6
:1042700001460A2310B5064A107810B154888C42C2
:1042800004D0013B02F10602F6D1184610BD00BF72
:10429000B09400202DE9F0410B7804460D462BBB6D
:1042A0000378FF2B25D14378152B22D943681A7840
:1042B000FF2A1ED15A78FF2A1BD19A78422A18D198
:1042C000DB78532B15D10F460626DFF82C80636868
:1042D00038469B5D42460321013617F07BFE162EC1
:1042E00007F10207F3D1002385F820300020BDE854
:1042F000F0810120FBE700BF4098020038B5134B66
:104300001C78012C16BF124B25461D78114B1B78CB
:10431000DBB1A31E59425941002014F0CBF8B4FA86
:1043200084F10120490914F0C5F82946022014F04F
:10433000C1F8094B1B7833B9084B19780320BDE845
:10434000384014F0B7B80121F8E738BDB3CE0020EB
:104350005CCF00205DCF00205BCF00205ACF002033
:1043600000210A460B4B93F87C0038B193F8820089
:1043700068B993F88300002818BF024601310A2962
:1043800003F5AA63EFD1044B1A70FFF7B7BF0246DB
:10439000F4E700BFE00C00205CCF00200022024BBD
:1043A0001A70FFF7ABBF00BF5ACF00200FB407B59C
:1043B0000B4B1B78012B11D00A490B4A022B18BF5B
:1043C00011460A4819F0E2FB05A90498019106F08C
:1043D000F3FD03B05DF804EB04B070470449F0E767
:1043E000B3CE0020DE7C02006E670200736702001D
:1043F0006A67020010B50C46FFF726FF6378014696
:1044000022780248BDE81040FFF7D0BF459802006F
:1044100073B50C4615461E46FFF716FF2B460146A0
:10442000224603480096FFF7C1FF02B070BD00BFEF
:1044300067980200014640F2E7304FF47A72002399
:1044400010B500EBC130490CFBF786FEBDE810400B
:1044500002460B46014816F0D5BD00BF500C0020A7
:104460002DE9F0432D4D2E4B2A782E4E8BB0012A8C
:1044700008BF1E462C4B1B782BB92C480BB0BDE84F
:10448000F043FFF793BF2A4F97F80080B8F1000F71
:1044900035D1DFF8A090D9F80030002B2FDA264C68
:1044A0002378092B2BD80AF0BDFE01462878FFF7A8
:1044B000A7FED9F80090CDE9010623781F4D00939F
:1044C0003A784B461E4805ACFFF770FF0FCD0FC47E
:1044D0002B68414605A823600BF0BCFF0446B0B131
:1044E00010F1780F02D010F1100F0BD101233B70A7
:1044F000FFF736FF224631461248FFF757FF0BB051
:10450000BDE8F08301461048FFF750FFF7E70123AD
:104510003B70FFF725FF31460C48F5E7B4CE00208D
:1045200094980200C7880200480700209C98020067
:104530005FCF00206402002060CF0020205C0200DA
:10454000C4980200269902004F990200699902005E
:104550002DE9F0410F460646FFF776FE084D094B60
:1045600004463046002F08BF1D461DF05AFB2A4660
:1045700003462146BDE8F0410348FFF717BF00BFDF
:1045800062CC020070CC02007B99020042F6D0732C
:104590002DE9F043954D0446451B9D428BB018D83C
:1045A000934B2D115D43036813B190F87C3033B900
:1045B000294690480BB0BDE8F04319F0E7BA90F8EF
:1045C00081304BB129468C4819F0E0FA002384F879
:1045D0007F300BB0BDE8F083884F97F80080B8F1CA
:1045E000000F0CD02946864819F0D0FA012332205A
:1045F00084F87F300BB0BDE8F043FFF71BBF18F025
:1046000045FA94F88430022B18BF4FF4AF76D4E902
:10461000302308BF4FF46176B21843F10003121A39
:1046200063EB0103012A73F1000106DB294675489B
:104630000BB0BDE8F04319F0A9BAEFF311832022C3
:1046400082F31288BFF36F8F94F8812042B184F80F
:104650007F8083F31188BFF36F8F6B482946A9E7EA
:1046600084F87F20012284F8812083F31188BFF32E
:104670006F8F94F88400FFF7D5FD94F8003102465F
:10468000002B53D004F580732168604800912946BF
:1046900019F07CFA21465E4B41F8483F20680EF045
:1046A000B7FE294602465B4819F070FA5A4920685D
:1046B0001BF02DFF29460246584819F067FA584961
:1046C00020681BF0A2FF29460246564819F05EFA00
:1046D00005AA9446544B256803F1100E1646186837
:1046E0005968083303C673453246F7D11B7828460C
:1046F000337094F884804D4B97F80090B8F1020F16
:1047000014BF66461E46FFF79FFD0146B9F1000F34
:104710000ED04748FFF74AFE002384F8813001237A
:10472000322084F87F30FFF785FE52E7414BABE73C
:104730004046FFF777FD94F800310246002B53D036
:1047400004F580733C480095FFF730FE01233146A5
:1047500084F881303B7028462346384A08F096FB9F
:10476000064600283FF435AF00233B7084F88130C3
:1047700094F8B93094F88420013384F8B930304F7C
:10478000304B2846022A08BF1F46FFF75DFD33461F
:10479000024639462C48FFF709FE2846FFF754FD2C
:1047A000054618F073F9D4E93023821A94F8B90059
:1047B00061EB0303029094F8B8002946019094F845
:1047C0007D0000902148FFF7F1FD94F87C304BB15B
:1047D00094F87D3033B94FF44042002304F188004F
:1047E00016F010FC00209EE7124BABE7E00C002017
:1047F000FDFCFCFC99990200CA99020047CC0020FC
:10480000F9990200219A02005A9A0200939A020032
:1048100051450000BD9A020090060020DB9A02007C
:1048200014670200F79A0200345C02003707002088
:104830001A9B02009A980200479B02005402002033
:104840009599020034980200709B0200969B02002A
:104850002DE9F04350F888EC04468BB0BEF1000F10
:1048600005D010F80C3C13B110F80B6C4EB10020C1
:104870004D4B04F8070C18700BB0BDE8F043FFF780
:10488000D9BD4A4DA0F18803494A5D1B2D115543FE
:1048900090F8302010F8040C042A0CD9454B4649F6
:1048A0002A46022808BF19464448FFF77FFD04F84E
:1048B000076C3046E0E73C4F397889B13D4B3E49C3
:1048C0002A46022808BF19463D48FFF76FFD40F60B
:1048D000CD42002320460BB0BDE8F04316F092BB5A
:1048E000013284F830200122022804F8072C3A70A3
:1048F00039D1344A3449704608F0C8FA14F804CC67
:1049000094F83030002842D0002694F8312004F882
:10491000076C013284F831203E702C490090264803
:104920002A46BCF1020F18BF01462948FFF73EFD99
:1049300018F0ACF8D4E90E23821A94F8310061EB38
:104940000303029094F830002946019014F80B0CF0
:1049500000902048FFF72AFD4FF4404200232046F4
:1049600016F050FBA5E705AEB0461B4A02F1100950
:10497000B446106851680832ACE803004A45664600
:10498000F6D1127841468CF800200E4AB3E70A4867
:1049900008492A46BCF1020F18BF01460F480BB068
:1049A000BDE8F043FFF702BD47CC0020E00C00203B
:1049B000FDFCFCFCE99B020095990200F59B0200BE
:1049C000179C020054020020F306002034980200D5
:1049D0004C9C02007B9C0200345C0200CE9C0200D6
:1049E000012210B5054B1A70FFF788FCBDE8104096
:1049F00040F686320023024816F038BB5ACF00201A
:104A0000B00C0020F0B52F480D46814216461C46DA
:104A10009BB003D000F11803994242D1002309E072
:104A200000F29C52954205D000F5AA6200F2B45003
:104A300085423ED11D468EB384B3FFF7D1FF642C6F
:104A400028BF6424002722463146684620F035FE00
:104A500004F168030DEB0304092D04F8687C13D8F6
:104A60004FF4AA666E43184C06F59A7040F2FF3276
:104A70006946204420F065FDA319D3F8342583F856
:104A800033750132C3F83425032268460F4920F0FC
:104A900046FD80B969460E48FFF788FC01201BB02F
:104AA000F0BD00234C3801330A2BB9D14FF0FF354C
:104AB000C1E71046F7E76A4629460648FFF776FC45
:104AC000ECE700BF2C0D0020E00C0020A06E0200DF
:104AD000F2B20200F79C020070B5044688B010B92B
:104AE000002008B070BD20490B785BB190F8003110
:104AF000002BF5D000F5807020F0CFFCB0FA80F0EC
:104B00004009EEE7194D2B7823B9194E3378CBB90C
:104B10000120E6E790F8E03033B12946E03020F09C
:104B2000BCFC0028F1D0DBE790F82631002BD7D071
:104B30002021B0F824310F4A684617F04BFA294675
:104B40006846ECE72B78002BE2D194F8E030002B9C
:104B5000C6D03046FBF77AFC3146024604F1E0004D
:104B600020F0C0FCCAE700BF52CE002093CE002048
:104B700073CE0020139D020038B500240D4D95F82A
:104B80007C3073B195F87D305BB12B684BB195F8F3
:104B90008430022B05D12846FFF79EFF08B120463E
:104BA00038BD01340A2C05F5AA65E8D14FF0FF3075
:104BB000F6E700BFE00C00202DE9F0410C78054637
:104BC0000E46B4B90378063B012B01D9012011E050
:104BD0004778DFF8248023461034BC42F6D8686852
:104BE00010224146184420F048FC0028F3D101234C
:104BF00033700020BDE8F081D2B402002DE9F0410D
:104C00000C7805460E46B4B90378063B012B01D952
:104C1000012011E04778DFF8248023461034BC429D
:104C2000F6D8686810224146184420F026FC002877
:104C3000F3D1012333700020BDE8F081C2B402003B
:104C400070B50C4607C88CB0237801AD85E8070025
:104C500013B900200CB070BD2046FBF7F7FB2022F3
:104C60000021064604A820F04FFD2846084904AA62
:104C70001AF0C6FD9DF81030002BEAD032462146CE
:104C800004A820F04CFCB0FA80F04009E2E700BF35
:104C9000A9CA0100002337B50D460446019310B997
:104CA000002003B030BD02220C4920F01BFC00B9EB
:104CB00002342378002BF3D01022204601A917F0EC
:104CC000D5F9019BA342EBD01B78002BE8D1B0F5BE
:104CD000803FE5D228800120E3E700BFC7880200BB
:104CE00009282DE9F84307460D4678D84FF4AA6401
:104CF00044433C4E04F18800304420F06CF93319F1
:104D000093F8813023B10020374B1870FFF792FBE6
:104D10004FF4AA637B43F05804F14C09F218B144F4
:104D200004F1640888B1B2F8543013B149460EF06A
:104D300051FF4FF4AA637B43F218B2F86C2022B102
:104D4000F05806EB08010EF045FF35B14FF4AA63A9
:104D50007B43F05808B10BF027FF4FF4AA630024FF
:104D60007B430022F518F45000232146C5E9302387
:104D7000C5E93223C5E9342348461822C5E91F4452
:104D8000C5E94B44A5F8B84085F8844085F8DF4074
:104D900085F8E04085F8004185F8214185F82241F9
:104DA000A5F8244185F82641A5F82A4185F8344123
:104DB000C5F8344520F0A8FC2146182206EB08006F
:104DC00020F0A2FCAC220948C5F8384585F83C45DE
:104DD000214602FB0700BDE8F84320F095BCBDE882
:104DE000F88300BFE00C002047CC0020B86500200D
:104DF00070B50D461446FFF727FA2A4601460D48BE
:104E0000FFF7D4FAACB100200B4B84F88100187086
:104E1000FFF710FB94F87C305BB194F87D3043B918
:104E200004F188004FF44042BDE87040002316F0C2
:104E3000E9B870BD1A9D020047CC002010B50C46A1
:104E4000FFF702FA0246F4B194F884301148022BBD
:104E50000CBF11491149FFF7A9FA0020104B84F843
:104E600081001870FFF7E6FA94F87C308BB194F863
:104E70007D3073B904F188004FF44042BDE8104022
:104E8000002316F0BFB805490248BDE81040FFF7FF
:104E90008DBA10BD389D0200E99B02009599020071
:104EA00047CC002070B5144E357825B1BDE8704070
:104EB0003220FFF7BFBA114C94F87F302BB901357F
:104EC0000A2D04F5AA64F7D170BD94F87C30002B4C
:104ED000F5D02368002BF2D094F87D30002BEED172
:104EE00094F88130002BEAD12046FFF74FFB33784E
:104EF000002BE4D0E8E700BF47CC0020E00C002006
:104F000070B50D460646FFF76BFD05B3104CA64283
:104F100013D1002305E004F5AA6204F25454A6421A
:104F200013D119462A460B48FFF740FA01220A4BD3
:104F30001A70BDE87040FFF713BA0023043C013338
:104F40000A2BE8D14FF0FF31ECE71446F7E770BDCC
:104F5000E40C0020529D02005BCF002038B50D46C6
:104F6000044660B1074920F098FA20B1204606496E
:104F700020F093FA18B9002301202B7038BD0020CF
:104F8000FCE700BF6F9D0200769D0200002230B555
:104F90000F4BADF20C4DD3E8EF1FC3E8E02F002814
:104FA000F9D1914202DD0B48FFF700FA0A4C0B4D94
:104FB000002200236946204615F074FC10B10DF262
:104FC0000C4D30BD6946284602AAFFF7EFF9EFE71E
:104FD000606500207B9D0200BC080020999D0200B6
:104FE0002DE9F04389B02B4BD3E8AF7F00252A4C45
:104FF000DFF8A8802A4EDFF8AC9094F87C3013B923
:10500000D4F84035F3B194F82611002937D04A4638
:105010000821B4F8243106A816F0DCFF0497B4F890
:10502000483529460393D4F8443540460293D4F8D2
:10503000403506AA019394F87D30009394F87C30B3
:10504000FFF7B4F901350A2D04F5AA64D5D111F0A2
:105050002FFF044611F032FF054617F017FD2A46D0
:10506000CDE9000121461048FFF7A0F94FF42032A6
:1050700000230E4809B0BDE8F04315F0F7BF3068D3
:10508000B288B3790690ADF81C208DF81E308DF8EB
:105090001F10C3E760650020E00C0020AF9D0200F8
:1050A000A89D0200139D0200059E0200800C0020B6
:1050B00030B5154D01462B78ADF20C4DEBB1002407
:1050C0000722684620F03DFA40F2FF32294602A846
:1050D0008DF8074020F035FA8DF8074400220023B0
:1050E00069460A4815F088FB50B1094BD3E8EF1F19
:1050F0000131C3E8E21F002AF8D10DF20C4D30BD9A
:10510000044815F0D5FEF8E747C80020BC08002089
:10511000606500206465002070B503788AB004469D
:105120000E4607AD032B20D8DFE803F002191B1D44
:1051300011492846FBF782F9059563781E210493EF
:10514000A37830460393E3780C4A029323790193C2
:1051500063790093A37916F03DFF0AB070BD08494A
:10516000E7E70849E5E70849E3E70A212846074A4F
:1051700016F030FFE0E700BF269E02004F9E0200BF
:105180002D9E0200349E02003E9E0200489E0200B8
:105190002DE9F0410F46504E8CB0054634681BF0A7
:1051A000B4F904A9FFF7B8FFFFF71AFC9FB13B461B
:1051B00021464A4804AAFFF7F9F8092C03D801212F
:1051C0002046FFF78DFD4FF0FF333360FFF748F9BE
:1051D0000CB0BDE8F081092C08D904A94048FFF7BC
:1051E000E5F8132128461BF0AEF9F1E73D4B1B789B
:1051F00083B904AA21463C48FFF7D8F81321284672
:105200001BF0A1F901212046FFF76AFD4FF0FF33A3
:105210003360DDE74FF4AA63344D02AF03FB045360
:1052200093F82681B8F1000F4AD008213846B3F828
:1052300024312F4A16F0CEFE4FF4AA636343EA18D6
:1052400092F8E020002A43D0E0332B4404AA214600
:1052500028480097FFF7AAF84FF4AA6161436F1836
:1052600097F88400FEF7DEFF97F8003102468BB313
:1052700001F580732B444FF4AA6161436F1869589C
:105280001D48019197F87D1000912146FFF78EF897
:105290001A4A1378013313704FF0FF333360012340
:1052A00087F87C304FF48073A7F87E30002387F8AE
:1052B000813017F0EBFBC7E93001FFF751F887E7C2
:1052C000072238460E4920F03CF98DF80F80B3E7ED
:1052D0000B4BBBE70A4BCEE764020020729E020034
:1052E0009B9E020048070020C59E0200E00C0020A3
:1052F000139D0200089F0200299F020060CF00203A
:105300009A9802002DE9F047814615460F4621B9CB
:105310006FF015042046BDE8F087002AF8D0FFF7AB
:105320002BFC041E50DBB9F1000FF1D0DFF8A48094
:1053300098F80030002B4AD1274E00220023304637
:1053400015F012FC0028F8D00026244B244AA3F1C3
:105350000A0143F80A2C1E605E601E8101234B6027
:1053600088F800304FF4AA631E4A5C4316606FF061
:105370000A021D4BA1F80890DFF870A0DFF87090CA
:10538000185989F80060CAF800200EF0FFFA0446A8
:1053900010B188F80060BDE74FF4404200230E488A
:1053A00015F0E2FB20B188F800406FF07304B1E71C
:1053B000DAF80040002CADD1013D2A464946384676
:1053C00020F0BFF87C55A5E76FF07F04A2E76FF0EF
:1053D0000F049FE748CC00209C65002092650020C8
:1053E0000D57000084650020E00C002060020020C2
:1053F00049CC002070B5104D2B78DBB106260BF0A0
:105400007FF8044680B110F1780F0DD010F1100F25
:1054100006D14FF44D70002116F01EF9013EEED179
:1054200021460648FEF7C2FF00232B70BDE87040FE
:10543000FEF796BF70BD00BF5FCF00205E9F0200E9
:105440002DE9F04F8FB017F021FB9A4B80461B7867
:105450008946002B00F0A180974F3C68092C34D876
:105460004FF4AA606043954D291891F87C3063BBD6
:10547000D1E93223012A73F1000626DB41F271766D
:10548000B8EB020269EB0303B24273F100061CDBC6
:1054900091F80011002979D000F580702844214648
:1054A00000908748FEF782FF4FF4AA635C432859B7
:1054B00010B113211BF047F801213868FFF710FCE9
:1054C0004FF0FF333B60FEF7CBFF7E4B1B78002B8A
:1054D00063D03B68002B60DADFF8ECA19AF800306B
:1054E000092B5AD8794B754D1B78012B15D1002308
:1054F0002A46194692F88400022807D192F87C00C7
:1055000020B192F87D0008B90133DBB201310A29DC
:1055100002F5AA62EED1002B3FD10024674B93F82D
:105520007E20AAB393F8DF2092B31A6882BB93F867
:105530007C206ABB4FF4AA63634355F803B0BBF108
:10554000000F2DD1D8332B441946584605930BF044
:10555000A3FD059B064618B3184606A9FFF7DCFD18
:1055600006AA21465A48FEF721FF132130461AF0B9
:10557000EAFF30460BF018FB59462046FFF7B0FB18
:105580004FF0FF333B60FEF76BFF06E0514886E7C4
:1055900001340A2C03F5AA63C1D10FB0BDE8F08F26
:1055A0004FF4AA6303FB0453D3E93423012A73F1B4
:1055B000000108DBB8EB020269EB0303B2F5967F4A
:1055C00073F10003E9DB4FF4AA66664305EB060BB3
:1055D0009BF88400FEF726FE9BF8002103469BF80B
:1055E000DF10C2B306F580762E449AF80020DFF86B
:1055F000E8A002929AF800203848CDE900620A46F5
:105600002146FEF7D3FE9AF800305BB34FF00A0B49
:105610000AF076FF064668B110F1780F0AD010F153
:10562000100F07D140F26760002116F015F8BBF1AA
:10563000010BEDD1324621469AF800302848FEF79A
:10564000B5FE56B1783608D0214626480FB0BDE8E1
:10565000F04FFEF7ABBE1F4EC7E700238AF80030BD
:10566000FEF77EFE4FF4AA6A0AFB04FA1E4B06AE52
:105670000FCB05EB0A0C86E80F000AF1D800314683
:1056800063461A4A2844CCE932893C600BF0E2FDBB
:1056900006460246214655F80A301548FEF786FEB2
:1056A000002E3FF47AAF214632461248FEF77EFEC6
:1056B000012162E74807002064020020E00C00207E
:1056C000969F02004907002060CF0020B4CE002042
:1056D000E99F02009A9802005FCF00203BA00200E1
:1056E0008DA00200C9A00200485C020014670200FD
:1056F00012A1020035A1020008B5034818F046FACD
:10570000BDE80840FFF79CBE51A10200F8B50C4669
:105710001946144BBDF8185093420AD1124F134E3C
:105720004CB16FF004033B6000233370104815F058
:10573000F7F90020F8BD0F4B01B135B91B68002BFC
:105740000CBF6FF03C030023EDE7FF2D28BFFF25C2
:105750001D60094B2A4618461FF0AFFF3C604455B8
:105760003470E3E7886500206002002048CC002008
:105770009C6500208465002049CC00202DE9F04F75
:1057800095B003780646202B00F10100F9D0092BD3
:10579000F7D0002B00F0C88000253046FAF756FEFF
:1057A000A8462F46624CDFF88C91DFF88CA1079059
:1057B00094F87830002B52D094F87930002B4ED0EA
:1057C00054F8043C002B4AD0201F08F10108FFF7D1
:1057D00083F9002871D194F822318DF8300033B16B
:1057E0002021B4F82031554A0CA816F0F3FB544B95
:1057F00054491878FEF704FD99F800300890002B02
:105800000CBF53464B4609930B78002B08BF5146FB
:1058100094F8DC30002B49D004F1DC0B9DF83030DB
:10582000002B46D00CAB94F8FC20002A43D004F1A6
:10583000FC0294F88000CDE90A32FEF7F3FC94F8FC
:1058400079C00B9A0A9BCDE9040CCDE901B3039210
:1058500000913D483946DDE90823FEF7A7FD0137F1
:105860000A2F04F5AA64A3D1E5B9354B3549187858
:10587000FEF7C6FC304D0C782E4B002C08BF294695
:10588000324C024626781878002E08BF2C46002895
:1058900008BF2B46CDE900142D484146FEF786FD92
:1058A0006FF07F05284615B0BDE8F08FDFF888B0AF
:1058B000B4E7214BB7E7204ABBE794F88020BDF856
:1058C0001C30022A1ED10021CDE90111009132467F
:1058D000B4F8261154F8040C1CF00AFD024628B155
:1058E000334639461B48FEF761FDB8E794F8FC30B3
:1058F00001352BB104F1FC03324639461648F2E774
:105900000D4BF9E71A463146204607F055FD024691
:1059100018B1334639461148E5E732463946104852
:105920000135FEF743FD9AE76FF01505BAE700BFB2
:10593000E40C002093CE00209A980200139D0200F0
:10594000B4CE002052CE00207BA1020073CE0020F6
:1059500083A20200FBA1020024A2020047A20200CF
:105960006CA202002DE9F04FBDB015AB07460C4606
:1059700007C983E80700AF4B93F800A0BAF1000F06
:105980000DD1AD4B19680131196001F01F03012BD6
:1059900002D1AA48FEF70AFD3DB0BDE8F08F3B8971
:1059A000DB07F9D5A6492046FFF74AF9A5490F902C
:1059B0002046FFF745F94FF000090DF1CC080B9098
:1059C00094E8070088E8070040469F492BAA8DF815
:1059D000AC9019F015FF94E807009DF8AC3088E80A
:1059E0000700404699492BAA8DF8AC900E9319F008
:1059F00007FF94E807009DF8AC3088E807004046B0
:105A000093492BAA8DF8AC90109319F0F9FE94E805
:105A100007009DF8AC304FF6FF7B0D93FF2388E81D
:105A2000070040468B492BAA8DF8AC3019F0E8FEF0
:105A300094E8070088E80700404687492BAA9DF8AC
:105A4000AC50ADF8ACB019F0DBFE94E80700BDF83F
:105A5000AC6000235E4508BF4E460DF1AC0B88E8F4
:105A600007005A4640467D4914BFD146B1468DF8DD
:105A7000AC3019F0C5FE9DF8AC300C935A1E0023D3
:105A8000072A84BF0C930A934FF0000394E80700A1
:105A90008BE807005846724933AA8DF8CC3098BF7E
:105AA000CDF828A019F0ACFE9DF8CC30002B40F0CA
:105AB0000E838DF8CC306B490B78002B33D09DF8DA
:105AC000CC30002B32D033A81FF0E7FCB0FA80F8BE
:105AD0004FEA58182022002123A81FF015FE624922
