:020000040000FA
:10000000285C0020ED1E0000B3590000D91E00003E
:10001000D91E0000D91E0000D91E000000000000FB
:10002000000000000000000000000000C91F0000E8
:10003000D91E000000000000D91E0000D91E0000DB
:100040000521000005210000052100000521000018
:100050000521000005210000052100000521000008
:1000600005210000052100000521000005210000F8
:1000700005210000052100000521000005210000E8
:1000800005210000052100000521000005210000D8
:1000900005210000052100000521000005210000C8
:1000A00005210000052100000521000005210000B8
:1000B00005210000052100000521000005210000A8
:1000C0000521000005210000052100000521000098
:1000D00005210000052100000521000053B94AB99F
:1000E000002908BF00281CBF4FF0FF314FF0FF3040
:1000F00000F00CB8ADF1080C6DE904CE00F008F882
:10010000DDF804E0DDE9022304B07047704700BF6A
:100110002DE9F04786468C460846089E15467446EB
:100120001946002B40F0C2808542B2FA82F245D9CE
:100130004AB1C2F1200300FA02FC2EFA03F3954003
:1001400043EA0C0C94404FEA154EA8B2BCFBFEF8F3
:10015000230C0EFB18CC08FB00F943EA0C4399452D
:1001600028D9EB1808F1FF3704D2994502D9A8F134
:1001700002072B44A3EB0903A4B2B3FBFEFC0EFB66
:100180001C330CFB00F044EA0344A04214D92C19A0
:100190000CF1FF3304D2A04202D9ACF102032C448B
:1001A000241A43EA07401EB1D44000233460736030
:1001B000BDE8F0874746DDE76346F1E792BB431BA6
:1001C00001214FEA154EAFB2B3FBFEFC200C0EFB33
:1001D0001C330CFB07F840EA0343984562D9EB183F
:1001E0000CF1FF3004D2984502D9ACF102002B4447
:1001F000A3EB0803A4B2B3FBFEFC0EFB1C330CFB09
:1002000007F744EA0344A7424ED92C190CF1FF33F7
:1002100004D2A74202D9ACF102032C44E41B43EA06
:100220000040C0E7C2F1200320FA03F1954090405E
:100230002EFA03F303434FEA154EAFB2B1FBFEFCB7
:100240000EFB1C10190C0CFB07F841EA0041884515
:1002500004FA02F422D969180CF1FF3004D288455F
:1002600002D9ACF102002944A1EB08019BB2B1FB19
:10027000FEFC0EFB1C110CFB07F743EA01439F42F7
:100280000ED9EB180CF1FF3104D29F4202D9ACF128
:1002900002012B44DB1B41EA004192E76046E3E7A1
:1002A0006146F7E76046A3E76346B7E7834206D9AE
:1002B00016B9002108467BE7C6E900E0F9E7B3FA82
:1002C00083F78FB9834201D3724508D8BEEB02048D
:1002D00060EB030301209C461EB9002168E7384605
:1002E000FAE7C6E9004CF8E7C7F1200CBB4022FA58
:1002F0000CF41C432EFA0CF120FA0CF3B840014325
:100300004FEA14490EFA07F5B3FBF9F81FFA84FE19
:1003100009FB18300B0C08FB0EFA43EA00439A4520
:1003200002FA07F240D9E31808F1FF3004D29A45E7
:1003300002D9A8F102002344A3EB0A0389B2B3FB5C
:10034000F9F809FB183308FB0EFE41EA03418E451C
:100350002CD9611808F1FF3304D28E4502D9A8F1D7
:100360000203214443EA0040A0FB0298A1EB0E01E6
:100370004145CE46434602D306D14D4504D2B9EBA2
:10038000020E68EB04030138002EA6D0B5EB0E0276
:1003900061EB030101FA0CFC22FA07F34CEA0303B8
:1003A000F940C6E9003198E74046C5E74346D9E73A
:1003B000F0B52E4B2E4AC3F800262E48C3F804266B
:1003C00085B0C3F808264921C3F80C26C3F81026C7
:1003D000C3F81426C3F81826C3F81C2605F05FFAE4
:1003E00000F078F801A800F027FD234B1B6883423A
:1003F00004D02248452105F052FAFEE7039A20482E
:10040000492105F04CFA1F48492105F048FA4FF4FC
:100410004041002005F0CCFC044620B11A4845219B
:1004200005F03DFAFEE769469DF8080000F030F857
:10043000009B039D1D44019B1E8902F03FFFAF19E5
:1004400001F01CF800F0F0FF01F07AFDAB5983F3E6
:10045000088884F31488BFF36F8FBFF36F8F7B68B6
:1004600098470A48452105F01AFAFEE700000140C6
:100470003546526EE277000008060020FB77000048
:100480001E7800004D78000072780000A57800000A
:1004900008B5024638B105480023452105F0FFF9AB
:1004A0006FF0150008BD0860FCE700BFC8780000C9
:1004B00021B1012906D06FF015007047044B53F8A5
:1004C00030007047024B03EBC0035868704700BF11
:1004D0000875000002484FF4C05103F045BC00BF4E
:1004E000201300202DE9F04FF9B0DDE9848ADFF810
:1004F000F891869CD9F8006038A817461D4606F08A
:10050000DEFC002138A803F065FDB8F1000F07D02C
:10051000BAF1000F04DD5246414638A806F0D8FC77
:100520003B897A89D7F80CB013449B444FF00008FC
:10053000C34564D80DA938A806F009FD38A806F00F
:10054000C2FC24B120220DA9204605F083FA002325
:1005500000932A464FF6FF73394607A804F060FE61
:10056000804600285BD128460C9C00F0FDF98442AF
:1005700055D8DFF878B1DFF878A14FF0FF340DF1EE
:10058000160305AA06A907A804F098FE002846DB72
:1005900040F0A280069907A804F0DCFE50B9BDF82F
:1005A0001600544A4FF6FF7132F8023B8B4236D0A8
:1005B0009842F9D1BDF81670102F3AD0202F6DD087
:1005C000012FDCD1BDF81430202B28D8069938AA89
:1005D000284605F072F9044608BB9DF814300293D2
:1005E000202B09D8DAF80030434F0393039B9C4239
:1005F0001DA836DB06F067FC4FF0FF34BFE7839B96
:10060000829AABEB080A9A4528BF9A465346414660
:10061000284605F052F928B138A806F054FCD9F85C
:1006200000605CE08299524638A806F051FCD04444
:100630007EE7BDF81470202FF1D106993B4638AA09
:10064000284605F03AF90028E9D13A4638A90DA81C
:1006500004F08EFEDBF800308342E0D14FF0010859
:100660008DE706F02CFC00211DA803F0B3FC7A688E
:1006700057F8081B12681DA806F02AFC15A91DA82A
:1006800006F065FC029A38A915A805F0D3F918B947
:100690001DA806F018FC72E70134A7E7631C3FF4BD
:1006A0006EAFDAF80030A342A6DDBDF81430B3F522
:1006B000807FB4D1069938AA284605F0FEF80028B4
:1006C000ADD1E4B2BDF81430009438AA39460DA873
:1006D00000F014F806468FE7B8F1000F9FD03046BF
:1006E00079B0BDE8F08F00BFC404002008060020E8
:1006F00010750000B4770000147500002DE9F04F6C
:10070000DFF8E4A1ADF5417D07462AA89DF828B39E
:10071000DAF800501E468946904606F089FB092209
:1007200001212AA803F0D2FB704B53F83B400594FB
:1007300003EBCB0380AA5B681B681C442146302373
:1007400005A805F05FFC002840F0C580059B809A55
:1007500013449C4240F0BF802CAA214605A805F016
:1007600065FC002840F0B7800DF1B80B5A462146D1
:1007700005A805F05BFC0390002840F0AC802CA895
:1007800006F002F8059A2B90944240F0A480039B57
:10079000CDF804B000931A462CA92AA806F005FB50
:1007A000002840F098802AA803F0A6FB002840F01B
:1007B00092802CA805F0E8FF2B902AA806F042FBB7
:1007C000864240F08880B6F5807FDAF8005040F02D
:1007D0008280B9F1200F7ED180AA41462AA803F079
:1007E000B1FB0446002876D19DF8FF32BC2B72D1B4
:1007F00006900DF59079DF260FA806F060FB00212A
:100800000FA803F0E7FB20220DF2DF210FA806F06E
:100810005FFB042206A90FA806F05AFB07A90FA840
:1008200006F095FB202E9DF81B30B046A8BF4FF078
:10083000200801334846424607A9A6EB08068DF872
:100840001B3005F007F9002EC144D5DC0FA806F0D7
:100850003AFB48AB80AA184600219C46067812F85D
:1008600001EB013186EA0E06DF2900F8016BF5D1B4
:100870001A7802F07F021A7013F8016B5EBB013424
:10088000BE2CF9D19CF8BE30012B24D10FA806F064
:1008900016FB31460FA803F09DFB154908220FA84F
:1008A00006F016FB394620220FA806F011FB202285
:1008B0000DF2DF110FA806F00BFB07A90FA806F039
:1008C00046FB0FA806F0FFFA20220DF2DF2107A851
:1008D00004F04EFD05462AA806F0B6FA28460DF5A6
:1008E000417DBDE8F08F00BFC404002014750000F6
:1008F000EE780000094A0B78400052F820108B4235
:1009000009D0013052F82000834214BF4FF0FF306D
:100910004FF4C07070474FF4C07070471C750000F2
:100920001FB50F4B13F830000C4601F033F950B9E6
:100930002068816810236A46103904F0BEFF28B190
:10094000206804F0B9FF4FF0FF3006E0054910229F
:10095000684605F06FF80028F2D104B010BD00BF62
:100960001C750000D277000013B5044604F007FDA3
:100970006A460146204604F03AFC30B1044845215D
:1009800004F08DFF002002B010BD0098FBE700BF0F
:10099000F67800002DE9F041384F88B00646002077
:1009A0000D463C68FFF784FD06A9C0B201F0F2F8DD
:1009B000E0B92946FFF77CFD2C2407A9C0B204FB4F
:1009C000056401F0E7F8A8B12C2068433218069BB3
:1009D000116911F0100F1DD01DB10699304604F0B9
:1009E000B8FD274B1C68069804F066FF204608B047
:1009F000BDE8F081079804F0A9FF8046079804F04D
:100A00005BFF631EE21C13F8011F4145DCD19342DA
:100A1000F9D1E1E736581B4886422AD1D6681089B9
:100A2000801926D25289121823D29868824220D285
:100A300040F60C6211401CD14FF480720192124AB0
:100A40000092CDE90311224602910846FFF74AFDC4
:100A500004460E4B1B68A342C5D065B10698002121
:100A6000826804F054FF0A4A0A48452104F017FF3F
:100A7000B7E73C68EDE7084AF6E700BFC40400208A
:100A8000C00400203DB8F396202B0020080600206B
:100A90003979000043790000317900007FB50D46B7
:100AA000044600212846CDE9021104F011FD28B3C7
:100AB0002368194EB34203D103AA204604F09DFCDB
:100AC000E36AB34204D102AA0121204604F095FC56
:100AD000DDE90232934288BF0393039BAB60039A24
:100AE0002946204600F0A8FB0C4B1A68002A03DDBB
:100AF0000B48572104F0D3FE04B070BD01A9FFF7E5
:100B00000FFF019805F1080104F044FCAB6801985F
:100B1000039304F0D1FEE2E73DB8F3966C12002097
:100B20006B7900002DE9F84FDFF870B01C4C1D4DBB
:100B3000884691469A4600260B9B9E4201D3002090
:100B40000FE00B9B154A9F1BB7F5806F28BF4FF432
:100B500080673B4606EB0A01404604F0AEFE10B14A
:100B60000120BDE8F88F0A993B465A46711848465D
:100B700004F0B8FE0028F3D1C4F800563E44C4F88F
:100B80000456C4F80856C4F80C56C4F81056C4F8F5
:100B90001456C4F81856C4F81C56CDE70C060020AD
:100BA000000001403546526EF0B59A4B43620E4646
:100BB00003F580630021036589B004460846FFF70A
:100BC00077FC04F120010546C0B200F0E3FF0346C4
:100BD000E8B90121FFF76CFC04F14C010546C0B2F5
:100BE00000F0D8FF0346E0B9204604F047FC054674
:100BF000C8B900221146204604F0E9FB054660B35F
:100C000085480022572104F04AFE01239CE000227F
:100C1000CDE90023814800232A46452104F03FFE08
:100C2000FEE70122F4E77E488022572104F037FED8
:100C300001239D4284F85830DBD194F858308DF868
:100C40001730042B00F28380012B00F2878000F024
:100C50009A80FF2384F8583095E0204600F0FEF992
:100C60000028D2D004A804F02AFC0146204604F053
:100C7000C5FC18B16B482A465721C4E704A804F004
:100C800027FC80F0010104AAC9B2204604F09FFBB2
:100C900002460028B4D104A804F01AFC054660BB43
:100CA00004A92046FFF7FAFE9DF8173084F8583063
:100CB000033B012B06D8284600F0E4F810B1FF23CF
:100CC00084F858309DF81730023B022B0BD80020D7
:100CD00000F0C2F838B1FF2384F85830524845215B
:100CE00004F0DDFDFEE794F85830FF2BF6D004AA9F
:100CF0000021204604F06BFB87E79DF81770012F59
:100D000017D1104602F068FB831E022B05460DD852
:100D100039462046FFF73EFE444B1B68984205D0FB
:100D2000434B1D68A84214BF0525012584F858507F
:100D300083E701212046FFF72DFE3C4B1B689842BC
:100D40000CBF9DF81730052384F8583075E7052B44
:100D50007FF47FAF002000F095F811E004A9204651
:100D6000FFF79CFE94F85830DA1E012A14D80020B0
:100D700000F088F800287FF46CAF002000F06CF8D9
:100D800000287FF466AF94F85830FF2B07D126482F
:100D9000452104F084FDFEE7022BF4D1EDE70022AB
:100DA000012B244D039214D01146204604F00FFB72
:100DB00078B12D68102200210DEB020004F055FEE1
:100DC000E06C04F079FD206A04F076FD284609B055
:100DD000F0BD00212046FFF7DDFD144F3B6898422F
:100DE000E7D12B689842E4D0114B1B689842E0D0C1
:100DF000039B01330393039B012B00D0FEE7206A82
:100E000004F0F3F93071236A5B6834603D68B360C5
:100E1000D0E700BF0C0A0020297A00009A79000070
:100E2000E7790000557A00007F7A0000080600206C
:100E3000C0040020C404002038B5064D04466022DA
:100E40000021284604F011FE21462846FFF7ACFE9B
:100E500038BD00BF0C12002013B5094B01A913F8CF
:100E6000300000F097FE48B9019805F08FF804466D
:100E7000019804F021FD204602B010BD0124FAE7DC
:100E8000247500001FB50F4B01A913F8300000F0C6
:100E900081FEA8B9019802A902F048FA044668B98F
:100EA0009DF80B30032B03D1019805F03DF8044663
:100EB000019804F001FD204604B010BD0124F7E7BD
:100EC0000124F8E7247500002DE9F34106460C469D
:100ED00017461D460BB9002628E0184604F0F8FA1C
:100EE0000028F8D16946FFF71BFD009838B90124A6
:100EF000009804F0E1FC204602B0BDE8F08101A9B1
:100F000004F048FA0028F2D1009804F0D5FC3046ED
:100F1000019904F0C0FB736A5E686B79012B21D1E3
:100F2000002CD8D12B68834298BF00262146002090
:100F3000FFF7BEFA6946C0B200F02CFE0028D6D1F9
:100F4000009820233A46314604F0B7FC04460028B6
:100F5000CDD1002DCCD03C680D4BE41A18BF4FF01A
:100F6000FF34C5E7022BB6D12B68012B05D983428C
:100F7000B1D8B4FA84F46409ADE7ACD1002CD5D073
:100F8000012CA8D12C79023C18BF0124A3E700BF93
:100F90003DB8F3962DE9F04F074685B00C46014663
:100FA00000201646FFF7A6FC051E50DB3846E46D10
:100FB00004F0E5F95FFA84F96B1E09FB03084FF0B2
:100FC000000A4FF0010B4FF0FF349DB9BAF1010F49
:100FD00003DD2148452104F062FC631C06D07F2C10
:100FE0002ADC013440F201133460B380284605B096
:100FF000BDE8F08F6B1E00930DF10F0201234146F7
:10100000384604F05AFC031E019322DB01220DF145
:101010000F01384604F023FF019B40B15B4501D02E
:101020000AF1010A009DA8EB09089B46CDE7B4F13F
:10103000FF3F08BF2C46F5E70223803C7371631025
:1010400004F001040133013433603471CEE7072525
:10105000CCE70125CAE700BF8B7A000070B5866A2D
:10106000456D044604F006FBAE420AD06B1CB34249
:1010700007D0834205D01448572104F010FC00200B
:1010800070BD802E1CD911485721F6E7626A216D88
:1010900002EBC30201EBC30152684968914202D0DE
:1010A0000B485721E9E701339D42EFD1AE4205D904
:1010B000636A03EBC5035B689342F1D10120DFE76C
:1010C00000231A46F0E700BFAE7A0000E67A00007F
:1010D000157B000000B589B004A9022004F031FF9F
:1010E0009DF81020012A41D0254B2649032A08BF2C
:1010F0000B469DF8132002929DF8122001929DF854
:101100001120214800924921204A04F0C8FB06A979
:10111000062004F016FF9DF81820012A28D0184B4D
:101120001849032A08BF0B469DF81B2002929DF820
:101130001A2001929DF8192000921348144A49215F
:1011400004F0ADFB9DF81030012B13D19DF8123047
:10115000032B0FD19DF81830012B0BD00D484921DE
:1011600004F09DFB022009B05DF804FB0A4BC0E7C8
:10117000094BD9E70948492104F091FB0020F2E727
:10118000417B00004A7B00005E7B0000507B00003A
:101190009F7B0000AF7B0000457B0000CE7B000002
:1011A00070B54B6814461E4A03F0FF23934286B085
:1011B00006460D462FD10B68012B2CD104A92046E1
:1011C00002F0B4F89DF81020012A26D0154B1649DC
:1011D000032A08BF0B469DF8132002929DF81220A7
:1011E00001929DF8112000921048114A492104F003
:1011F00056FB9DF81030032B0DD12146304604F0EC
:10120000A8F9204604F090FEA968204604F0D0F822
:10121000204602F06BF806B070BD064BDBE700BF5E
:1012200000010004417B00004A7B00005E7B00005F
:101230009F7B0000457B00002DE9F04F164689B0EA
:1012400005460C467448492104F029FB31462846DE
:1012500004F021FA6B6A824620465E6804F038F991
:10126000E8B1E86D04F086F8AF6A0023013F33442B
:10127000834201D2013FFAE7BA4510D367485721AC
:1012800004F00DFB07FB06F365480AFB06625721D5
:1012900004F005FB0123E37109B0BDE8F08F06A956
:1012A000022000F077FC07A9062000F073FC079AE3
:1012B00021462846FFF774FF6379012B4BD1DFF8F5
:1012C00064B1574641E02268C2F1010353449F4292
:1012D0003AD86B6A196853F8370003EBC703012A41
:1012E00053F8083CA3EB0103A0EB0109049311D1CF
:1012F000079B0393E368022B08D04146284604F07D
:1013000028F922464146284604F059F9039928460F
:1013100004F01FF932464946404604F018F9049B90
:1013200042464146CDE900962846FFF7FBFB2146A1
:10133000284604F0DAF823680133236020B1DBF893
:1013400000300133CBF80030013FDDF81880002F6A
:10135000B9D101232360022363710127BA45DDF867
:10136000189006D2484604F0A7FA079804F0A4FAA9
:1013700092E723689F424DD36A6ADDF81CB052F8A9
:1013800037100491FB00083B11680391D1582A6D76
:10139000D0581368A0EB03082379012B38D1039BA5
:1013A0003246C91A4846059104F0D1F805990091D2
:1013B00043464A46594601962846FFF7B3FB214665
:1013C000284604F092F80223237118B1154A1368D5
:1013D0000133136032464146584604F0B8F8DDE95F
:1013E000032349469B1ACDE900865A462846FFF753
:1013F00099FB2146284604F078F8236801332360DE
:101400000123237130B1074A13680133136001E0EF
:10141000022BDFD00137A1E7E57B00000E7C000046
:101420003D7C00006C120020BFF36F8F72B6124B30
:101430004FF0FF32C3F88020C3F88420C3F888201F
:10144000C3F88C20C3F89020C3F89420C3F89820E8
:10145000C3F89C20C3F88021C3F88421C3F88821F5
:10146000C3F88C21C3F89021C3F89421C3F89821C4
:10147000C3F89C21704700BF00E100E01A4B70B533
:101480004FF0FF3401265E60C3F84843C3F80843B9
:1014900003F5C043154D5E60C3F84843C3F80843E5
:1014A00003F5983302205E60C3F84843C3F808434D
:1014B000C5F8084300F0A6FD00236E60C5F84C3166
:1014C000D5F84C21C5F81031D5F81021C5F84431B4
:1014D000D5F84421C5F80035054BC3F808454FF051
:1014E0008043C3F8084370BD00B0004000200040B6
:1014F00000F00140014B1B68184700BFC8040020E2
:10150000014B1860704700BFC804002007B50B46A8
:10151000002102460091034800F006F803B05DF890
:1015200004FB00BFF51400002DE9F04F8DB01D46FF
:10153000531E8246019103934FF00009039B587894
:10154000252803F1010419D11E4600204FF0FF3871
:10155000023603460290444631780396392954D81E
:101560001F2914D8002900F0EE8101992520D047C9
:1015700001993078D04709F10209DFE7002800F02F
:10158000E2810199D04709F101090394D6E7A1F15D
:101590002002192AE9D801A757F822F00516000001
:1015A0006B1500006B150000051600006B150000A0
:1015B000851600006B1500006B1500006B15000010
:1015C0006B150000D1160000051600006B15000019
:1015D000E5160000911600006B1500009F16000034
:1015E000BF160000BF160000BF160000BF160000A7
:1015F000BF160000BF160000BF160000BF16000097
:10160000BF16000008460136A6E7582900F0EB8017
:10161000A1F16302D7B2172FA7D8172AA5D801A71F
:1016200057F822F08D1800000B1700006B15000012
:101630006B1500006B150000EB1600000B17000087
:101640006B1500006B150000EB1600006B15000019
:101650006B1500006B150000C11700006B15000032
:101660006B150000611800006B1500000B170000DF
:101670006B1500006B150000C11700006B15000012
:10168000EB16000001992520D04709F1010955E723
:10169000029A02F0FE0202924FF00008B3E7002C1B
:1016A0000DDAB8F1000F0DDA029A002A00F043813A
:1016B00024EAE4740A2202FB0414303CA3E7B8F1E4
:1016C000000FF5DB0A2202FB0812A2F130089AE7AC
:1016D000B8F1000F55F8042B80F22F81002A80F218
:1016E0002E815442022202928DE7682903D1682B91
:1016F00006D1482387E76C2902D16C2B00F02181A9
:10170000002B7FF432AF0B467DE77A2B06D175298B
:1017100055F8046B14D14FF0000B0CE06C2BF6D095
:101720004C2BF4D1073525F007037529D3E9006B5D
:1017300003F1080506D120283BD1854F013C09E083
:101740004FEAE67BBBF1000FF5DA7642814F6BEB97
:101750004B0B013C0DF12D03059300230493304600
:1017600059460A220023FEF7B9FC059B303203F8E4
:10177000012DB4460593049B5A46BCF10A0F8B46D3
:1017800072F1000203F1FF3106460491E7D2C3F182
:10179000010B30330DEB0306B8F1000FA6F1040680
:1017A0006DDA029BD9077DD4A8EB0B03A4EB0B04E5
:1017B00013E02B280ABF684F684F04F1FF34C9E7D4
:1017C00070290FD155F8042B0023FAB9634F644EEA
:1017D000053C6FF004034FF0050B029A920770D49A
:1017E000A04666E078216C2B03D155F8042B00232A
:1017F00008E04C2BF9D1073525F007031D465B683F
:1018000055F8082B232825D1880621D5554F023CB1
:1018100001F06001A1F1390B0DF12D0E002602F04F
:101820000F01092988BF594430310EF8011D102AD3
:101830004FEA121141EA03714FEA131C73F10003DE
:1018400006F1FF3008D2C6F1010B06F13003A1E723
:10185000454FDCE7414FDBE706460A466346DEE7D5
:1018600055F8046B304604F0DEF8B8F1000F8346FB
:1018700002DB4045A8BFC346384F4FF00008A8EB35
:101880000B03002B92DDA4EB0804A6E755F8043BFC
:101890008DF81830314F013C4FF0FF334FF0010B02
:1018A00006AE9AE7A046EAE7029301992020D047C6
:1018B000029BB8F10108F7D524EAE472013C914497
:1018C000A41AB84606E0049302920199D047029AFE
:1018D000049B9046424612F8010B0028F3D11A46A9
:1018E000013A15D5002BACBFC7EB03077F425B461F
:1018F000013B15D5BBF1000FA8BF5F444F442646FE
:10190000013E14D5002CA8BF3F1907EB080915E6C6
:101910000493029201993020D047049B029ADFE79A
:101920000293019916F8010BD047029BE0E7019959
:101930002020D047E4E70122D5E6904663E614462E
:1019400061E64C235FE648460DB0BDE8F08F00BF6E
:101950007E7D00007C7D0000807D00008A7A000092
:10196000887D0000827D0000857D00002DE9F04724
:10197000058B04462807904611D4022905F0070577
:1019800040F0CC80204603F0B2FE78B10138218BC4
:10199000042811D8DFE800F0C2106D8595000129F8
:1019A0000CBF45F0100545F02005258388F311880C
:1019B000BFF36F8FBDE8F08701F0070AAA4500F07A
:1019C000A5800027B9463E46A368002B00F0BC80E6
:1019D00041F00801218388F31188BFF36F8FA1685C
:1019E000002900F0BA800D68002900F0B680D1F817
:1019F0000480334652462046C047002D76D02B68DF
:101A000029461D46F0E701F007035A1F012A1BD89B
:101A1000002221F00701062B276889B2C4E90022C1
:101A200009D13B4603E0628B013262831B68002BC5
:101A3000F9D141F002012183204603F058FE00282D
:101A40007AD041F0200176E0042B0AD121F0070181
:101A500089B22183204603F04AFE10B141F02001F3
:101A60002183218B01F0070AAA454FD00027B946F0
:101A7000AAE7236921F0070141F00601062DD3F8FA
:101A8000009021832DD1B9F1000F3FD041F0080122
:101A9000218388F31188BFF36F8F3A492046C847E6
:101AA00029E021F00701236941F0040189B2042DE6
:101AB000D3F804902183E6D000273E464FF0040A75
:101AC00082E721F00701236941F0050189B2052D64
:101AD000D3F808902183D6D000273E464FF0050A60
:101AE00072E700273E464FF0060A6DE72B4687E770
:101AF000B9F1000FD1D1EFF31188202383F31288BD
:101B0000BFF36F8F238B23F008032383258BEA0613
:101B10002ED525F01003238305F007056669218B78
:101B2000002EBFF670AF00232768C4E9003321F010
:101B3000070141F001012183218B01F0070AAA4529
:101B40004FF000097FF440AF002F9CD041F0080116
:101B5000218388F31188BFF36F8F002FC8D03D68B1
:101B6000394633465246204603F0EDFD2F46F4E752
:101B7000AB067FF51BAF25F02003238305F0070597
:101B800000E700BF73570000014B0360002070475F
:101B90003075000070B5114B1C680D46DCB1104B60
:101BA000196800238B4202DB6FF0010070BD2246F2
:101BB00012F8106B864202D001331446F2E7E06857
:101BC00010B96FF01200F1E705F059FB0028F8D0CA
:101BD0002C600020EAE76FF00C00E7E7CC0400205F
:101BE0003075000070B588B005460C46C0B2694635
:101BF0001646FFF7CFFF00281BDB0098C8B14368EB
:101C00000293836822680195CDE903360023CDE96C
:101C100006230593C56803F04FFE6DB128460849B9
:101C200001AA04F025F8079808B9059B236008B0BD
:101C300070BD6FF01500FAE76FF01200F7E700BF14
:101C40005B59000008B5054803F044FD044803F063
:101C500041FDBDE80840034803F03CBD8E7D000017
:101C6000BF7D0000F27D000030BFFFF7FDBF00BF69
:101C7000134B9A6A12F0007F9A6A14BF1E201D202F
:101C800012F0807F9A6A18BF1F2012F4002F9A6A00
:101C900018BF212012F4802F9A6A18BF222012F454
:101CA000003F9A6A18BF232012F4803F9A6A6FEAB5
:101CB00002426FEA12429A6218BF2420704700BFA6
:101CC00000ED00E010B5194B0246986A9C6A10F4CA
:101CD000805F14BF1720162014F4006F9C6A18BF91
:101CE0001820A40509D5986B986A000404D51AB188
:101CF0009A6A22F400429A6219200C4B9A6A12F4F2
:101D0000806F9A6A18BF1A20D2050CD49B6A13F40C
:101D1000005F18BF1C20054A936A43F47F43936217
:101D200000230B7010BD1B20F5E700BF00ED00E0A5
:101D300010B51C4B0246986A9C6A10F0100F14BF35
:101D40001120102014F0080F9C6A18BF1220A4075D
:101D500009D5586B986A000604D51AB19A6A22F020
:101D600080029A6213200F4B9A6A12F0010F9A6A4E
:101D700018BF142012F0200F9A6A18BF1520D4063D
:101D800058BF9B6A074B9A6A920642BF5A6A22F46E
:101D900000525A629A6A42F0FF029A6200230B7064
:101DA00010BD00BF00ED00E070B5444B5B688AB029
:101DB0000646C3F30803002585F31188BFF36F8F30
:101DC00002F07F40B0F17F4F11D102F00C000828E3
:101DD0000DD010074CBF0E4601250022033B8DF8A5
:101DE0000720032B05D8DFE803F01E5C60592E4660
:101DF000F3E700249DF807309BB92022314602A862
:101E000003F028FE099B002D53D0C3F3080222B92A
:101E10006FEA53236FEA4323099302A9204603F094
:101E2000BEFD0AB070BD254BDA6A9107E1D4DA6ACB
:101E3000002ADEDBDA6A5200DBD55A69B16942F466
:101E400080725A61BFF34F8FBFF36F8F5A6931F8B9
:101E5000021C22F480725A61BFF34F8FBFF36F8F61
:101E60004DF60272914209D09A6AD2B242B10DF196
:101E700007010120FFF75CFF0446BBE73468B9E7C0
:101E80009A6A12F47F4F05D00DF107010120FFF788
:101E900019FFF1E79B6AB3F5803FAAD3FFF7E8FE8D
:101EA000EAE70DF107010020E4E70DF1070100204A
:101EB000EDE723F4FF7323F00103ADE700ED00E04D
:101EC000044B5A6942F010025A615A6922F0080222
:101ED0005A61704700ED00E0EFF30880EFF30981ED
:101EE00001B57246FFF760FF01BD00BF002080F31F
:101EF0001488BFF36F8F02F085F900200D49086048
:101F0000BFF34F8F0C4880F3088800F02BF8202097
:101F100080F3118809484FF40061401880F3098864
:101F2000EFF314800221084380F31488BFF36F8F0E
:101F300000F0A2F894ED00E0285C0020282C00209E
:101F40000749D1F890200023C2F307221846934294
:101F500000DB7047C1F89830C1F8A0000133F6E704
:101F600000ED00E008B572B6002383F31388FFF795
:101F7000E7FF144B4FF0FF32C3F88020C3F88420F2
:101F8000C3F88820C3F88C20C3F89020C3F89420AD
:101F9000C3F89820C3F89C20C3F88021C3F884219B
:101FA000C3F88821C3F88C21C3F89021C3F8942189
:101FB000C3F89821C3F89C2162B6BFF34F8FBFF3DB
:101FC0006F8F08BD00E100E01EF0040F0CBFEFF3BF
:101FD0000880EFF30980816911F8021C0229FFD003
:101FE00001B503F0E2FC01BD40B2002807DB044A62
:101FF0004109012300F01F00834042F8213070475F
:1020000000E100E040B200280CDB4309064900F083
:102010001F0020330122824041F82320BFF34F8F5D
:10202000BFF36F8F704700BF00E100E0054B42092E
:1020300000F01F0053F82220012303FA00F01040A3
:10204000704700BF00E100E040B20028A8BF00F1E7
:10205000604001F10101B8BF064B4FEA4111ACBF2E
:1020600000F5614000F00F00C9B2B4BF195480F808
:102070000013704714ED00E00B4A08B50B4B22F03B
:102080007F029A60BFF34F8FBFF36F8FD3F8882022
:1020900022F47002C3F8882002F098FF02F0DEFFFD
:1020A00000F024F802F09EFF0000000000ED00E0C8
:1020B00080B50C4607461546064E86F309884FF054
:1020C000000005498847204629461A46B847034874
:1020D0008047FEE7285C0020CB590000D95900005A
:1020E000014B10221A61704700ED00E00448002304
:1020F0002021C2180133272B82F80013F9D1704731
:1021000000E100E008B5EFF30583064A103B02EB5F
:10211000C30152F8330049688847BDE8084003F01E
:102120004FBC00BFB8730000024B034A03480121B3
:1021300000F066B80000012000000020A475000037
:10214000084AC2F898000B6823F01F03034343F0CA
:102150001003C2F89C308B6843F00103C2F8A03032
:10216000704700BF00ED00E02DE9F043DFF860802C
:1021700085B00E461F4604464FF00009B14523DAEC
:102180006068D8B13FB1411E08421BD11F2819D940
:102190002368194216D12368019303F034FCA36825
:1021A00003430393D8F89050C5F30725D0B2013DFF
:1021B000A84207D801A9FFF7C3FF421C09F1010992
:1021C0000C34DBE76FF01502104605B0BDE8F08374
:1021D00000ED00E0044B0522C3F89420BFF34F8FBD
:1021E000BFF36F8F704700BF00ED00E0BFF35F8F5C
:1021F000024B0022C3F89420704700BF00ED00E0BE
:1022000010B5034C01232278FFF7AEFF207010BDFC
:10221000202C00202DE9F043534B544CD3F8903040
:102220002568C3F307239D4285B000F29A80FFF72B
:10223000DDFF00200C2685421AD14D4C4D4F2570F4
:102240006846FFF7A1FCDFF82081DFF82C910646F5
:102250000025AE4213D1237843490020D1F89020C5
:10226000C2F30722934276DBFFF7B4FF002042E07F
:10227000616806FB0011FFF763FF0130DBE70098A0
:1022800000EB05114FEA051CCB683B40B3F5000F8E
:1022900048D00AD8B3F5001F30D0B3F5800F36D040
:1022A000B3F5801F10D00135D3E7B3F1807F42D062
:1022B000B3F1007FF7D150F80C3088684A6803F01A
:1022C000A2FB40F4802009E050F80C3088684A688E
:1022D00003F099FB40F0885040F43020CDE9012311
:1022E0000390D8F890302078C3F30723013B98423D
:1022F0002AD96FF0150005B0BDE8F08350F80C3016
:1023000088684A6803F07FFB40EA0900E6E750F876
:102310000C3088684A6803F076FB40F0007040F4A7
:102320000030DBE750F80C3088684A6803F06BFB3C
:1023300040F08270D2E750F80C3088684A6803F0A9
:1023400062FB40F08870C9E701A9FFF7F9FE237826
:1023500001332370A7E7C1F89830C1F8A00001331A
:102360007CE74FF0FF30C6E700ED00E0B0750000FD
:10237000202C00200000F0FF00000811014B186025
:10238000704700BFD0040020044A0123C2F8403542
:102390004FF080420020C2F87835704700E00140DD
:1023A00020B1034B800143F001031847704700BF81
:1023B00000750000084B70B5C31A0D4607499B1005
:1023C000044659430648402203F064FB2B4601466D
:1023D0002046BDE87040184784120020B76DDBB678
:1023E0006873000073B50C4C0C4A4023041B009327
:1023F0000D460B460A49A41061430646094803F0FE
:1024000074FB011E05DA30462B4602B0BDE8704071
:10241000184702B070BD00BF84120020595B000055
:10242000B76DDBB668730000002270B50121044669
:102430001046FFF709FE0F4802F0C6F80E4B98420F
:1024400015D102F0D1F826690C49304603F09EF907
:1024500000280BDB012535642469084904F11C00C0
:1024600003F094F9002801DBE564002070BD6FF0F3
:102470000400FBE79D2500000000AD0BD0750000B7
:1024800010B5074C23782BB94FF4A57004F0F2FE79
:1024900001232370BDE81040002002F0B7B800BF50
:1024A000212C002010B5EFF31184202383F3128830
:1024B000BFF36F8F074A136823F00201DB07116037
:1024C00002D4012004F0F8FD84F31188BFF36F8F6C
:1024D00010BD00BFD412002030B4104B0C2202FB00
:1024E000003301460020D3E90E529863EFF31180C8
:1024F000202484F31288BFF36F8F1C6C04F0C00497
:1025000044F002041C6480F31188BFF36F8F1DB187
:102510002B46034830BC184730BC7047841200205B
:102520006873000010B4EFF31182202383F3128844
:10253000BFF36F8F1748016841F002040460C807B9
:1025400007D482F31188BFF36F8F012010BC02F013
:102550005DB84FF08041D1F80C04D1F80C14C907D4
:10256000EFD5EFF3118083F31288BFF36F8F0A4921
:102570000B6C03F0C00343F002030B6480F311887B
:10258000BFF36F8F82F31188BFF36F8F002010BCF1
:10259000FFF7A2BFD41200208412002010B101283E
:1025A00004D07047034B1B6C5B0701D1FFF794BF4E
:1025B000704700BF841200202DE9F8433649BFF36D
:1025C0005B8F0746012251E8003F41E800200028C8
:1025D000F9D1BFF35B8F33B9304931484B60CB60E1
:1025E0008A6003F0E6F87B1E012B2DD8012F07D15E
:1025F0004FF08043D3F81C3403F00303012B23D0A6
:1026000004F07FFE054608BB264B1B78F3B14FF064
:1026100080430222C3F808230646DFF88C904FF06F
:1026200080444FF00108D4F81824D4F81834D203A9
:1026300015D503F00303012B01D0012F0FD125B3D2
:1026400086F31188BFF36F8FBDE8F883EFF311862F
:10265000202383F31288BFF36F8F0125DDE7304617
:1026600003F0C2F9D4F81835002BDCD1D4F80421DA
:10267000002AD8D0C4F80431D4F80431C4F818853D
:10268000C9F88081C4F80880CDE74FF0804302226A
:10269000C3F80423D8E700BF801200207012002086
:1026A000A0120020232C002000E100E010B5044C13
:1026B0002046FEF725FF2046FFF760FE002010BDF4
:1026C000C526000073B50C4E8DF80700044603259F
:1026D00001220DF10701002002F02EFC20B10123A0
:1026E0003370204602B070BD3378002BF9D0013D25
:1026F000EED13570F5E700BF222C002008B5074861
:1027000004F0BDFD38B10648FFF738FE0448FEF777
:10271000F7FE002008BD6FF01200FBE79073000089
:10272000252700000A2838B5074D044604D1AB68B8
:102730000D215B6828469847AB6803485B68E1B2A7
:102740009847204638BD00BF90730000024B0B60D5
:1027500001231360704700BFD81200200048704763
:102760002476000010B504F027FD034C206004F02F
:102770001FFD6060002010BDD8120020F8B50E4685
:102780003046194617461D4603F0F2F9B8B146EA3D
:10279000050414F0030412D14DB12B19032BA6EB41
:1027A000040006D8074AD2F80034DB07FBD5002026
:1027B000F8BD3B1B043C196802F050FBEDE76FF0DD
:1027C0001500F5E700E0014038B545682B69B3B165
:1027D0001035284602F006FA044680B9014628461C
:1027E00002F0CCF9084B98420BD108492246284602
:1027F00002F0ACF9224605210620FFF725FC002057
:1028000038BD6FF00400FBE70000AD0B112800009D
:10281000430970B507D10B4B596821B101250C68EC
:10282000094E854001B970BD8A682A4002D04B68C4
:10283000304698471CB1236821461C46F2E72346E0
:10284000FAE700BFE01200207C7300002DE9F0439E
:10285000476840F20636D0063B7B87B002EA0606A0
:1028600054BFC2F34010032001F01F05B6F5837F6B
:10287000144645EA43158DF8030043D00FD8062EC1
:1028800018D007D8B6B1022E3ED06FF0150007B0B1
:10289000BDE8F083B6F5807FF7D101260AE040F26B
:1028A0000222964232D0B6F5407F31D0B6F5007F95
:1028B000EBD102260123220303FA01F12AD57B681A
:1028C000C3F808153B695BBB05F01F026D0974D1A5
:1028D000920002F1A04284F48031D2F80037C1F3B3
:1028E0000041C4F3404423F4E16344EA410423F08B
:1028F00007031C4344EA800444EA0624C2F8004764
:102900000020C4E70726D5E70426D3E70526D1E74C
:102910000326CFE7630344BF7B68C3F80C15D1E7F8
:1029200010370DF102022946384602F015F914F469
:10293000403F80460CD12946384604F02FFC214BFD
:102940009845DDD19DF80210384602F055F9D7E7D9
:1029500001AB4FF0000903AA29463846CDE90439F6
:10296000CDE90199CDF80C9001F0CAFF154B9842C2
:102970008BD114F4003315D09DF803308DF80E3050
:1029800084F48034C4F300444B4603AA29463846F5
:102990008DF80C608DF80D4002F062F8094B9842FA
:1029A000CDD072E7CDE9043303AA0DF10303294624
:1029B0003846039301F0A4FFF0E702F5E07253F804
:1029C0002230FFDE0000AD0BF0B54068057B01F062
:1029D0001F0444EA4514056987B0002D60D0B2F5A4
:1029E000001F00F1100506D12146284604F0D8FB4F
:1029F000002007B0F0BD01AE0027B2F5800F0197AF
:102A0000776038D1B3F1007F14BF052304238DF81C
:102A100004300023CDE904630393836823FA01F1B2
:102A200011F0010119D1B2F1A07F16D104F01F03FA
:102A3000620903F5E07339D14FF0A04252F8233018
:102A4000DB070AD40DF1030632462146284602F080
:102A500083F8184B984219D0029603AA21462846BB
:102A600001F04EFF144B98421DD101222146284609
:102A700002F0CEF8BCE7B3F1C06F05D0B3F1007F30
:102A800014BF01230223C2E70323C0E731462846CF
:102A900002F0B8F8084B9842DED06FF00B00A8E7C0
:102AA0006FF08500A5E76FF01500A2E751F823301D
:102AB000FFDE00BF0400AD0B0000AD0B2DE9F043BD
:102AC0005B4E5C4F00EB810140F2FF15814202D169
:102AD0000020BDE8F083046814F4804FC4F3C32CD5
:102AE000C4F3080340F09080240E16F80CC0AB42EB
:102AF00008BF4FF0FF33192C00F28980DFE804F0A3
:102B00000D13191C1F251C878787873663878787C6
:102B1000878787878787667B7E81C2F80C355C1C38
:102B20005ED10430D2E7C2F814355C1CF9D0002421
:102B30005FE0C2F80835F2E7C2F81035F5E75C1C33
:102B4000C2F80835EDD0002404E05C1CC2F80C3556
:102B5000E7D001245FEA531E5CD14FF001084FF02B
:102B6000A04E08FA03F9CEF80C950AE0C2F8083531
:102B7000BCF1000FD9D15C1CD3D00024A0464FF08B
:102B8000060CD0F8009009F4004EBEF1000F1CBFF7
:102B90004FF00008012403F01F0E5B0942D14FEAF9
:102BA0008E0E0EF1A04EC9F34129DEF800373B40EE
:102BB00043EA890343EA0C2343EA080343EA440354
:102BC000CEF80037ADE7C2F80C35D1E7C2F8603572
:102BD000B3F1FF3F0468A4D0C4F30044002CB8D084
:102BE0005C091BD101244FF0A04E04FA03F8CEF883
:102BF0000885A046C5E7C2F86435E9E7C2F868353C
:102C0000E6E7C2F86C35E3E76FF0150061E76FF0B7
:102C100085005EE70023C3F80C35FFDE0023C3F810
:102C20000835FAE70EF5E07E002353F82E30F4E77E
:102C3000727E0000F0F8FCFF074BD3F8082142B188
:102C40000020C3F80801D3F80821D3F818350B7019
:102C500070474FF0FF30704700200040024BD3F820
:102C60008004C3F88004704700200040F8B50E4689
:102C700004F047FB1A4D78BB64240127BFF35B8F38
:102C800055E8003F002B03D145E80072002AF7D138
:102C9000BFF35B8F07D04FF47A70013C04F0EAFA7F
:102CA00014F0FF04EAD10F4C0023C4F81C31D4F80F
:102CB0001C310123A360C4F81C654FF47A76D4F864
:102CC0001C3123B9012004F0F5F9013EF7D10123AD
:102CD000E36000232B60F8BD01232B60E3E700BF16
:102CE000EC1200200020004073B5594A4368046983
:102CF0000021C2F800151E68054601AA304603F0FF
:102D000038F80028C0F28180019B32681979186870
:102D1000FFF7D4FE002878DB6379012B1CD1A3795F
:102D2000032B19D1E379BBB9217911B1022913D150
:102D30000E212368B3F5164F69D02BD8B3F5165F73
:102D400067D014D8B3F5966F65D008D8B3F5967FE1
:102D500064D0B3F5167F64D06FF0850055E0B3F50D
:102D6000166F61D0B3F5965FF6D13A4B39E0B3F503
:102D7000E14F5CD007D8B3F5615F5AD0B3F5964FF9
:102D8000EAD1354B2DE047F612229342E4D14FF4BD
:102D9000000326E0B3F5613F4ED011D8B3F5963F5E
:102DA0004CD008D84DF6C022934249D0B3F5614FBC
:102DB000D2D12A4B15E0B3F5E13FCDD1284B10E03D
:102DC000B3F5612F3FD007D8264A93423DD0B3F5E3
:102DD000E12FC1D1244B04E0244A9342BCD14FF0EF
:102DE00080531B4A2D69C2F82435C2F86C1594E84B
:102DF000030085E8030004230020C2F80035C2F870
:102E00000801D2F808310123136002B070BD184BDD
:102E1000E7E7184BE5E74FF49E23E2E74FF4A033D2
:102E2000DFE74FF41C33DCE74FF41D23D9E7124BE7
:102E3000D7E74FF46C13D4E7104BD2E7104BD0E731
:102E40004FF46503CDE70F4BCBE74FF08063C8E746
:102E50000020004000B0130000A04E0000F0EB0086
:102E600000E0D70190D0030000705F0740420F00E0
:102E700000509D000050270000F0750000B0AF0327
:102E800000903A0100D0BE0E70B5012383400E4A77
:102E9000BFF35B8FDC4352E8001F01EA040542E800
:102EA0000056002EF7D1BFF35B8F4FF48032824083
:102EB0000648C0F80823BFF35F8FBFF36F8F0B4244
:102EC00014BF0120002070BDF4120020001001404A
:102ED00070B40E49D1E90034D01AC31844F100048B
:102EE00022F07F46C1E90034A6F50013B3F5400F88
:102EF00009D2074B1B681A0A1B069C19054B42F1A5
:102F00000005C3E9004570BC02F008B97005002057
:102F1000F81200207805002011B3BFF35B8F012366
:102F2000104A834052E800CF4CEA030C42E800C14B
:102F30000029F7D1BFF35B8F0B4A4FF480338340F6
:102F4000C2F80433094BBFF35B8F1B68BFF35B8F81
:102F5000C340DB0742BF064B4FF40032C3F80021E9
:102F6000704700BFF412002000100140F012002052
:102F700000E100E00D4B1868010A0006BFF35F8F07
:102F80000B4BD3F80435181841F10001B3F5801F3D
:102F90000AD2084BD3E90023904271EB030303D21A
:102FA00010F1807041F10001704700BFF81200205D
:102FB00000100140780500202DE9F04F85B016463D
:102FC0001F469DF840A00446FFF75EFF0190FFF703
:102FD000D1FFB04271EB070354D23E4B301A67EB7E
:102FE0000101984271F100014FD23B4B03EB0413F6
:102FF000D3E902239F4208BF96425ED037494FF47F
:10300000803804F1500508FA04F8AD00C1F848838F
:103010002046ADB202F0C0FE26F07F4B05F18045A0
:1030200004F5A87305F58835DC464FF003090293D3
:10303000029A2CF07F4341F82230C1F84483D1F842
:103040000435274A6FF00200C01A604420F07F4028
:10305000904232D9286868B1D1F804350393A3EBC4
:103060000B0020F07F40B0F5000F26D9204602F07B
:1030700093FE039BBAF1000F07D109EB030C09F192
:103080000109D5E7BAF1000F09D06FF01505204608
:103090000199FFF741FF284605B0BDE8F08F0123F5
:1030A000104ABFF35B8FA34052E8000F184342E879
:1030B00000010029F8D1BFF35B8F07490E98230167
:1030C00001EB0412C8500F9B5360C2E90267002550
:1030D000DDE700BF01008000600500200010014016
:1030E000FDFF7F00F01200207FB51C4C1C4BC4F884
:1030F0000833C4F848331B4B00254FF0FF304FF026
:10310000FF31C4F80855C3E902014FF48033C4F815
:103110000433154B02264FF400320121C4F8046336
:103120001120C3F880212A46FEF78EFF1120FEF7FA
:103130005BFF0E4A0123A360236013600C4B0D4A12
:103140000093CDE9015500232846FFF735FF3046AF
:10315000FFF732FA284604B070BD00BF00100140EE
:1031600003000F006005002000E100E0F4120020E1
:10317000D12E0000FFFF7F002DE9F7432F4CD4F83C
:10318000043399070BD5D4F8043143B12C4A0023FA
:10319000C4F80431D4F80431136801331360D4F84F
:1031A0000433DA0329D5BFF35B8F264B53E8002F96
:1031B00022F0010143E800100028F7D1BFF35B8F34
:1031C000D30702D4D4F84031BBB10025C4F8405134
:1031D000D4F84031FFF7CEFEEFF31182202383F3C2
:1031E0001288BFF36F8F184BD3E90267B042B94121
:1031F00006D282F31188BFF36F8F03B0BDE8F0836E
:103200004FF0FF384FF0FF39C3E90289D3E90010CE
:103210001D604FF48033C4F84833C4F84051D4F8EB
:10322000403182F31188BFF36F8F0029E5D0009001
:1032300032463B4628468847DFE700BF0010014082
:10324000F8120020F01200206005002030B5431C69
:10325000124C85B005D08442A8BF0446012CB8BFEB
:103260000124FFF787FE0E4B0C4DD3E90013401AE3
:10327000B0F5000F10D22218AA4228BF2A465218D1
:103280004FF0000007490091CDE9010043F1000330
:10329000FFF792FE05B030BD2A46F0E7FFFF7F0042
:1032A00070050020D12E000008B5FFF763FE024B29
:1032B0001B68C01A08BD00BF7005002010B5084C7F
:1032C000012363601120FEF79DFE064BC4F808330E
:1032D000C4F84833044B4FF40032C3F8802110BDCA
:1032E0000010014003000F0000E100E030B58168EC
:1032F00085B0103921F00704054602F027FB1022A3
:103300000146684602F0B1FB07491022684602F008
:10331000A1FB10236A462146284602F0E3FA003852
:1033200018BF012005B030BDD277000030B50D4682
:10333000816887B0102302AA1039044602F0BDFA52
:10334000002802DA012007B030BD102202A9204671
:1033500002F085FD00283AD11E49102202A802F091
:1033600069FB00280CBF012302232B70204602F0CA
:1033700062FD012301460DF10702204602F09DFA8D
:103380000028DFDB9DF8073003F00F021B096A708D
:103390002B7101220DF10701204602F060FD10B9EA
:1033A0006B78042B03D901236B7000232B71A26867
:1033B000183A22F00702083AA91C204602F062FDE2
:1033C0000028BFD1E91C204602F0B5FDBBE703236E
:1033D000CBE700BFD2770000F0B5354F460085B08F
:1033E0000546694657F8260002F0ABFD044610B1C9
:1033F000FF2005B0F0BD013602A957F8260002F003
:10340000A0FD012837D12B482A46492102F047FA6E
:10341000294B02938DF80C409DF800609DF80870D0
:10342000264C00222078314602F00BFD50B3607824
:10343000394602F006FD28B3A378042B03D09DF88B
:10344000031099421ED1E378042B03D09DF80B1092
:10345000994217D12379042B10D16279022A1DD108
:10346000174B18482A46492102F019FA6079831E41
:10347000022BBED9BCE70028CED0B9E79DF80210D8
:103480009942EAD00132032A04F10604CAD10E4857
:103490002A46492102F003FA0120AAE7032A05D0AF
:1034A0000A4B0B49042A08BF0B46DAE7094BD8E759
:1034B00094760000AB7E000003010303407F000010
:1034C0008D7E0000F67E00001A7F0000927E0000D4
:1034D000A47E0000887E0000044B1B68584043080F
:1034E0005B4240421843C017704700BFFC120020E7
:1034F0008842F0B504D0094F04380025AA4200D113
:10350000F0BD3E6850F8044F5E4024EA060451F8CE
:1035100025601E40344304600135EFE7FC120020B3
:103520002DE9F04F8DB01D46189B179F1A9E0592EE
:10353000B3F12A3F83468A4640F08D80394616987B
:1035400002F087FD012838BF0120470900F01F0461
:103550007B01502B4FF0010934BF4B4603230A93E4
:1035600009FA03F30B930A9B059805FA03F306EB9C
:103570008303069303EB8503079302F042FF4FEAB0
:103580008508089042460021304602F06EFA079BFB
:10359000C6F800900393089B199ACDE90153059B47
:1035A000009331462B46304606EB080902F03AFFFD
:1035B00051464246484602F04DFA022349460993D5
:1035C0000B9B099A934248D142463146584602F035
:1035D00041FA4FF00009CA46079B0393089BCDE9C7
:1035E0000153059B00935A462B465946584602F014
:1035F00019FF002C47D1013F1F24169B53F8273099
:10360000E34003F0010343EA49090A9B0AF1010A76
:10361000534503D0002CDFD1002FDDD1189BB3F12F
:103620002A3F32D10698424609FB086102F012FA9D
:10363000079B0393089B069ACDE90153059B0093D2
:1036400059462B46584602F0EDFE002CC1D1BFB9B9
:103650000DB0BDE8F08F00247AE7079B0393089B29
:1036600001EB080ACDE90153059B00934A462B461E
:10367000504602F0D7FE099B0133099351469FE75C
:10368000A146A246A8E7013CB7E731464FF0000A41
:103690000A4B18681B68584080EA090080EA0A0053
:1036A000FFF71AFF2A46C3430698FFF721FF099B3D
:1036B0000AF1010A53454144EAD1B9E7FC1200205E
:1036C000054B1B68013143400132084022EA0302E6
:1036D0000243501E00B27047FC1200202DE9F04F4B
:1036E00099B083460F46184600211646039303F00F
:1036F0000AF9002800F08981784B149300240125F1
:1037000015AB039913933046CDE90B45CDE90D4533
:10371000CDE90F45CDE9114503F07EF8A04228DA46
:10372000BBF1000F05D1E7B90024204619B0BDE870
:10373000F08F2146584602F0F7FF04460028F2D0E9
:103740000BA802F03EFF0DA802F03BFF0FA802F00D
:1037500038FF11A802F035FF0C2115A800F038FB46
:10376000E3E73146384602F0AAFF04460028E7D1D5
:10377000DAE731460BA802F0A2FF04460028DFD1A9
:1037800003990DA802F09BFF04460028D8D1F188C8
:10379000ADF8385002310FA8ADF8305002F01FFFDD
:1037A00004460028CCD101460FA802F0BDFF044614
:1037B0000028C5D1F18811A8023102F010FF04469B
:1037C0000028BDD10DA802F0DBFF00F01F001F286C
:1037D00073D0C0F11F0319460BA8019302F0F6FF46
:1037E00004460028ACD101990DA802F0EFFF044671
:1037F0000028A5D1BDF83250BDF83A80A5EB080AE3
:103800004FEA4A1949460DA802F0E0FF0446002895
:1038100096D14FEA8A0A0DA90BA803F02CF80028CC
:103820004DDA49460DA802F0EEFF0446002887D184
:1038300008F1FF3305939B0005F1FF3A069305F16C
:10384000804508F18043023B013D9B00A5EB080544
:103850000893AB000293059B9A4541D8BBF1000F3A
:103860000DD00FA9584602F02AFF002840F0C98069
:10387000039AB388928813FB02F3ABF80430002F4D
:103880003FF45EAF01990BA802F0BDFF002840F0A5
:10389000B880B388ADF830300BA9384602F00FFF7E
:1038A0000146002840F0AF80384603F02CF800288D
:1038B0007FF446AF0123BB8042E701949AE70F9A59
:1038C00052F80A300BA9013342F80A3008460DAA13
:1038D00003F0FFF8044600289DD031E70100030003
:1038E0000D9B069A04931344DDF82C900793049BD8
:1038F00059F82A109A580F9D4FEA8A08A8F1040334
:103900000993029B91421D4476D2A8F10400002342
:1039100059F80000FCF7E2FB002914BF4FF0FF3319
:103920000346BAF1010F2B6016BF09EB0803002311
:1039300053F8083C1593A8F1040359F80330169383
:1039400059F8083017932B68DDF8108001332B608D
:10395000089B98442B68013B2B60002111A802F0C2
:10396000E3FE00284DD1059B002B48D0D8F800205D
:10397000119B1A60079A12685A6011A92A680846B2
:1039800003F0ABF800283CD113A911A802F073FF93
:103990000028DFDC2A680DA911A803F09EF880BB7F
:1039A000029B4FEAC308414611A802F00FFF40BB3B
:1039B0000BA9084611AA03F08CF8014618BB0BA806
:1039C00002F0A1FF002812DA0DA911A802F077FE7B
:1039D000B8B9414611A802F0F9FE90B90BA911AA95
:1039E000084603F073F860B92B68013B2B60029B1B
:1039F0000AF1FF3A043B2DE74FF0FF3391E7059AB8
:103A0000B6E704469CE60C469AE66FF00B048CE69B
:103A10002DE9F74F90461F4A1568454006460F4668
:103A2000ED43002B14BF9A468A4600240C9B04F1F8
:103A300004094B4505D20C9B9C4220D303B0BDE842
:103A4000F08F042208EB04010DEB020002F002F8F3
:103A5000019A06EA020B04220AEB04010DEB0200B4
:103A600001F0F8FF019A2A4042EA0B020192042277
:103A700038190DEB020101F0EDFF4C46D6E718F8BE
:103A800004301AF8042033402A4013433B550134D4
:103A9000D1E700BFFC120020082804D00928034801
:103AA00018BF002070470248704700BF527F0000D7
:103AB000557F000001680E4A9142034615D1C16945
:103AC000A2F11022A2F1EF1291420ED18268012AD6
:103AD0000BD8C26812B101698A4206D0586928B170
:103AE0009B691B1A5842584170470120704700BF1C
:103AF00055AA00FF70B50D4B9E68A6B13046FFF782
:103B0000D9FF044678B9F3686BB935690DB9204619
:103B100070BD2846FFF7CEFF28B9EB68B34202D14B
:103B20002E462D69F2E70124F1E700BF00130020C3
:103B30002DE9F8433F4F3C68D4B1BC68C4B10028BC
:103B40004AD0002948D001FB00F5B5FBF0F08842CF
:103B500042D1281D40D8A9070DD025F00306043610
:103B6000FC6803E06368B34238D2A469002CF9D141
:103B70002046BDE8F8832E46F2E7FB6041E006F1FF
:103B800020016318203A5A600022C3E902242A481F
:103B900022691A6160502949D96102B1D360626912
:103BA0005A61A1699961AAB193619A6902B153619D
:103BB0004FF00109C4E9016923610023C4E9053319
:103BC0003B69DB072ED5FFF795FF58B31C4B4846E2
:103BD0001B6826E0FB60E8E70024C9E7A3681BB187
:103BE000174B01201B6898476268921B232A04F137
:103BF0002008C4D80123A360D4E90523002ABCD03F
:103C00009361A3690BB162695A610023C4E905336A
:103C10003B69DA0706D5FFF76DFF18B1084B1B6843
:103C2000012098472A4600214046444601F01DFFE6
:103C30009EE700BF0013002055AA00FF669911EE11
:103C4000E004002070B50546002800F08880444E4E
:103C50003368002B00F08380B268002A7FD0834253
:103C600003D872681344984203D33E4B01201B686B
:103C70009847A5F120042046FFF71CFF18B1394BE7
:103C800001201B68984755F8183C012B03D0354B91
:103C900001201B689847002345F8183C55F8143C50
:103CA0003BB39A682ABB55F81C2C02F120015A68D4
:103CB0000A445A6055E905321A6155F8145C2B69BB
:103CC00003B1DD6020220021204601F0CEFE2869EC
:103CD00010B18368002B2ED033699B073FD5FFF7C7
:103CE00009FF00283BD01F4BBDE870401B68012036
:103CF000184755F8100C00282AD0836843BB426847
:103D0000636813442033636003692361D4E90523A6
:103D10009AB9CBB9436963618269A261B3B19C610D
:103D2000A36903B15C61236903B1DC602022002137
:103D300001F09BFED0E72C46E1E79361A369002BDD
:103D4000E8D062695A61E5E7F360F7E7F460E7E716
:103D5000F36845F8083C03B15C61F460BCE770BDF2
:103D600000130020E004002038B514220C4605465C
:103D70000021134801F079FE1249134800F040F881
:103D8000232C1CD915F003031FBF043CE418C3F116
:103D90000403ED1822460021284601F066FE084B78
:103DA0000A499D60C3E90054203C6C609A68116028
:103DB0009A68DA60A1F11021A1F1EF11D16138BD4B
:103DC00000130020453C0000313B000055AA00FFD5
:103DD00010B50A46044619B1024B00211B689847EA
:103DE00010BD00BFDC040020014B1B68184700BF5A
:103DF000E8040020014B1B68184700BFE4040020C2
:103E0000024B1860024B002019607047E804002044
:103E1000E4040020F8B500F108064768044630467F
:103E20000D4602F0B1FC87424BD16368B3F5807F49
:103E300047D80021304602F066FD002841DD002110
:103E4000304602F08DFCE0B345B9294604F110007C
:103E500002F059FD002834DD0020F8BD04F12005F2
:103E60000021284602F04FFD00282ADD00212846C7
:103E700002F076FC28B304F128050021284602F060
:103E800042FD00281DDD0021284602F069FCC0B17A
:103E9000002104F1100002F036FD002811DD0021A0
:103EA00004F1300002F02FFD00280ADD002104F1AA
:103EB000380002F028FD002803DD002104F1400055
:103EC000C6E70148C9E700BF80BFFFFF012938B539
:103ED0000546144601D0074838BD22B90123C5E97B
:103EE0001C340020F8E71046FFF7D6FD0028F5D176
:103EF000F1E700BF00BFFFFF70B500210446FFF7E8
:103F000089FF054610B10E4D284670BD04F1080624
:103F1000304602F035FC7F28F5D91034294620467A
:103F200002F01EFC0028EED0204602F029FC0128F9
:103F3000E9D93146204602F09EFC0028E4DBE2E7A6
:103F400000BEFFFFF0B50C4685B0002105461646C1
:103F5000FFF760FF002839D102A802F02DFB2146AF
:103F60006A6802A802F016FC044618B102A802F022
:103F700028FB0CE005F10804214602A802F07BFCB6
:103F8000002807DB02A802F01CFB6FF00304A4F575
:103F9000854418E005F1480302A96F68009305F114
:103FA00010022346084602F0E8FE04460028DDD150
:103FB0003A46314602A802F003FC044602A802F089
:103FC00000FB002CE3D1204605B0F0BD004CFAE721
:103FD00080BFFFFF01292DE9F041034641D8224A65
:103FE000224F2348234E244D244C9966002918BFA4
:103FF0009046234A18BF964602F1794202F57402B0
:1040000002F5016218BF94461E4A18BF17461E4AA1
:1040100018BF164602F1D14208BF804602F5C01211
:104020001A4802F51E620CBF864615461848194A02
:104030000CBF844614461848A2F11162A2F50C2266
:10404000A2F28E2218BF02460020C3E91000C3E985
:10405000128EC3E914C7C3E91665C3E91842BDE867
:10406000F0816FF07300FAE7D89E05C13AF54FA5CD
:1040700067E6096A7F520E518C68059BABD9831F96
:1040800007D57C3639590EF7310BC0FF85AE67BBBB
:1040900072F36E3CA78FF964A44FFABE2DE9F04F7E
:1040A000CFB000F1640300F144070DF58A79009365
:1040B00001914A463B4653F8041F42F8041F0099F9
:1040C0009942F8D104ADDFF800A14FF000082C466A
:1040D000B8F10F0F61D8019B042203EB880103A8FC
:1040E00001F0B8FC039802F0E8FEA860D4E9476349
:1040F000D4F818C15AF8041B73404FEAFC22D4F8D4
:10410000206182EABC1203EA0C0382EA7C627340FB
:104110001344D4F82421D4F8106113440B44D4E997
:10412000421E034441EA0E024FEA713080EAB100B8
:10413000324001EA0E0B80EAB15042EA0B0202441F
:10414000D4F81401626018441344D4F82021C4F850
:10415000242108F10108D4F81C212360B8F1400F94
:10416000C4E947C2C4E944E6C4E94231C4F81801CD
:1041700005F10405ACD157F8043F59F8042F134456
:104180003B60009BBB42F6D104A84FF49471FFF74B
:104190001FFE00204FB0BDE8F08F2B6855F8382C7B
:1041A00055F8341C4FEAF34080EA734080EA9320CC
:1041B00055F8143C134418444FEAB14383EAF11311
:1041C00083EAD103184490E79C7600004FF07043D7
:1041D00093F8E02F062A09D1D3F8E83FC3F303137D
:1041E000033B042B02D8024AD05C70470020704782
:1041F000677F0000024AD2F80034002BFBD07047E2
:1042000000E0014010B502F046FF40B14FF080538E
:104210008E4AD3F82433C3F30423C2F84035FFF7A2
:10422000D5FF10B18A4B8B4A5A6702F034FF48B170
:104230004FF080534FF08042D3F84432C3F34233FF
:10424000C2F83C35FFF7C2FF30B1834AD2F8FC30E8
:1042500023F08073C2F8FC3002F01DFF40B14FF034
:1042600080430022C3F80C21C3F81021C3F838257D
:10427000FFF7ACFF20B14FF080430322C3F8A02525
:10428000FFF7A4FF60B1754B0522C3F81026012289
:10429000C3F888260022C3F818263F22C3F8142644
:1042A0004FF08053D3F83021511C09BF4FF07043B9
:1042B000D3F8343193F8E02FD3F8E83F08BFC3F3C5
:1042C0000313062A4DD1033B042B03D8644AD35C65
:1042D000002B46D04FF08052624BD2F80414C3F842
:1042E0002015D2F80814C3F82415D2F80C14C3F81A
:1042F0002815D2F81014C3F82C15D2F81414C3F8EA
:104300003015D2F81814C3F83415D2F81C14C3F8B9
:104310004015D2F82014C3F84415D2F82414C3F879
:104320004815D2F82814C3F84C15D2F82C14C3F849
:104330005015D2F83014C3F85415D2F83414C3F819
:104340006015D2F83814C3F86415D2F83C14C3F8D9
:104350006815D2F84014C3F86C15D2F84424C3F899
:10436000702502F098FE48B14FF080534FF0804224
:10437000D3F8583203F04F03C2F8E43E02F08BFE4C
:1043800048B14FF08043D3F80024D20744BF6FF008
:104390000102C3F800244FF08053D3F83021062ADD
:1043A00026D1D3F83431033B042B02D82E4AD35CF8
:1043B00063B12E4AD2F83C3743F48063C2F83C37ED
:1043C0004FF08053D3F83031062B11D14FF080538A
:1043D000D3F83431033B042B02D8254AD35C3BB1DC
:1043E0004FF01023D3F808224FF08043C3F858252C
:1043F0004FF01023D3F80022002A03DBD3F8043255
:10440000002B22DA1B4901234FF01020C1F804359C
:104410001524FFF7EFFEC0F80042FFF7EBFEC0F8EF
:104420000442FFF7E7FE0023C1F80435FFF7E2FE80
:10443000BFF34F8F0849104BCA6802F4E062134380
:10444000CB60BFF34F8F00BFFDE710BD00300140D0
:1044500000C007400DF0ADBA00ED00E00050004094
:10446000627F000000C000405D7F0000001000403F
:10447000587F000000E001400400FA0530B50468F0
:10448000CCB1BFF35B8FB4FA84F3C3F11F03DBB28B
:1044900001229A4024EA020250E8005FA54204D1BA
:1044A00040E8002CBCF1000FF6D1BFF35B8FE6D1E2
:1044B00002480B7030BD0248FCE700BF0000AD0BA6
:1044C0000200AD0B10B50368CB40DB0714D4012309
:1044D0008B400268BFF35B8F43EA020150E8004F54
:1044E000944204D140E8001CBCF1000FF6D1BFF3A8
:1044F0005B8FEED1014810BD0148FCE70000AD0B19
:104500000400AD0BF7B5044618B1012823D003B061
:10451000F0BD4FF080430222C3F808230122DA6085
:10452000C3F80401D3F80431064601238DF807309F
:1045300042F210754FF08047D4B1012CE7D1D7F883
:104540000C3403F48033AEBB83B3012002F0B2FD20
:10455000013DF4D12AE04FF080430022C3F8080364
:104560005860C3F80021D3F800310DF10706DCE7ED
:10457000D7F8183403F480333EB9002BC7D001209C
:1045800002F098FD013DF3D1C1E7D7F8182402F0FD
:1045900003023260002BBAD09DF80700012803D136
:1045A00002F088FD013DC7D1012CB0D1054B00229E
:1045B0005A71ACE7D7F80C2402F001023270002BDC
:1045C000EAD1F3E714130020044B1A7922B901222F
:1045D00018609A8002487047024870471413002000
:1045E0000000AD0B0C00AD0B08B5074B1B682BB1E1
:1045F0000020FDF71BFD08B9FDF7F6FC4FF08043E6
:104600000022C3F8182508BD1413002038B5B0B136
:10461000012855D14FF080420023C2F80031D2F872
:104620000021304A03F18043012119602E4B1B68A1
:10463000002B50D04FF08043C3F8040340E04FF00C
:104640008043D3F81814D3F81824C8032AD502F0ED
:104650000303012B04D013B10020FFF753FF002305
:104660004FF08042C2F818350023C2F80431D2F866
:1046700004311E4AD2F8FC0040F08073C2F8FC30CE
:104680001B4B1C6844F0010119605D685968491BA7
:10469000B1F50A5FFAD31C60C2F8FC000823154A82
:1046A0000220BFE7D3F81424D107D8D5D3F81C24AF
:1046B0009207D1D40C4A12681AB10222C3F804231B
:1046C00038BDD3F80421002AFBD00022C3F804210E
:1046D000D3F80431F4E71368002BFCD000231360F7
:1046E0001368EDE7000100401413002000ED00E026
:1046F000001000E00401004010B54FF08043D3F8F3
:1047000000216AB10022C3F80021D3F80021012260
:10471000C3F80823114B587910B95A711B68984790
:104720004FF08043D3F8042172B10022C3F8042172
:10473000D3F80421D3F81824D3F81824920704D10D
:104740000122C3F818259A6010BD0222C3F808237D
:10475000024BBDE810401B680120184714130020CD
:1047600070B500F108030C4C34F81330DA05054637
:104770000E4607D5C3F3432304EBC30254F833308A
:1047800052689847A3682BB1E26831462846BDE8D5
:104790007040184770BD00BFEC04002010B4C0B2D8
:1047A000114A083032F81030D9051BD5C3F3432124
:1047B00023F4F85322F8103002F10E04002034F8EC
:1047C000023F13F4807F03D0C3F34323994209D0FF
:1047D00001302028F3D1002342F83130034810BCC7
:1047E000FFF770BE10BC7047EC04002044050020A9
:1047F000F0B5054600200446012607468C420BD141
:10480000114BD3F87C2132B10022C3F87C21D3F8BC
:104810007C3140F00040F0BDE3B29B0003F58072B4
:104820009B0806FA03F31D420BD002F1804202F509
:10483000C042D2F800C0BCF1000F02D0176012686D
:1048400018430134DAE700BF00600040CBB20246F3
:10485000083308460C4931F81330990611D59907E9
:104860000FD410685B0B01219940C0F8081312683F
:1048700002EB8303D3F8102522F00302C3F81025BE
:104880007047002102F06DBCEC040020F7B5CDB2FA
:10489000174E0835074636F81530DB070C4624D589
:1048A000FFF7D4FF36F815309A0606D55B0B3A6849
:1048B00003F5A273002142F823102046FFF76EFF94
:1048C000002301A826F81530019402F0F7FB019BA4
:1048D00000EB8300074BD0F80027134043F002039E
:1048E000C0F80037044803B0F0BD0448FBE700BF40
:1048F000EC040020F0F8FCFF0000AD0B0400AD0B51
:104900002DE9FF41136807460C461546FBB1CEB2B0
:10491000DFF83C81083638F8162002F02202222AFD
:1049200022D00022CDE900228DF80E208DF80F2034
:104930000DF10E010DF10F02204602F0C9FB38F80F
:10494000163023F0020343F0010328F816306B6899
:104950004BB393F800C05A683D4EE3B2083336F8C3
:104960001310880702D5B2B13A481FE021F02001A8
:10497000C904C90C26F813106AB1BCF1030FF3D8AF
:104980006A68386852681278BCF1000F11D102F5DC
:10499000A27240F822C036F8132022F01C0242EA2C
:1049A0008C0226F81320AB6843BB2B4804B0BDE84B
:1049B000F08100EB820041EA4231D0F810E52EF0A0
:1049C000030EC0F810E53F6807EB820741F02001B5
:1049D000D7F8100526F8131020F4473020F4407063
:1049E000C7F810052002D7F810E500F4F85040EAA7
:1049F0000C4040EA0E00C7F81005CCE7D3E9006789
:104A00002046FFF7CBFE002ECFD0114DD5E9002375
:104A1000964203D19F4201D1002209E00F480DF1D7
:104A20000F01FFF72BFD0C4B9842BFD19DF80F20D3
:104A300045F83260E4B205EBC20308345F6035F834
:104A4000143043EA422343F4807325F81430ACE772
:104A5000EC0400200400AD0B0000AD0B4405002069
:104A60002DE9FF4107460C461E4612B3CDB2DFF8D2
:104A7000D080083538F81530980701D4990621D42C
:104A800013F01C0F02D05378012B1BD001238DF89B
:104A90000F300023CDE900230DF10F01931C2046B8
:104AA000013202F015FB38F8153043F0030328F803
:104AB0001530002E42D0E1B2214D083135F81120D9
:104AC000930703D41F4804B0BDE8F08196F800E0D6
:104AD000D7F800C022F020020EF5A270D204002305
:104AE000D20C4CF8203025F8112096F801C0BCF10A
:104AF000000F23D03868B67800EB8E004FEA0C4CDC
:104B0000D0F8103523F4981323F4F853C0F8103577
:104B1000230203F4F8530CF4403C3605D0F810752A
:104B200043EA0C0306F4801642EA4E32334342F065
:104B300020023B4325F81120C0F810350248C2E797
:104B4000EC0400200400AD0B0000AD0B014BC3E9E9
:104B500002127047EC040020C9B20831044B33F84C
:104B60001130990643BF5B0B02481370024870472F
:104B7000EC0400200000AD0B0400AD0B70B5164D29
:104B800095F8604006462CBB2146402205F11000F6
:104B900000F06BFF30682E6D21468E420ED100234F
:104BA000C0F87C31D0F87C3140F30730FDF71CFAB7
:104BB00001230A4885F86030AB6570BDCBB29B001D
:104BC00003F580727C2B08BF845001F1010108BFFE
:104BD0008358E2E70248F0E7EC0400200000AD0B48
:104BE0000C00AD0B034B93F86000003818BF012098
:104BF000704700BFEC0400200148FFF763BC00BF12
:104C0000400500200148FFF739BC00BF40050020E7
:104C100073B503680C46D3F804130029A4BF4FF002
:104C20000041C3F80413E3B21D49083331F81330CF
:104C300099061AD513F0020617D15B0B9C00056884
:104C400004F580716E50695801682144D1F810450F
:104C500044F00104C1F810452AB10168012202FAAA
:104C600003F3C1F8043302B070BDC3F38203042B15
:104C700012D0052B12D001A8019402F01FFA019A5C
:104C8000D0F81035D34003F00103991C204602B040
:104C9000BDE8704002F065BA0321F7E70221F5E7AD
:104CA000EC0400202DE9F347544B554FD3F804038F
:104CB000396DC0B240F00040FFF79AFD051E18DACA
:104CC0000023F96D0093684602F05AFA4FF001088C
:104CD00097F85C30DA075AD4396D4FF00040FFF78F
:104CE00087FDF96D684602F04BFA0028F0D125F0F7
:104CF00000450124002D69D102B0BDE8F08794FA87
:104D0000A4F4B4FA84F4E00804F1080304F0070200
:104D100037F813901DF80030019408FA02F223EAE4
:104D200002030DF8003001A802F0C8F9019B03F559
:104D3000E0734FEA990150F82360C9F3820A4B07E8
:104D4000D146C6F3014626D520465146FFF708FD59
:104D500001A8019402F0B2F9019B03F5E073F6B2E9
:104D600050F82330C3F301439E4207D1002120466F
:104D700002F0F7F93146204602F0F3F901A8019458
:104D800002F09CF9019B08FA03F3C0F82035009C5F
:104D9000002CB4D1A0E7022E0CD10321204602F052
:104DA000E0F90AF00503012BE8D149462046FFF758
:104DB000D7FCE3E70221204602F0D3F9BAF1030F52
:104DC000F3D0032EDAD1BAF1020FEDE795FAA5F38D
:104DD000B3FA83F304FA03F29B0003F1804303F573
:104DE000C04325EA0205D3F81005D3F81015C0F327
:104DF0000420C1F30141FFF7B3FC7BE700600040F2
:104E0000EC040020044AD2F80034DB07FBD5016033
:104E1000BFF35F8F704700BF00E001404FF0805349
:104E20001A69B0FBF2F302FB130373B9084B0222B9
:104E3000C3F80425C3F80805D3F80024D207FBD52E
:104E400000220448C3F8042570470348704700BF98
:104E500000E001400000AD0B0A00AD0B10B5054CA1
:104E60000123C4F80435FFF7CDFF0023C4F804354F
:104E700010BD00BF00E0014010B5144CA822002175
:104E8000204600F0F2FD03232361114A6361114BB8
:104E9000A261E3614FF4806323620023A362636233
:104EA000E36222660C4A62661022A2662367E3660A
:104EB0006367BFF35F8F094A12F8011DE1540133A4
:104EC000102BF9D1BFF35F8F10BD00BF100400207D
:104ED0006C7F00001000002000000020857F000093
:104EE000F8B5144B182700FB07751D4407FB00336A
:104EF0000E46DB6A012B14460AD0022B14D023B9CC
:104F0000284602F05DF9844208D900242046F8BD05
:104F1000284602F055F9844228BF0446224631460D
:104F2000284602F056F9F1E72846BDE8F84002F0BD
:104F30006DB900BF10040020F8B50B4B1B78044678
:104F40000D4616460BB9FFF797FFEFF311874FF0A9
:104F5000200181F31188324629462046FFF7C0FF21
:104F600087F31188F8BD00BF1004002038B5094B45
:104F700053F82040013053F82050A54200D838BDE6
:104F8000636823B1204602F09FF90834F5E72368EF
:104F90009847FAE79C77000008B50A4B01220320E6
:104FA0001A70FFF7E3FFFCF74DFE02F0A9F90420A9
:104FB000FFF7DCFFFBF7FCF9034A137B23F0010347
:104FC000137308BD232C00208005002008B503487A
:104FD000034A0021121A02F08FF908BD6005002073
:104FE000242C002008B50020FFF7C0FF184B83F3E6
:104FF0000888184C636943F4007363610025E0235B
:1050000084F82230E57725766576A57684F82050F9
:10501000636A43F4E023636284F82350FCF750FF93
:10502000FDF75EF84FF0FF33A362E362FDF7F2F89D
:10503000FDF77AF802F022F90120FFF797FF02202E
:10504000FFF794FF04482B462A462946FDF730F81F
:105050002834002000ED00E0994F000008B5064814
:10506000064A0749121A02F049F9BDE80840054A04
:105070000549064802F042B9C0040020600500203E
:10508000907F000000000000887F0000C004002026
:10509000034B1B680BB9FEF707B90020704700BF30
:1050A0001C13002030B570B10B4B5B6898420AD0DE
:1050B000036843B1D3E90421D0E90445121941EB57
:1050C0000501C3E90421D0E9003213605A600023CE
:1050D000C0E9003330BD00BF5005002010B50E4BB5
:1050E0001C689C4204D1FFF7D3FF6FF0004010BD55
:1050F000FFF7CEFF002CF8D0D4E904321B1A62EB84
:10510000E072B3F1004F72F10001EEDA002AACBF99
:1051100018460020EBE700BF500500202DE9F84FAE
:10512000EFF3118C202383F31288BFF36F8FDFF826
:10513000ACA0DFF8AC902B4FC9F80000DAF8000003
:105140000024504508BF00200025D7E90021D9F8E8
:105150000030E04678B3D0E9046C4FEAE37EB34216
:105160007EEB0C0B05DAF61A6CEB0E04C0E9046456
:1051700021E0B21841EBE671C0E90445C7E900211E
:10518000FFF790FF88F31188BFF36F8F836898470C
:10519000EFF31188202383F31288BFF36F8FD9F8C0
:1051A0000030DAF800009B1B5045C446C9F80030B7
:1051B000CBD1D7E900219A1841EBE3730024C7E96A
:1051C0000023C9F80040FFF789FF2146FEF73EF8AB
:1051D00088F31188BFF36F8FBDE8F88F500500206A
:1051E0001C1300200006002070470020704730B5D7
:1051F00083688B4285B0044615460ED96368C06843
:10520000194401AA00F030FD28B96268019B9B1A7D
:105210002B60029B6B6005B030BD6FF02100FAE798
:105220002DE9F7430E4617469946044628B94FF034
:10523000FF38404603B0BDE8F0830029F7D0002ACC
:10524000F5D0CB680D891D4404230DEB03022946DC
:10525000384600F032FB80460028E8D1BDF8041043
:10526000738946F60812914225D1BDF8061099427D
:10527000DDD104230DEB03022944384600F01DFB69
:105280000028D4D1BDF8042046F607139A42CED1A7
:10529000C4E900679DF82830A4F80890A3727389C8
:1052A000BDF806202B44E360738913442B44043576
:1052B00063612561BDE7002BE4D0B8E72DE9F34138
:1052C0000E4617461D46044620B94FF0FF3002B087
:1052D000BDE8F0810368002BF7D04368002BF4D0C1
:1052E0004FF6FF78D4E904239A4216D223685B89EB
:1052F00023B1E368934204BF04332361042321698B
:1053000060680DEB030200F0D8FA0028DDD1A37A23
:105310002BB1D4E903329A4201D30120D7E7238984
:10532000BDF80610434501F1040203D0BDF804C0E6
:105330009C450BD115B1BDF804302B802369043393
:1053400033603980236913442361C0E72369134420
:105350002361C7E748B103683BB143682BB1C0681C
:10536000884294BF0020012070474FF0FF30704703
:1053700000F060BB4FF4C07358433030704710B535
:10538000044600F0DCFAA3684FF4C072303B02FB25
:10539000103010BD70B50D46044600F04CFD2A4695
:1053A000A0F1080104232046BDE8704000F085BA52
:1053B00013B50446019100F03EFD0423A0F108015D
:1053C0000DEB0302204600F079FD02B010BD70B570
:1053D00013460E461546002102460446FBF774FDAF
:1053E00050B92B4604F12C0201212046FBF76CFD3D
:1053F00010B1002E08BF002070BD73B50446002018
:105400000D461646FBF754F86946C0B2FCF7C2FBDE
:1054100030BB2C2303FB05440098E36825891D4419
:1054200004230DEB0302294600F047FAC0B9BDF88A
:1054300004206489009846F608139A4215D1BDF8F5
:1054400006309C420CD104230DEB0302611900F0DD
:1054500034FA28B9BDF8042046F607139A4207D05B
:10546000009800F029FA02B070BD002CF2D0F7E7E6
:10547000BDF80610214429443160F1E737B50446F0
:10548000426A802501A902200195FCF7ABFB58B9BF
:10549000019B226DA36201A906200195FCF7A2FBE6
:1054A000054628B1092500E00125284603B030BD96
:1054B000019B206A636500F042FAE065F5E701238D
:1054C000036003F1012343600023C0E90233704706
:1054D0004379012B07D10368012B04D10079431EC6
:1054E000584258417047002070477FB506460D4628
:1054F000022001A9FCF74EFB38BB0198FFF73FFFE4
:10550000F16D0446284600F0D0F80444019800F0FC
:1055100016FA0646019800F019FA082201460DEB2A
:10552000020000F0A2FA2B798DF80830214601988C
:10553000334602AA00F0D6F9041E019818BF0124D0
:1055400000F0BAF9204604B070BD0124FAE700F07B
:10555000DEB92DE9F8430E46002107460846FAF762
:10556000A7FF012104460020FAF7A2FF33789C42EE
:1055700021D0984221D101252C2303FB0575F86D1C
:10558000AC6AFFF7F7FE013C07464FF000086B6A74
:1055900003EBC40253F83410D2F804901B684A4657
:1055A000C91A3046C844FFF7D2FFB84504F1FF34AA
:1055B000EDD3BDE8F8830025DEE70120F9E737B534
:1055C00015460C460620694600F0BBFCE979012926
:1055D00003D00022204600F0C8FC9DF80330012BC8
:1055E00002D1204600F0A0FCA9682046FFF7E0FEAB
:1055F0002046FDF77BFE002003B030BD73B50D469D
:105600000646FBF767FD0446E86050B302282DD13B
:1056100001A9FCF7BFFA58BB01982A463146FBF7AF
:10562000B9FC0446D0B9019800F005FC01230146FD
:105630000DF10302019800F040F90446A0B9019869
:1056400001220DF1030100F00AFC10B101238DF8D5
:1056500003309DF8033003F00F03EB71019800F065
:105660002BF9204602B070BD0124F7E70724F8E7C4
:105670000124F6E738B5436A0446C06D5D68FFF75C
:1056800079FE0246A06A002301382B449A4201D9D0
:105690000138FAE738BD436A00205A6803461344CC
:1056A0008B4200F10100FAD3704710B543790279BB
:1056B000012B14BFCB01002302F1FF3201FB0233A7
:1056C000026814BF4C000C46013A04FB023010BDC6
:1056D000002070470FB407B504A951F8040B0191DD
:1056E000FBF714FF03B05DF804EB04B07047038BC5
:1056F00013F0070305D10368002B0CBF0020032023
:105700007047022B05D1408BB0FA80F04009800031
:105710007047012B05D10368002B0CBF002005202A
:1057200070470020704710B50C4600B111B96FF0FA
:10573000150010BD081D00F093F80028F9D1A368EA
:10574000032BF6D9F3E72DE9F0410D46074619463C
:10575000281D90461E4600F094F8044638B13346A2
:10576000424629463846A446BDE8F0416047BDE8B8
:10577000F08110B4EFF31182202484F31288BFF378
:105780006F8F416110BC0121FCF7F0B838B50C46B1
:10579000054658B151B10B6843B14B6833B11C2277
:1057A000002100F062F92C61002038BD6FF0150077
:1057B000FBE770B505460E46FFF7B5FF041E14DB88
:1057C000EFF31182202383F31288BFF36F8F6B8B6B
:1057D0002C8B4FF6FF718B4204F0070407D182F344
:1057E0001188BFF36F8F6FF00A04204670BD022C42
:1057F0000CD101336B8382F31188BFF36F8F0023C9
:10580000224631462846FFF79EFFEEE7062C14D8C5
:10581000DFE804F004131313041A040000233360B8
:105820006B683BB9C5E90066ACB902212846FCF7B4
:105830009DF8DAE71E606E60F6E782F31188BFF329
:105840006F8F6FF00404D0E782F31188BFF36F8F7E
:105850006FF08504C9E782F31188BFF36F8FC4E747
:10586000034658B1426802F00302012A03D0032A1A
:1058700004D1026812B10020986070476FF01500E3
:1058800070474268816002F00302032A4FF0000271
:1058900003460CBF006810465A60704770470FB44B
:1058A00007B504A951F8040B0191FBF72FFE03B0D3
:1058B0005DF804EB04B070477047002930B404462B
:1058C00018460BDBA5680844A84207D8E06864685E
:1058D000214484682468A44630BC60476FF01500FA
:1058E00030BC7047002930B4044618460BDBA5686D
:1058F0000844A84207D8E068646821448468646862
:10590000A44630BC60476FF0150030BC70470029DA
:10591000034610B410460BDB9C680844A04207D82D
:10592000D8685B68194483689B682BB110BC184722
:105930006FF0150010BC70476FF05700FAE708B51C
:10594000C0688368DB689847006808BD08B5C06810
:105950008368DB689847407908BD70B54C68036878
:10596000A34201D2012070BD8A682244934201D330
:105970000020F8E7D1E903254E69B54203D36FF063
:105980000B038B61F4E71B1B42F835304368086951
:1059900002EBC00253600B6901330B61E2E701289F
:1059A00001D1EFF3058301F080BC01460068FFF7E9
:1059B000F6BF08B5FCF758F9BDE8084000F000B89C
:1059C000704700210120FFF7EABF61B662B680F39D
:1059D0001188BFF36F8F7047EFF31180202383F39B
:1059E0001288BFF36F8F704772B6002383F311885C
:1059F000BFF36F8FBFF34F8F20BF80F31188BFF3CA
:105A00006F8F62B67047202809D9B0F1004F08D8CF
:105A10000138B0FA80F0C0F11F0040007047082044
:105A200070473E207047034600201A5C02B9704759
:105A30000130FAE710B55AB10139841810F8012B7A
:105A400011F8013FA04201D09A42F7D0D01A10BD00
:105A50001046FCE710B5431E0A44914200D110BD28
:105A600011F8014B03F8014FF7E7C9B202440346AE
:105A7000934200D1704703F8011BF9E74FF0FF3064
:105A800070470369C9B20C2201FB0233186C00F0A5
:105A90000700704770B5C9B20369EFF31185202480
:105AA00084F31288BFF36F8F0C2606FB0134246C3D
:105AB00014F0C00408D0A24206D085F31188BFF3C9
:105AC0006F8F4FF0FF3070BD71430B4401221A6499
:105AD00085F31188BFF36F8F43680B445B68984769
