:10000000603E0020412800009F6F00002D28000066
:100010002D2800002D2800002D28000000000000E1
:10002000000000000000000000000000112A000095
:100030002D28000000000000DD2900002D28000010
:10004000952B0000952B0000952B0000952B0000B0
:10005000952B0000952B0000952B0000952B0000A0
:10006000952B0000952B0000952B0000952B000090
:10007000952B0000952B0000952B0000952B000080
:10008000952B0000952B0000952B0000952B000070
:10009000952B0000952B0000952B0000952B000060
:1000A000952B0000952B0000952B0000952B000050
:1000B000952B0000952B0000952B0000952B000040
:1000C000952B0000952B0000952B0000952B000030
:0C00D000952B0000952B0000952B0000E4
:0400DC00FFFFFFFF24
:1000E00081F0004102E000BF83F0004330B54FEAE9
:1000F00041044FEA430594EA050F08BF90EA020F56
:100100001FBF54EA000C55EA020C7FEA645C7FEAE8
:10011000655C00F0E2804FEA5454D4EB5555B8BF0B
:100120006D420CDD2C4480EA020281EA030382EA7C
:10013000000083EA010180EA020281EA0303362D0E
:1001400088BF30BD11F0004F4FEA01314FF4801CE1
:100150004CEA113102D0404261EB410113F0004FF3
:100160004FEA03334CEA133302D0524263EB4303AA
:1001700094EA050F00F0A780A4F10104D5F1200E48
:100180000DDB02FA0EFC22FA05F2801841F10001A3
:1001900003FA0EF2801843FA05F359410EE0A5F177
:1001A00020050EF1200E012A03FA0EFC28BF4CF0A8
:1001B000020C43FA05F3C01851EBE37101F000455E
:1001C00007D54FF0000EDCF1000C7EEB00006EEB6B
:1001D0000101B1F5801F1BD3B1F5001F0CD34908F5
:1001E0005FEA30004FEA3C0C04F101044FEA44524C
:1001F00012F5800F80F09A80BCF1004F08BF5FEAD3
:10020000500C50F1000041EB045141EA050130BDB2
:100210005FEA4C0C404141EB0101013C28BFB1F5C4
:10022000801FE9D291F0000F04BF01460020B1FA0F
:1002300081F308BF2033A3F10B03B3F120020CDAE2
:100240000C3208DD02F1140CC2F10C0201FA0CF0C0
:1002500021FA02F10CE002F11402D8BFC2F1200C25
:1002600001FA02F120FA0CFCDCBF41EA0C019040DB
:10027000E41AA2BF01EB0451294330BD6FEA040424
:100280001F3C1CDA0C340EDC04F11404C4F120020F
:1002900020FA04F001FA02F340EA030021FA04F321
:1002A00045EA030130BDC4F10C04C4F1200220FA78
:1002B00002F001FA04F340EA0300294630BD21FAB6
:1002C00004F0294630BD94F0000F83F4801306BF7C
:1002D00081F480110134013D4EE77FEA645C18BF70
:1002E0007FEA655C29D094EA050F08BF90EA020F07
:1002F00005D054EA000C04BF1946104630BD91EAFF
:10030000030F1EBF0021002030BD5FEA545C05D101
:100310004000494128BF41F0004130BD14F5800440
:100320003CBF01F5801130BD01F0004545F0FE41B4
:1003300041F470014FF0000030BD7FEA645C1ABFE9
:10034000194610467FEA655C1CBF0B46024650EA20
:10035000013406BF52EA033591EA030F41F400214C
:1003600030BD00BF90F0000F04BF0021704730B5D2
:100370004FF4806404F132044FF000054FF00001A7
:1003800050E700BF90F0000F04BF0021704730B568
:100390004FF4806404F1320410F0004548BF40423D
:1003A0004FF000013EE700BF42004FEAE2014FEA92
:1003B00031014FEA02701FBF12F07F4393F07F4F6D
:1003C00081F06051704732F07F4208BF704793F070
:1003D0007F4F04BF41F40021704730B54FF4607483
:1003E00001F0004521F000411CE700BF50EA010286
:1003F00008BF704730B54FF000050AE050EA01022F
:1004000008BF704730B511F0004502D5404261EB9E
:1004100041014FF4806404F132045FEA915C3FF4DF
:10042000D8AE4FF003025FEADC0C18BF03325FEA7C
:10043000DC0C18BF033202EBDC02C2F1200300FA2D
:1004400003FC20FA02F001FA03FE40EA0E0021FA52
:1004500002F11444BDE600BF70B54FF0FF0C4CF440
:10046000E06C1CEA11541DBF1CEA135594EA0C0FF2
:1004700095EA0C0F00F0DEF82C4481EA030621EA2D
:100480004C5123EA4C5350EA013518BF52EA033568
:1004900041F4801143F4801338D0A0FB02CE4FF01A
:1004A0000005E1FB02E506F00042E0FB03E54FF04A
:1004B0000006E1FB03569CF0000F18BF4EF0010E42
:1004C000A4F1FF04B6F5007F64F5407404D25FEA3E
:1004D0004E0E6D4146EB060642EAC62141EA5551F1
:1004E0004FEAC52040EA5E504FEACE2EB4F1FD0C33
:1004F00088BFBCF5E06F1ED8BEF1004F08BF5FEAB1
:10050000500E50F1000041EB045170BD06F0004662
:1005100046EA010140EA020081EA0301B4EB5C040F
:10052000C2BFD4EB0C0541EA045170BD41F4801107
:100530004FF0000E013C00F3AB8014F1360FDEBF2C
:10054000002001F0004170BDC4F10004203C35DA08
:100550000C341BDC04F11404C4F1200500FA05F38B
:1005600020FA04F001FA05F240EA020001F000422C
:1005700021F0004110EBD37021FA04F642EB0601A2
:100580005EEA430E08BF20EAD37070BDC4F10C04CC
:10059000C4F1200500FA04F320FA05F001FA04F290
:1005A00040EA020001F0004110EBD37041F100017C
:1005B0005EEA430E08BF20EAD37070BDC4F1200587
:1005C00000FA05F24EEA020E20FA04F301FA05F2EF
:1005D00043EA020321FA04F001F0004121FA04F297
:1005E00020EA020000EBD3705EEA430E08BF20EA67
:1005F000D37070BD94F0000F0FD101F000464000A1
:1006000041EB010111F4801F08BF013CF7D041EA22
:10061000060195F0000F18BF704703F00046520026
:1006200043EB030313F4801F08BF013DF7D043EAF7
:100630000603704794EA0C0F0CEA135518BF95EAAD
:100640000C0F0CD050EA410618BF52EA4306D1D134
:1006500081EA030101F000414FF0000070BD50EA53
:10066000410606BF1046194652EA430619D094EADD
:100670000C0F02D150EA013613D195EA0C0F05D1C7
:1006800052EA03361CBF104619460AD181EA03011B
:1006900001F0004141F0FE4141F470014FF00000D3
:1006A00070BD41F0FE4141F4780170BD70B54FF06E
:1006B000FF0C4CF4E06C1CEA11541DBF1CEA1355EE
:1006C00094EA0C0F95EA0C0F00F0A7F8A4EB0504D0
:1006D00081EA030E52EA03354FEA013100F08880C7
:1006E0004FEA03334FF0805545EA131343EA126390
:1006F0004FEA022245EA111545EA10654FEA002645
:100700000EF000419D4208BF964244F1FD0404F5FD
:10071000407402D25B084FEA3202B61A65EB030559
:100720005B084FEA32024FF480104FF4002CB6EB16
:10073000020E75EB030E22BFB61A754640EA0C0096
:100740005B084FEA3202B6EB020E75EB030E22BFD6
:10075000B61A754640EA5C005B084FEA3202B6EB17
:10076000020E75EB030E22BFB61A754640EA9C00D6
:100770005B084FEA3202B6EB020E75EB030E22BFA6
:10078000B61A754640EADC0055EA060E18D04FEA64
:10079000051545EA16754FEA06164FEAC30343EA04
:1007A00052734FEAC2025FEA1C1CC0D111F4801FD1
:1007B0000BD141EA00014FF000004FF0004CB6E7CA
:1007C00011F4801F04BF01430020B4F1FD0C88BF69
:1007D000BCF5E06F3FF6AFAEB5EB030C04BFB6EB74
:1007E000020C5FEA500C50F1000041EB045170BD67
:1007F0000EF0004E4EEA113114EB5C04C2BFD4EB94
:100800000C0541EA045170BD41F480114FF0000E17
:10081000013C90E645EA060E8DE60CEA135594EA93
:100820000C0F08BF95EA0C0F3FF43BAF94EA0C0F96
:100830000AD150EA01347FF434AF95EA0C0F7FF40B
:1008400025AF104619462CE795EA0C0F06D152EA5F
:1008500003353FF4FDAE1046194622E750EA410643
:1008600018BF52EA43067FF4C5AE50EA41047FF454
:100870000DAF52EA43057FF4EBAE12E74FEA4102B7
:1008800012F5001215D211D56FF47873B3EB6252E2
:1008900012D94FEAC12343F0004343EA505311F009
:1008A000004F23FA02F018BF404270474FF000009B
:1008B000704750EA013005D111F0004008BF6FF0D9
:1008C000004070474FF00000704700BF53B94AB96D
:1008D000002908BF00281CBF4FF0FF314FF0FF3048
:1008E00000F00CB8ADF1080C6DE904CE00F008F88A
:1008F000DDF804E0DDE9022304B07047704700BF73
:100900002DE9F04786468C460846089E15467446F3
:100910001946002B40F0C2808542B2FA82F245D9D6
:100920004AB1C2F1200300FA02FC2EFA03F395400B
:1009300043EA0C0C94404FEA154EA8B2BCFBFEF8FB
:10094000230C0EFB18CC08FB00F943EA0C43994535
:1009500028D9EB1808F1FF3704D2994502D9A8F13C
:1009600002072B44A3EB0903A4B2B3FBFEFC0EFB6E
:100970001C330CFB00F044EA0344A04214D92C19A8
:100980000CF1FF3304D2A04202D9ACF102032C4493
:10099000241A43EA07401EB1D44000233460736038
:1009A000BDE8F0874746DDE76346F1E792BB431BAE
:1009B00001214FEA154EAFB2B3FBFEFC200C0EFB3B
:1009C0001C330CFB07F840EA0343984562D9EB1847
:1009D0000CF1FF3004D2984502D9ACF102002B444F
:1009E000A3EB0803A4B2B3FBFEFC0EFB1C330CFB11
:1009F00007F744EA0344A7424ED92C190CF1FF3300
:100A000004D2A74202D9ACF102032C44E41B43EA0E
:100A10000040C0E7C2F1200320FA03F19540904066
:100A20002EFA03F303434FEA154EAFB2B1FBFEFCBF
:100A30000EFB1C10190C0CFB07F841EA004188451D
:100A400004FA02F422D969180CF1FF3004D2884567
:100A500002D9ACF102002944A1EB08019BB2B1FB21
:100A6000FEFC0EFB1C110CFB07F743EA01439F42FF
:100A70000ED9EB180CF1FF3104D29F4202D9ACF130
:100A800002012B44DB1B41EA004192E76046E3E7A9
:100A90006146F7E76046A3E76346B7E7834206D9B6
:100AA00016B9002108467BE7C6E900E0F9E7B3FA8A
:100AB00083F78FB9834201D3724508D8BEEB020495
:100AC00060EB030301209C461EB9002168E738460D
:100AD000FAE7C6E9004CF8E7C7F1200CBB4022FA60
:100AE0000CF41C432EFA0CF120FA0CF3B84001432D
:100AF0004FEA14490EFA07F5B3FBF9F81FFA84FE22
:100B000009FB18300B0C08FB0EFA43EA00439A4528
:100B100002FA07F240D9E31808F1FF3004D29A45EF
:100B200002D9A8F102002344A3EB0A0389B2B3FB64
:100B3000F9F809FB183308FB0EFE41EA03418E4524
:100B40002CD9611808F1FF3304D28E4502D9A8F1DF
:100B50000203214443EA0040A0FB0298A1EB0E01EE
:100B60004145CE46434602D306D14D4504D2B9EBAA
:100B7000020E68EB04030138002EA6D0B5EB0E027E
:100B800061EB030101FA0CFC22FA07F34CEA0303C0
:100B9000F940C6E9003198E74046C5E74346D9E742
:100BA00010F8012B11F8013B012A28BF9A42F7D017
:100BB000D01A7047000000002DE9F04F4BF2C0132F
:100BC000DFB04FF44042CDE90132FF220A23114643
:100BD0009F480093012306F0F3F800F0E3FE01467E
:100BE00038B19C4806F0ECF84FF47A7005F026FD19
:100BF000FAE700F045FE984D284606F070FD0446E1
:100C000050B12A69A968136843F0004313600B6868
:100C1000924A1F2128469847914B1C7000F058FEBD
:100C2000904C204606F05BFD002868D0A3685B6A04
:100C30000BB120469847A568AB690BB18948984726
:100C40002B6C1BB18849874800229847A3681B6A10
:100C50000BB184489847854806F0B2F8844A0023CF
:100C60001370844A136005F0DCFC834B186005F0B8
:100C7000D8FC824E824FDFF80C82834632883B8854
:100C800092B29BB29A423ED1794B1B78022B40F034
:100C900050827D4A1368ABEB0303632B2BD9C2F858
:100CA00000B0FF21202229A806F0A5FE0024002282
:100CB0000023CDE90223CDE90044744D744829781E
:100CC000FF234BF2C012CDE9254405F04BFD01F0A6
:100CD00097F92146F8220F2005F087FE22466C493D
:100CE000112005F0B8FD0446002800F0A080694AF4
:100CF000536B01335363012005F0A0FCB7E766484E
:100D000006F05EF8A7E73388644C9BB218F803201E
:100D10003388013303F07F030A2A338001D00D2A80
:100D20007AD15F4B1A7812B100221A7026E023782C
:100D300023B35C4D5C49EA542846FFF731FF8146F6
:100D4000F8B901F05DF905F0BBFF4BF2C01005F0FA
:100D50005CFE484601F080F9544A49460F2005F0F0
:100D600044FE05F05EFC484B414A6438186002239B
:100D70004F4813704FF4404106F022F800232370CF
:100D80007CE74C492846FFF70BFF8146D0B901F0BC
:100D900037F900F075FD484BC3F80090474BC3F896
:100DA000009000F095FD3B4B1A68324B1A6005F03D
:100DB00038FC314B18602E4B414883F800904FF4BB
:100DC0004041D9E73F492846FFF7EAFE68B901F0FC
:100DD00017F9274A01231370214B1B780BB100F040
:100DE000D3FD39484FF44041C6E738492846FFF75C
:100DF000D7FE0028C2D11E4B1B78022B0AD03449E3
:100E0000344A012B08BF114633484FF4404205F0E5
:100E1000D7FFB3E73149F7E723781E2B02D9204BE0
:100E2000012282E7591C21701E49CA5426E7014657
:100E30000122112000F086FF204601F0B5F80028BD
:100E40004ED0144A536B0133536301F0D9F852E783
:100E5000A67E0000107F0000987A000001000A00C2
:100E6000E0230020AC7A000021190000717F00000F
:100E7000962400202422002020220020DC230020B1
:100E8000DE230020F423002028220020E22300207B
:100E9000E323002030220020317F00007524002051
:100EA0007424002076240020E67F0000F8FF272429
:100EB000EF7F0000048000001808002014080020C4
:100EC0001080000028800000328000004880000070
:100ED000098000002D80000053800000EB7F00009F
:100EE00005F09FFB064600210F2005F005FD10F0E0
:100EF000800436D0F82200210F2005F076FD05F0A1
:100F000010FD2B781490013300202B7005F060FE4B
:100F100005F087FBDFF8A0A2A84F1590002605F08A
:100F200080FB159BC01A0B2800F2CB8000210F20FC
:100F300005F0E2FC10F4804400F0D880002110207D
:100F400005F0DAFC10F4607504461BD00F20524601
:100F5000002105F04AFD05F0B3FE002005F038FE43
:100F6000DDE705F05EFB801B0528BCD9944A536B76
:100F70000133536301F044F8F82221460F2005F0B5
:100F800034FDB8E67F222946384606F034FDC4F326
:100F900009012A46384605F08EFC05F0C6FC81465C
:100FA00005F092FC8046384605F006FC044605F044
:100FB000B2FB00287AD022464BF2C011384605F029
:100FC00014FC002872D0204605F0A3FB0728044635
:100FD0006CD800F5BC736B4413F8E43C002B65D16E
:100FE00078492B46AB4611F8012F9A400833202B45
:100FF0004BEA020BF7D17449002311F8012F9A40F4
:101000000833202B45EA0205F7D15EAB03EB8403DE
:101010001893149BA9EB0300FFF7B4F9CDE916016F
:101020004046FFF7AFF95EA3D3E90023FFF714FAB8
:1010300002460B4600206549FFF756F88046A5EBAF
:101040000B008946FFF79EF902460B46404649468B
:10105000FFF702FA02460B46DDE91601FFF744F8F6
:101060005B4B0022FFF7F8F94FA3D3E90023FFF70A
:10107000F3F94FA3D3E90023FFF7EEF9554B002214
:10108000FFF7EAF9FFF7FAFB189B4D4A20EAE070F8
:1010900043F8D40C04F5BC730DEB030401231E4488
:1010A00004F8E43C936B0133F6B29363524600219B
:1010B0000F2005F09AFC002005F08AFD072E7FF630
:1010C0002EAF00F09DFF444A4FF44043A02136A8C4
:1010D00005F01EF89F28044615D9404836A905F0AA
:1010E0006FFE374A136B0133136304E63C4B18421F
:1010F0003FF415AF0F205246214605F076FC05F06F
:10110000DFFD20462AE7374F29AD002655F8043B7E
:10111000009336A8C4F1A001204433463A4604F0B7
:10112000F7FF072E0444D8D09F2C06F10106EDD915
:10113000D3E7012B01D10520DEE500210F2005F0CA
:10114000DBFB1F4C10F48041206400F0E882102289
:10115000002125A806F04FFC25A805F0F6FB00218C
:10116000102005F0C9FBC0F30905FF2D2B4628BF51
:10117000FF23DBB2149384F84B30236810F46076BD
:1011800003F1010323602FD0A3690133A3614FF45E
:10119000804200210F2005F028FC00F099FB7EE141
:1011A000143BB1133BB103BEFA48CE3B1835B13DF9
:1011B0000000001319DDB14100FF2724972400200F
:1011C00030220020A0240020A42400200000F03FB2
:1011D0000000E03F00408F40678000007780000003
:1011E000009027247B8000007F223146644806F06F
:1011F00002FC32462946624805F05DFB05F095FB8E
:10120000159005F061FB0622189023AB314614209F
:101210002396ADF8906005F02EFB239BC3F31207D5
:101220005B039DF8913048BF6FEA473703F07F03B7
:101230004FF000014FF0130048BF6FEA5737199382
:1012400005F05AFB1E211A90232005F055FB042DB2
:10125000C0F384131B931BD80023A4F84830002349
:10126000A4F846300023A4F844300023284684F82C
:101270004A3000F03FFB002876D0E3680133E3609A
:10128000284600F037FB002881D0092D3BD87EE7A7
:10129000DFF8EC80062DB8F80330A4F84830DED92A
:1012A000B8F80530A4F84630082DDBD9B8F8073077
:1012B000A4F84430092DD8D098F8091084F84A10C1
:1012C000284600F017FB00284ED0112DD5D1E0297B
:1012D000D3D1404605F070FA0546404605F069FA5C
:1012E0008146284605F01FFA064618B14FF6FF73EF
:1012F00099453DD0E3680133E360112000F0FAFA2C
:1013000000283FF444AF1E48437AE12B7FF43FAFFF
:1013100005F052FA054605F0FEF900283FF437AF14
:10132000284605F0F6F9A368169001334FF4804281
:1013300000210F20A36005F058FB00F0C9FA114B03
:101340001A68114B1B68D11A7F2900F2D48102F070
:101350007F0134230D484B434FF0000940F803B0A0
:101360000B4B00209C685EE063690133636187E793
:10137000404605F024FA68B9236901332361BCE7CC
:101380009724002018080020140800201C080020C2
:10139000302200208A4805F01BFA1690884805F094
:1013A0000EFA636801336360864BC3F800B0864B66
:1013B0001B7881463BB1854A13780133DBB2052B9C
:1013C00000F2F58013707E4CDFF8048294F802A0DE
:1013D000204605F0FDF90546204605F0F0F9D8F85D
:1013E00004300A22B3FBF2F402FB1434002C00F0A8
:1013F000FF804FF4804200210F2005F0F6FA00F044
:1014000067FA744B1A68744B1B68D11A7F2900F273
:10141000748102F07F01342370484B4340F803B0DD
:101420006B4B5C6801206D4B342505FB013315992E
:1014300099601899D96066495C60496C1961BDF87A
:10144000A2109982BDF89610D982BDF89A1019831E
:10145000BDF89C105983BDF89E109983BDF8A0106B
:10146000D983BDF898101984149983F8221016991D
:1014700083F82410524983F82690897883F8251040
:10148000C0F1E100199983F8230083F827109F62C7
:101490001A99D9621B9919864E4B01321A604E4C2B
:1014A000DFF83081DFF834A14FF004092368D8F861
:1014B00000209A425FD003F07F0334225A430AEBA4
:1014C00002035AF8022014925A68159293F82520C4
:1014D000189293F8242016921A8A19925A8A1A920C
:1014E0009A681B92DA681C929A8A1D92DA8A1E9276
:1014F0009A6A1F92DA6A20921A8E198B588B9D8BEA
:10150000DE8B1F8C93F822C093F827E0219293F88A
:101510002320E02A40F01181219A1392209A1292FE
:101520001F9ACDE910E293F826300991CDE90EC358
:101530001E9B08931D9B07931C9B06931B9B059367
:101540001A9B0493199B0393169B0293189B019378
:10155000FF22159BCDE90A05CDE90C6720480093D1
:101560001146149B05F02CFC2368B9F1010903F125
:10157000010323609AD1164C1A4B226819681A4D40
:101580008A4240F000812B6843F69722ABEB0303BD
:10159000934240F2FB8000F033FD00F003FA00F0CC
:1015A0006FF900F095F9E36A0133E362ECE00023A0
:1015B00013700E4883684FF000415B69984702E75B
:1015C000972400201C220020E0230020E12300209B
:1015D0003022002018080020140800201C080020D9
:1015E000E48000002422002020220020987A0000BD
:1015F000D8F824200132C8F824204FF47E620B92E0
:10160000BDF8A0200A92BDF89E200992BDF89C204A
:101610000892BDF89A200792BDF896200692BDF870
:10162000A2200592189A0492159ACDE90202FF228F
:10163000CDE900A58348114605F0C2FBC4F57E65DF
:10164000ADB2302D28BF302505F1010A52460021E8
:1016500029A806F0D0F922461FFA8AF129A805F038
:1016600077FACDE900459021D8F80430764A36A8BB
:1016700004F04EFD811C8F2903461FD836A8DFF8E1
:10168000CCE1184429AA0B46002112F801CF013100
:101690004FEA1C1A0CF00F0C89B21EF80AA01EF8B3
:1016A0000CC080F800A08D4280F801C006D003F184
:1016B000020CBCF18F0F00F102001AD98F2B28BF4A
:1016C0008F2303F5BC736B444FF000022544604840
:1016D00003F8A02C36A9ACB205F072FBB4F57E6F0E
:1016E000ACD35C4B5C4859684FF47E6205F068FBF4
:1016F0007FE66346C9E70026B1465849584801339A
:101700000B6054498B6A01338B6202F07F013423F2
:101710004B4340F803B0002E3FF422AE80E6514B1D
:1017200018423FF4BCAEE3694E4A01330F20E36137
:1017300005F05BF905F0C4FA2FE5219B1293209B7D
:1017400011931F9BCDE90FE31E9B08931D9B0793ED
:101750001C9B06931B9B05931A9B0493199B039355
:10176000169B0293189B0193FF22159B0093CDE9D2
:101770000910149B3C481146CDE90D7CCDE90B5670
:1017800005F01EFBF0E61A60C5F800B0374A136892
:1017900041F28731ABEB03038B4242D934492068D5
:1017A0000B680860C51A4FF47A7336A85D43C2F817
:1017B00000B041F28833B5FBF3F505F042FABDF80D
:1017C000E4301293BDF8E2301193BDF8DE3010938F
:1017D000BDF8DC302748CDE90E53236A0D93E36A48
:1017E0000C93A36A0B9394F84A300A93B4F84630EA
:1017F0000993B4F844300893236C0793636A069303
:10180000E3690593A36904936369039323690293CE
:10181000E368019363680093FF222368114605F093
:10182000CFFA154B1B7843B1144B1B68ABEB03038A
:10183000B3F5967F01D900F0A7F804F0E3F9FFF7BC
:1018400016BA00BF84800000C18000004B820000F7
:101850007780000030220020D4800000140800208F
:101860001C08002000902724578100002C22002013
:1018700010080020C3810000E02300201C2200206B
:1018800008B5114800F08CFA44F2340005F0A2F8D3
:1018900044F2340005F0A4F84DF6CA6005F0B0F843
:1018A0004BF2FE1005F0B1F8002000F059FA0020CC
:1018B00000F0D2FB0F20054A002105F096F8BDE8A4
:1018C0000840012005F0ADB938060020F8FF2724B4
:1018D00008B500F095FB05F0F3F9002005F078F964
:1018E00020B1034B1A6AD86301321A6208BD00BFE7
:1018F0003022002009280ED9084B1A78412A0AD133
:101900005A78882A07D1B3F803004DF6CA63C31A80
:101910005842584170470020704700BF972400206C
:1019200073B504468368DB6B0BB39847F8B902B014
:1019300070BD2B883288013303F07F0392B293424B
:1019400006D02A880D499DF807002B8092B2885452
:10195000A3681B6933B101220DF1070120469847A6
:101960000128E6D0A368DB6A1BB9054EF0E7054DF8
:10197000F8E7204698470028F7D1D8E7F42300205D
:10198000DC230020DE230020054803691B68002BB0
:1019900083684FF00041ACBF1B69DB68184700BF8C
:1019A000987A000013B500232348019305F008FA44
:1019B00000F08CF8044630B10146204805F000FAEA
:1019C000204602B010BD00F0E5F8044610B1014613
:1019D0001B48F3E701A800F00DF9044610B10146D9
:1019E0001848EBE70199184805F0EAF9174B019AF6
:1019F0009A4205D0164805F0E3F96FF00404DFE7DA
:101A0000144805F0DDF900F00FF9044610B1014665
:101A10001148D3E7012000F069FB013001D10F48E4
:101A2000E9E700F00BF9044610B101460C48C5E7A0
:101A30000C4805F0C5F9C3E75C8200007A8200001B
:101A400094820000B2820000D38200003001CADE1E
:101A5000EA8200001C8300003383000055830000ED
:101A60006C8300008E83000030B5134B134A89B09D
:101A7000CDE90030CDE90420012304AAB0F5806F40
:101A8000CDE906230546CDF808D0039311D80C4BB9
:101A900019680C48836802AA1C6806ABA047044674
:101AA00020B101462A46084805F08AF9204609B0C7
:101AB00030BD6FF00B04F9E7162900201625002031
:101AC000C0040020C07A0000A183000010B52048A7
:101AD00005F076F91F4805F002FE30B91E4805F002
:101AE0006FF96FF01204204610BD1C4805F0F7FD99
:101AF00008B91B48F3E7194805F0F1FD0028F8D0B4
:101B0000184B194A1A60194A19491160194A1A489A
:101B100013604FF4803104F0A1FD044620B101466A
:101B2000164805F04DF9DEE7154805F049F9154866
:101B30004FF4B01104F092FD044610B10146124872
:101B4000EFE7124805F03CF9114805F039F9CAE70A
:101B5000C5830000C07A0000DB830000987A000093
:101B6000FD830000D804002080841E00C4040020EF
:101B700000127A00C0040020287C00001C840000B1
:101B800044840000307C0000638400008D840000E9
:101B9000AE84000010B5124805F012F911484FF458
:101BA000D01104F05BFD044628B101460E4805F053
:101BB00007F9204610BD022004F06FFD09484FF4DC
:101BC000B01104F04BFD044610B101460748EEE7A2
:101BD000052004F062FD064805F0F2F8E9E700BFD1
:101BE000C3840000307C0000DD840000028500001A
:101BF0002985000038B5044670B1094A094D002313
:101C00000520136013712B602B71FFF72DFF10B9A6
:101C1000D5F80130236038BD6FF01500FBE700BF39
:101C20001629002016250020024B034A1A600020C6
:101C3000704700BFC0040020D8040020024B034AB4
:101C40001A600020704700BFC0040020C4040020B8
:101C50002DE9F843054614461F468618884641B3C9
:101C600002B133B3B6F5806F26D8DFF85490324610
:101C70000021484605F0BFFE32460021114805F01C
:101C8000BAFE2A464146484605F0A7FE2CB1224638
:101C9000394609EB050005F0A0FE04F011FD0446ED
:101CA0003046FFF7E1FE84F31188BFF36F8FBDE884
:101CB000F8836FF01500FAE76FF00B00F7E700BF4D
:101CC00016290020162500202DE9F8430646154662
:101CD0001F468418884659B302B14BB3B4F5806FE0
:101CE00029D8DFF8589016482246002105F083FED7
:101CF00022460021484605F07EFE41463246104805
:101D000005F06BFE04F0DCFC80462046FFF7ACFEDD
:101D1000044688F31188BFF36F8F30B92DB12A467E
:101D200009EB0601384605F058FE2046BDE8F88369
:101D30006FF01504F9E76FF00B04F6E716250020A5
:101D400016290020054B1B68DB6843EAC2330343B6
:101D500043EA81520820002104F047BEEC04002031
:101D600010B500210446042004F0C6FD7CB1094BE7
:101D700004F4FF7203401A4342F00102064B1B6851
:101D80001A61BDE810400021042004F02EBE034A71
:101D90000240F3E701FE47F0EC040020FEFF47F0AD
:101DA0002DE9F843067847784279734B013F042EBA
:101DB00033F812800446FFB200F0C080F31FD3F165
:101DC000000949EB03096D4DE37929680A69002B85
:101DD00040F0B78042F480024FEAD8080A61237AC3
:101DE0008B7222F440320A61237A1B0403F44033DD
:101DF0001A430A610420002104F0F7FD424642F62E
:101E000004012E2004F0DAFD384604F026FE5C4B77
:101E100013F806805B4B072153F828202B2004F091
:101E2000E4FD594B0B2113F808202B2004F0B9FDD9
:101E3000564B0B2113F80920282004F0B2FD544B17
:101E40000C2153F82820282004F0CFFDE279A37953
:101E500003EB42034F4A022132F81320272004F0FB
:101E6000ADFD4D4B042133F81720272004F0A6FDCB
:101E7000E379002B68D164220621272004F09EFD1F
:101E8000E378464A03EB8703082152F823202720F2
:101E900004F0ABFD638913B941F241036381DFF8BC
:101EA000008162892021272004F088FDD8F80020D5
:101EB00008EB47080C21232004F097FD2320B8F8F5
:101EC0000420042104F07AFDA079002851D0E379A0
:101ED000344A2120D25C002104F063FD012203205A
:101EE000617906F00F0343EAC16361783601F6B207
:101EF0008904334301F440210B432179890501F022
:101F0000F8610B4343EA005343EA424200211F2099
:101F100004F06BFD6278A3781343E279520342EA3E
:101F200003422B680021DA60082004F05EFDBDE862
:101F3000F843422200210D2004F033BD4FF0010987
:101F400041E722F4800249E7A378042B0AD110224A
:101F50000621272004F032FD10222621272004F03C
:101F600020FD8DE720220621272004F027FD2822CE
:101F7000F3E70246B4E700BF647E0000EC040020F3
:101F80005E850000607C00005885000056850000DA
:101F9000787C00009A7E0000967E0000387C00006D
:101FA000587C00005385000010F0020208B504D0F0
:101FB000124B1B6801225A75802210F0010116D0C5
:101FC00042F0060200210D2004F0EBFC03210F205B
:101FD00004F0AFFC10F4816F01D1002008BD0D208A
:101FE0004022002104F0DDFC4FF0FF30F6E742F024
:101FF00002020D2004F0D5FCEFE700BFEC04002046
:1020000038B500210E2004F077FC054604F058FB9B
:102010000022114604460E2004F0E7FC4022002175
:102020000D2004F0BEFC0A4A00210F2004F0DDFC64
:1020300004F0BDFD2A4600210E2004F0D6FC204607
:1020400004F046FB034B1B6800225A7538BD00BFE5
:10205000F8FF2724EC04002070B503210546042076
:1020600004F092FC0E4E044695B12A4600210C2045
:1020700004F0A4FC3268136943F08053136144F008
:102080001002D2B2BDE870400321042004F089BCE4
:102090003268136923F08053136100F0EF02F1E717
:1020A000EC04002008B504F077FD002211462C2036
:1020B00004F084FC002206212C2004F072FC04F0C1
:1020C000BFFC00220321362004F06BFC012004F049
:1020D00004FBF0220321362004F063FC024B1B6852
:1020E00000225A7508BD00BFEC0400202DE9F04124
:1020F000624D2B680027C3E90A77C3E90C775F615B
:10210000044604F00AFC5E4B9842014640F0B2805F
:102110005C4804F055FE14F002064AD014F0F808AA
:102120006FD004223946242004F03BFC30212820C3
:1021300004F0E2FBB0F1883F1FBF2A68D38A43F462
:102140008053D38204F00A030A2B60D11E2004F0CE
:1021500061FC2B68C0F30720D87214F010002F68C0
:1021600002D0062004F056FC386014F020002F68DE
:1021700002D0072004F04EFC14F0400278604AD0F0
:10218000082004F047FC2B68187214F0800245D038
:10219000092004F03FFC2B685872002E67D1E2073B
:1021A0003FD504F0E7FC2A68D38A43F40063D38266
:1021B00042E0FFF777FF304604F064FC042231462A
:1021C000242004F0EEFB042004F024FCC0B248B14B
:1021D000022212212D2004F0E4FB2A68D38A43F462
:1021E0008053D3821E2004F015FC2B6810F01F0FC3
:1021F000C0F3072208BF1020DA72C0B204F06DFDF0
:10220000ABE7404604F03EFC042241468BE72B68D6
:102210000022DA72A1E72B681A72B6E72B685A72AD
:10222000BBE70521362004F084FB20F4007292B253
:102230000521362004F0C2FB012004F023FC00221B
:102240000A212C2004F0ADFB002104202C6804F0AE
:1022500053FB20612C68638A03F00303A3720021FF
:10226000082004F049FBE0600020BDE8F08163072E
:10227000E2D498E74FF0FF30F7E700BFEC0400200E
:102280003001CADE42850000014B1B68184700BFC1
:10229000F0040020014B1860704700BFF0040020DC
:1022A00030B585B004460D4610220021684605F081
:1022B000A2FB02238DF802302A46044B01932146EB
:1022C000684603F051FF05B030BD00BF8922000011
:1022D00080B505460E461746984603F033FD034683
:1022E00005F09AFBDFF81890044649F800304246A2
:1022F00030463946A84754F8090000F021FB00BFDA
:10230000080000002DE9F047058B04462807904699
:1023100011D4022905F0070540F0CC80204604F0D6
:102320005CFD78B10138218B042811D8DFE800F07A
:10233000C2106D85950001290CBF45F0100545F0D0
:102340002005258388F31188BFF36F8FBDE8F087E0
:1023500001F0070AAA4500F0A5800027B9463E46CD
:10236000A368002B00F0BC8041F00801218388F3B2
:102370001188BFF36F8FA168002900F0BA800D6843
:10238000002900F0B680D1F804803346524620463A
:10239000C047002D76D02B6829461D46F0E701F096
:1023A00007035A1F012A1BD8002221F00701062B20
:1023B000276889B2C4E9002209D13B4603E0628B59
:1023C000013262831B68002BF9D141F002012183A5
:1023D000204604F002FD00287AD041F0200176E08A
:1023E000042B0AD121F0070189B22183204604F091
:1023F000F4FC10B141F020012183218B01F0070A88
:10240000AA454FD00027B946AAE7236921F0070162
:1024100041F00601062DD3F8009021832DD1B9F1AA
:10242000000F3FD041F00801218388F31188BFF3EA
:102430006F8F3A492046C84729E021F007012369F8
:1024400041F0040189B2042DD3F804902183E6D031
:1024500000273E464FF0040A82E721F00701236976
:1024600041F0050189B2052DD3F808902183D6D01B
:1024700000273E464FF0050A72E700273E464FF020
:10248000060A6DE72B4687E7B9F1000FD1D1EFF3CC
:102490001188202383F31288BFF36F8F238B23F0DF
:1024A00008032383258BEA062ED525F0100323830A
:1024B00005F007056669218B002EBFF670AF00237B
:1024C0002768C4E9003321F0070141F001012183AD
:1024D000218B01F0070AAA454FF000097FF440AFB5
:1024E000002F9CD041F00801218388F31188BFF3AD
:1024F0006F8F002FC8D03D6839463346524620467C
:1025000004F097FC2F46F4E7AB067FF51BAF25F0F0
:102510002003238305F0070500E700BF5F6E00007E
:10252000014B036000207047907C000008B5044810
:1025300004F046FCBDE80840024804F041BC00BF7E
:10254000668500009B85000030BFFFF7FDBF00BF20
:102550002DE9F0410B4EDFF8308006EB0807CC1B6D
:10256000054632460949204605F037FAA019424689
:102570000021083C05F03FFA2C6707F10800BDE890
:10258000F08100BF0000000004000000207C00007B
:10259000074A936893F90E10002907DB52699342AA
:1025A0001FBF044A536843F080535360704700BF15
:1025B000AC23002000ED00E0134B9A6A12F0007F7C
:1025C0009A6A14BF1E201D2012F0807F9A6A18BFDD
:1025D0001F2012F4002F9A6A18BF212012F4802FB6
:1025E0009A6A18BF222012F4003F9A6A18BF23206B
:1025F00012F4803F9A6A6FEA02426FEA12429A62CC
:1026000018BF2420704700BF00ED00E010B5194B43
:102610000246986A9C6A10F4805F14BF1720162047
:1026200014F4006F9C6A18BF1820A40509D5986B94
:10263000986A000404D51AB19A6A22F400429A6298
:1026400019200C4B9A6A12F4806F9A6A18BF1A20EC
:10265000D2050CD49B6A13F4005F18BF1C20054AF6
:10266000936A43F47F43936200230B7010BD1B20D9
:10267000F5E700BF00ED00E010B51C4B0246986A7C
:102680009C6A10F0100F14BF1120102014F0080FD6
:102690009C6A18BF1220A40709D5586B986A0006D7
:1026A00004D51AB19A6A22F080029A6213200F4B65
:1026B0009A6A12F0010F9A6A18BF142012F0200FC4
:1026C0009A6A18BF1520D40658BF9B6A074B9A6AAE
:1026D000920642BF5A6A22F400525A629A6A42F043
:1026E000FF029A6200230B7010BD00BF00ED00E0F6
:1026F000F0B5474B5B688BB00446C3F30803002575
:1027000085F31188BFF36F8F02F07F40B0F17F4FE8
:1027100011D102F00C0008280DD010074CBF0C4658
:1027200001250022033B8DF80720032B05D8DFE8A5
:1027300003F02462665F2C46F3E700239DF8072030
:10274000CAB902AE04F1200720686168324603C2AC
:102750000834BC421646F7D1099A002D53D0C2F373
:10276000080121B96FEA52226FEA4222099202A9B6
:10277000184604F00AFC0BB0F0BD254BDA6A91074D
:10278000DBD4DA6A002AD8DBDA6A5200D5D55A6976
:10279000A16942F480725A61BFF34F8FBFF36F8F0C
:1027A0005A6931F8021C22F480725A61BFF34F8FCC
:1027B000BFF36F8F4DF60272914209D09A6AD2B27E
:1027C00042B10DF107010120FFF756FF0346B5E7BF
:1027D0002368B3E79A6A12F47F4F05D00DF1070121
:1027E0000120FFF713FFF1E79B6AB3F5803FA4D305
:1027F000FFF7E2FEEAE70DF107010020E4E70DF143
:1028000007010020EDE722F4FF7222F00102ADE79C
:1028100000ED00E0044B5A6942F010025A615A6917
:1028200022F008025A61704700ED00E0EFF30880E3
:10283000EFF3098101B57246FFF75AFF01BD00BFF2
:10284000002080F31488BFF36F8F01F0FBFD0020A0
:102850000D490860BFF34F8F0C4880F3088800F0E3
:102860003DF8202080F3118809484FF4006140189A
:1028700080F30988EFF314800221084380F3148861
:10288000BFF36F8F00F01CF994ED00E0603E002074
:10289000202D0020BFF34F8F0549064BCA6802F474
:1028A000E0621343CB60BFF34F8F00BFFDE700BF73
:1028B00000ED00E00400FA050749D1F8902000235C
:1028C000C2F307221846934200DB7047C1F89830E4
:1028D000C1F8A0000133F6E700ED00E008B572B6DC
:1028E000002383F31388FFF7E7FF144B4FF0FF3209
:1028F000C3F88020C3F88420C3F88820C3F88C2054
:10290000C3F89020C3F89420C3F89820C3F89C2003
:10291000C3F88021C3F88421C3F88821C3F88C212F
:10292000C3F89021C3F89421C3F89821C3F89C21DF
:1029300062B6BFF34F8FBFF36F8F08BD00E100E0B9
:10294000084B9B6883420BD1EFF3058343B1064BE1
:102950005A6842F080525A605A6A22F400425A621F
:1029600004F09BBFAC23002000ED00E0094A93680F
:102970006FF00A019967084958674B6843F0805324
:102980004B60002383F31188BFF36F8F9368986FB8
:10299000704700BFAC23002000ED00E0EFF311838F
:1029A000202383F31288BFF36F8F094A5369936022
:1029B000084A4FF000615160074A196F1160002109
:1029C0005A6F596782F31188BFF36F8F704700BF4A
:1029D000AC23002000ED00E0B42200200B498A68FF
:1029E0004FF030001044EFF3098C80E8F01F74467C
:1029F0007046FFF7D3FFA64604498A6802F130000B
:102A000090E8F01F8CF3098870470000AC23002089
:102A10001EF0040F0CBFEFF30880EFF3098081690B
:102A200011F8021C0229FFD001B504F0B4FA01BD6F
:102A300040B2002807DB044A4109012300F01F00CF
:102A4000834042F82130704700E100E040B20028A6
:102A50000CDB4309064900F01F00203301228240AD
:102A600041F82320BFF34F8FBFF36F8F704700BF34
:102A700000E100E0054B420900F01F0053F822205E
:102A8000012303FA00F01040704700BF00E100E0AE
:102A900040B20028A8BF00F1604001F10101B8BFB9
:102AA000064B4FEA4111ACBF00F5614000F00F004A
:102AB000C9B2B4BF195480F80013704714ED00E098
:102AC0000B4A08B50B4B22F07F029A60BFF34F8F81
:102AD000BFF36F8FD3F8882022F47002C3F88820E8
:102AE00002F080FD03F0BAF900F048F802F0BAFDF8
:102AF0000000000000ED00E042F8203C009B42F89E
:102B00001C3C0A49019B42F8183C029B42F8143CC9
:102B100021F001014FF0807342F8043C42F8081C98
:102B20000023203A02654367704700BFD1220000AE
:102B300000B50B4B98600B4B0E46016F19601546A4
:102B40002C4686F309884FF00000074B9847204633
:102B50004FF000014FF000024FF00003034C2047FC
:102B6000AC230020B4220020B56F0000D122000069
:102B7000014B10221A61704700ED00E00448002369
:102B80002021C2180133272B82F80013F9D1704796
:102B900000E100E008B5EFF30583064A103B02EBC5
:102BA000C30152F8330049688847BDE80840FFF781
:102BB000EFBC00BFE87A0000024B034A0348012142
:102BC00000F066B80000012000000020907C0000AA
:102BD000084AC2F898000B6823F01F03034343F030
:102BE0001003C2F89C308B6843F00103C2F8A03098
:102BF000704700BF00ED00E02DE9F043DFF8608092
:102C000085B00E461F4604464FF00009B14523DA51
:102C10006068D8B13FB1411E08421BD11F2819D9A5
:102C20002368194216D12368019304F0E6F9A368DA
:102C300003430393D8F89050C5F30725D0B2013D64
:102C4000A84207D801A9FFF7C3FF421C09F10109F7
:102C50000C34DBE76FF01502104605B0BDE8F083D9
:102C600000ED00E0044B0522C3F89420BFF34F8F22
:102C7000BFF36F8F704700BF00ED00E0BFF35F8FC1
:102C8000024B0022C3F89420704700BF00ED00E023
:102C900010B5034C01232278FFF7AEFF207010BD62
:102CA000162D00202DE9F043534B544CD3F89030AF
:102CB0002568C3F307239D4285B000F29A80FFF791
:102CC000DDFF00200C2685421AD14D4C4D4F25705A
:102CD0006846FFF725FCDFF82081DFF82C910646D7
:102CE0000025AE4213D1237843490020D1F890202B
:102CF000C2F30722934276DBFFF7B4FF002042E0E5
:102D0000616806FB0011FFF763FF0130DBE7009805
:102D100000EB05114FEA051CCB683B40B3F5000FF3
:102D200048D00AD8B3F5001F30D0B3F5800F36D0A5
:102D3000B3F5801F10D00135D3E7B3F1807F42D0C7
:102D4000B3F1007FF7D150F80C3088684A6804F07E
:102D500054F940F4802009E050F80C3088684A6843
:102D600004F04BF940F0885040F43020CDE90123C5
:102D70000390D8F890302078C3F30723013B9842A2
:102D80002AD96FF0150005B0BDE8F08350F80C307B
:102D900088684A6804F031F940EA0900E6E750F82B
:102DA0000C3088684A6804F028F940F0E06040F48C
:102DB0000030DBE750F80C3088684A6804F01DF9F1
:102DC00040F08270D2E750F80C3088684A6804F00E
:102DD00014F940F08870C9E701A9FFF7F9FE2378DC
:102DE00001332370A7E7C1F89830C1F8A000013380
:102DF0007CE74FF0FF30C6E700ED00E09C7C000070
:102E0000162D00200000F0FF0000081108B5024B4D
:102E10001B689847002008BDB8220020034B044AD5
:102E20001860937843F0020393707047B822002033
:102E3000F404002008B50649064821F00701C1F155
:102E4000005202F5803203F07CFF002008BD00BF75
:102E5000673E0020BC220020044A0123C2F840350E
:102E60004FF080420020C2F87835704700E0014002
:102E700020B1034B800143F001031847704700BFA6
:102E8000207C0000084B70B5C31A0D4607499B1003
:102E9000044659430648402204F0CDF82B4601462B
:102EA0002046BDE870401847DC220020B76DDBB635
:102EB000847A000073B50C4C0C4A4023041B009329
:102EC0000D460B460A49A41061430646094804F022
:102ED000DEF8011E05DA30462B4602B0BDE8704030
:102EE000184702B070BD00BFDC220020F97000005E
:102EF000B76DDBB6847A0000002270B5012104466C
:102F00001046FFF7C5FD0F4801F07EFC0E4B9842BE
:102F100015D101F089FC26690C49304603F0ACFF5D
:102F200000280BDB012535642469084904F11C00E5
:102F300003F0A2FF002801DBE564002070BD6FF004
:102F40000400FBE7A13000000000AD0BBC7C0000DA
:102F50001FB500220123CDE90223094ACDF800D094
:102F60006B46CDF804D004F0C0F8002805DB4FF420
:102F700080420023684602F007FC05B05DF804FBC0
:102F80001171000010B5074C23782BB94FF4A570D0
:102F900004F0A0FB01232370BDE81040002001F0E5
:102FA00055BC00BF172D002010B5EFF3118420236E
:102FB00083F31288BFF36F8F074A136823F002016F
:102FC000DB07116002D4012004F040FA84F3118879
:102FD000BFF36F8F10BD00BF2C23002030B4104B07
:102FE0000C2202FB003301460020D3E90E52986305
:102FF000EFF31180202484F31288BFF36F8F1C6CD1
:1030000004F0C00444F002041C6480F31188BFF390
:103010006F8F1DB12B46034830BC184730BC70473A
:10302000DC220020847A000010B4EFF31182202308
:1030300083F31288BFF36F8F1748016841F00204D1
:103040000460C80707D482F31188BFF36F8F012093
:1030500010BC01F0FBBB4FF08041D1F80C04D1F85B
:103060000C14C907EFD5EFF3118083F31288BFF377
:103070006F8F0A490B6C03F0C00343F002030B642B
:1030800080F31188BFF36F8F82F31188BFF36F8FC6
:10309000002010BCFFF7A2BF2C230020DC22002060
:1030A00010B1012804D07047034B1B6C5B0701D1A2
:1030B000FFF794BF704700BFDC2200202DE9F041EC
:1030C0003849BFF35B8F0746012251E8003F41E8D2
:1030D00000200028F9D1BFF35B8F33B93249334860
:1030E0004B60CB608A6003F0DAFE7B1E012B2BD88D
:1030F000012F07D14FF08043D3F81C3403F00303B2
:10310000012B21D004F01EFB0546F8B9284B1B7893
:10311000E3B14FF080430222C3F808230646DFF8EC
:1031200094804FF08044D4F81824D4F81834D20393
:1031300015D503F00303012B01D0012F0FD155B397
:1031400086F31188BFF36F8FBDE8F081EFF311862E
:10315000202383F31288BFF36F8F0125DFE7ADB122
:10316000304603F03BFFD4F81835002BDBD1D4F800
:103170000421002AD7D0C4F80431D4F80431012343
:10318000C4F81835C8F88031A360CCE700212120AD
:1031900002F0BAFDE7E74FF080430222C3F80423B0
:1031A000D2E700BFD8220020C8220020F822002049
:1031B0001B2D002000E100E010B5044C2046FFF775
:1031C00069F82046FFF72AFE002010BDD13100002B
:1031D00073B5104E8DF807000446032501220DF14A
:1031E0000701002002F054F920B10123337020467A
:1031F00002B070BD3378002BF9D0013D08D004F047
:10320000A1FA0028EAD10021422002F07DFDE5E785
:103210003570ECE7182D002008B5074804F05FFA78
:1032200038B10648FFF7FAFD0448FFF733F80020ED
:1032300008BD6FF01200FBE7AC7A000041320000DD
:103240000A2838B5074D044604D1AB680D215B68E8
:1032500028469847AB6803485B68E1B29847204628
:1032600038BD00BFAC7A000038B545682B69B3B1F2
:103270001035284601F0E6FD044680B9014628468F
:1032800001F0ACFD084B98420BD108492246284674
:1032900001F08CFD224605210620FFF7F9FB0020F6
:1032A00038BD6FF00400FBE70000AD0BB132000049
:1032B000430970B507D10B4B596821B101250C6842
:1032C000094E854001B970BD8A682A4002D04B681A
:1032D000304698471CB1236821461C46F2E7234636
:1032E000FAE700BF30230020987A00002DE9F04370
:1032F000476840F20636D0063B7B87B002EA0606F6
:1033000054BFC2F34010032001F01F05B6F5837FC0
:10331000144645EA43158DF8030043D00FD8062E16
:1033200018D007D8B6B1022E3ED06FF0150007B006
:10333000BDE8F083B6F5807FF7D101260AE040F2C0
:103340000222964232D0B6F5407F31D0B6F5007FEA
:10335000EBD102260123220303FA01F12AD57B686F
:10336000C3F808153B695BBB05F01F026D0974D1FA
:10337000920002F1A04284F48031D2F80037C1F308
:103380000041C4F3404423F4E16344EA410423F0E0
:1033900007031C4344EA800444EA0624C2F80047B9
:1033A0000020C4E70726D5E70426D3E70526D1E7A2
:1033B0000326CFE7630344BF7B68C3F80C15D1E74E
:1033C00010370DF102022946384601F0F5FC14F4DD
:1033D000403F80460CD12946384604F0A9F8214BDD
:1033E0009845DDD19DF80210384601F035FDD7E74C
:1033F00001AB4FF0000903AA29463846CDE904394C
:10340000CDE90199CDF80C9001F0AAFB154B98423B
:103410008BD114F4003315D09DF803308DF80E30A5
:1034200084F48034C4F300444B4603AA294638464A
:103430008DF80C608DF80D4001F042FC094B98426C
:10344000CDD072E7CDE9043303AA0DF10303294679
:103450003846039301F084FBF0E702F5E07253F87D
:103460002230FFDE0000AD0BF0B54068057B01F0B7
:103470001F0444EA4514056987B0002D60D0B2F5F9
:10348000001F00F1100506D12146284604F052F82D
:10349000002007B0F0BD01AE0027B2F5800F019704
:1034A000776038D1B3F1007F14BF052304238DF872
:1034B00004300023CDE904630393836823FA01F108
:1034C00011F0010119D1B2F1A07F16D104F01F0350
:1034D000620903F5E07339D14FF0A04252F823306E
:1034E000DB070AD40DF1030632462146284601F0D7
:1034F00063FC184B984219D0029603AA214628462D
:1035000001F02EFB144B98421DD101222146284682
:1035100001F0AEFCBCE7B3F1C06F05D0B3F1007FA2
:1035200014BF01230223C2E70323C0E73146284624
:1035300001F098FC084B9842DED06FF00B00A8E732
:103540006FF08500A5E76FF01500A2E751F8233072
:10355000FFDE00BF0400AD0B0000AD0B2DE9F04312
:103560005B4E5C4F00EB810140F2FF15814202D1BE
:103570000020BDE8F083046814F4804FC4F3C32C2A
:10358000C4F3080340F09080240E16F80CC0AB4240
:1035900008BF4FF0FF33192C00F28980DFE804F0F8
:1035A0000D13191C1F251C8787878736638787871C
:1035B000878787878787667B7E81C2F80C355C1C8E
:1035C0005ED10430D2E7C2F814355C1CF9D0002477
:1035D0005FE0C2F80835F2E7C2F81035F5E75C1C89
:1035E000C2F80835EDD0002404E05C1CC2F80C35AC
:1035F000E7D001245FEA531E5CD14FF001084FF081
:10360000A04E08FA03F9CEF80C950AE0C2F8083586
:10361000BCF1000FD9D15C1CD3D00024A0464FF0E0
:10362000060CD0F8009009F4004EBEF1000F1CBF4C
:103630004FF00008012403F01F0E5B0942D14FEA4E
:103640008E0E0EF1A04EC9F34129DEF800373B4043
:1036500043EA890343EA0C2343EA080343EA4403A9
:10366000CEF80037ADE7C2F80C35D1E7C2F86035C7
:10367000B3F1FF3F0468A4D0C4F30044002CB8D0D9
:103680005C091BD101244FF0A04E04FA03F8CEF8D8
:103690000885A046C5E7C2F86435E9E7C2F8683591
:1036A000E6E7C2F86C35E3E76FF0150061E76FF00D
:1036B00085005EE70023C3F80C35FFDE0023C3F866
:1036C0000835FAE70EF5E07E002353F82E30F4E7D4
:1036D000F5850000F0F8FCFF054BD3F81C312BB941
:1036E000044B1878003818BF01207047012070473C
:1036F000002000401A2D0020074BD3F8082142B1CA
:103700000020C3F80801D3F80821D3F818350B704E
:1037100070474FF0FF30704700200040024BD3F855
:103720008004C3F8800470470020004070B5002377
:10373000084C1E46D8B2824203DDD4F8085101334A
:1037400005B970BDC4F80861D4F80851D4F818550B
:103750000D54EFE7002000400D4B00221A700D4B76
:1037600001229A608022C3F80423EFF31183202200
:1037700082F31288BFF36F8F074A12781AB1074A93
:103780000421C2F8001183F31188BFF36F8F7047D3
:10379000192D0020002000401A2D002000E100E03B
:1037A000014B01221A707047192D0020024B042290
:1037B000C3F80423704700BF00200040024B0422DE
:1037C000C3F80823704700BF0020004008B5074B2E
:1037D000D3F8040310F0800004D0054B1B7813B914
:1037E000FFF77AFF08BD0020FCE700BF0020004083
:1037F000192D0020034BD3F80801003818BF012011
:10380000704700BF00200040024B4FF40072C3F825
:103810000423704700200040024B4FF40072C3F8AD
:10382000082370470020004008B50B4AD2F8043343
:103830001B0605D4D2F8040310F0040006D108BD1D
:10384000FFF7C4FF0028F5D00120F8E7D2F80801FF
:10385000003818BF0120F2E700200040024B196039
:10386000024B1A60704700BF442300204023002011
:103870000E4A0F4B117851B1D3F81C1139B1802188
:10388000C3F808130121D960002313707047D3F8DF
:10389000242122B10022C3F82421D3F82431054B7E
:1038A0001B6813B1044A116818477047192D00208E
:1038B000002000404423002040230020F8B50E469D
:1038C00003F040FF1B4D90BB64240127BFF35B8FC7
:1038D00055E8003F002B03D145E80072002AF7D1DC
:1038E000BFF35B8F07D021200021013C02F00CFACE
:1038F00014F0FF04EAD1104B0022C3F81C21D3F8C6
:103900001C110E490A7001229A604FF47A74C3F8B0
:103910001C65FFF7E1FE20B9012003F095FD013C95
:10392000F7D1054B0122DA6000232B60F8BD01239B
:103930002B60E0E73C230020002000401A2D0020EF
:1039400073B55F4A436804690021C2F800151E6818
:10395000054601AA304603F033FC0028C0F28C80F3
:10396000019B326819791868FFF7F8FD0028C0F24A
:1039700083806379012B1CD1A379032B19D1E379BF
:10398000BBB9217911B1022913D10E212368B3F5F6
:10399000164F73D02BD8B3F5165F71D014D8B3F58A
:1039A000966F6FD008D8B3F5967F6ED0B3F5167FBB
:1039B0006ED06FF085005FE0B3F5166F6BD0B3F596
:1039C000965FF6D13F4B39E0B3F5E14F66D007D8AB
:1039D000B3F5615F64D0B3F5964FEAD13A4B2DE071
:1039E00047F612229342E4D14FF4000326E0B3F5E8
:1039F000613F58D011D8B3F5963F56D008D84DF650
:103A0000C022934253D0B3F5614FD2D12F4B15E072
:103A1000B3F5E13FCDD12E4B10E0B3F5612F49D086
:103A200007D82C4A934247D0B3F5E12FC1D12A4B96
:103A300004E02A4A9342BCD14FF08053204A2D69BA
:103A4000C2F82435C2F86C1594E8030085E8030039
:103A500000240423C2F80035C2F80841D2F8083126
:103A60001F4B01211160022022461970FFF710F848
:103A70000220FEF7DDFF204602B070BD194BDDE7E6
:103A8000194BDBE74FF49E23D8E74FF4A033D5E77B
:103A90004FF41C33D2E74FF41D23CFE7134BCDE790
:103AA0004FF46C13CAE7124BC8E7124BC6E74FF44A
:103AB0006503C3E7104BC1E74FF08063BEE700BF6B
:103AC0000020004000B0130000A04E0000F0EB000A
:103AD00000E0D70190D0030000705F0740420F0064
:103AE0001A2D002000509D000050270000F07500A6
:103AF00000B0AF0300903A0100D0BE0E2DE9F041B6
:103B000000240C4EDFF830802746E5B2AA4203DDE0
:103B1000FFF7E2FD013410B92846BDE8F081C6F890
:103B20001C71D6F81C314B5D88F80070C6F81C3546
:103B3000EBE700BF002000401A2D00207FB50546AE
:103B4000406829698A6C0B6D0ABBABB14C6C8B6504
:103B500016461A46C96C0291CDE9004611B3002BF6
:103B600018BF134600226946039301F0A3FB0E4BD6
:103B700098420AD06FF004032C69236304F12000FB
:103B800001F0DEFD002384F85C3004B070BD4C6CA5
:103B900013B19A4228BF1A46002C8A6514BF1646F4
:103BA0000026D7E70B46DDE70000AD0B2DE9F04F0F
:103BB00089B00E460093436801938B880469990489
:103BC0000746914600F122814FF0FF324FF0FF335C
:103BD00004F1100001F0D8FD6660D7F81080D7F826
:103BE00004A098F85D301BB1D8F800309E4279D01F
:103BF000B6F804C01CF4006F40F03F811CF0090FC0
:103C000040F03881CCF34513082B40F03381356800
:103C1000AF4B9D4240F22E810AF1080BBBE80F002A
:103C20000DF10C0EAEE80F00DBF80030CEF80030DE
:103C3000A84B9D4240F2F380A74B9D4240F2F28098
:103C4000A64B9D4240F2F180A54B9D4240F2F08090
:103C5000A44B9D4240F2EF80A34B9D422CBF4FF0FE
:103C600000454FF080451CF0020F05950CF0040351
:103C700000F0E480002B14BF032302238DF81830DA
:103C8000CCF300138DF81930DAF80030D3F808259A
:103C90001CF0020FCCF340014FEA52104FF0010329
:103CA00040F0D080002840F00B8193404FF0A042BC
:103CB000C2F80C3598F85D302BB1504601F0C2FACD
:103CC000002388F85D304346884A03A9504601F036
:103CD00085FA874B984240F0BD80012388F85D301B
:103CE000C8F80060012384F85C30019B596A4A1CC3
:103CF00003D003F1280000F02DF9B9F1000F40F0D6
:103D0000BF80C4F834900023A36304F1480204F197
:103D1000380104F1340003F072FA009B6064002B58
:103D200040F0B780E3630023236404F1500204F100
:103D3000400104F13C0003F062FAE06420680023D3
:103D4000236348B183683BB10121083003F06AFA6C
:103D50002368186903F0BEFC3846FFF7EFFE002227
:103D6000A06B1346834240F09D800023256C1946CA
:103D7000A94240F09E809342264638BF13464FF436
:103D8000FA5202FB03F556F8203B4FF000081B687F
:103D9000B5FBF3F54FF4004CC835414640F2E7302F
:103DA0004FF47A720023E5FB0C01FCF78FFD02460D
:103DB0000B46304601F0E8FC18B9256B15F1740F7D
:103DC00013D10198C4F8588001F03CFA84F85D8062
:103DD0003F696FF073053D6307F1200001F0B0FC0F
:103DE00087F85C80304601F0F5FC2368A3B39A683D
:103DF00092B3998811F480562ED1186903F06AFCA9
:103E000020683146083003F00DFA25E0A369002B45
:103E10007FF4DAAE63689E427FF4D6AEDDE64FF003
:103E2000007520E74FF080651DE74FF000651AE749
:103E30004FF0805517E74FF0005514E7003B18BFCF
:103E400001231BE700283ED193404FF0A042C2F867
:103E500008352FE76FF0040523689B8813F400539F
:103E600004D1636004F1100001F06AFC284609B037
:103E7000BDE8F08F6FF01505EEE76FF08505EBE715
:103E8000D9F800306363002B3FF43DAFD9F804301C
:103E90003AE7009B1B68E363002B3FF444AF009BB1
:103EA0005B6841E7616B01EBC301013349680A4478
:103EB00058E7E06B00EBC10001314068034457E76D
:103EC000C1F80C15FFDE0023C3F80835FAE700BF80
:103ED00047E801008FD003001FA107003F420F00F9
:103EE0007F841E00FF083D0000127A006773000007
:103EF0000000AD0BF0B587B001238DF8023002232E
:103F00008DF804306B4403930F4601AB0DF10301B0
:103F10000024049305460291059400F0A3FF0C4B86
:103F2000984206460FD103AA3946284600F018FEEB
:103F3000B0420BD09DF80310284600F08DFF6FF0C3
:103F4000040007B0F0BD6FF01200FAE72046F8E772
:103F50000000AD0B2DE9F0410D46064603F0ECFAEA
:103F6000002207462946304600F082FF6B0905F023
:103F70001F0429D1A40004F1A044164BD4F8002753
:103F8000134043F00C03C4F8003703F046FA8046B0
:103F90003368DB597BB100273046294603F0CAFA63
:103FA000D4F800270B4B134043F00403C4F8003748
:103FB0003846BDE8F08103F030FAA0EB080006288F
:103FC000E6D96FF07307E7E704F5E074002353F8D0
:103FD0002430FFDEF0F8FCFF70B5012383400E4A69
:103FE000BFF35B8FDC4352E8001F01EA040542E89F
:103FF0000056002EF7D1BFF35B8F4FF48032824022
:104000000648C0F80823BFF35F8FBFF36F8F0B42E2
:1040100014BF0120002070BD4C230020001001407F
:1040200070B40E49D1E90034D01AC31844F1000429
:1040300022F07F46C1E90034A6F50013B3F5400F26
:1040400009D2074B1B681A0A1B069C19054B42F143
:104050000005C3E9004570BC01F0DABF600600202E
:10406000502300206806002011B3BFF35B8F0123AB
:10407000104A834052E800CF4CEA030C42E800C1EA
:104080000029F7D1BFF35B8F0B4A4FF48033834095
:10409000C2F80433094BBFF35B8F1B68BFF35B8F20
:1040A000C340DB0742BF064B4FF40032C3F8002188
:1040B000704700BF4C23002000100140482300201F
:1040C00000E100E00D4B1868010A0006BFF35F8FA6
:1040D0000B4BD3F80435181841F10001B3F5801FDC
:1040E0000AD2084BD3E90023904271EB030303D2B9
:1040F00010F1807041F10001704700BF5023002093
:1041000000100140680600202DE9F04F85B01646EA
:104110001F469DF840A00446FFF75EFF0190FFF7A1
:10412000D1FFB04271EB070354D23E4B301A67EB1C
:104130000101984271F100014FD23B4B03EB041394
:10414000D3E902239F4208BF96425ED037494FF41D
:10415000803804F1500508FA04F8AD00C1F848832E
:104160002046ADB203F04DF926F07F4B05F18045B6
:1041700004F5A87305F58835DC464FF00309029372
:10418000029A2CF07F4341F82230C1F84483D1F8E1
:104190000435274A6FF00200C01A604420F07F40C7
:1041A000904232D9286868B1D1F804350393A3EB63
:1041B0000B0020F07F40B0F5000F26D9204603F019
:1041C00020F9039BBAF1000F07D109EB030C09F1A9
:1041D0000109D5E7BAF1000F09D06FF015052046A7
:1041E0000199FFF741FF284605B0BDE8F08F012394
:1041F000104ABFF35B8FA34052E8000F184342E818
:1042000000010029F8D1BFF35B8F07490E98230105
:1042100001EB0412C8500F9B5360C2E902670025EE
:10422000DDE700BF010080005006002000100140C3
:10423000FDFF7F00482300207FB51C4C1C4BC4F8B9
:104240000833C4F848331B4B00254FF0FF304FF0C4
:10425000FF31C4F80855C3E902014FF48033C4F8B4
:104260000433154B02264FF400320121C4F80463D5
:104270001120C3F880212A46FEF70AFC1120FEF720
:10428000D7FB0E4A0123A360236013600C4B0D4A39
:104290000093CDE9015500232846FFF735FF30464E
:1042A000FEF70CFF284604B070BD00BF00100140AF
:1042B00003000F005006002000E100E04C23002026
:1042C00021400000FFFF7F002DE9F7432F4CD4F879
:1042D000043399070BD5D4F8043143B12C4A002399
:1042E000C4F80431D4F80431136801331360D4F8EE
:1042F0000433DA0329D5BFF35B8F264B53E8002F35
:1043000022F0010143E800100028F7D1BFF35B8FD2
:10431000D30702D4D4F84031BBB10025C4F84051D2
:10432000D4F84031FFF7CEFEEFF31182202383F360
:104330001288BFF36F8F184BD3E90267B042B941BF
:1043400006D282F31188BFF36F8F03B0BDE8F0830C
:104350004FF0FF384FF0FF39C3E90289D3E900106D
:104360001D604FF48033C4F84833C4F84051D4F88A
:10437000403182F31188BFF36F8F0029E5D00090A0
:1043800032463B4628468847DFE700BF0010014021
:1043900050230020482300205006002030B5431C45
:1043A000124C85B005D08442A8BF0446012CB8BF8A
:1043B0000124FFF787FE0E4B0C4DD3E90013401A82
:1043C000B0F5000F10D22218AA4228BF2A46521870
:1043D0004FF0000007490091CDE9010043F10003CF
:1043E000FFF792FE05B030BD2A46F0E7FFFF7F00E1
:1043F000600600202140000008B5FFF763FE024B75
:104400001B68C01A08BD00BF600600204FF0704353
:1044100093F8E02F062A09D1D3F8E83FC3F303133A
:10442000033B042B02D8024AD05C7047002070473F
:1044300034860000024AD2F80034002BFBD07047CB
:1044400000E0014010B502F0F0FF40B14FF08053A2
:104450008E4AD3F82433C3F30423C2F84035FFF760
:10446000D5FF10B18A4B8B4A5A6702F0DEFF48B184
:104470004FF080534FF08042D3F84432C3F34233BD
:10448000C2F83C35FFF7C2FF30B1834AD2F8FC30A6
:1044900023F08073C2F8FC3002F0C7FF40B14FF048
:1044A00080430022C3F80C21C3F81021C3F838253B
:1044B000FFF7ACFF20B14FF080430322C3F8A025E3
:1044C000FFF7A4FF60B1754B0522C3F81026012247
:1044D000C3F888260022C3F818263F22C3F8142602
:1044E0004FF08053D3F83021511C09BF4FF0704377
:1044F000D3F8343193F8E02FD3F8E83F08BFC3F383
:104500000313062A4DD1033B042B03D8644AD35C22
:10451000002B46D04FF08052624BD2F80414C3F8FF
:104520002015D2F80814C3F82415D2F80C14C3F8D7
:104530002815D2F81014C3F82C15D2F81414C3F8A7
:104540003015D2F81814C3F83415D2F81C14C3F877
:104550004015D2F82014C3F84415D2F82414C3F837
:104560004815D2F82814C3F84C15D2F82C14C3F807
:104570005015D2F83014C3F85415D2F83414C3F8D7
:104580006015D2F83814C3F86415D2F83C14C3F897
:104590006815D2F84014C3F86C15D2F84424C3F857
:1045A000702502F042FF48B14FF080534FF0804237
:1045B000D3F8583203F04F03C2F8E43E02F035FF5F
:1045C00048B14FF08043D3F80024D20744BF6FF0C6
:1045D0000102C3F800244FF08053D3F83021062A9B
:1045E00026D1D3F83431033B042B02D82E4AD35CB6
:1045F00063B12E4AD2F83C3743F48063C2F83C37AB
:104600004FF08053D3F83031062B11D14FF0805347
:10461000D3F83431033B042B02D8254AD35C3BB199
:104620004FF01023D3F808224FF08043C3F85825E9
:104630004FF01023D3F80022002A03DBD3F8043212
:10464000002B22DA1B4901234FF01020C1F804355A
:104650001524FFF7EFFEC0F80042FFF7EBFEC0F8AD
:104660000442FFF7E7FE0023C1F80435FFF7E2FE3E
:10467000BFF34F8F0849104BCA6802F4E06213433E
:10468000CB60BFF34F8F00BFFDE710BD003001408E
:1046900000C007400DF0ADBA00ED00E00050004052
:1046A0002F86000000C000402A8600000010004055
:1046B0002586000000E001400400FA0530B50468DA
:1046C000CCB1BFF35B8FB4FA84F3C3F11F03DBB249
:1046D00001229A4024EA020250E8005FA54204D178
:1046E00040E8002CBCF1000FF6D1BFF35B8FE6D1A0
:1046F00002480B7030BD0248FCE700BF0000AD0B64
:104700000200AD0B10B50368CB40DB0714D40123C6
:104710008B400268BFF35B8F43EA020150E8004F11
:10472000944204D140E8001CBCF1000FF6D1BFF365
:104730005B8FEED1014810BD0148FCE70000AD0BD6
:104740000400AD0BF7B5044618B1012823D003B01F
:10475000F0BD4FF080430222C3F808230122DA6043
:10476000C3F80401D3F80431064601238DF807305D
:1047700042F210754FF08047D4B1012CE7D1D7F841
:104780000C3403F48033AEBB83B3012002F05CFE33
:10479000013DF4D12AE04FF080430022C3F8080322
:1047A0005860C3F80021D3F800310DF10706DCE7AB
:1047B000D7F8183403F480333EB9002BC7D001205A
:1047C00002F042FE013DF3D1C1E7D7F8182402F010
:1047D00003023260002BBAD09DF80700012803D1F4
:1047E00002F032FE013DC7D1012CB0D1054B0022B1
:1047F0005A71ACE7D7F80C2402F001023270002B9A
:10480000EAD1F3E754230020044B1A7922B901229C
:1048100018609A800248704702487047542300206D
:104820000000AD0B0C00AD0B08B5074B1B682BB19E
:104830000020FEF71FF908B9FEF7FAF84FF08043A1
:104840000022C3F8182508BD5423002038B5B0B1A4
:10485000012855D14FF080420023C2F80031D2F830
:104860000021304A03F18043012119602E4B1B685F
:10487000002B50D04FF08043C3F8040340E04FF0CA
:104880008043D3F81814D3F81824C8032AD502F0AB
:104890000303012B04D013B10020FFF753FF0023C3
:1048A0004FF08042C2F818350023C2F80431D2F824
:1048B00004311E4AD2F8FC0040F08073C2F8FC308C
:1048C0001B4B1C6844F0010119605D685968491B65
:1048D000B1F50A5FFAD31C60C2F8FC000823154A40
:1048E0000220BFE7D3F81424D107D8D5D3F81C246D
:1048F0009207D1D40C4A12681AB10222C3F80423D9
:1049000038BDD3F80421002AFBD00022C3F80421CB
:10491000D3F80431F4E71368002BFCD000231360B4
:104920001368EDE7000100405423002000ED00E093
:10493000001000E00401004010B54FF08043D3F8B0
:1049400000216AB10022C3F80021D3F8002101221E
:10495000C3F80823114B587910B95A711B6898474E
:104960004FF08043D3F8042172B10022C3F8042130
:10497000D3F80421D3F81824D3F81824920704D1CB
:104980000122C3F818259A6010BD0222C3F808233B
:10499000024BBDE810401B6801201847542300203B
:1049A00070B500F108030C4C34F81330DA050546F5
:1049B0000E4607D5C3F3432304EBC30254F8333048
:1049C00052689847A3682BB1E26831462846BDE893
:1049D0007040184770BD00BFCC05002010B4C0B2B5
:1049E000114A083032F81030D9051BD5C3F34321E2
:1049F00023F4F85322F8103002F10E04002034F8AA
:104A0000023F13F4807F03D0C3F34323994209D0BC
:104A100001302028F3D1002342F83130034810BC84
:104A2000FFF770BE10BC7047CC05002024060020A4
:104A3000F0B5054600200446012607468C420BD1FE
:104A4000114BD3F87C2132B10022C3F87C21D3F87A
:104A50007C3140F00040F0BDE3B29B0003F5807272
:104A60009B0806FA03F31D420BD002F1804202F5C7
:104A7000C042D2F800C0BCF1000F02D0176012682B
:104A800018430134DAE700BF00600040C0B2064BB3
:104A9000083033F81000830643BF400B800000F558
:104AA00080704FF4BE707047CC050020CBB2024638
:104AB000083308460C4931F81330990611D5990787
:104AC0000FD410685B0B01219940C0F808131268DD
:104AD00002EB8303D3F8102522F00302C3F810255C
:104AE0007047002102F007BDCC050020F7B5CDB21C
:104AF000174E0835074636F81530DB070C4624D527
:104B0000FFF7D4FF36F815309A0606D55B0B3A68E6
:104B100003F5A273002142F823102046FFF75EFF41
:104B2000002301A826F81530019402F091FC019BA6
:104B300000EB8300074BD0F80027134043F002033B
:104B4000C0F80037044803B0F0BD0448FBE700BFDD
:104B5000CC050020F0F8FCFF0000AD0B0400AD0B0D
:104B60002DE9FF41136807460C461546FBB1CEB24E
:104B7000DFF83C81083638F8162002F02202222A9B
:104B800022D00022CDE900228DF80E208DF80F20D2
:104B90000DF10E010DF10F02204602F063FC38F812
:104BA000163023F0020343F0010328F816306B6837
:104BB0004BB393F800C05A683D4EE3B2083336F861
:104BC0001310880702D5B2B13A481FE021F0200146
:104BD000C904C90C26F813106AB1BCF1030FF3D84D
:104BE0006A68386852681278BCF1000F11D102F57A
:104BF000A27240F822C036F8132022F01C0242EACA
:104C00008C0226F81320AB6843BB2B4804B0BDE8E8
:104C1000F08100EB820041EA4231D0F810E52EF03D
:104C2000030EC0F810E53F6807EB820741F0200152
:104C3000D7F8100526F8131020F4473020F4407000
:104C4000C7F810052002D7F810E500F4F85040EA44
:104C50000C4040EA0E00C7F81005CCE7D3E9006726
:104C60002046FFF7BBFE002ECFD0114DD5E9002323
:104C7000964203D19F4201D1002209E00F480DF175
:104C80000F01FFF71BFD0C4B9842BFD19DF80F2081
:104C900045F83260E4B205EBC20308345F6035F8D2
:104CA000143043EA422343F4807325F81430ACE710
:104CB000CC0500200400AD0B0000AD0B2406002045
:104CC0002DE9FF4107460C461E4612B3CDB2DFF870
:104CD000D080083538F81530980701D4990621D4CA
:104CE00013F01C0F02D05378012B1BD001238DF839
:104CF0000F300023CDE900230DF10F01931C204656
:104D0000013202F0AFFB38F8153043F0030328F806
:104D10001530002E42D0E1B2214D083135F8112076
:104D2000930703D41F4804B0BDE8F08196F800E073
:104D3000D7F800C022F020020EF5A270D2040023A2
:104D4000D20C4CF8203025F8112096F801C0BCF1A7
:104D5000000F23D03868B67800EB8E004FEA0C4C79
:104D6000D0F8103523F4981323F4F853C0F8103515
:104D7000230203F4F8530CF4403C3605D0F81075C8
:104D800043EA0C0306F4801642EA4E32334342F003
:104D900020023B4325F81120C0F810350248C2E735
:104DA000CC0500200400AD0B0000AD0B014BC3E9A6
:104DB00002127047CC050020C9B20831044B33F809
:104DC0001130990643BF5B0B0248137002487047CD
:104DD000CC0500200000AD0B0400AD0B70B5164DE6
:104DE00095F8604006462CBB2146402205F1100094
:104DF00002F001FE30682E6D21468E420ED1002356
:104E0000C0F87C31D0F87C3140F30730FDF710FE5C
:104E100001230A4885F86030AB6570BDCBB29B00BA
:104E200003F580727C2B08BF845001F1010108BF9B
:104E30008358E2E70248F0E7CC0500200000AD0B04
:104E40000C00AD0B034B93F86000003818BF012035
:104E5000704700BFCC0500200148FFF753BC00BFDE
:104E6000200600200148FFF729BC00BF20060020D3
:104E700073B503680C46D3F804130029A4BF4FF0A0
:104E80000041C3F80413E3B21D49083331F813306D
:104E900099061AD513F0020617D15B0B9C00056822
:104EA00004F580716E50695801682144D1F81045AD
:104EB00044F00104C1F810452AB10168012202FA48
:104EC00003F3C1F8043302B070BDC3F38203042BB3
:104ED00012D0052B12D001A8019402F0B9FA019A60
:104EE000D0F81035D34003F00103991C204602B0DE
:104EF000BDE8704002F0FFBA0321F7E70221F5E7B1
:104F0000CC0500202DE9F347544B554FD3F804034B
:104F1000396DC0B240F00040FFF78AFD051E18DA77
:104F20000023F96D0093684602F0F4FA4FF001088F
:104F300097F85C30DA075AD4396D4FF00040FFF72C
:104F400077FDF96D684602F0E5FA0028F0D125F00A
:104F500000450124002D69D102B0BDE8F08794FA24
:104F6000A4F4B4FA84F4E00804F1080304F007029E
:104F700037F813901DF80030019408FA02F223EA82
:104F800002030DF8003001A802F062FA019B03F55C
:104F9000E0734FEA990150F82360C9F3820A4B0786
:104FA000D146C6F3014626D520465146FFF7F8FC08
:104FB00001A8019402F04CFA019B03F5E073F6B2EC
:104FC00050F82330C3F301439E4207D1002120460D
:104FD00002F091FA3146204602F08DFA01A80194C0
:104FE00002F036FA019B08FA03F3C0F82035009C62
:104FF000002CB4D1A0E7022E0CD10321204602F0F0
:105000007AFA0AF00503012BE8D149462046FFF75A
:10501000C7FCE3E70221204602F06DFABAF1030F64
:10502000F3D0032EDAD1BAF1020FEDE795FAA5F32A
:10503000B3FA83F304FA03F29B0003F1804303F510
:10504000C04325EA0205D3F81005D3F81015C0F3C4
:105050000420C1F30141FFF7A3FC7BE7006000409F
:10506000CC05002007B5019001A802F068FA019B69
:1050700000EB8300054BD0F80027134043F00303F7
:10508000C0F8003703B05DF804FB00BFF0F8FCFF88
:1050900073B5CB7B0446002B38D10B7B0878012BF2
:1050A00077D802F063FA0B78019301A802F047FA6F
:1050B000019B00EB83003C4BD0F80027134043F0EA
:1050C0000103C0F800374878FF2804D002F04EFAF8
:1050D0004878FFF7C7FF8B78FF2B0FD001A88D7B97
:1050E000019302F02CFA019B00EB83002E4BD0F8C9
:1050F0000027134043EA8503C0F80037C878FF282B
:1051000004D002F026FAC878FFF7ACFF23792748CD
:10511000CA78282505FB03039A770B7C9BB94B784B
:1051200025680E78FF2B18BF1A468B78C5F80865DE
:1051300008BF4FF0FF32FF2B08BF4FF0FF33C5F819
:105140000C25C5F8103523688A68C3F824254B7BE5
:105150000A7B2568003B18BF0123022A1CD0032AC2
:105160001DD0012A01D143F00203C5F8543523793B
:105170004979282202FB0303D97723795343C35883
:1051800083B1206840F3073002B0BDE87040FDF7FE
:105190004FBC02F0DEF986E743F00403E5E743F095
:1051A0000603E2E702B070BDF0F8FCFF5C230020CC
:1051B00007B5019001A802F0C2F9019B00EB830042
:1051C000054BD0F80027134043F00203C0F8003726
:1051D00003B05DF804FB00BFF0F8FCFF2DE9F041DF
:1051E00090F80480144C4FF0280C0CFB08FC04EBE6
:1051F0000C06074696F81CE0BEF1000F19D144F8E2
:105200000C20736041B1CB7B86F82530CB78B37727
:105210004B79F377FFF73CFF3A6808480123C2F85F
:105220000035282202FB0844002262772377BDE87C
:10523000F0810348FBE700BF5C2300200000AD0BBA
:105240000C00AD0B70B50679194C05682823734323
:10525000E35833B145F30730FDF7F8FB0423C5F8F5
:1052600008330023C5F80035282303FB064393F8D1
:105270002530BBB9D5F80805FFF79AFFD5F810051A
:10528000421C01D0FFF794FFD5F80C05431C01D058
:10529000FFF78EFF282303FB0643987FFF2801D0EA
:1052A000FFF786FF282303FB06440023237770BD06
:1052B0005C2300202DE9F8430779394C28237B43F0
:1052C0009046E2180E46517F8146002966D1E35888
:1052D0000BB10123537796E80F00282505FB0745FE
:1052E00005F10C0C8CE80F00A87F0023FF2885F83F
:1052F000243001D002F03AF92823B8F1000F06D08B
:1053000003FB0743002227485A77BDE8F883D9F802
:10531000005003FB07430422C5F80823C3F820808C
:10532000C5F80881D5F8082172689AB133681B78EE
:10533000C5F81C357368012B0ED933685B78C5F846
:105340001C3528237B43E65876B10423C5F8043383
:105350001548DAE7DB7FEBE7F368012BF1D9282367
:1053600003FB0743DB7FEAE707EB870104EBC1019F
:10537000D5F80831002BFBD0C5F808612846D5F8D0
:10538000083102F000F90028F2D1282303FB07447A
:10539000A07FFF28DCD002F0DCF8D9E70348B4E7AF
:1053A0005C2300200300AD0B0000AD0B0B00AD0B28
:1053B00002494FF0402002F019B900BF5C230020E1
:1053C0000149024802F012B9842300200030024053
:1053D00008B5144BA8220021184602F00CFB03224A
:1053E000026111494261114A8161C2614FF48062D8
:1053F0000262002282624262C26201660C49416618
:105400001021816603460267C2664267BFF35F8F61
:10541000084911F8010D98540132102AF9D1BFF34F
:105420005F8F08BD100400203986000010000020A6
:105430000000002052860000F8B5144B182700FB2E
:1054400007751D4407FB00330E46DB6A012B14462B
:105450000AD0022B14D023B9284602F0E1F8844286
:1054600008D900242046F8BD284602F0D9F8844225
:1054700028BF044622463146284602F0DAF8F1E712
:105480002846BDE8F84002F0F1B800BF1004002043
:10549000F8B50B4B1B7804460D4616460BB9FFF7C3
:1054A00097FFEFF311874FF0200181F31188324607
:1054B00029462046FFF7C0FF87F31188F8BD00BFDB
:1054C0001004002038B5EFF31185202383F31288F0
:1054D000BFF36F8F064B9C6801F0A3FF85F3118823
:1054E000BFF36F8F2046BDE83840FDF729BA00BFF3
:1054F000AC23002038B5094B53F82040013053F855
:105500002050A54200D838BD636823B1204602F080
:10551000F1F80834F5E723689847FAE74C7E000075
:1055200070B52B4B2B4C2C4D012286B003201A70EA
:10553000FFF7E0FFFCF7FAFF02F0F8F80420FFF7AE
:10554000D9FF2646AE4204F1300410D300F01EFB12
:10555000204C224EAC4226D300F02CFBFBF72CFB58
:105560001F4A137B23F00103137306B070BD54F878
:105570000C3C059354F8103C049354F8143C0393EA
:1055800054F8183C029354F81C3C019354F8203C06
:10559000009354E90A2354E90C0100F037F954F858
:1055A000303C5E65CDE7D4E90A23B3F1FF3F08BF85
:1055B000B2F1FF3F05D052EA0301206803D102F0A7
:1055C000C7F83034C6E73146183000F0A7FCF8E7DA
:1055D0001B2D0020207C0000207C00005D78000056
:1055E000F006002008B50348034A0021121A02F011
:1055F00099F808BD50060020202D002070B500232A
:1056000086B00122CDE90423114E124D01930F22E1
:10561000CDE902321049142303FB005506EBC016F6
:105620004FF4A072044602FB00110C4B009530466B
:1056300000F0ECF8737B2C7423F004037373084BB5
:10564000EE60013403EBC4236B6006B070BD00BF95
:1056500070060020AC230020203500202F770000AA
:10566000202D0020BFB50020FFF744FF2C4B83F313
:1056700008882C4D2C4E6B692C4F43F400736B61E2
:105680000024E02385F82230EC772C766C76AC761B
:1056900085F820406B6A43F4E0236B6285F8234071
:1056A000FDF7B8F8FDF764FA4FF0FF33AB62EB6239
:1056B000FDF7F8FAFDF780FA1D4BB36040F20112D6
:1056C0009A81C3E91844DC6602F008F80120FFF76C
:1056D00011FF0220174DFFF70DFF00F08BFA164B5C
:1056E00075610593012315490094CDE903434FF4F7
:1056F00000623B46CDE90144284600F087F86A7B0A
:10570000064622F0040228466A7302F05DF820463D
:10571000FFF774FF3A4631462846FDF709FA00BF05
:105720002035002000ED00E0AC23002021550000D2
:1057300070070020F006002053860000603600202D
:1057400038B50446EFF31185202383F31288BFF3A5
:105750006F8F02F087F848B10022826702F034F8B8
:1057600029460848BDE8384000F0CCB9D4E90232F7
:105770009A4218BF0133A36085F31188BFF36F8F7E
:1057800038BD00BF1C2D002013B5EFF3118120247C
:1057900084F31288BFF36F8F846844B1013C846046
:1057A00081F31188BFF36F8F002002B010BD52EA61
:1057B000030406D181F31188BFF36F8F6FF00F00E0
:1057C000F3E7CDE900230246014800F06FF9ECE76A
:1057D0001C2D002070B50446EFF31185202383F3C0
:1057E0001288BFF36F8F6FF00A06204602F03AF876
:1057F00018B1866701F0E8FFF7E7A0602946024884
:10580000BDE8704000F07EB91C2D00202DE9F0436A
:1058100085B0984600F158030732C0E91633109B53
:10582000037322F0070504230026437301EB0509E7
:105830000F9B83730F46C0E9066649468660C673B0
:105840000446FCF785FE07300E9B20F00700A0669B
:10585000C4E9187502930D9B0193A9EB00090C9BF9
:1058600000934A46434639462046FDF745F9054B25
:1058700066659B6803B1DB6EE366484605B0BDE82C
:10588000F08300BFAC23002038B50D4D2B4653F8F4
:10589000184F9C4200D004B9EC68AB6838B95A7B09
:1058A000D20604D1A26912B9DA897F2A05D89C42AE
:1058B00002D0204600F07AFA23466B6138BD00BF63
:1058C000AC23002008B590F90D20437B002A014647
:1058D00004DA03F07F03437301F03CFF044B986844
:1058E000431A58425841BDE80840FFF7CDBF00BFFA
:1058F000AC23002070B490F90D30427B002B29DBE3
:10590000D30627D183692BBB134962F07F02427310
:105910000A4652F8184F944218BF2346CC6923B95F
:10592000C0E900242060C8610CE090F90E5093F9A2
:105930000E60B5420AD0AE4208DD5A68C0E90032B6
:105940001060586070BC0020FFF79EBF9C42E7D0FB
:105950001B68E4E770BC7047AC2300202DE9F041E0
:10596000002A427B0E460CBF10210821114204463A
:105970000FD141EA0203D20918D1437308291BD081
:105980000120FFF781FFBFF35F8F637B23F060038C
:105990006373274B9B68A34243D1EFF30583002B2E
:1059A0003FD13046BDE8F041FCF7E0BF03F07F0394
:1059B000437301F0CFFEE1E7A36813B1204601F085
:1059C000D1FE04F1180001F08AFFA56D04F158071B
:1059D000AF4211D04FF0000875B1284601F0C2FE69
:1059E00005F1180001F07BFFC5F878802846FFF725
:1059F00081FFA56DAF42EFD10D4DAB689C42BFD189
:105A0000EFF30583002BBBD00120FFF73DFF094BCF
:105A1000AB6040F201129A810022C3E91822DA66D3
:105A2000B1E786F31188BFF36F8FBDE8F08100BF47
:105A3000AC2300207007002070B590F90D20437B47
:105A4000002A014604DA03F07F03437301F082FE6B
:105A50004B7B154A63F07F0310464B7350F8183F99
:105A6000D469834208BF002323B9C1E9000421603F
:105A7000D1610CE091F90E5093F90E60B5420ED051
:105A8000AE420CDD5868C1E9003001605960906891
:105A9000431A5842BDE870405841FFF7F5BE9C429A
:105AA000E3D01B68E0E700BFAC230020F8B5124B41
:105AB0000C461146114A98681060DDE90676EFF34E
:105AC0001182202282F31288BFF36F8F9D682846CF
:105AD00001F052FEB6F1FF3F08BFB7F1FF3F06D01D
